:020000040800F2
:10000000B0050020890100088D0100088F0100085B
:10001000910100089301000895010008000000000C
:100020000000000000000000000000009701000830
:1000300099010008000000009B0100089D010008D4
:100040009F0100089F0100089F0100089F01000810
:100050009F0100089F0100089F0100089F01000800
:100060009F0100089F0100089F0100089F010008F0
:100070009F0100089F0100089F0100089F010008E0
:100080009F0100089F0100089F0100089F010008D0
:100090009F0100089F0100089F0100089F010008C0
:1000A0009F0100089F0100089F0100089F010008B0
:1000B0009F0100089F0100089F0100089F010008A0
:1000C0009F0100089F0100089F0100089F01000890
:1000D0009F0100089F0100089F0100089F01000880
:1000E0009F0100089F0100089F01000800F002F82E
:1000F00000F03CF80AA090E8000C82448344AAF186
:100100000107DA4501D100F031F8AFF2090EBAE883
:100110000F0013F0010F18BFFB1A43F0010318473B
:10012000A8240000C8240000103A24BF78C878C171
:10013000FAD8520724BF30C830C144BF04680C60ED
:10014000704700000023002400250026103A28BF35
:1001500078C1FBD8520728BF30C148BF0B60704739
:100160001FB5AFF300801FBD10B510BD01F0A5FB9A
:100170001146FFF7F5FF00F0C5FB01F0C3FBFFF7E9
:10018000F3FF01F0C9FB000008480047FEE7FEE767
:10019000FEE7FEE7FEE7FEE7FEE7FEE7FEE7FEE737
:1001A00003480449024A044B70470000ED00000870
:1001B000B0030020B0050020B003002000E0401E86
:1001C0000028FCD1704770B50C4606460121FF4D52
:1001D000284601F040FCFE48A91516B101F03DFC8F
:1001E00001E001F038FC0421284601F034FCF94E0E
:1001F00004F47F40C6F8100C4FF47F40A043C6F8CB
:10020000140C0421284601F028FC6420401EFDD176
:100210000421284601F01FFC2006000CC6F8100C33
:10022000E0434FF6FF7101EA0020C6F8140C0421E8
:10023000284601F012FC6420401EFDD12846BDE88E
:100240007040012101F009BC70B5E04D0446012168
:10025000284601F000FCA915DD4801F0FEFB042151
:10026000284601F0F8FBDB4E04F47F40C6F8100C82
:100270004FF47F40A043C6F8140C0421284601F037
:10028000ECFB0520401EFDD10421284601F0E3FBD4
:100290002006000CC6F8100CE0434FF6FF7101EA8F
:1002A0000020C6F8140C0421284601F0D6FB0520D6
:1002B000401EFDD12846BDE87040012101F0CDBBB4
:1002C00010B50C4601460020FFF77DFF2046BDE833
:1002D0001040B9E72DE9F0410E4681B214461F46A1
:1002E0000D464FF40070FFF7EBFFA1B20C4640F251
:1002F0000120FFF7E5FF29464FF40470FFF7E0FF08
:10030000214640F21220FFF7DBFFB1B240F211208C
:10031000FFF7D6FFB9B240F21320FFF7D1FFBDE8D7
:10032000F04140F2022100204DE7002204E00021CC
:10033000491C6429FCDB521C8242F8DB704770B513
:10034000A34D4FF400642146284601F086FB0520AA
:10035000FFF7EBFF2146284601F07DFB0520FFF764
:10036000E4FF2146284601F078FB0520FFF7DDFF7A
:100370000121964801F06FFB00210846FFF7A0FF1E
:100380000520FFF7D2FF00210846FFF799FF05205F
:10039000FFF7CBFF00210846FFF792FF0520FFF78C
:1003A000C4FF00210846FFF78BFF0520FFF7BDFFC4
:1003B0006420FFF7BAFF0020FFF746FF0520FFF794
:1003C000B4FF0020FFF740FF0520FFF7AEFF00203D
:1003D000FFF73AFF0520FFF7A8FF0020FFF734FFE3
:1003E0000520FFF7A2FF6420FFF79FFF4FF4C441F1
:1003F0006010FFF765FF0520FFF797FF40F6080143
:100400000820FFF75DFF0520FFF78FFF40F60C4146
:100410004FF44070FFF754FF0520FFF786FF4FF6BB
:10042000137140F20130FFF74BFF0520FFF77DFF0E
:1004300040F60F7140F20230FFF742FF0520FFF750
:1004400074FF41F20B5140F20330FFF739FF0520F2
:10045000FFF76BFF4FF481514FF44170FFF730FF0E
:100460000520FFF762FF40F60B2140F20530FFF751
:1004700027FF0520FFF759FF032140F20630FFF761
:100480001FFF0520FFF751FF40F6065140F20730ED
:10049000FFF716FF0520FFF748FF40F204514FF425
:1004A0004270FFF70DFF0520FFF73FFF41F23004D8
:1004B000214640F20930FFF703FF0520FFF735FF23
:1004C0001B211020FFF7FCFE0520FFF72EFF40F256
:1004D000011631461120FFF7F3FE0520FFF725FF37
:1004E00000211220FFF7ECFE0520FFF71EFF01217F
:1004F0001320FFF7E5FE0520FFF717FFAD154FF4BA
:100500004C712846FFF7DCFE0520FFF70EFF40F296
:1005100047213046FFF7D4FE0520FFF706FF2901EB
:100520002011FFF7CDFE0520FFF7FFFE4FF43F41FE
:100530004FF42070FFF7C4FE0520FFF7F6FE4DF2E2
:10054000B011A81CFFF7BCFE0520FFF7EEFE4FF42C
:100550007A763046FFF7E9FE29460120FFF7B0FE24
:100560000520FFF7E2FE29460220FFF7A9FE05203D
:10057000FFF7DBFE21460320FFF7A2FE0520FFF771
:10058000D4FE01210920FFF79BFE0520FFF7CDFED9
:1005900000210C20FFF794FE0520FFF7C6FEE901BD
:1005A0009020FFF78DFE0520FFF7BFFE00210F20F2
:1005B000FFF786FE0520FFF7B8FE00214FF4047018
:1005C000FFF77EFE0520FFF7B0FE05E0000C0140BE
:1005D0000008014000000140EF2140F21120FFF728
:1005E0006FFE0520FFF7A1FE002140F21220FFF769
:1005F00067FE0520FFF799FE40F28F1140F21320AD
:10060000FFF75EFE0520FFF790FE00214FF4A0608B
:10061000FFF756FE0520FFF788FE002140F201504B
:10062000FFF74EFE0520FFF780FE5F2140F20250EB
:10063000FFF746FE0520FFF778FE012140F201405A
:10064000FFF73EFE0520FFF770FE002140F2044058
:10065000FFF736FE0520FFF768FE74102046FFF70F
:1006600064FE29460720FFF72BFE0520FFF75DFEFD
:100670003046FFF75AFE00216800FFF721FE0520F3
:10068000FFF753FE002140F20120FFF719FE05207D
:10069000FFF74BFE2046FFF748FE40F20221002004
:1006A000FFF791FD0520FFF740FE2046BDE87040B2
:1006B0003BE62DE9F0410746002240F28F13EF217F
:1006C0001046FFF707FEC34E00254FF4C8780024FC
:1006D00036F81700FFF7B8FD641CF02CF8D36D1C3A
:1006E0004545F4D3BDE8F0812DE9F05F08270A9C69
:1006F00092469B464FF01009E82825DC4FF4C07263
:10070000914221D801F10F03C51D0A462946FFF782
:10071000E1FD203CB049E0B2002601EB001818F8DA
:10072000064000250AE0200601D5504600E0584664
:10073000FFF78AFD6006040E6D1CEDB2BD42F2D3D8
:10074000761CF6B24E45EAD3BDE8F09F2DE9F8439A
:10075000A24E05460F469046994601213046089C18
:1007600001F079F909E000934B46424639462846A4
:10077000FFF7BAFF0835ADB2641C2378002BF2D125
:100780003046BDE8F843012101F067B92DE9FE4F7D
:100790005FEA0208924A9B4692E808146F460D9E53
:1007A00087E808145DF8282003D10F24254620236C
:1007B0000CE0B8F1010F03D117242546482305E0CA
:1007C000B8F1020F03D11F24254680239946761ED7
:1007D00009FB06270B1944190A462146FFF77AFD43
:1007E000002618E017F801ABB8F1000F01D1F007AF
:1007F00001D1082500E00425002409E04AFA04F0AC
:10080000C00701D0584600E00C98FFF71DFD641C9E
:10081000AC42F3DB761C4E45E4DBBDE8FE8F0022E4
:1008200004E00021491C6429FCDB521C8242F8DBF5
:1008300070472DE9F041002240F28F13EF2110465E
:10084000FFF748FD0025674E36274FF4F068C5EBEB
:100850000510644B07EBC0017822A3F14C0000F0B7
:10086000A9FE002404EB4401881982784078D2085C
:10087000920142EA9000715C400140EAD100FFF72A
:10088000E3FC641CE4B2282CECD36D1C4545DED39C
:1008900028E700214FF0006001F0E4B810B501F046
:1008A000F7F84FF48034204601F03AF901F080F96E
:1008B00048490C394870C0B2012822D1102001F0FB
:1008C00037F8022001F040F8002001F01FF9002065
:1008D00001F04AF9A01101F03DF94FF4E011204672
:1008E00001F052F9012001F049F9392001F0EEF848
:1008F0000028FAD0022001F051F901F0FFF8082891
:10090000FBD110BD2DE9F843FFF7C8FFFFF7C1FF8A
:1009100001210D2001F0B0F80121334801F070F8F9
:100920002C4C4FF6FF75241F25801020E0702F4FB0
:100930000326A6702146384601F012F8DFF89C80A5
:100940002146404601F00CF82946384601F087F868
:100950002946404601F083F84FF4004020801420DF
:10096000E070A6702146384600F0FAFFFFF7E7FC7A
:100970000220FFF79EFE8021404601F06EF800F055
:10098000ECF800F017F91A480178201D09B919A3ED
:1009900000E01BA30093C389028805211420FFF700
:1009A000D5FE10490B486C390C38416000210170AC
:1009B00000F013FA0BE00B48224614A14C3800F06B
:1009C000ECFB20B9FFF735FF641CE4B2F3E7002429
:1009D000F1E700000C000020BC1F0008000C0140E3
:1009E000BC250008A80000200004300000080140D9
:1009F0001C000020534420535543434553530000EB
:100A00005344204641494C55524500005C2A2E6211
:100A10006D700000401EFDD270470020401C80B267
:100A20000A28FBD3704700B5FFF7F7FFFFF7F5FF84
:100A3000FFF7F3FF5DF804EBEFE710B5AE4C4FF4B2
:100A40008041204601F009F84FF40041204601F0B2
:100A500004F8A1142046BDE8104000F0FEBF2DE9C7
:100A6000F047A54FA54E054600244FF400594FF41A
:100A7000804828064946384602D500F0EEFF01E0DE
:100A800000F0E9FF4146384600F0E5FF307808B154
:100A9000FFF7C9FF4146384600F0DFFF307808B164
:100AA000FFF7C1FF6806641C050EE4B2082CE0D312
:100AB000BDE8F0872DE9F047DFF83C924FF400479E
:100AC00000253946484600F0C8FF8C4EBA4600243F
:100AD0004FF480484F464146384600F0BCFF30781E
:100AE00008B1FFF7A0FF4146384600F0B6FF307866
:100AF00008B1FFF798FF5146384600F0A5FF641C87
:100B000040EA4500E4B2C5B2082CE4D32846CFE75A
:100B100070B5794E05464FF480542146304600F0BA
:100B20009CFFFF20FFF79BFF2146304600F093FF1C
:100B3000002415F8010BFFF792FF641CE4B2062CA9
:100B4000F7D30024FFF7B6FFFFF7B4FF641CE4B24D
:100B5000FF2801D1642CF7D370BD7CB568A003C811
:100B6000654ECDE900014FF480552946304600F02E
:100B700074FF0120614900240870FF20FFF76FFF18
:100B8000641CE4B20F2CF8D32946304600F063FF12
:100B900000246846FFF7BCFF641CE4B2C82C01D3F4
:100BA00001207CBD0128F4D12946304600F055FFD4
:100BB00000207CBD7CB554A003C84F4ECDE9000198
:100BC0004FF480552946304600F045FF0024684622
:100BD000FFF79EFF641CE4B2C82C01D102207CBD4B
:100BE0000028F4D1454908702946304600F035FF09
:100BF000FF20FFF734FF00207CBD2DE9F0410746C0
:100C00000D46164600243846FFF782FF641C642C0C
:100C100002D10420BDE8F0810028F4D1FFF74AFF9B
:100C2000FE28FBD1002404E0FFF744FF05F8010B88
:100C3000641CB442F8D3FFF73DFFFFF73BFF4FF4CE
:100C400080512D4800F009FF0020E3E72B4A49239B
:100C5000521C1370FF230146537128481022401C78
:100C6000CBE7264A4A23521C1370FF2301465371D7
:100C700022481022401CC0E72DE9FC410D4624A16A
:100C800006C94002CDE90012010E8DF80110010CD9
:100C90008DF80210000ADFF860808DF803004FF431
:100CA00080563146404600F0D6FE00246846FFF7E5
:100CB0002FFF641CE4B2C82C02D10420BDE8FC81E3
:100CC0000028F3D1FFF7F6FEFE28FBD100244FF4F5
:100CD0000077FFF7EFFE2855641CBC42F9D3FFF7FD
:100CE000E9FEFFF7E7FE3146404600F0B6FEFF2082
:100CF000FFF7B5FE0020E1E7000801401C000020DE
:100D000040000000009500004100000000FF0000CE
:100D10005100000000FF0000FF4A1378FF4A0BB9A2
:100D2000FF4B936092681047FC4AD268104730B579
:100D3000044600200123024605E0A55C05FB0300F4
:100D40001B02521CD2B28A42F7D330BDA0F161011E
:100D5000192901D82038C0B2704710B5F1490020D8
:100D6000FFF7DAFFEF480078EB2801D0012010BD33
:100D7000002010BD10B5EB490020FFF7CDFFE9487A
:100D80000078EB2804D0BDE810400421E648CEE707
:100D9000002010BD10B5E54CE24920684078FFF70F
:100DA000BBFF2068DF494078FFF7B6FFDD4804212C
:100DB0002030FFF7BCFF2168C968484310BD10B55B
:100DC000DA48D84900684078401CFFF7A5FFD648AC
:100DD0000421BDE810402630A9E770B5D34DCE48B8
:100DE00029680078CF4C0870FFF7C4FF2968487065
:100DF000FFF7C0FF29684870FFF7CCFF29684860FB
:100E0000FFF7C8FF29684860042104F12400FFF7B8
:100E10008EFF29680861042104F12C00FFF787FF89
:100E200029688860022104F10B00FFF780FF296820
:100E3000C860012104F10D00FFF779FF29684861BE
:100E4000022104F10E00FFF772FF29684A7802447C
:100E50008A61207C0B6900FB0320C861FFF7AFFFAC
:100E6000AE49486070BD10B5B04CAE4920684078BE
:100E7000401CFFF751FFAB4890F8E811FF290ED155
:100E800090F8E911FF290AD190F8EA11FF2906D15B
:100E900090F8EB01FF2802D12068406810BDA248FD
:100EA00004212230FFF743FF21684A69C9684A4399
:100EB000504310BD38B59D4D044628689949407887
:100EC000401CFFF729FFFFF7CEFF2968CB684A696E
:100ED0005A43B0FBF2F000900CB1401C00E0401E01
:100EE000009091489DF80320223002709DF8022066
:100EF00042709DF8012082709DF80020C2704878F1
:100F0000BDE83840401C87490EE731B5874C85491C
:100F100020684078401CFFF7FFFE83489DF80310CF
:100F2000263001709DF8021041709DF8011081700B
:100F30009DF80010C17020687A494078BDE83840BB
:100F4000401CF1E610B5044678487649006880698F
:100F500000EBD410FFF7E0FE04F07F017148BDE81C
:100F6000104000EB81000421E1E610B50022835C13
:100F70008C5CA34201D0002010BD521CD2B2082AC2
:100F8000F5D3012010BD2DE9F041044601250E46A0
:100F900008462F46217899B12A2905D03F2913D038
:100FA0000278914210D00DE014F8011F00F034FCDB
:100FB00060B9304600E0401C01780029FBD105E013
:100FC000007828B1002503E0641C401C002FE1D10B
:100FD000E8B2BDE8F08130B504460D460723E05C79
:100FE000202803D15B1E13F0FF03F8D100229B1CC5
:100FF00005E0A05CFFF7AAFEA854521CD2B29A42A8
:10100000F7D32E20A854521CD0B20A21625C491E8C
:10101000C9B2202AFAD00144891FCAB2002106E0D1
:1010200063181B7A491C2B54401CC9B2C0B29042B1
:10103000F6D30021295430BD10B5044600F01BFC46
:10104000C3B2002205E0A05CFFF780FEA054521C52
:10105000D2B29A42F7D310BD2DE9F14F86B00120EC
:10106000DFF8C8800590D8F800000025D0F808A067
:101070000698AB464078002871D1069800785C2825
:101080007CD1504607B0BDE8F08F5C286CD12021A0
:10109000684602E041556D1CEDB2082DFAD30021DF
:1010A00041550D46D8F800008368C2694069AAEB33
:1010B000030303FB00294E462AE01A493046FFF796
:1010C0002BFE0024DFF85CC01CE00CEB0407694633
:1010D0003846FFF74AFFA0B14FF0010B022107F19C
:1010E0001A00FFF724FE0446022107F11400FFF75F
:1010F0001EFE04EB004AD8F80000C468406900EB0B
:1011000009062034D8F80000C068A042DDD8761C5B
:10111000D8F8000040690BE0000000202400002007
:10112000790C00084B01002011030020040000206E
:101130004844B042C1D85446BBF1000F11D15046CB
:10114000FFF700FF6FF0704182468842AAD1F9484C
:1011500069460460F84800F069FB002092E70DE062
:1011600002E04FF0000B05E0FFF7F0FD0DF8050081
:101170006D1CEDB20598401CC0B20590DDE905106C
:10118000405C002881D10DF80500EA49EA48C1F821
:1011900000A0694600F04AFB73E72DE9F74F0446CB
:1011A00088B008464FF0000AFFF756FF0790002866
:1011B0007ED0E148FFF740FFE049079D086883685B
:1011C000C2694069EB1A03FB0027B94614E1DA490A
:1011D00048460D31FFF7A0FD002605E1D64802A9DB
:1011E0000D3085192846FFF7F6FE02AB00934FF647
:1011F0001F0340F2FF724FF4A5713220FFF7A6FAE9
:101200004FF47A7BB6FBFBF08046C0B240F030036F
:1012100000934FF61F0340F2FF724FF4B471322077
:10122000FFF762FA0BFB18614FF06408B1FBF8F0AE
:10123000C0B240F0300300934FF61F0340F2FF723C
:101240004FF4B4713A20FFF74FFAB6FBF8F108FB00
:1012500011604FF00A08B0FBF8F040F03003009343
:101260004FF61F0340F2FF724FF4B4714220FFF7B4
:101270003BFAB6FBF8F108FB116040F03003009335
:101280004FF61F0340F2FF724FF4B4714A20FFF78C
:101290002BFA02A9A848FFF776FE00287DD028780F
:1012A000E528FBD0E87A800677D50A99514500E019
:1012B000B9E073D10120069005F11A0002218046A1
:1012C000FFF735FD074605F1140002218346FFF7BD
:1012D0002EFD07EB00400790042105F11C00FFF7ED
:1012E00026FD606102A9204600F0A0FA02214046D6
:1012F000FFF71DFD074602215846FFF718FD07EBD3
:10130000004144F80C1FDFF834C26160DCF80000D3
:101310008268891A4269C06901FB0200E06000200E
:101320002061C4E90509203444F8046CE87A20708F
:10133000022105F10E00FFF7FAFCC106890EE170EB
:10134000C0F34511A170C0F3C4206070022105F103
:101350001000FFF7ECFC00F01F016172C0F34311B5
:101360002172C0F3462000F2BC706060022105F1DA
:101370001600FFF7DCFCC106890EA173C0F345110E
:101380006173C0F3C4202073022105F11800FFF738
:10139000CEFC00F01F01617501E024E021E0C0F304
:1013A00043112175C0F3462000F2BC702061022178
:1013B00005F11200FFF7BBFC074600F01F00607745
:1013C000C7F343102077C7F34620103C00F2BC70EF
:1013D000A062DCF800001C3C4169C66801EB07090B
:1013E00001E00AF1010A203654480068C068B042A2
:1013F0003FF6F4AE09F10109504D286840693844C0
:1014000048453FF6E4AE069858B90798FFF79AFDAD
:101410006FF07041079088427FF4CEAE01200BB090
:1014200031E60020FBE70220F9E72DE9F05F0446F2
:1014300040690D4688420FD3DFF80081206AD8F852
:1014400000104FF0000CA84207D1E069C968B0FB5A
:10145000F1F201FB1200E06183E00CD9E068206149
:101460008A68CB69A0EB02004A6900FB0230C4E93C
:10147000060CC4F820C0CF68E369206AFA1A2E1A55
:10148000B2425DD8104420620020E06120698A6881
:10149000831A4A69C96903FB0213A169521ECB1A58
:1014A00093420CD1FFF74EFD2061D8F800108A68F6
:1014B000801A4A69C96900FB0210A06101E0491C59
:1014C000A161D8F800C02069DCF808108246401AF3
:1014D000DCF81420DCF81C10C34600FB0213206A61
:1014E000DCF80CE08146281A8046B0FBFEF0A169CA
:1014F000571ECB1AC618BE4229D9D01A00FB0E902F
:1015000020625E465046FFF71DFD20613168B046FF
:101510008A68CB69801A4A6900FB0230A06100200A
:10152000E061C86849694843216A691AB1FBF0F76C
:1015300000261EE0240000203E01002004000020C0
:101540005919081AB0FBF7F107FB110007E008442E
:10155000A061DCF80C10B8FBF1F201FB1280C4E9C9
:1015600007050120BDE8F09F2069FFF7EBFC761C22
:101570002061BE42F8D3D8F800004269C1685143E7
:10158000226A07FB01212162691AC2682369866801
:10159000B1FBF2F29B1BC769466903FB06731A4451
:1015A000A261C068B1FBF0F200FB1210C4E90705AC
:1015B0000020D7E72DE9F84F04464069002516467C
:1015C0001F46884272D98A19824200D9461A20469B
:1015D000FFF72BFF8E49A069FFF79EFBDFF830B2C3
:1015E0008C49E0690CE0B5427ED21BF800207A55A8
:1015F000E2696D1C521CE261226A521C401C22628C
:101600000A68D2688242EED80868894622698168F1
:10161000521A4169C06902FB0102A069491E821A7F
:101620008A4229D000F10108D9F8000021698268B6
:101630008A1A4169C06902FB0100084440451BD970
:1016400073494046FFF768FB00205B464A46C4F8F2
:1016500018800BE0B542C7D2195C7955E1696D1C61
:10166000491CE161216A491C401C21621168C9685A
:101670008142EFD84046D5E7D9F80000CA46C26893
:1016800040694FF000094243701BB0FBF2F000903C
:1016900042E02069FFF756FC2061DAF800108B6801
:1016A000C01A4B69C96900FB031827E0A3E0584939
:1016B0004046FFF731FB0020D446C4F8188016E0FE
:1016C000B54291D21BF800107955216A6D1C491C56
:1016D0002162E169491CE161DCF80020D268B1FBBC
:1016E000F2F302FB131100E084E0401CE161DCF83E
:1016F0000010C9688142E3D808F10108DAF8000057
:10170000216982688A1A4169C06902FB01000844A4
:101710004045CCD809F1010900998945B9D3206920
:10172000FFF710FC2061DAF800E0711BDEF80C20F6
:10173000DEF81CC0B1FBF2F1DEF80820DEF8143050
:10174000821A02FB03C201EB0209A261DEF8081053
:10175000DEF81C20401ADEF8141000FB012024E003
:101760002B494046FFF7D8FA0020D446C4F8188029
:1017700014E0B54240D21BF800107955E1696D1CA8
:10178000491CE161DCF80020D268B1FBF2F302FBF6
:101790001311E161216A491C401C2162DCF8001030
:1017A000C9688142E5D808F1010080464845D7D391
:1017B00040461749C4F81880FFF7AEFAA6EB050CAF
:1017C0000020D64614E0B54216D21BF80010795519
:1017D000E1696D1C491CE161DEF80020D268B1FBB3
:1017E000F2F302FB1311E161216A491C401C2162E2
:1017F0006045E8D300E000263046BDE8F88F0021C0
:101800000A464254491C4C29FBD300207047000073
:101810004B01002004000020401ECAB210F8011F36
:101820008A4202D00029F9D10020704740EA010322
:10183000024630B59B0710D14FF0013400E008C2DA
:1018400008C91D1B9D4315EAC41FF8D013F0FF0102
:1018500002F8011B0ED01B0AF8E711F8014B02F841
:10186000014B002C134605D011F8014B5A1C002CDB
:101870001C70F2D130BD10B5431C04E010F8011B00
:1018800009B9C01A10BD8107F8D14FF0013202C862
:101890008C1A8C4314EAC211F9D0C01A0A0601D07E
:1018A000C01E10BD0A0401D0801E10BD0902FCD06C
:1018B000401E10BD704770477047754600F028F80D
:1018C000AE4605006946534620F00700854618B02D
:1018D00020B5FEF765FCBDE820404FF000064FF054
:1018E00000074FF000084FF0000B21F00701AC4655
:1018F000ACE8C009ACE8C009ACE8C009ACE8C00974
:101900008D4670470446AFF300802046FEF737FC53
:10191000004870474C03002003494FF01800ABBE4D
:101920007047000009000000260002007047000018
:1019300004490A6822F010020A600A6802430A6039
:10194000704700000020024004490A6802F0380293
:101950000A600A6802430A607047000000200240E3
:10196000F0B5CB780022DC0603F00F0301D58C78AC
:1019700023430C880F2714F0FF0F4FF0010C1CD0ED
:10198000D0F800500E880CFA02F42640A64210D17E
:10199000960007FA06FE25EA0E0E03FA06F5CE7843
:1019A00045EA0E05282E00D14461CE78482E00D19C
:1019B0000461521C082AE5D305600A88FF2A1ED953
:1019C0004568002202F108060CFA06F40E8826404B
:1019D000A64210D1960007FA06FE25EA0E0E03FA7B
:1019E00006F5CE7845EA0E05282E00D14461CE7862
:1019F000482E00D10461521C082AE3D34560F0BD93
:101A0000F0B5104D6B68440D260184B2C0F3015748
:101A1000B440C0F30342032F06D1686823F070621C
:101A200020F07060686008E0C00203D50320904099
:101A3000834300E0A34343F0706201B122436A6034
:101A4000F0BD0000000001400246926800200A42FA
:101A500000D0012070474161704701617047C1604B
:101A600070470000024A114001430248016070477C
:101A700080FFFF1F08ED00E0044A0029916901D0B2
:101A8000014300E081439161704700000010024073
:101A90000B48016841F0010101604168094A1140A9
:101AA00041600168084A11400160016821F4802109
:101AB00001604268002122F4FE02426081607047AA
:101AC000001002400000FFF8FFFFF6FE0346002072
:101AD0005909094A012901D1116804E0022901D1FB
:101AE000116A00E0516A03F01F02012393400B4288
:101AF00000D00120704700000010024002484068FA
:101B000000F00C007047000000100240034A5168CA
:101B100021F0F001014351607047000000100240C5
:101B20000B490A6822F480320A600A68B0F5803FE7
:101B300022F480220A6007D0B0F5802F03D1086814
:101B400040F4A02008607047086840F48030F9E74E
:101B500000100240034A516821F4E06101435160E2
:101B60007047000000100240034A516821F46051A0
:101B700041EAC00050607047001002400149086609
:101B80007047000000004242034B5A68084322F4A9
:101B90007C1210435860704700100240034A51689D
:101BA00021F0030101435160704700000010024022
:101BB00030B50B4C40F2FF153120FFF787FF207046
:101BC0006068401C6060207810B96068A842F3D15A
:101BD0003120FFF77BFF002800D0012030BD00003E
:101BE000340000200000000000000000000E700023
:101BF000001C70000078380000701C0400300C0ECF
:101C0000F0FFFF1F00300C0120300C07E0308C0784
:101C1000C0318C038033CC018033EC0000336C186E
:101C200000303C3CFEFFFF7F000000000003C000CE
:101C300000FFFF010003C0010003C0000003C0005B
:101C40000003C00000FFFF000003C0000003C0004D
:101C50000003C00000FFFF0000FFFF000003C00002
:101C60000001000000000000000000000000000073
:101C700000C0010000C0010000C0010000C0010060
:101C800000C0010000C0010430C0010EF0FFFF0FD2
:101C900030C0010E30C0010E30C0010E30C0010E48
:101CA00030C0010E30C0010E30C0010E30C0010E38
:101CB000F0FFFF0F30C0010E30C0010600C0010070
:101CC00000C0010000C0010000C0010000C0010010
:101CD00000C0010000C0010000C0010000C0010000
:101CE00000C0010000000000000000000000000033
:101CF0000000000000100007003C0007803F0003C8
:101D0000FC0700030C03060300030E0300031C037F
:101D100000031C0300231803FC7F0003FCFF0003E7
:101D2000800301038003070380070E03C01F0E0317
:101D3000C07B0C13E0730C7B7073007F3023F807BB
:101D400038C33F031CE301030C0300030603000335
:101D5000000300030003000300030003000300036B
:101D60000003000300030003000000010000000066
:101D700000000000000000008003300080037000BD
:101D8000800130008001300080013000800130008F
:101D900080193018FCFFFF3F8401300080013000C3
:101DA00080013000800130008031300680DFFF0F7D
:101DB000C007010EF8010307FE0103079C0186031B
:101DC000800186038001CC018001CC018001F800F4
:101DD00080017800800178008001FE019C01CF071E
:101DE000FCC1837FE0F1007EC03E001C00000000CB
:101DF00000000000000000000000000910E0FB3FB0
:101E00005C1010401010401010401010401310FCD7
:101E1000FC1F600800E0003070F90F500301500211
:101E20000148000148001144F00F42000140000148
:101E300060002160FE7F60000000000000000000E4
:101E40000400001800001010F0FF3F100000100008
:101E50000090FF0F10000610880110700010600045
:101E600010203090FF7F1060181860040860000890
:101E70006000086000046000046000023C00003064
:101E800000000000000000000000880010907F109B
:101E9000B04110A04112804512824D12CC4D12C8A3
:101EA0004D12A84D12A04D12A04D12A04D129045FA
:101EB000129045129E0512180412181A10182210BA
:101EC00018611098401E400018000000000000003B
:101ED000000000000108000F100019300011200060
:101EE0002100FF7F0000010000012000013EC00131
:101EF000203E012010032010022010022010062096
:101F0000134420D12CA03C2860073820007000002A
:101F100060000000000000000000000C0000040051
:101F200000040000040C00FC030004000004000096
:101F30000400000430FCFF0F000C00000400007CD3
:101F40000000840300040700040C000408000400DF
:101F5000000400000400000C00000000EC03270255
:101F60002402EF030400F6078E00E50385008400D9
:101F7000F40700002000FE070200FA01A200420060
:101F8000FE074202420041007100000079044A0449
:101F9000480569056A056A056A056B05220552044C
:101FA0008E06000001030205FA0700010301F20199
:101FB00022012201EA0536060204000000000000AA
:101FC0000000000000000000000000000000183CBD
:101FD0003C3C1818180018180000000000636363E8
:101FE0002200000000000000000000000000003699
:101FF000367F3636367F3636000000000C0C3E63E6
:1020000061603E030343633E0C0C000000000000CF
:10201000006163060C183363000000000000001C20
:1020200036361C3B6E66663B0000000000303030E8
:1020300060000000000000000000000000000C181C
:10204000183030303018180C000000000000180C58
:102050000C060606060C0C1800000000000000002C
:1020600042663CFF3C6642000000000000000000A9
:10207000181818FF181818000000000000000000D1
:1020800000000000000018181830000000000000D8
:10209000000000FF00000000000000000000000041
:1020A00000000000000018180000000000000103FC
:1020B000070E1C3870E0C0800000000000003E6386
:1020C00063636B6B6363633E0000000000000C1CE5
:1020D0003C0C0C0C0C0C0C3F0000000000003E639C
:1020E00003060C183061637F0000000000003E63AF
:1020F00003031E030303633E000000000000060EFE
:102100001E3666667F06060F0000000000007F6036
:1021100060607E030363733E0000000000001C301B
:1021200060607E636363633E0000000000007F63C5
:102130000306060C0C1818180000000000003E638F
:1021400063633E636363633E0000000000003E6320
:102150006363633F0303063C0000000000000000CF
:10216000001818000000181800000000000000000F
:1021700000181800000018181830000000000006B1
:102180000C18306030180C06000000000000000041
:1021900000007E00007E00000000000000000060E3
:1021A00030180C060C1830600000000000003E6380
:1021B00063060C0C0C000C0C0000000000003E63D9
:1021C000636F6B6B6E60603E000000000000081CD7
:1021D000366363637F6363630000000000007E3347
:1021E00033333E333333337E0000000000001E33B0
:1021F000616060606061331E0000000000007C369A
:10220000333333333333367C0000000000007F3338
:1022100031343C343031337F0000000000007F3324
:1022200031343C34303030780000000000001E3380
:102230006160606F6363371D00000000000063632E
:1022400063637F63636363630000000000003C1806
:10225000181818181818183C0000000000000F0685
:10226000060606060666663C0000000000007333A2
:1022700036363C36363333730000000000007830C9
:10228000303030303031337F0000000000006377A1
:102290007F6B63636363636300000000000063633C
:1022A000737B7F6F676363630000000000001C3670
:1022B000636363636363361C0000000000007E33C9
:1022C00033333E30303030780000000000003E6391
:1022D00063636363636B6F3E0607000000007E3339
:1022E00033333E36363333730000000000003E6364
:1022F00063301C060363633E000000000000FFDB48
:10230000991818181818183C0000000000006363A2
:10231000636363636363633E000000000000636304
:102320006363636363361C0800000000000063639E
:102330006363636B6B7F3636000000000000C3C32D
:10234000663C18183C66C3C3000000000000C3C30D
:10235000C3663C181818183C0000000000007F639A
:1023600043060C183061637F0000000000003C3021
:10237000303030303030303C00000000000080C091
:10238000E070381C0E0703010000000000003C0C48
:102390000C0C0C0C0C0C0C3C00000000081C3663F0
:1023A000000000000000000000000000000000002D
:1023B0000000000000000000FF00000018180C00E2
:1023C000000000000000000000000000000000000D
:1023D000003C46063E66663B000000000000703090
:1023E000303C36333333336E000000000000000011
:1023F000003E63606060633E0000000000000E0667
:10240000061E36666666663B00000000000000009F
:10241000003E63637E60633E0000000000001C36E7
:1024200032307C3030303078000000000000000096
:10243000003B666666663E06663C00000000703043
:1024400030363B33333333730000000000000C0C94
:10245000001C0C0C0C0C0C1E0000000000000606FA
:10246000000E060606060666663C00000000703098
:10247000303333363C3633730000000000001C0C50
:102480000C0C0C0C0C0C0C1E0000000000000000DA
:10249000006E7F6B6B6B6B6B000000000000000038
:1024A000006E33333333333300000000000000008C
:1024B000003E63636363633E0000000000000000B1
:1024C000006E333333333E303078000000000000BC
:1024D000003B666666663E06060F000000000000D0
:1024E000006E3B3330303078000000000000000008
:1024F000003E63380E03633E000000000000081831
:10250000187E181818181B0E0000000000000000AC
:10251000006666666666663B00000000000000001C
:1025200000636336361C1C08000000000000000039
:10253000006363636B6B7F360000000000000000E7
:102540000063361C1C1C3663000000000000000005
:102550000063636363633F03063C00000000000008
:10256000007F660C1830637F0000000000000E182A
:10257000181870181818180E00000000000018181D
:102580001818180018181818180000000000701803
:1025900018180E18181818700000000000003B6E84
:1025A0000000000000000000000000000070D8D80B
:1025B0007000000000000000000000005C1F000828
:1025C000F41D0008E41B0008E825000800000020B6
:1025D0003C00000028010008242600083C000020E0
:1025E0007405000044010008000000000000000025
:1025F0000000000000F8E0071F00E0FF0000FF07F8
:102600001FF8FFFF004000000000950000000000E0
:1026100000000000000000000000000000000000BA
:0426200000000000B6
:04000005080000ED02
:00000001FF
