:020000040800F2
:1000000090060020E1370008B1030008B3030008A0
:10001000B5030008B7030008B9030008000000009A
:10002000000000000000000000000000BB0300080A
:10003000BD03000800000000BF030008C103000862
:10004000FB370008FB370008FB370008FB370008C8
:10005000FB370008FB370008FB370008FB370008B8
:10006000FB370008FB370008FB370008FB370008A8
:10007000FB370008FB370008FB370008FB37000898
:10008000FB370008FB370008FB370008FB37000888
:10009000FB370008FB370008FB370008FB37000878
:1000A000FB370008FB370008FB370008FB37000868
:1000B000FB370008FB370008FB370008FB37000858
:1000C000FB370008FB370008FB370008FB37000848
:1000D000FB370008C3030008FB370008FB370008A4
:1000E000FB370008FB370008FB370008FB37000828
:1000F000FB370008FB370008FB370008FB37000818
:10010000FB370008FB370008FB370008FB37000807
:10011000FB370008FB370008FB370008FB370008F7
:10012000FB370008FB370008FB370008FB370008E7
:10013000FB370008FB370008FB370008FB370008D7
:10014000FB370008FB370008FB370008FB370008C7
:10015000FB370008FB370008FB370008FB370008B7
:10016000FB370008FB370008FB370008FB370008A7
:10017000FB370008FB370008C5030008FB37000801
:10018000FB37000800F002F800F03FF80AA090E802
:10019000000C82448344AAF10107DA4501D100F042
:1001A00034F8AFF2090EBAE80F0013F0010F18BFD0
:1001B000FB1A43F001031847E856000008570000F7
:1001C000103A24BF78C878C1FAD8520724BF30C883
:1001D00030C144BF04680C60704700000023002455
:1001E00000250026103A28BF78C1FBD8520728BF47
:1001F00030C148BF0B607047782904F0D9860020D1
:1002000070471FB51FBD10B510BD05F005F81146AC
:10021000FFF7F7FF00F008F805F023F803B4FFF745
:10022000F2FF03BC03F0C7FA1CB503F067FA00F055
:10023000E2FA4FF47844204601F038FE4FF6FF759D
:100240002B4624A246213220009401F040FF25A035
:1002500004F06EFE33A004F06BFE02F026FD0028D1
:1002600030D034A004F064FE2B4638A200945A210A
:10027000322001F02CFF01A803F0F6F99DF80600EA
:1002800000909DF807309DF805209DF8041034A0DB
:1002900004F04EFE46F26801112004F0EDFF00214B
:1002A000084601F0D3FD4FF0DE41222008800121F5
:1002B000334804F0BEFC012003F0E4FF012003F00A
:1002C000ECFFFEE72FA004F033FE2B4633A2009490
:1002D000CDE7000043616D65726120496E69742E3F
:1002E0002E0000000D0A0D0A57656C636F6D6520C6
:1002F000746F205761766553686172652053544D61
:100300003332463220736572696573204D43552040
:10031000426F617264204F70656E323037490D0A4A
:10032000000000004F563936353520496E69742E6D
:100330002E0D0A004F563936353520496E69742026
:100340006661696C7321210D0A0000004F56393631
:10035000353520496E6974206661696C732121000E
:100360004F56393635352049443A30782578203093
:10037000782578203078257820307825780D0A0087
:100380002864024043616D65726120486176652092
:10039000496E69742E2E0D0A0000000043616D65E0
:1003A0007261204861766520496E69742E2E0000C6
:1003B0007047FEE7FEE7FEE7FEE7704770477047CD
:1003C0007047704710B5082003F094FF50B100212A
:1003D000084601F03BFD4FF0DE4122200880082056
:1003E00003F090FF102003F085FF10B1102003F000
:1003F00089FF012003F07EFF10B1012003F082FF8E
:10040000042003F077FF002804D0BDE8104004204A
:1004100003F078BF10BD000070B586B00121022046
:1004200003F00FFE0121880503F029FE924E0422FD
:100430000B21304603F020FB04220A21304603F052
:100440001BFB02208DF8040001208DF806008DF8BA
:1004500005003515002400958DF8074069463046A3
:1004600003F096FA680000906946304603F090FA6F
:10047000824E304603F04CFFADF80C404BF6FF7057
:10048000ADF80E00FE20ADF810002801ADF8140004
:100490007B480290ADF812500121304603F0B8FFBE
:1004A00002A9304603F050FF0121304603F0D6FF89
:1004B00006B070BD2DE9F047724D8146924628681E
:1004C0000E466E4F0121384603F0ACFF2C68DFF872
:1004D000B88101E0641E3BD34146384604F06BF816
:1004E0000028F7D000224946384603F0AFFF2C68B9
:1004F000DFF8988101E0641E2AD34146384604F0B3
:100500005AF80028F7D0F1B2384604F00CF82C68FD
:100510005E4EB61C01E0641E1AD33146384604F024
:100520004AF80028F7D05146384603F0FCFF2C6803
:1005300001E0641E0CD33146384604F03CF8002834
:10054000F7D00121384603F077FF0020BDE8F0879F
:10055000FF20FBE72DE9F74F4A4F9246894638685E
:10056000464E1436308840F480603080DFF80C81CD
:100570000121404603F056FF3C68434D01E0641EF4
:1005800078D32946404604F016F80028F7D0002218
:100590004046009903F05AFF3C68DFF8F0B001E0F4
:1005A000641E67D35946404604F005F80028F7D08A
:1005B00009F0FF01404603F0B6FF3C68DFF8CC903D
:1005C00009F1020901E0641E54D34946404603F094
:1005D000F2FF0028F7D0308840F48060308001219D
:1005E0004446404603F028FF0121204603F01AFF4D
:1005F000B8463F6801E07F1E3CD32946204603F001
:10060000DAFF0028F7D0012227462046009903F0A0
:100610001DFFD8F800404546DFF86C8008F101085E
:1006200001E0641E26D34146384603F0C4FF00288B
:10063000F7D00021384603F011FF2C68124D3F35EA
:1006400001E0641E16D32946384603F0B4FF0028A3
:10065000F7D00121384603F0EFFE384603F065FF7E
:100660008AF80000308840F4806030800020BDE8C7
:10067000FE8FFFE7FF20FAE7000402400058004029
:10068000A086010000000020010003008200070096
:10069000034A02EB0111A1F50071102204F0B6BC6F
:1006A000885200081CB50121582003F0CAFC012122
:1006B000084603F0DAFCFF4C0C220021204603F030
:1006C000DBF90C220121204603F0D6F90C2204218B
:1006D000204603F0D1F90C220521204603F0CCF985
:1006E0000C220821204603F0C7F90C2209212046DC
:1006F00003F0C2F90C220A21204603F0BDF90C22B6
:100700000E21204603F0B8F90C220F21204603F0F9
:10071000B3F902208DF804004CF2337103200091EC
:100720008DF8050000218DF806108DF80710694638
:10073000204603F02DF9E04C0C220221204603F064
:100740009BF90C220721204603F096F90C22082180
:10075000204603F091F90C220921204603F08CF980
:100760000C220A21204603F087F90C220B21204697
:1007700003F082F90C221146204603F07DF90C2289
:100780000D21204603F078F90C220E21204603F0BB
:1007900073F90C220F21204603F06EF94FF6847195
:1007A00000916946204603F0F3F8C44C0C22052161
:1007B000204603F061F90C221146204603F05CF953
:1007C0000C220D21204603F057F943F2200100913D
:1007D0006946204603F0DCF81CBD002240F2754358
:1007E00006E00021491C89B29942FBD3521C92B207
:1007F0008242F6D370472DE9F05FB14CFFF752FF0C
:10080000641EFDD201F086FC4FF0DE42AD490020AF
:100810001080AD4B18884880A0F513474FF48074C2
:1008200040F2272840F2077540F23F164FF4887BCC
:10083000253F01D0FF1E7CD1012008701021E72048
:1008400004F01AFD0121002004F016FD21460120CC
:1008500004F012FD4FF4E061022004F00DFD41F2BE
:100860003001032004F008FD0021042004F004FD01
:1008700040F20721082004F0FFFC0021092004F0C9
:10088000FBFC00210A2004F0F7FC01210C2004F0FD
:10089000F3FC00210D2004F0EFFC00210F2004F0F8
:1008A000EBFC0021102004F0E7FC0721112004F0EC
:1008B000E3FC0021122004F0DFFC0021132004F0EF
:1008C000DBFC3220FFF789FF41F29051102004F049
:1008D000D3FC4146112004F0CFFC3220FFF77DFF0E
:1008E0009C21122004F0C8FC3220FFF776FF4FF461
:1008F000C851132004F0C0FC2321292004F0BCFCC3
:100900000E212B2004F0B8FC3220FFF766FF0021F7
:10091000202004F0B1FC0021212004F0ADFC3220A5
:10092000FFF75BFF0721302004F0A6FC29463120A9
:1009300000E082E004F0A0FC0621322004F09CFCE0
:1009400040F20471352004F097FC41F60471362022
:1009500004F092FC0421372004F08EFC00213820A2
:1009600004F08AFC40F20671392004F085FC40F264
:1009700001713C2004F080FC0F213D2004F07CFC40
:100980003220FFF72AFF0021502004F075FCEF21F0
:10099000512004F071FC0021522004F06DFC31461E
:1009A000532004F069FC4FF42741602004F064FCFC
:1009B0000121612004F060FC00216A2004F05CFC4D
:1009C0000021802004F058FC0021812004F054FC18
:1009D0000021822004F050FC0021832004F04CFC14
:1009E0000021842004F048FC0021852004F044FC10
:1009F0001021902004F040FC0021922004F03CFCE7
:100A00000321932004F038FC5946952004F034FC6F
:100A10000021972004F030FC0021982004F02CFCE9
:100A200040F23311072004F027FC0021202004F0BD
:100A300023FC0021212001F002BAA0F51347203F3A
:100A40007ED0B0F5134FFBD0A0F5134C4FF40177D7
:100A5000BCF1310C75D10320087041F21401E7207C
:100A600004F00AFC2146012004F006FC391F022094
:100A700004F002FC41F23001032004F0FDFBB91E3A
:100A8000082004F0F9FB0021092004F0F5FB002107
:100A90000A2004F0F1FB00210C2004F0EDFB002102
:100AA0000D2004F0E9FB00210F2004F0E5FB0021FC
:100AB00010200BE0000C0240001002400018024021
:100AC000FFFF1F00040000200000016F04F0D4FBB2
:100AD0000721112004F0D0FB0021122004F0CCFBF0
:100AE0000021132004F0C8FBC820FFF776FE41F276
:100AF0009061102004F0C0FB4146112004F0BCFBC3
:100B00003220FFF76AFE0C21122004F0B5FB3220E0
:100B1000FFF763FE4FF40061132004F0ADFB1121D9
:100B2000292004F0A9FB0B212B2004F0A5FB322087
:100B3000FFF753FE0021202004F09EFB002101E07E
:100B40007DE021E1212004F097FB0021302004F01A
:100B500093FB4FF483742146312004F08DFB002178
:100B6000322004F089FB3946352004F085FB41F240
:100B70000A61362004F080FB2946372004F07CFB14
:100B80002146382004F078FB2946392004F074FB14
:100B900040F202413C2004F06FFB40F60F413D2043
:100BA00004F06AFB0021502004F066FBEF21512085
:100BB00004F062FB0021522004F05EFB314653201A
:100BC00004F05AFB4FF41C51602004F055FB012146
:100BD000612004F051FB00216A2004F04DFB00214C
:100BE000802004F049FB0021812004F045FB002116
:100BF000822004F041FB0021832004F03DFB002112
:100C0000842004F039FB0021852004F035FB1021FD
:100C1000902004F031FB4FF4C061922004F02CFBD3
:100C20002121072004F028FB3220FFF7D6FD6121A7
:100C3000072004F021FB3220FFF7CFFDFAE300206C
:100C40000870014604F018FB2146012004F014FB53
:100C50004FF4E061022004F00FFB41F21801032081
:100C600004F00AFB0021042004F006FB40F20221FC
:100C7000082004F001FB0021092004F0FDFA002106
:100C80000A2004F0F9FA01210C2004F0F5FA002101
:100C90000D2004F0F1FA00210F2004F0EDFA642099
:100CA000FFF79BFD40F20111072004F0E5FA6420F4
:100CB000FFF793FD4FF48651102004F0DDFA072171
:100CC000112004F0D9FA5C465946122004F0D4FAF7
:100CD0004FF43061132004F0CFFA0021292004F0F2
:100CE000CBFA44F210012B2004F0C6FA0021502068
:100CF00004F0C2FAEF21512004F0BEFA0021522084
:100D000004F0BAFA3146532004F0B6FA4FF41C51FD
:100D1000602004F0B1FA0121612004F0ADFA002155
:100D20006A2004F0A9FA0021802004F0A5FA00212D
:100D3000812004F0A1FA0021822004F09DFA002114
:100D4000832004F099FA0021842004F095FA002110
:100D5000852004F091FA1021902004F08DFA0021F2
:100D6000922004F089FA0121932004F085FA2146AB
:100D7000952004F081FA0021972004F07DFA0021EB
:100D80009820FCE3072056E6A0F5194C40F20559DF
:100D9000BCF1190C7DD10D2008700621282004F02B
:100DA0006BFA0121002004F067FA0021102004F002
:100DB00063FA47F2EF21012004F05EFA4FF4C061BC
:100DC000022004F059FA46F63821032004F054FAC0
:100DD00046F67401112004F04FFA00210F2004F0B0
:100DE0004BFA45F208310B2004F046FA03210C209F
:100DF00004F042FA0A210D2004F03EFA4FF4385173
:100E00000E2004F039FABE211E2004F035FA4FF40A
:100E10000041252004F030FA4FF4F041262004F080
:100E20002BFA7821272004F027FA00214E2004F025
:100E300023FA00214F2004F01FFA40F6D9011220B6
:100E400004F01AFA0021302004F016FA4FF48271EF
:100E5000312004F011FA2146322004F00DFA40F25C
:100E600005342146332004F007FA4946342004F0C3
:100E700003FA2146352004F0FFF92946362004F014
:100E8000FBF9611F372004F0F7F94FF490513A2035
:100E900000E008E004F0F0F94FF400613B2004F0BA
:100EA000EBF933216EE7A0F5A85CBCF1050C01D08D
:100EB00048457DD1092008700021072004F0DCF9A5
:100EC0003220FFF78AFC4FF48E71122004F0D4F91F
:100ED0000121A42004F0D0F90F21082004F0CCF95E
:100EE00008210A2004F0C8F908210D2004F0C4F9F3
:100EF0002946302004F0C0F90721312004F0BCF964
:100F000040F20361322004F0B7F94FF4E06739464C
:100F1000332004F0B1F940F20221342004F0ACF99E
:100F20000221352004F0A8F941F60F71362004F0B3
:100F3000A3F92946372004F09FF90021382004F056
:100F40009BF90021392004F097F929463A2004F052
:100F500093F900213B2004F08FF907213C2004F095
:100F60008BF900213D2004F087F93220FFF735FC92
:100F70000121072004F080F90121172004F07CF9F9
:100F80003220FFF72AFC4FF4BD51102004F074F911
:100F900040F21721112004F06FF94FF48F711220E5
:100FA00004F06AF94FF47061132004F065F900E071
:100FB0008AE000212A2004F05FF90A21292004F0A8
:100FC0005BF94FF49F71122004F056F90021502074
:100FD00004F052F9EF21512004F04EF90021522083
:100FE00004F04AF93146532004F046F94FF41C51FD
:100FF000602004F041F90121612004F03DF9002155
:101000006A2004F039F90021802004F035F900212C
:10101000812004F031F90021822004F02DF9002113
:10102000832004F029F90021842004F025F900210F
:10103000852004F021F91321902004F01DF94FF4CC
:101040004071922004F018F90521932004F014F95E
:101050000021952004F010F90021972004F00CF9EC
:101060000021982004F008F92146012004F004F939
:101070003946022004F000F941F23001032004F067
:10108000FBF80021042004F0F7F800210C2004F004
:10109000F3F800210F2004F0EFF80021202004F0E5
:1010A000EBF80021212004F0E7F82121072004F0CB
:1010B000E3F8C820FFF791FB6121072004F0DCF87A
:1010C000C820FFF78AFBA0E2A0F5094C40F20258C5
:1010D00040F2023ABCF1890C7ED105200870012152
:1010E000002004F0C9F83220FFF777FB4AF6A4018C
:1010F000032004F0C1F83220FFF76FFB00210C2021
:1011000004F0BAF83220FFF768FB40F60C010D201E
:1011100004F0B2F83220FFF760FB4FF42C510E20A0
:1011200004F0AAF83220FFF758FBB0211E2004F08B
:10113000A3F83220FFF751FB42F63F31012004F0C3
:101140009BF83220FFF749FB4FF4C061022004F006
:1011500093F83220FFF741FB0021102004F08CF8B7
:101160003220FFF73AFB46F27001112004F084F8B8
:101170003220FFF732FB0021052004F07DF83220F9
:10118000FFF72BFB0021062004F076F83220FFF752
:1011900024FB4EF61C71162004F06EF83220FFF787
:1011A0001CFB0321172004F067F83220FFF715FB22
:1011B00040F23311072004F05FF83220FFF70DFBF7
:1011C00000210B2004F058F83220FFF706FB002125
:1011D0000F2004F051F800E0A8E03220FFF7FDFAFC
:1011E0000021412004F048F83220FFF7F6FA0021F0
:1011F000422004F041F83220FFF7EFFA00214820A6
:1012000004F03AF83220FFF7E8FA3146492004F0BA
:1012100033F83220FFF7E1FA00214A2004F02CF8DD
:101220003220FFF7DAFA00214B2004F025F83220B3
:10123000FFF7D3FA4FF46F41442004F01DF8322039
:10124000FFF7CBFA0021452004F016F83220FFF713
:10125000C4FA3146462004F00FF83220FFF7BDFAF9
:101260002946302004F008F83220FFF7B6FA394654
:10127000312004F001F83220FFF7AFFA394632206E
:1012800003F0FAFF3220FFF7A8FA44464146332024
:1012900003F0F2FF3220FFF7A0FA40F207513420AA
:1012A00003F0EAFF3220FFF798FA3946352003F0C1
:1012B000E3FF3220FFF791FA3946362003F0DCFFD6
:1012C0003220FFF78AFA2146372003F0D5FF32207B
:1012D000FFF783FA544651463A2003F0CDFF3220FF
:1012E000FFF77BFA21463B2003F0C6FF3220FFF7D1
:1012F00074FA0021232003F0BFFF3220FFF76DFABC
:101300000021242003F0B8FF3220FFF766FA4FF4E3
:101310000041252003F0B0FF3220FFF75EFA0021E4
:101320004F2003F0A9FF00214E202CE5A0F5094C29
:10133000BCF1990C7DD1042008700621282003F00F
:101340009BFF0121002003F097FF4AF6A4610320D0
:1013500003F092FF04210C2003F08EFF0C210D20DE
:1013600003F08AFF4FF420510E2003F085FFB521D2
:101370001E2003F081FF43F63F31012003F07CFF84
:101380004FF4C061022003F077FF0021102003F02A
:1013900073FF46F63001112003F06EFF0021052097
:1013A00003F06AFF0021062003F066FF4EF61C7171
:1013B000162003F061FF3321072003F05DFF0021B9
:1013C0000B2003F059FF00210F2003F055FF0021EF
:1013D000412003F051FF0021422003F04DFF002186
:1013E000482003F049FF3146492003F045FF002122
:1013F0004A2003F041FF00214B2003F03DFF4FF452
:101400006F41442003F038FF0021452003F034FFF2
:101410003146462003F030FF00214E2003F02CFF20
:1014200000214F2003F028FF2946302003F024FF3D
:1014300001E042E0FEE240F20221312003F01CFF15
:101440003946322003F018FF44464146332003F06A
:1014500013FF40F20751342003F00EFF39463520C8
:1014600003F00AFF3946362003F006FF21463720F5
:1014700003F002FF544651463A2003F0FDFE214698
:101480003B2003F0F9FE0021232003F0F5FE0021AC
:10149000242003F0F1FE4FF40041252003F0ECFE80
:1014A0004FF4E041262003F0E7FE4BF2EB01202051
:1014B00003F0E2FE7C21272065E4A0F5A847083F61
:1014C0007ED1082008702146012003F0D5FE4FF49C
:1014D000E061022003F0D0FE41F23001032003F06E
:1014E000CBFE0021042003F0C7FE40F207210820B4
:1014F00003F0C2FE0021092003F0BEFE00210A20F5
:1015000003F0BAFE00210C2003F0B6FE00210D20EE
:1015100003F0B2FE00210F2003F0AEFE3220FFF7F1
:101520005CF940F20111072003F0A6FE3220FFF71C
:1015300054F941F2B061102003F09EFE0121112008
:1015400003F09AFE0121172003F096FE4FF49C71E0
:10155000122003F091FE4FF40061132003F08CFE83
:101560000921292003F088FE09212A2003F084FEA6
:101570000021A42003F080FE0021502000E042E082
:1015800003F07AFEEF21512003F076FE0021522075
:1015900003F072FE3146532003F06EFE4FF41C51EF
:1015A000602003F069FE0321612003F065FE002145
:1015B0006A2003F061FE0021802003F05DFE00E060
:1015C00026E00021812003F057FE0021822003F055
:1015D00053FE0021832003F04FFE0021842003F0FE
:1015E0004BFE0021852003F047FE1321902003F0DD
:1015F00043FE0021922003F03FFE0321932003F0DD
:101600003BFE5946952003F037FE40F2731149E442
:10161000A0F58A47313F7CD10720087001210020C6
:1016200003F02AFE4FF4C561102003F025FE0621C9
:10163000122003F021FE40F63221132003F01CFE9D
:101640004021112003F018FE5021152003F014FE54
:101650001621122003F010FE3220FFF7BEF845F2EB
:101660006061102003F008FE3220FFF7B6F842F662
:101670004E21132003F000FE2146012003F0FCFD63
:101680004FF44071022003F0F7FD41F230010320D6
:1016900003F0F2FD40F20221082003F0EDFD0021ED
:1016A0000A2003F0E9FD0021302003F0E5FD40F2BF
:1016B0000241312003F0E0FD4FF48371322003F04A
:1016C000DBFD4FF4E061332003F0D6FD4FF482716F
:1016D000342003F0D1FD40F20131352003F0CCFD80
:1016E0002946362003F0C8FD40F20531372003F0CB
:1016F000C3FD4FF40271382003F0BEFD40F60B71BC
:10170000392003F0B9FD3220FFF767F802214120AC
:1017100000E02AE003F0B0FD4FF41C51602003F01C
:10172000ABFD0121612003F0A7FD40F219119020CB
:1017300003F0A2FD4FF48571922003F09DFD04217A
:10174000932003F099FD2146A02003F095FD32205F
:10175000FFF743F840F23311072003F08DFD3220EC
:10176000FFF73BF80021A02069E3A0F58A47353F49
:101770007ED10C2008703021152003F07DFD102152
:101780009A2003F079FD2021112003F075FD43F22A
:101790002841102003F070FD0221122003F06CFD9F
:1017A00041F23801132003F067FD2820FFF715F8F8
:1017B0001221084603F060FD2820FFF70EF843F2DF
:1017C0002041102003F058FD43F24501132003F09F
:1017D00053FD4620FFF701F80021302003F04CFDB7
:1017E00040F20241312003F047FD40F20731322040
:1017F00003F042FD4FF44171332003F03DFD04211D
:10180000342003F039FD40F20141352003F034FD6E
:101810002946362003F030FD40F20531372003F031
:101820002BFD4FF4C2652946382003F025FD2946DB
:10183000392003F021FD2146012003F01DFD4FF466
:101840004071022003F018FD41F23001032003F043
:1018500013FD40F60801082003F00EFD08210A20C0
:1018600003F00AFD4FF41C51602003F005FD00E079
:1018700028E00121612003F0FFFC4FF49F719020CC
:1018800003F0FAFC2146922003F0F6FC2146932057
:1018900003F0F2FC4FF44051A02003F0EDFC1021C6
:1018A000A32003F0E9FC0121072003F0E5FC21213E
:1018B000072003F0E1FC2321072003F0DDFC3321A6
:1018C0000720B5E047287DD0A0F5EE47833F7AD1C9
:1018D000062008700121FF2003F0CEFC0821F32030
:1018E00003F0CAFC2146012003F0C6FC4FF4E0617E
:1018F000022003F0C1FC41F23001032003F0BCFCE4
:101900005146082003F0B8FC40F20721082003F0FC
:10191000B3FC0021092003F0AFFC00210A2003F0F2
:10192000ABFC0021102003F0A7FC0521112003F0DF
:10193000A3FC0021122003F09FFC0021132003F0E0
:101940009BFC3220FEF749FF41F2B021102003F04A
:1019500093FC3220FEF741FF0721112003F08CFC9D
:101960003220FEF73AFF8B21122003F085FC322053
:10197000FEF733FF4FF4B851132003F07DFC322003
:10198000FEF72BFF2221292003F076FC00213020D6
:1019900003F072FC2946312003F06EFC49463220E8
:1019A00003F06AFC40F20711352003F065FC0821C2
:1019B000362003F061FC0021372003F05DFC40F28B
:1019C000022401E039E018E12146382003F054FCFC
:1019D0004FF48371392003F04FFC21463C2003F083
:1019E0004BFC4FF481613D2003F046FC3220FEF7B2
:1019F000F4FE0021502003F03FFCEF21512003F0C2
:101A00003BFC0021522003F037FC3146532003F009
:101A100033FC4FF42741602003F02EFC01216120AC
:101A200003F02AFC3321902003F026FC0B212B200D
:101A300003F022FC40F23311E9E50A20087000218E
:101A4000EA2003F019FC2021EB2003F015FC0C2107
:101A5000EC2003F011FCC421ED2003F00DFC40212B
:101A6000E82003F009FC3821E92003F005FC0121FE
:101A7000F12003F001FC1021F22003F0FDFBA32173
:101A8000272003F0F9FB0121402003F0F5FB0021A2
:101A9000412003F0F1FB0021422003F0EDFB102177
:101AA000432003F0E9FB0E21442003F0E5FB242151
:101AB000452003F0E1FB0421462003F0DDFB50212B
:101AC000472003F0D9FB0221482003F0D5FB132166
:101AD000492003F0D1FB19214A2003F0CDFB192145
:101AE0004B2003F0C9FB16214C2003F0C5FB1B2142
:101AF000502003F0C1FB3121512003F0BDFB2F2109
:101B0000522003F0B9FB3F21532003F0B5FB3F21E6
:101B1000542003F0B1FB3E21552003F0ADFB2F21F3
:101B2000562003F0A9FB7B21572003F0A5FB0921D8
:101B3000582003F0A1FB0621592003F09DFB06214C
:101B40005A2003F099FB0C215B2003F095FB1D212B
:101B50005C2003F091FBCC215D2003F08DFB18216C
:101B60001B2003F089FB01211A2003F085FB1521BE
:101B7000242003F081FB5021252003F07DFB8B21E5
:101B8000232003F079FB3621182003F075FB012197
:101B9000192003F071FB0021012003F06DFB882167
:101BA0001F2003F069FB3220FEF717FE80211F2063
:101BB00003F062FB3220FEF710FE90211F2003F09D
:101BC0005BFB3220FEF709FED0211F2003F054FBFF
:101BD0003220FEF702FE0521172003F04DFB002105
:101BE000362003F049FB3821282003F045FB322042
:101BF000FEF7F3FD3C21282021E1672010801888A2
:101C0000488047287ED10B2008700821422003F02D
:101C100033FBB421462003F02FFB4321472003F080
:101C20002BFB1321482003F027FB4721492003F019
:101C300023FB14214A2003F01FFB36214B2003F025
:101C40001BFB03214C2003F017FB46214D2003F022
:101C500013FB05214E2003F00FFB10214F2003F052
:101C60000BFB0821502003F007FB0A21512003F051
:101C700003FB0021022003F0FFFA0021032003F000
:101C8000FBFA0021042003F0F7FAEF21052003F00E
:101C9000F3FA0021062003F0EFFA0021072003F0F9
:101CA000EBFA0121082003F0E7FA3F21092003F0B5
:101CB000E3FA0A20FEF791FD0621012003F0DCFA89
:101CC000C821162003F0D8FA9521232003F0D4FA76
:101CD0009521242003F0D0FAFF21252003F0CCFA2F
:101CE0000221272003F0C8FA0221282003F0C4FAB9
:101CF0000221292003F0C0FA02212A2003F0BCFAB5
:101D0000022100E09DE02C2003F0B6FA02212D20F4
:101D100003F0B2FA01213A2003F0AEFA01213B2090
:101D200003F0AAFAF0213C2003F0A6FA00213D209E
:101D300003F0A2FA1420FEF750FD3821352003F0FD
:101D40009BFA7821362003F097FA38213E2003F0E1
:101D500093FA0F21402003F08FFAF021412003F085
:101D60008BFA0021382003F087FA4921192003F06B
:101D700083FA0A21932003F07FFA0A20FEF72DFD53
:101D80002021084603F078FA03211D2003F074FA9D
:101D900000211E2003F070FA09211F2003F06CFAC5
:101DA0005321442003F068FA1021452003F064FA1F
:101DB0000A20FEF712FD04211C2003F05DFA142016
:101DC000FEF70BFD8021432003F056FA0520FEF7B5
:101DD00004FD0A211B2003F04FFA2820FEF7FDFC2A
:101DE00012211B2003F048FA2820FEF7F6FC7F2181
:101DF000902003F041FA0421262003F03DFA282028
:101E0000FEF7EBFC2421262003F036FA2C212620B5
:101E100003F032FA2820FEF7E0FC0821702003F0DE
:101E20002BFA3C21262003F027FA0221572003F049
:101E300023FA0021552003F01FFA0021572003F058
:101E40001BFABDE8F05F3220FEF7C7BC70B5044650
:101E5000C4480D460078001F0A2806D2DFE800F0CB
:101E60000C0C05050505131305252146202003F05C
:101E700003FA2946212014E021464E2003F0FCF904
:101E800029464F200DE0210A022003F0F5F92146F2
:101E9000032003F0F1F9290A062003F0EDF92946A1
:101EA0000720BDE8704003F0E7B970BD70B5054686
:101EB000AC48002400780A2811D00B280FD000214C
:101EC0000846FFF7C3FF4FF0DE4122200880A648F6
:101ED0004FF496310580641C8C42FBD370BD002109
:101EE000022003F0C9F90021032003F0C5F9002105
:101EF000042003F0C1F9EF21052003F0BDF9002112
:101F0000062003F0B9F90021072003F0B5F90121FB
:101F1000082003F0B1F93F21092003F0ADF9D2E721
:101F200010B5FFF793FF4FF0DE41222008808D4867
:101F300001788D48091F092918D2DFE801F005054D
:101F400005051717080805000188008810BD0188DD
:101F5000C1F3C70201880088C1F3C701C0F387003D
:101F6000C90241EA4010104380B210BD01880088C8
:101F7000C0F34511C20AC00200EB41101044F3E760
:101F800010B51446F0280AD2B1F5A07F07D2FFF7AA
:101F90005DFF2146BDE81040222003F06DB910BD61
:101FA0002DE9F04705469146DDF820A098460C46FD
:101FB00010464D4501D9A94685B21846444501D978
:101FC000884684B2A9EB0500A8EB040100B20EB26A
:101FD00050B1A6B1B04230DDC0EB46010FB2710086
:101FE000404201EB400825E0524621462846FFF7D3
:101FF000C7FF641CA4B2A045F6D2BDE8F0875246E4
:1020000021462846FFF7BCFF6D1CADB2A945F6D2AC
:10201000F3E7524621462846FFF7B2FF6D1CADB2EA
:10202000002F04DD641CA4B208EB070001E007EBFD
:10203000460007B24D45ECD11AE0C6EB40010FB2A5
:102040007100404201EB400910E05246214628460B
:10205000FFF796FF641CA4B2002F04DD6D1CADB227
:1020600009EB070001E007EB460007B24445ECD15D
:10207000524621462846BDE8F04781E72DE9FF5F3B
:10208000894607469B4611466846FEF701FB002538
:10209000EA4600241AF8058009EB0506C4F1070199
:1020A00028FA01F0C00707EB0400B1B280B201D0FA
:1020B0005A4600E00E9AFFF763FF641CA4B2082C96
:1020C000ECD36D1CADB2102DE3D3BDE8FF9F2DE91D
:1020D000F8439946089F16460D4604464FF49878F3
:1020E00016F8012B4B46294620460097FFF7C6FFFE
:1020F000E82C02D20834A4B207E045454FF00004B2
:1021000002D21035ADB200E0002530780028E7D1CA
:10211000BDE8F88300B597B006200090002010219C
:10212000CDE90201049009020190CDE90801069071
:1021300007900A900FA905900F220B90CDE90C0192
:10214000CDE90F20CDE911201390149015900E9138
:10215000684602F08DFA0121062002F01AFB17B042
:1021600000BD0000040000200000016F2DE9F047D1
:1021700096B0012140F2811001F063FF0121084671
:1021800001F069FFDFF804A40D220621504601F09A
:1021900073FCFF4F0D220821384601F06DFC0D2223
:1021A0000921384601F068FC0D220A21384601F069
:1021B00063FC0D220B21384601F05EFC0D220C2140
:1021C000384601F059FC0D220E21384601F054FC2E
:1021D000DFF8C0930D220521484601F04DFC0D2289
:1021E0000621484601F048FC0D220721484601F02F
:1021F00043FC0D220421484601F03EFC02268DF8E6
:1022000040604FF003084FF4BE408DF84180002439
:102210000F908DF8424001258DF843500FA93846A4
:1022200001F0B6FBF0200F900FA9484601F0B0FB7B
:1022300040278DF840600F978DF842400FA9504617
:1022400001F0A6FBADF848408020ADF84440ADF861
:102250004A00ADF84C70ADF84640ADF84E40ADF8D0
:10226000504011A801F0C3FF0121082002F023F81B
:102270004FF4C06001F0D4FA4E208DF854008DF870
:1022800055508DF856508DF8575015A801F0CDFADD
:102290000121880501F0D5FEBF4D284602F008FC5B
:1022A00030060090BD480190BD48CDE902044FF4CE
:1022B000A070CDE90404A814CDE9064040000890C0
:1022C0004011099040020A900420CDE90C840B9043
:1022D000694628460E9402F073FC16B0BDE8F087FC
:1022E00010B50220401EFDD2002211466020FEF7EC
:1022F000E1F80220401EFDD2802201216020FEF77D
:10230000D9F80220401EFDD2802202216020FEF773
:10231000D1F80220401EFDD2022203216020FEF7E8
:10232000C9F80220401EFDD2002204216020FEF7E1
:10233000C1F80220401EFDD2032209216020FEF7D1
:10234000B9F80220401EFDD257220B216020FEF773
:10235000B1F80220401EFDD201220E216020FEF7BE
:10236000A9F80220401EFDD2C0220F216020FEF7F6
:10237000A1F80220401EFDD2502210216020FEF75D
:1023800099F80220401EFDD2802211216020FEF724
:1023900091F80220401EFDD2632212216020FEF738
:1023A00089F80220401EFDD2EF2213216020FEF7A3
:1023B00081F80220401EFDD22A2214216020FEF75F
:1023C00079F80220401EFDD2182215216020FEF768
:1023D00071F80220401EFDD2242216216020FEF753
:1023E00069F80220401EFDD2182217216020FEF756
:1023F00061F80220401EFDD2042218216020FEF761
:1024000059F80220401EFDD2012219216020FEF75A
:1024100051F80220401EFDD281221A216020FEF7D1
:1024200049F80220401EFDD200221E216020FEF746
:1024300041F80220401EFDD23C2224216020FEF7FC
:1024400039F80220401EFDD2362225216020FEF7F9
:1024500031F80220401EFDD2722226216020FEF7B4
:1024600029F80220401EFDD2082227216020FEF715
:1024700021F80220401EFDD2082228216020FEF70C
:1024800019F80220401EFDD2152229216020FEF7F6
:1024900011F80220401EFDD200222A216020FEF702
:1024A00009F80220401EFDD200222B216020FEF7F9
:1024B00001F80220401EFDD208222C216020FDF7E9
:1024C000F9FF0220401EFDD2122232216020FDF7CA
:1024D000F1FF0220401EFDD2002233216020FDF7D3
:1024E000E9FF0220401EFDD23F2234216020FDF78B
:1024F000E1FF0220401EFDD2002235216020FDF7C1
:10250000D9FF0220401EFDD23A2236216020FDF77D
:10251000D1FF0220401EFDD2722238216020FDF73B
:10252000C9FF0220401EFDD2572239216020FDF74D
:10253000C1FF0220401EFDD2CA223A216020FDF7D1
:10254000B9FF0220401EFDD204223B216020FDF78E
:10255000B1FF0220401EFDD299223D216020FDF7EF
:10256000A9FF0220401EFDD202223E216020FDF77D
:10257000A1FF0220401EFDD2C1223F216020FDF7B5
:1025800099FF0220401EFDD2D0220BE00000024045
:10259000001C024000200240286402402800055030
:1025A0000000016F40216020FDF784FF0220401EE3
:1025B000FDD2412211466020FDF77CFF0220401E23
:1025C000FDD2C02242216020FDF774FF0220401E90
:1025D000FDD20A2243216020FDF76CFF0220401E3D
:1025E000FDD2F02244216020FDF764FF0220401E4E
:1025F000FDD2462245216020FDF75CFF0220401EEF
:10260000FDD2622246216020FDF754FF0220401EC9
:10261000FDD22A2247216020FDF74CFF0220401EF8
:10262000FDD23C2248216020FDF744FF0220401EDD
:10263000FDD2FC224A216020FDF73CFF0220401E13
:10264000FDD2FC224B216020FDF734FF0220401E0A
:10265000FDD27F224C216020FDF72CFF0220401E7E
:10266000FDD27F224D216020FDF724FF0220401E75
:10267000FDD27F224E216020FDF71CFF0220401E6C
:10268000FDD298224F216020FDF714FF0220401E4A
:10269000FDD2982250216020FDF70CFF0220401E41
:1026A000FDD2002251216020FDF704FF0220401ED0
:1026B000FDD2282252216020FDF7FCFE0220401EA0
:1026C000FDD2702253216020FDF7F4FE0220401E4F
:1026D000FDD2982254216020FDF7ECFE0220401E1E
:1026E000FDD21A2258216020FDF7E4FE0220401E90
:1026F000FDD2852259216020FDF7DCFE0220401E1C
:10270000FDD2A9225A216020FDF7D4FE0220401EEE
:10271000FDD264225B216020FDF7CCFE0220401E2A
:10272000FDD284225C216020FDF7C4FE0220401E01
:10273000FDD253225D216020FDF7BCFE0220401E29
:10274000FDD20E225E216020FDF7B4FE0220401E65
:10275000FDD2F0225F216020FDF7ACFE0220401E7A
:10276000FDD26021F0220846FDF7A4FE0220401EA3
:10277000FDD2F02261216020FDF79CFE0220401E68
:10278000FDD2002262216020FDF794FE0220401E4F
:10279000FDD2002263216020FDF78CFE0220401E46
:1027A000FDD2022264216020FDF784FE0220401E3B
:1027B000FDD2202265216020FDF77CFE0220401E14
:1027C000FDD2002266216020FDF774FE0220401E2B
:1027D000FDD20A2269216020FDF76CFE0220401E16
:1027E000FDD20A226B216020FDF764FE0220401E0C
:1027F000FDD204226C216020FDF75CFE0220401E09
:10280000FDD255226D216020FDF754FE0220401EAE
:10281000FDD200226E216020FDF74CFE0220401EFA
:10282000FDD29D226F216020FDF744FE0220401E54
:10283000FDD2212270216020FDF73CFE0220401EC7
:10284000FDD2782271216020FDF734FE0220401E67
:10285000FDD20220401EFDD2112272216020FDF720
:1028600029FE0220401EFDD20220401EFDD2012280
:1028700073216020FDF71EFE0220401EFDD21022B3
:1028800074216020FDF716FE0220401EFDD21022AA
:1028900075216020FDF70EFE0220401EFDD20122B0
:1028A00076216020FDF706FE0220401EFDD20222A6
:1028B00077216020FDF7FEFD0220401EFDD212228E
:1028C0007A216020FDF7F6FD0220401EFDD208228D
:1028D0007B216020FDF7EEFD0220401EFDD2162276
:1028E0007C216020FDF7E6FD0220401EFDD2302253
:1028F0007D216020FDF7DEFD0220401EFDD25E221C
:102900007E216020FDF7D6FD0220401EFDD27222FE
:102910007F216020FDF7CEFD0220401EFDD28222E5
:1029200080216020FDF7C6FD0220401EFDD28E22D0
:1029300081216020FDF7BEFD0220401EFDD29A22BB
:1029400082216020FDF7B6FD0220401EFDD2A422A8
:1029500083216020FDF7AEFD0220401EFDD2AC2297
:1029600084216020FDF7A6FD0220401EFDD2B82282
:1029700085216020FDF79EFD0220401EFDD2C3226E
:1029800086216020FDF796FD0220401EFDD2D62252
:1029900087216020FDF78EFD0220401EFDD2E62239
:1029A00088216020FDF786FD0220401EFDD2F22224
:1029B00089216020FDF77EFD0220401EFDD22422E9
:1029C0008A216020FDF776FD0220401EFDD2802284
:1029D0008C216020FDF76EFD0220401EFDD27D227D
:1029E00090216020FDF766FD0220401EFDD27B2273
:1029F00091216020FDF75EFD0220401EFDD20222E3
:102A00009D216020FDF756FD0220401EFDD20222CE
:102A10009E216020FDF74EFD0220401EFDD27A224D
:102A20009F216020FDF746FD0220401EFDD2792245
:102A3000A0216020FDF73EFD0220401EFDD21F2296
:102A4000A1216020FDF736FD0220401EFDD250225C
:102A5000A4216020FDF72EFD0220401EFDD2682239
:102A6000A5216020FDF726FD0220401EFDD24A224E
:102A7000A6216020FDF71EFD0220401EFDD2C122CE
:102A8000A8216020FDF716FD0220401EFDD2EF2296
:102A9000A9216020FDF70EFD0220401EFDD29222EA
:102AA000AA216020FDF706FD0220401EFDD204226F
:102AB000AB216020FDF7FEFC0220401EFDD28022EB
:102AC000AC216020FDF7F6FC0220401EFDD28022E2
:102AD000AD216020FDF7EEFC0220401EFDD28022D9
:102AE000AE216020FDF7E6FC0220401EFDD28022D0
:102AF000AF216020FDF7DEFC0220401EFDD2F22255
:102B0000B2216020FDF7D6FC0220401EFDD220221B
:102B1000B3216020FDF7CEFC0220401EFDD2202212
:102B2000B4216020FDF7C6FC0220401EFDD2002229
:102B3000B5216020FDF7BEFC0220401EFDD2AF2271
:102B4000B6216020FDF7B6FC0220401EFDD2AF2268
:102B5000B6216020FDF7AEFC0220401EFDD2AE2261
:102B6000BB216020FDF7A6FC0220401EFDD27F2283
:102B7000BC216020FDF79EFC0220401EFDD27F227A
:102B8000BD216020FDF796FC0220401EFDD27F2271
:102B9000BE216020FDF78EFC0220401EFDD27F2268
:102BA000BF216020FDF786FC0220401EFDD27F225F
:102BB000BF216020FDF77EFC0220401EFDD2AA222C
:102BC000C0216020FDF776FC0220401EFDD2C0220D
:102BD000C1216020FDF76EFC0220401EFDD20122C3
:102BE000C2216020FDF766FC0220401EFDD24E226D
:102BF000C3216020FDF75EFC0220401EFDD20522AD
:102C0000C6216020FDF756FC0220401EFDD2812225
:102C1000C7216020FDF74EFC0220401EFDD2E022BD
:102C2000C9216020FDF746FC0220401EFDD2E822AB
:102C3000CA216020FDF73EFC0220401EFDD2F0229A
:102C4000CB216020FDF736FC0220401EFDD2D822A9
:102C5000CC216020FDF72EFC0220401EFDD29322E5
:102C6000CD216020FDF726FC0220401EFDD210BDC4
:102C70001CB50121084601F0E4F94FF48070009082
:102C800003208DF8050002208DF8040000208DF847
:102C900006008DF807006946FE4800F079FE4FF007
:102CA0008061081101F031F91CBD10B5FFF7E0FF9C
:102CB000FDF7B2FB40F6FF74204600F016FD8022BF
:102CC00012216020FDF7F6FB08B1FF2010BD204661
:102CD00000F00BFDFFF704FB632212216020FDF7DB
:102CE000E9FB102240216020FDF7E4FB08221521BA
:102CF0006020FDF7DFFBFFF739FA002010BD8022CE
:102D000012216020FDF7D6BB10B50220401EFDD277
:102D1000002211466020FDF7CDFB0220401EFDD2AF
:102D2000802201216020FDF7C5FB0220401EFDD25C
:102D3000802202216020FDF7BDFB0220401EFDD253
:102D4000022203216020FDF7B5FB0220401EFDD2C8
:102D5000032204216020FDF7ADFB0220401EFDD2BE
:102D6000012209216020FDF7A5FB0220401EFDD2B3
:102D700057220B216020FDF79DFB0220401EFDD253
:102D800061220E216020FDF795FB0220401EFDD23E
:102D900040220F216020FDF78DFB0220401EFDD256
:102DA000012211216020FDF785FB0220401EFDD28B
:102DB000622212216020FDF77DFB0220401EFDD221
:102DC000C72213216020FDF775FB0220401EFDD2B3
:102DD0003A2214216020FDF76DFB0220401EFDD237
:102DE000082215216020FDF765FB0220401EFDD260
:102DF000242216216020FDF75DFB0220401EFDD23B
:102E0000182217216020FDF755FB0220401EFDD23D
:102E1000042218216020FDF74DFB0220401EFDD248
:102E2000012219216020FDF745FB0220401EFDD242
:102E300081221A216020FDF73DFB0220401EFDD2B9
:102E400020221E216020FDF735FB0220401EFDD20E
:102E50003C2224216020FDF72DFB0220401EFDD2E4
:102E6000362225216020FDF725FB0220401EFDD2E1
:102E7000722226216020FDF71DFB0220401EFDD29C
:102E8000082227216020FDF715FB0220401EFDD2FD
:102E9000082228216020FDF70DFB0220401EFDD2F4
:102EA000152229216020FDF705FB0220401EFDD2DE
:102EB00000222A216020FDF7FDFA0220401EFDD2EB
:102EC00000222B216020FDF7F5FA0220401EFDD2E2
:102ED00008222C216020FDF7EDFA0220401EFDD2D1
:102EE000A42232216020FDF7E5FA0220401EFDD227
:102EF000002233216020FDF7DDFA0220401EFDD2C2
:102F00003F2234216020FDF7D5FA0220401EFDD279
:102F1000002235216020FDF7CDFA0220401EFDD2AF
:102F20003A2236216020FDF7C5FA0220401EFDD26C
:102F3000722238216020FDF7BDFA0220401EFDD22A
:102F4000572239216020FDF7B5FA0220401EFDD23C
:102F5000CC223A216020FDF7ADFA0220401EFDD2BE
:102F600004223B216020FDF7A5FA0220401EFDD27D
:102F700099223D216020FDF79DFA0220401EFDD2DE
:102F80000E223E216020FDF795FA0220401EFDD260
:102F9000C1223F216020FDF78DFA0220401EFDD2A4
:102FA000C02240216020FDF785FA0220401EFDD29C
:102FB000412211466020FDF77DFA0220401EFDD21D
:102FC000C02242216020FDF775FA0220401EFDD28A
:102FD0000A2243216020FDF76DFA0220401EFDD237
:102FE000F02244216020FDF765FA0220401EFDD248
:102FF000462245216020FDF75DFA0220401EFDD2E9
:10300000622246216020FDF755FA0220401EFDD2C3
:103010002A2247216020FDF74DFA0220401EFDD2F2
:103020003C2248216020FDF745FA0220401EFDD2D7
:10303000FC224A216020FDF73DFA0220401EFDD20D
:10304000FC224B216020FDF735FA0220401EFDD204
:103050007F224C216020FDF72DFA0220401EFDD278
:103060007F224D216020FDF725FA0220401EFDD26F
:103070007F224E216020FDF71DFA0220401EFDD266
:1030800098224F216020FDF715FA0220401EFDD244
:10309000982201E00000024050216020FDF70AFA6A
:1030A0000220401EFDD2002251216020FDF702FACD
:1030B0000220401EFDD2282252216020FDF7FAF99D
:1030C0000220401EFDD2702253216020FDF7F2F94C
:1030D0000220401EFDD2982254216020FDF7EAF91B
:1030E0000220401EFDD21A2258216020FDF7E2F98D
:1030F0000220401EFDD2852259216020FDF7DAF919
:103100000220401EFDD2A9225A216020FDF7D2F9EB
:103110000220401EFDD264225B216020FDF7CAF927
:103120000220401EFDD284225C216020FDF7C2F9FE
:103130000220401EFDD253225D216020FDF7BAF926
:103140000220401EFDD20E225E216020FDF7B2F962
:103150000220401EFDD2F0225F216020FDF7AAF977
:103160000220401EFDD26021F0220846FDF7A2F9A0
:103170000220401EFDD2F02261216020FDF79AF965
:103180000220401EFDD2002262216020FDF792F94C
:103190000220401EFDD2002263216020FDF78AF943
:1031A0000220401EFDD2022264216020FDF782F938
:1031B0000220401EFDD2202265216020FDF77AF911
:1031C0000220401EFDD2002266216020FDF772F928
:1031D0000220401EFDD20A2269216020FDF76AF913
:1031E0000220401EFDD21A226B216020FDF762F9F9
:1031F0000220401EFDD204226C216020FDF75AF906
:103200000220401EFDD255226D216020FDF752F9AB
:103210000220401EFDD200226E216020FDF74AF9F7
:103220000220401EFDD29D226F216020FDF742F951
:103230000220401EFDD2212270216020FDF73AF9C4
:103240000220401EFDD2782271216020FDF732F964
:103250000220401EFDD2222272216020FDF72AF9B1
:103260000220401EFDD2022273216020FDF722F9C8
:103270000220401EFDD2102274216020FDF71AF9B1
:103280000220401EFDD2102275216020FDF712F9A8
:103290000220401EFDD2012276216020FDF70AF9AE
:1032A0000220401EFDD2022277216020FDF702F9A4
:1032B0000220401EFDD212227A216020FDF7FAF88A
:1032C0000220401EFDD208227B216020FDF7F2F88B
:1032D0000220401EFDD216227C216020FDF7EAF874
:1032E0000220401EFDD230227D216020FDF7E2F851
:1032F0000220401EFDD25E227E216020FDF7DAF81A
:103300000220401EFDD272227F216020FDF7D2F8FC
:103310000220401EFDD2822280216020FDF7CAF8E3
:103320000220401EFDD28E2281216020FDF7C2F8CE
:103330000220401EFDD29A2282216020FDF7BAF8B9
:103340000220401EFDD2A42283216020FDF7B2F8A6
:103350000220401EFDD2AC2284216020FDF7AAF895
:103360000220401EFDD2B82285216020FDF7A2F880
:103370000220401EFDD2C32286216020FDF79AF86C
:103380000220401EFDD2D62287216020FDF792F850
:103390000220401EFDD2E62288216020FDF78AF837
:1033A0000220401EFDD2F22289216020FDF782F822
:1033B0000220401EFDD224228A216020FDF77AF8E7
:1033C0000220401EFDD280228C216020FDF772F881
:1033D0000220401EFDD27D2290216020FDF76AF878
:1033E0000220401EFDD27B2291216020FDF762F871
:1033F0000220401EFDD202229D216020FDF75AF8D6
:103400000220401EFDD202229E216020FDF752F8CC
:103410000220401EFDD27A229F216020FDF74AF84B
:103420000220401EFDD27922A0216020FDF742F843
:103430000220401EFDD24022A1216020FDF73AF873
:103440000220401EFDD25022A4216020FDF732F858
:103450000220401EFDD26822A5216020FDF72AF837
:103460000220401EFDD24A22A6216020FDF722F84C
:103470000220401EFDD2C122A8216020FDF71AF8CB
:103480000220401EFDD2EF22A9216020FDF712F894
:103490000220401EFDD29222AA216020FDF70AF8E8
:1034A0000220401EFDD20422AB216020FDF702F86D
:1034B0000220401EFDD28022AC216020FCF7FAFFE2
:1034C0000220401EFDD28022AD216020FCF7F2FFD9
:1034D0000220401EFDD28022AE216020FCF7EAFFD0
:1034E0000220401EFDD28022AF216020FCF7E2FFC7
:1034F0000220401EFDD2F222B2216020FCF7DAFF4A
:103500000220401EFDD22022B3216020FCF7D2FF12
:103510000220401EFDD22022B4216020FCF7CAFF09
:103520000220401EFDD20022B5216020FCF7C2FF20
:103530000220401EFDD2AF22B6216020FCF7BAFF68
:103540000220401EFDD2AF22B6216020FCF7B2FF60
:103550000220401EFDD2AE22BB216020FCF7AAFF54
:103560000220401EFDD27F22BC216020FCF7A2FF7A
:103570000220401EFDD27F22BD216020FCF79AFF71
:103580000220401EFDD27F22BE216020FCF792FF68
:103590000220401EFDD27F22BF216020FCF78AFF5F
:1035A0000220401EFDD27F22BF216020FCF782FF57
:1035B0000220401EFDD2AA22C0216020FCF77AFF23
:1035C0000220401EFDD2C022C1216020FCF772FF04
:1035D0000220401EFDD20122C2216020FCF76AFFBA
:1035E0000220401EFDD24E22C3216020FCF762FF64
:1035F0000220401EFDD20522C6216020FCF75AFFA2
:103600000220401EFDD28222C7216020FCF752FF1B
:103610000220401EFDD2E022C9216020FCF74AFFB3
:103620000220401EFDD2E822CA216020FCF742FFA2
:103630000220401EFDD2F022CB216020FCF73AFF91
:103640000220401EFDD2D822CC216020FCF732FFA0
:103650000220401EFDD29322CD216020FCF72AFFDC
:103660000220401EFDD210BD38B504466A461C211A
:103670006020FCF76FFF9DF8000020706A461D2156
:103680006020FCF767FF9DF8000060706A460B2120
:103690006020FCF75FFF9DF80000A0706A460A21D9
:1036A0006020FCF757FF9DF80000E07038BD02462F
:1036B00011216020FCF7FEBE024612216020FCF7BB
:1036C000F9BE024612216020FCF7F4BE0A4601460C
:1036D0006020FCF7EFBE024632216020FCF7EABE14
:1036E000024640216020FCF7E5BE4FF47A7302E009
:1036F0001946491EFDD2401EFAD2704770B501210D
:1037000086B0084600F09DFC0121084600F099FCB7
:103710000121102000F0BDFC2F4E07220921304668
:1037200000F0AAF907220A21304600F0A5F9701529
:10373000009002208DF8040000248DF806408DF8DA
:10374000050001258DF807506946304600F020F944
:10375000A80200908DF806508DF807406946304663
:1037600000F016F94FF4E130ADF80C400290ADF8DE
:103770000E40ADF81040ADF814400C20174CADF8D9
:10378000120002A9204600F0D2F90121204600F0E3
:1037900044FA06B070BD08B525208DF80000012060
:1037A0008DF8010000218DF802108DF803006846A5
:1037B00000F03BF808BD704770B5084D0446C1B233
:1037C000284600F050FA4021284600F0DDFA002893
:1037D000F9D0204670BD00000000024000100140FA
:1037E0000948804709480047FEE7FEE7FEE7FEE795
:1037F000FEE7FEE7FEE7FEE7FEE7FEE704480549D1
:10380000054A064B70470000D14D000885010008AD
:1038100090000020900600209002002090020020DE
:103820002749084327490860704770B50F23C278BD
:10383000017801254FF0E026E2B1224A126802F435
:10384000E062C2F5E062C2F30722C2F10404D34091
:103850004278A24084781C401B4B14432201CA5476
:10386000007800F01F018D40400906EB8000C0F891
:10387000005170BD01F01F008540480906EB800033
:10388000C0F8805170BD114A114001430D48001F1E
:10389000016070470B4A121D0029116801D00143D5
:1038A00000E08143116070474FF0E021042808696F
:1038B00003D020F004000861704740F00400FAE7EC
:1038C0000000FA050CED00E000E400E080FFFF1FBF
:1038D000714910B5884206D10121084600F0E3FB8A
:1038E000002101204FE06D49884206D101210220CC
:1038F00000F0D9FB0021022045E06949884206D149
:103900000121042000F0CFFB002104203BE06549A9
:10391000884206D10121082000F0C5FB00210820C3
:1039200031E06149884206D10121102000F0BBFB43
:103930000021102027E05D49884206D10121202086
:1039400000F0B1FB002120201DE05949884206D13A
:103950000121402000F0A7FB0021402013E0554941
:10396000884206D10121802000F09DFB00218020AB
:1039700009E0514988420AD184150121204600F00E
:1039800092FB00212046BDE8104000F08CBB10BD2A
:10399000F0B5002201274FF0030C0B6807FA02F57F
:1039A0002B40AB422CD1066853000CFA03F4A6431B
:1039B00006600E79D0F800E09E4046EA0E060660EA
:1039C0000E79012E01D0022E12D18668A6438660A0
:1039D0004E79D0F808E09E4046EA0E0686604668BA
:1039E000AE43466045688E799640B6B23543456031
:1039F000C568A543C560CC799C40C3681C43C460BE
:103A0000521C102AC9D3F0BD4FF6FF71016000218E
:103A1000017141718171C171704708B541F4803203
:103A20000092C261C1610099C161C169C069009021
:103A300008BD0246002012690A4200D001207047EA
:103A4000006980B270470246002052690A4200D0E5
:103A500001207047406980B27047018370474183FD
:103A600070470AB1018370474183704741617047D5
:103A700042694A40426170474B07DB0E9A40C908D1
:103A800010B500EB8100016A0F249C40A143016244
:103A9000016A1143016210BD0000024000040240AF
:103AA00000080240000C02400010024000140240D6
:103AB00000180240001C024000200240CA4910B514
:103AC000884206D10121102000F015FB00211020B2
:103AD00028E0C649884202D101214C0410E0C449C3
:103AE000884202D101218C040AE0C249884202D1F5
:103AF0000121CC0404E0C04988420AD101210C050F
:103B0000204600F0EEFA2046BDE81040002100F00B
:103B1000E8BABA49884209D10121202000F0EBFA25
:103B200000212020BDE8104000F0E5BA10BD7FB5AF
:103B30000446008A0D46C98820F440500143218282
:103B4000A08941F20C618843A9882A8911436A89B6
:103B500002431143A181A08A20F44071A88908433F
:103B6000A082684600F00AFA9F48844202D0A34827
:103B7000844201D1039800E00298A1890904002938
:103B800000EBC00101EB0010296802DA4FEA4101A5
:103B900001E04FEA8101B0FBF1F06422B0FBF2F1E9
:103BA0004FEA01114FEA11136FF018056B4300EB58
:103BB0008300A3891D044FF0320306D503EBC00038
:103BC000B0FBF2F000F0070005E003EB0010B0FBE3
:103BD000F2F000F00F00084320817FBD4FF4165132
:103BE000016000218180C18001810C22428181819C
:103BF000704710B5028A4C8822F470630A88224309
:103C00008C88C9880C4322431A43028210BD0021CC
:103C1000018041808180C18070470029818902D064
:103C200041F4005101E021F4005181817047028B81
:103C300002F47F420283028B0A4302837047002909
:103C4000818902D041F4004101E0C1F30E0181817C
:103C500070470029818A02D041F4006101E021F41B
:103C6000006181827047C1F30801818070478088BC
:103C7000C0F308007047028A22F00F020282028A13
:103C80000A43028270470029818902D041F0020173
:103C900001E021F0020181817047828922F40062F3
:103CA000828182890A4382817047028A22F020023F
:103CB0000282028A0A43028270470029018A02D0E6
:103CC00041F4804101E021F4804101827047818903
:103CD00041F00101818170470029818A02D041F0C1
:103CE000080101E021F0080181827047028BD2B205
:103CF0000283028B42EA0121018370470029818AF5
:103D000002D041F0200101E021F0200181827047C2
:103D10000029818A02D041F0100101E021F0100158
:103D200081827047828A22F004028282828A0A4358
:103D3000828270470029818A02D041F0020101E0AD
:103D400021F0020181827047002A828A01D00A4351
:103D500000E08A438282704710B5C1F3421301F03C
:103D60001F040121A140012B07D0022B07D01430E2
:103D7000002A026805D00A4304E00C30F8E710304E
:103D8000F6E78A43026010BD0246002012880A420C
:103D900000D001207047C9430180704770B501F021
:103DA0001F0501260024C1F3421306FA05F2012B78
:103DB0000FD0022B0FD0838A4FEA112100881342C3
:103DC00006FA01F600EA060001D000B101242046FF
:103DD00070BD8389F0E7038AEEE70A0A012191406A
:103DE000C9430180704700000010014000440040BA
:103DF00000480040004C00400050004000140140CA
:103E0000EA48016841F001010160E84A00210832F6
:103E100011600268E64B1A400260031DE54A1A6011
:103E2000026822F480220260E0480C300160704792
:103E3000DE490022891C0A70087070470246002083
:103E4000510901290CD002290CD0D84974310968D4
:103E500002F01F02012393400B4200D00120704763
:103E6000D249F4E7D1497031F1E718B500204FF499
:103E7000A06400903120FFF7E1FF0099491C0091F8
:103E8000A14201D00028F5D03120FFF7D7FF00284C
:103E900000D0012018BDC54A116821F0F80141EA9F
:103EA000C00010607047C44908607047BF490022D5
:103EB00070310A700A70012802D0042801D105204F
:103EC00008707047BD490860704741EA82115A087E
:103ED00010B5BB4B029C03EB02421143014341EA84
:103EE0000460B249091D086010BDB34908667047F7
:103EF000800140EA0170AD49843108607047AE49E5
:103F000088667047AC49C8647047A84B08331A6884
:103F1000084322F0EC62104318607047A34B08334B
:103F20001A68084322F078421043186070479F4A8D
:103F30000832116821F003010143116070479B486A
:103F40000830006800F00C007047984A0832116889
:103F500021F0F001014311607047944A0832116862
:103F600021F4E051014311607047904A0832116812
:103F700021F4604141EAC0001060704770B58B4B7E
:103F8000083319688F4C11F00C0104D08E4E0429AF
:103F900003D0082903D004601BE0066019E0834ABF
:103FA000121D1168C1F38055116801F03F0115B170
:103FB000B6FBF1F101E0B4FBF1F114681268C4F34F
:103FC00088146143C2F30142521C5200B1FBF2F16A
:103FD000016019680F2202EA11117C4A545C0168E1
:103FE000E14041601C68072505EA9424145D21FA2C
:103FF00004F484601B6805EA5333D25CD140C1608D
:1040000070BDC0F30121032908D1684B083319683A
:104010006F4A21F4F81102400A431A606349703173
:104020000A68C0F30B0002430A60704763494439D1
:104030000860704761494039086070476549086009
:1040400070475A4A30320029116801D0014300E01C
:10405000814311607047554A34320029116801D0FC
:10406000014300E0814311607047504A3832002913
:10407000116801D0014300E08143116070474B4A51
:1040800040320029116801D0014300E081431160F2
:104090007047464A44320029116801D0014300E0CC
:1040A000814311607047414A10320029116801D0E4
:1040B000014300E08143116070473C4A14320029FB
:1040C000116801D0014300E0814311607047374A15
:1040D00018320029116801D0014300E081431160CA
:1040E0007047324A20320029116801D0014300E0B4
:1040F0008143116070472D4A24320029116801D094
:10410000014300E0814311607047284A5032002982
:10411000116801D0014300E0814311607047234AD8
:1041200054320029116801D0014300E0814311603D
:1041300070471E4A58320029116801D0014300E03F
:10414000814311607047194A60320029116801D01B
:10415000014300E0814311607047144A6432002932
:10416000116801D0014300E08143116070470F4A9C
:104170000D320029117801D0014300E08143117014
:1041800070470A487430016841F0807101607047DF
:104190000146064A00200C3212680A4200D0012073
:1041A000704702490E310870704700000038024025
:1041B000FFFFF6FE1030002400004742800E474209
:1041C0000000FFFF0024F40040787D010C00002077
:1041D000FFFCFF0F5C0147424C4800210160C160B9
:1041E0001F2242618161C16101624162704730B545
:1041F00046490A6844F201039A430A600A6840F695
:10420000F2739A4303884488C588234384882C43E7
:10421000234304892343448980892343034313436D
:104220000B6030BD0021018041808180C18001810F
:1042300041818181704701684FEA314233490A6206
:1042400040684FEA304048627047304900280868AB
:1042500002D040F0040001E020F004000860704744
:10426000C178006861F31F60284988617047274959
:104270000028086802D040F0080001E020F00800A3
:104280000860704721490028086802D040F4804047
:1042900001E020F48040086070471C49002808684D
:1042A00002D040F0010001E020F0010008607047FA
:1042B0001648806A7047154A0029D16801D0014329
:1042C00002E0C04380B20140D16070470346002045
:1042D000190B0E4A012906D0022906D0116919428C
:1042E00000D0012070479168F9E75168F7E7074966
:1042F000486170470549024600200969114200D013
:1043000001207047014948617047000000000550D6
:10431000C94910B5884202D101214C050AE0C749BC
:10432000884202D101218C0504E0C54988420AD1A6
:104330000121CC052046FFF7D4FE2046BDE8104001
:104340000021FFF7CEBE10BD7FB5044680880D4624
:1043500020F03F066846FFF711FEBA490298B0FB0D
:10436000F1F189B20E43A680228822F00102228058
:10437000B54B2A689A421BD85200B0FBF2F080B2CB
:10438000042800D20420491C2184A083208840F006
:104390000100208020884FF6F5310840A9886A89FD
:1043A000114301432180A8892989084320817FBDC9
:1043B000EB88A3F53F46FF3E05D102EB4202B0FB7E
:1043C000F2F080B208E002EBC20303EB0212B0FB92
:1043D000F2F080B240F48040020501D140F00100CB
:1043E0004FF4967251434FF47A72B1FBF2F140F4FC
:1043F0000040C8E741F288310160002181804BF61E
:10440000FF72C280018141814FF4804181817047F8
:104410000029018802D041F0010101E021F00101F1
:10442000018070470029018802D041F4807101E0C9
:1044300021F48071018070470029018802D041F485
:10444000007101E021F400710180704712B141F068
:10445000010101E001F0FE0101827047002901889D
:1044600002D041F4806101E021F480610180704755
:10447000828901F0FE0122F0FE0211438181704722
:104480000029818902D041F0010101E021F0010100
:10449000818170470029018802D041F0400101E08C
:1044A00021F04001018070470029018802D041F4C9
:1044B000004101E0C1F30E0101807047002901882D
:1044C00003D021F080010180704741F08001FAE7BC
:1044D000B1F5804F818B02D021F4804101E041F49D
:1044E000804181837047B1F5006F018803D021F4CA
:1044F00000610180704741F40061FAE7B1F5005FA7
:10450000018803D021F400510180704741F400512B
:10451000FAE70029018802D041F0100101E021F002
:1045200010010180704701827047008AC0B2704755
:104530000029018802D041F4805101E021F480512A
:1045400001807047B1F5006F018803D021F400614C
:104550000180704741F40061FAE70029018802D028
:1045600041F0200101E021F0200101807047008B23
:10457000000A70470029818802D041F4006101E0FF
:1045800021F40061818070470029818802D041F4C4
:10459000805101E021F480518180704708B50844C2
:1045A0000090008808BD002A828801D00A4300E0FC
:1045B0008A4382807047034600209A8A1B8B42EA16
:1045C000034222F07F42914300D101207047818A4B
:1045D000008B41EA004121F07F4070470CB5024654
:1045E000002000920A0F21F07F41019202D0009A30
:1045F000143202E0009A090C1832009212680A4242
:1046000000D001200CBDC9438182704710B503461C
:1046100000209A884FF4E06404EA11449B8A224007
:1046200021F07F410B4202D0002A00D0012010BDB2
:10463000C943818270470000005400400058004088
:10464000005C004040420F00A08601004FF0204275
:1046500002EB800140B143F2D20008606FF070407D
:104660004860C1F80401704743F2DB001060F5E7D1
:1046700030B5D0E901121143D0E903231A431143A5
:1046800042690368114382691143C2691143026A96
:104690001143426A1143826A1143C26A1143026B99
:1046A00011434FF0204242F823108168082906D1B7
:1046B000016802EB81010B6843F040030B60416B22
:1046C000D1E9003443EA04138C688D89240244EA5A
:1046D000054423430C8A43EA04530C7D896943EA69
:1046E00004630B43016802EB81014B60C16AB1F5C1
:1046F000804F07D000686FF0704102EB8000C0F877
:10470000041130BD816B0068D1E9003443EA041321
:104710008C680D8A240244EA055423430C7D896980
:1047200043EA046302EB80000B43C0F8043130BD60
:1047300010B500210222C0E900128160C160016150
:1047400041618161D202C161C0E908125200C0E931
:104750000A210163436B0F221A60436B5A60446B5A
:10476000FF23A360446BE260446B2261446B62618F
:10477000446BA161846B2260846B6260846BA36074
:10478000836BDA60836B1A61836B5A61806B816122
:1047900010BD4FF0204202EB80000029016802D0DA
:1047A00041F0010101E0C04A11400160704710B5BD
:1047B000182340244FF020414FF0FC32102805D040
:1047C00041F8803F4C608A60CA6010BD0B664C6641
:1047D0008A66CA6610BD30B5D0E901121143D0E92E
:1047E00003231A431143426941EA4221826941EAA3
:1047F000423141F00804C169D1E9002342EA0322B1
:104800000B89097B1B0443EA01610A43016AD1E970
:10481000003543EA05230D89097B2D0445EA016132
:104820000B4301684FF02040102904D040F8804F1E
:104830008260C36030BD04668266C36630BD1021ED
:104840000160002141608160C1600161416181615D
:10485000C269FC211160C2695160C2699160C2697C
:10486000D160026A1160026A5160026A9160006A56
:10487000C16070474FF0204251B1102804D052F867
:10488000800F40F004000AE0106E40F004000AE0DF
:104890008549C91E102804D052F8800F08401060C6
:1048A0007047106E0840106670474FF0204251B1BB
:1048B000102804D052F8800F40F040000AE0106E3B
:1048C00040F040000AE078493F39102804D052F8FF
:1048D000800F084010607047106E084010667047E7
:1048E0004FF02041102802D0D1F894007047486F53
:1048F00070476E4818210160002141604FF0FC3183
:104900008160C1600161704710B5D0E9001241EAD1
:1049100042218268102343EA42321143634A116004
:10492000C168D1E9003443EA04230C89097B2404DB
:1049300044EA01610B4393600169D1E9003443EA21
:1049400004230C89097B240444EA01610B43D360EE
:104950004069D0E9001341EA03210389007B1B046D
:1049600043EA00600143116110BD00210160416014
:104970008160C268FC211160C2685160C2689160A8
:10498000C268D16002691160026951600269916078
:104990000269D16042691160426951604269916067
:1049A0004069C160704741490028086802D040F062
:1049B000040002E03C4AD21E10400860704710B567
:1049C0004FF480744FF020436AB1102803D0A04206
:1049D00004D1843303E0586E08430CE0A433186814
:1049E0000843186010BD102803D0A04205D18433BD
:1049F00004E0586E8843586610BDA4331868884395
:104A0000EFE7034600204FF02042102B08D0B3F50B
:104A1000807F07D0D2F8A4200A4200D0012070473E
:104A2000526EF9E7D2F88420F6E74FF020421028C2
:104A300007D0B0F5807F08D0A4321068884310609A
:104A40007047506E8843506670478432F5E70346DE
:104A500000204FF02042102B0CD0B3F5807F0BD0FC
:104A6000D2F8A4200A4202EAD10102D0002900D0E3
:104A700001207047526EF5E7D2F88420F2E74FF03C
:104A80002042102808D0B0F5807F0AD0A4321068E8
:104A900020EAD10010607047506E20EAD1005066C5
:104AA00070478432F3E70000FEFF0F00A00000A073
:104AB0002DE9F043016821F001010160002101604E
:104AC00041608160C160016121214161B849B84AFA
:104AD0003D251039904202D18D60BDE8F083B44A83
:104AE0004FF474661832904201D18E60F5E7B04AF7
:104AF0004FF474173032904201D18F60EDE7AC4A29
:104B00004FF0746C4832904202D1C1F808C0E4E71B
:104B1000A74BA84A6033984201D1CA60DDE7A44C94
:104B2000A54B7834A04201D1CB60D6E7DFF8808274
:104B3000A24C08F19008404501D1CC60CDE7DFF8E8
:104B400070824FF03D5908F1A808404502D1C1F8E4
:104B50000C90C2E79A49DFF868820839404501D1D4
:104B60000D60BAE7964D1835A84201D10E60B4E742
:104B7000934D3035A84201D10F60AEE7904D4835D6
:104B8000A84202D1C1F800C0A7E78D4D8C4960351D
:104B9000091FA84201D10A609FE7894A78329042F2
:104BA00001D10B6099E7864A9032904201D10C60A6
:104BB00093E7834AA83290428FD1C1F800908CE7E6
:104BC00030B503687F4ACC6813400A682243D1E9B4
:104BD00005452C432243CC6922430C6A22434C6A8C
:104BE00022438C6A22434C6B22438C6B22431A4330
:104BF0000260426922F00703D1E90B2422431A43E1
:104C000042610A6942604A6882608968C16030BD59
:104C10000021016041608160C16001614161816189
:104C2000C161016241628162C1620163416381636A
:104C300070470029016802D041F0010101E021F034
:104C40000101016070470029016802D041F4004170
:104C500001E021F40041016070470029016802D0A1
:104C600041F0200101E021F0200101607047416026
:104C70007047406880B27047002A026802D042F450
:104C8000002201E022F40022026001617047002945
:104C9000016802D041F4802101E021F4802101600B
:104CA00070470AB101617047C1607047014600203A
:104CB0000968090300D501207047014600200968F2
:104CC000C90700D001207047406900F038007047E4
:104CD00002463B4B00209A4202D2354A103A01E08C
:104CE000374A103A8B0001D5526800E01268364B03
:104CF0001A400A4200D001207047314A904202D245
:104D00002B48103801E02E4810382F4A8B0001EA5A
:104D1000020101D5C1607047816070470B0607D55D
:104D2000436912B143F0800301E023F08003436143
:104D3000802908D0002A026801F01E0101D00A4330
:104D400000E08A430260704730B51D4A002490425B
:104D500002D2174A103A01E0194A103A1B4B194285
:104D600005D01E2303EAD12503682B4002E04069E9
:104D700000F08003880001D5506800E01068124AF6
:104D80001040084201D003B10124204630BD0C4A36
:104D9000904202D20648103801E0094810380A4A09
:104DA0008B0001EA020101D5C16070478160704744
:104DB000106002403D000020400F002000003D2018
:104DC000106402403F801CF07D0F7D0F3C0F3C0FB4
:104DD0004D4810B5016841F0010101604A4A0021C7
:104DE000083211600268494B1A400260031D484AAC
:104DF0001A60026822F48022026043480C3001608D
:104E000000F03BF843494FF00060086010BD70B5FA
:104E10003D4D08352868404B404910F00C0004D047
:104E20003F4E042803D0082803D00B601BE00E601F
:104E300019E0354A121D1068C0F38054106800F064
:104E40003F0014B1B6FBF0F001E0B3FBF0F01368E3
:104E50001268C3F388135843C2F30142521C520034
:104E6000B0FBF2F0086028682C4AC0F30310121D52
:104E7000105C0A68C2400A6070BD0CB5002222496D
:104E800000920192086840F4803008604FF4A063FB
:104E9000086800F4003001900098401C00900198D0
:104EA00010B900989842F3D10868800329D50120F1
:104EB00001901548083002680260026842F400421E
:104EC0000260026842F4A0520260021F154B136098
:104ED0000A6842F080720A600A689201FCD5124AA0
:104EE00040F203711160016821F003010160016863
:104EF00041F0020101600168C1F381010229FAD188
:104F00000CBD01920CBD000000380240FFFFF6FE10
:104F10001030002408ED00E00024F4001C00002004
:104F200040787D01193C4005003C0240704700007C
:104F30000FB4044910B503AA029800F00DF910BC93
:104F40005DF814FB080000202DE9F0410E460446F0
:104F5000002020622046E168884730B3252805D02C
:104F6000D4E901219047206A401CF2E7E16820461D
:104F700000278847050018D0A5F14100192802D85C
:104F800020354FF400673246294620462760FBF75C
:104F900033F940B1012804D0F61D26F00706083683
:104FA000D8E7361DD6E72846DAE7206ABDE8F08163
:104FB00070B504460D4621461068AFF30080218885
:104FC000090502D5104A7A4402E00F4A7A440E32AB
:104FD000002104F1240307E000F00F064FEA10104F
:104FE000965D5E5401F101010028F5D10346207859
:104FF000000704D5702D02D009B1113202232046DA
:10500000BDE8704000F04BB8AE080000032A40F243
:10501000308010F0030C00F0158011F8013BBCF15A
:10502000020F624498BF11F801CB00F8013B38BF72
:1050300011F8013BA2F1040298BF00F801CB38BF80
:1050400000F8013B11F0030300F09880083AC0F02B
:10505000088051F8043B083A51F804CBA0E8081046
:10506000F5E7121D5CBF51F8043B40F8043BAFF379
:105070000080D20724BF11F8013B11F801CB48BFD3
:1050800011F8012B24BF00F8013B00F801CB48BF09
:1050900000F8012B704770477047704770472DE943
:1050A000F0470D4699469246044600F124080168EF
:1050B000880604D5E06921F01001216000E001209C
:1050C000A84202DDA0EB050700E00027A16907EB7D
:1050D000050202EB0900A1EB0000A0612078C006E8
:1050E00002D42046AFF30080002608E0D4E9012175
:1050F0001AF806009047206A401C761C20624E4534
:10510000F4DB2078C0060AD52046AFF3008006E025
:10511000D4E9012130209047206A401C2062381ECB
:10512000A7F10107F4DC07E0D4E9012118F8050034
:105130009047206A401C2062281EA5F10105F3DC7F
:105140002046AFF300802078000602D50220BDE89B
:10515000F0870120FBE70000074B70B50D467B444C
:1051600000F043F80446284600F052F810B14FF022
:10517000FF3070BD204670BD57E6FFFF10B5203AE6
:10518000C0F00B80B1E81850203AA0E81850B1E800
:105190001850A0E81850BFF4F5AF5FEA027C24BFB6
:1051A000B1E81850A0E8185044BF18C918C0BDE8AD
:1051B00010405FEA827C24BF51F8043B40F8043B76
:1051C00008BF7047D20728BF31F8023B48BF11F82B
:1051D000012B28BF20F8023B48BF00F8012B704785
:1051E00001694A1C02610878704700B58FB0CDE9AB
:1051F00001310021059105497944CDE9031011469B
:105200006846FFF7A1FE0FB000BD0000E5FFFFFFFD
:10521000007B00F080007047754600F029F8AE462C
:1052200005006946534620F00700854618B020B5B2
:10523000FEF7E4FABDE820404FF000064FF000070B
:105240004FF000084FF0000B21F00701AC46ACE82E
:10525000C009ACE8C009ACE8C009ACE8C0098D469B
:1052600070470446AFF300802046FAF7D7FF0000EE
:1052700000487047300000204FF0DE4210800148A7
:10528000018070470000016F000000000000000076
:105290000000000000000000000000183C3C3C182A
:1052A0001800181800000000000000666666000084
:1052B000000000000000000000000036367F363697
:1052C000367F3636000000000018183C6660301843
:1052D0000C06663C18180000000070D8DA760C182E
:1052E000306E5B1B0E000000000000386C6C3860F4
:1052F0006F66663B000000000000001818180000F0
:1053000000000000000000000000000C1818303001
:1053100030303018180C00000000003018180C0C49
:105320000C0C0C18183000000000000000361C7F28
:105330001C36000000000000000000000018187E6D
:10534000181800000000000000000000000000002D
:1053500000001C1C0C180000000000000000007E73
:10536000000000000000000000000000000000003D
:1053700000001C1C0000000000000006060C0C18B9
:1053800018303060600000000000001E33373733F3
:105390003B3B331E000000000000000C1C7C0C0C8A
:1053A0000C0C0C0C000000000000003C6666060CB3
:1053B0001830607E000000000000003C6666061C9D
:1053C0000666663C000000000000003030363636CD
:1053D000667F0606000000000000007E6060607CC2
:1053E00006060C78000000000000001C18307C66E7
:1053F0006666663C000000000000007E060C0C188B
:1054000018303030000000000000003C6666763C3A
:105410006E66663C000000000000003C6666666642
:105420003E0C18380000000000000000001C1C00AA
:1054300000001C1C0000000000000000001C1C00FC
:1054400000001C1C0C180000000000060C18306046
:1054500030180C06000000000000000000007E0074
:105460007E000000000000000000006030180C0604
:105470000C183060000000000000003C66660C184C
:1054800018001818000000000000007EC3C3CFDB26
:10549000DBCFC07F00000000000000183C6666669D
:1054A0007E666666000000000000007C6666667C22
:1054B0006666667C000000000000003C6666606076
:1054C0006066663C00000000000000786C6666665E
:1054D00066666C78000000000000007E6060607C02
:1054E0006060607E000000000000007E6060607C04
:1054F00060606060000000000000003C6666606064
:105500006E66663E00000000000000666666667E0D
:1055100066666666000000000000003C1818181857
:105520001818183C000000000000000606060606D9
:105530000666663C0000000000000066666C6C7841
:105540006C6C6666000000000000006060606060D7
:105550006060607E000000000000006363776B6B9A
:105560006B636363000000000000006363737B6F84
:1055700067636363000000000000003C66666666C7
:105580006666663C000000000000007C6666667C83
:1055900060606060000000000000003C66666666B7
:1055A0006666663C0C0600000000007C6666667C51
:1055B0006C666666000000000000003C6660301803
:1055C0000C06663C000000000000007E1818181849
:1055D000181818180000000000000066666666666D
:1055E0006666663C0000000000000066666666664F
:1055F00066663C18000000000000006363636B6B8C
:105600006B3636360000000000000066663418185D
:105610002C66666600000000000000666666663C58
:1056200018181818000000000000007E06060C186C
:105630003060607E000000000000003C3030303000
:105640003030303030303C000000006060303018C6
:10565000180C0C06060000000000003C0C0C0C0CA2
:105660000C0C0C0C0C0C3C0000183C6600000000FC
:10567000000000000000000000000000000000002A
:10568000000000000000FF000000001818180000D3
:10569000000000000000000000000000003C0606C2
:1056A0003E66663E0000000000000060607C6666AA
:1056B0006666667C0000000000000000003C66603A
:1056C0006060663C0000000000000006063E666662
:1056D0006666663E0000000000000000003C666652
:1056E0007E60603C000000000000001E3030307E14
:1056F000303030300000000000000000003E6666E0
:105700006666663E06067C0000000060607C666699
:105710006666666600000000000018180078181819
:105720001818187E0000000000000C0C003C0C0C47
:105730000C0C0C0C0C0C7800000000606066666CB1
:10574000786C6666000000000000007818181818D1
:105750001818187E0000000000000000007E6B6B2F
:105760006B6B6B630000000000000000007C66664D
:10577000666666660000000000000000003C666689
:105780006666663C0000000000000000007C666663
:105790006666667C6060600000000000003E666631
:1057A0006666663E060606000000000000666E7033
:1057B000606060600000000000000000003E60606B
:1057C0003C06067C0000000000000030307E3030D7
:1057D0003030301E000000000000000000666666E9
:1057E0006666663E00000000000000000066666617
:1057F00066663C18000000000000000000636B6B50
:105800006B6B363600000000000000000066663C4E
:10581000183C666600000000000000000066666636
:105820006666663C0C18F00000000000007E060C66
:105830001830607E000000000000000C18181830BE
:1058400060301818180C00000000001818181818FC
:105850001818181818181800000000301818180C1C
:10586000060C18181830000000000071DB8E0000D4
:10587000000000000000000030313233343536378C
:105880003839414243444546403058003031323384
:105890003435363738396162636465664030780084
:1058A000C05800080000002030000000C0010008BF
:1058B000F05800083000002060060000DC010008FD
:1058C00010270000000000000000000000000000A1
:1058D000010203040102030406070809000E27075A
:1058E0000000000000000000010203040607080990
:040000050800018569
:00000001FF
