:020000040800F2
:10000000C0020020890100088D0100088F0100084E
:10001000910100089301000895010008000000000C
:100020000000000000000000000000009701000830
:1000300099010008000000009B0100089D010008D4
:100040009F0100089F0100089F0100089F01000810
:100050009F0100089F0100089F0100089F01000800
:100060009F0100089F0100089F0100089F010008F0
:100070009F0100089F0100089F0100089F010008E0
:100080009F0100089F0100089F0100089F010008D0
:100090009F0100089F0100089F0100089F010008C0
:1000A0009F0100089F0100089F0100089F010008B0
:1000B0009F0100089F0100089F0100089F010008A0
:1000C0009F0100089F0100089F0100089F01000890
:1000D0009F0100089F0100089F0100089F01000880
:1000E0009F0100089F0100089F01000800F002F82E
:1000F00000F03CF80AA090E8000C82448344AAF186
:100100000107DA4501D100F031F8AFF2090EBAE883
:100110000F0013F0010F18BFFB1A43F0010318473B
:10012000A42E0000C42E0000103A24BF78C878C165
:10013000FAD8520724BF30C830C144BF04680C60ED
:10014000704700000023002400250026103A28BF35
:1001500078C1FBD8520728BF30C148BF0B60704739
:100160001FB5AFF300801FBD10B510BD00F0A3FF99
:100170001146FFF7F5FF00F05FF800F0C1FFFFF751
:10018000F3FF00F0C7FF000008480047FEE7FEE766
:10019000FEE7FEE7FEE7FEE7FEE7FEE7FEE7FEE737
:1001A00003480449024A044B70470000ED00000870
:1001B000C0000020C0020020C000002010B50021B7
:1001C0004FF0006001F04CF810BD10B501F05EF882
:1001D0004FF4803001F0A2F801F0E8F8FC49087013
:1001E00008460078012826D1102000F09FFF022049
:1001F00000F0A8FF002001F087F8002001F0B2F81D
:100200004FF4806001F0A4F84FF4E0114FF4803017
:1002100001F0B8F8012001F0AFF800BF392001F07B
:1002200053F80028FAD0022001F0B6F800BF01F020
:1002300063F80828FBD110BD1CB5FFF7C6FFFFF718
:10024000BDFF01210D2001F015F80121E14800F06A
:10025000D5FF4FF6FF70E04908801020C8700320DA
:100260008870DE4800F07AFFDB49DD4800F076FF59
:100270004FF6FF71D94800F0F0FF4FF6FF71D848F4
:1002800000F0EBFF4FF40040D34908801420C87001
:1002900003208870D14800F061FF00F0F2FA0220DC
:1002A00000F0B4FC8021CE4800F0D5FF0121CC48FD
:1002B00000F0CFFFCBA3CD480093C389028905216D
:1002C000462000F008FD0123C848C289CDE900237B
:1002D0008388012232213E2000F016FD0223C3480C
:1002E000C289CDE900238388012232215E2000F0FB
:1002F0000BFD0323BD48C289CDE900238388012279
:1003000032217E2000F000FD0423B848C289CDE9E7
:1003100000238388012232219E2000F0F5FC012178
:10032000AF4800F098FF00F015FEB14800780028B3
:100330007ED10121AA4800F08CFFAEA3AB48009308
:10034000C38902885A21142000F0C5FCADA3A74838
:100350000093C38902887821022000F0BCFCAB48DE
:100360000078A0B1AAA3A1480093C389828878210C
:10037000522000F0B0FC05239C48C289CDE900233F
:10038000838801227821722000F0BEFC13E0A1A333
:1003900096480093C38982887821342000F09BFC22
:1003A00005239248C289CDE9002383880122782160
:1003B000622000F0A9FC0121894800F04CFF96481A
:1003C00000F05EFE0121864800F043FF93A38748BA
:1003D0000093C38902889621022000F07CFC8E489D
:1003E000C37882480093C38982889621522000F006
:1003F00027FC894803797D480093C3898288962128
:10040000622000F01DFC8448437978480093C3893A
:1004100082889621722000F013FC7F48837973480C
:100420000093C38982889621822000F009FC00E0B5
:100430000AE17948C3796D480093C389828896217F
:10044000922000F0FDFB774800F00BFE75488079A4
:1004500000F00300744908600846006880020860E4
:100460007048C079096801EB80006F4908606D48E9
:10047000007A096801EBA0106B490860694840796F
:1004800000F00F00694908700120694908600846BA
:100490000068664909788840654908606148407A83
:1004A00000F0030061490870084600784006000E1D
:1004B00008705C48807A097801EBE0105B490870AD
:1004C00001205C49086059480078801C0968814017
:1004D0005848016054480068401C56490968484320
:1004E0005349096848435449086008460068000DAC
:1004F0005249086052A33D480093C3890288B42141
:10050000022000F0E8FB4D4800684FF47A71B0FB20
:10051000F1F0C0B240F0300434480094C3898288BE
:10052000B421522000F08CFB444800684FF47A71EB
:10053000B0FBF1F201FB12006421B0FBF1F0C0B29C
:1005400040F0300429480094C3898288B421622095
:1005500000F076FB394800686421B0FBF1F201FB42
:1005600012000A21B0FBF1F0C0B240F030041F4885
:100570000094C3898288B421722000F061FB2F4867
:1005800000680A21B0FBF1F201FB1200C0B240F09A
:10059000300416480094C3898288B421822000F078
:1005A0004FFB4D2311480093C3898288B4219220C8
:1005B00000F046FB42230D480093C3898288B42192
:1005C000A22000F03DFB0121054800F044FE6CE054
:1005D000040000200004300000000020000801405A
:1005E000000C014053442F4D4D4300001C000020DF
:1005F00032000020494E495420535543434553533C
:1006000000000000545950453A000000330000201B
:10061000534400004D4D43004C0000204E414D45D9
:100620003A0000003C0000200800002005000020E7
:10063000100000200C0000201400002018000020F2
:1006400053495A453A00000001211B4800F001FEC1
:100650001AA31E480093C38902885A21142000F06F
:100660003AFB21E00121144800F0F3FD18A31748DC
:100670000093C389828878210E2000F02CFB4FF470
:100680007A7000F0ADFB16A310480093C3898288EE
:1006900078210E2000F01FFB4FF47A7000F0A0FBD1
:1006A0000121054800F0D7FDDCE700BFFEE700E0D0
:1006B000401E0028FCD17047000C0140494E4954AF
:1006C000204641494C555245000000001C000020C6
:1006D0004341524420434845434B2D5550000000B0
:1006E000202020202020202020202020200000006A
:1006F00070B504460D460121FF4800F0AAFD2CB15B
:100700004FF48071FD4800F0A6FD04E04FF48071C5
:10071000FA4800F09EFD0421F74800F09AFD05F428
:100720007F40F549103108604FF47F40A843F449F9
:10073000C1F8140C0421F04800F08DFD6420FFF78F
:10074000B6FF0421EC4800F084FD4FF47F4000EA3E
:100750000520E94910310860E8434FF47F4101EA80
:100760000020E749C1F8140C0421E34800F073FDB0
:100770006420FFF79CFF0121DF4800F06CFD70BD95
:1007800010B504460121DC4800F063FD4FF4807190
:10079000DA4800F060FD0421D74800F05AFD04F467
:1007A0007F40D549103108604FF47F40A043D449C1
:1007B000C1F8140C0421D04800F04DFD0520FFF7CE
:1007C00076FF0421CC4800F044FD4FF47F4000EA5E
:1007D0000420C94910310860E0434FF47F4101EA29
:1007E0000020C749C1F8140C0421C34800F033FDB0
:1007F0000520FFF75CFF0121BF4800F02CFD10BD74
:1008000070B504460D4621460020FFF771FF2846CB
:10081000FFF7B6FF70BD2DE9F04104460D461646C0
:100820001F46A1B24FF40070FFF7EAFFB1B240F2E9
:100830000120FFF7E5FFA1B24FF40470FFF7E0FFDE
:10084000B1B240F21220FFF7DBFFA9B240F2112053
:10085000FFF7D6FFB9B240F21320FFF7D1FF40F205
:1008600002210020FFF744FFBDE8F081002205E0EF
:10087000002100E0491C6429FCDB521C8242F7DBAA
:10088000704710B54FF400619C4800F0E4FC05206F
:10089000FFF7ECFF4FF40061984800F0DAFC052008
:1008A000FFF7E4FF4FF40061944800F0D4FC05200A
:1008B000FFF7DCFF0121904800F0CBFC0021084647
:1008C000FFF79EFF0520FFF7D1FF00210846FFF745
:1008D00097FF0520FFF7CAFF00210846FFF790FFAA
:1008E0000520FFF7C3FF00210846FFF789FF052019
:1008F000FFF7BCFF6420FFF7B9FF0020FFF740FFC0
:100900000520FFF7B3FF0020FFF73AFF0520FFF7B0
:10091000ADFF0020FFF734FF0520FFF7A7FF002001
:10092000FFF72EFF0520FFF7A1FF6420FFF79EFFD2
:100930004FF4C4414FF48060FFF762FF0520FFF7DA
:1009400095FF40F608010820FFF75AFF0520FFF742
:100950008DFF40F60C414FF44070FFF751FF05202A
:10096000FFF784FF4FF6137140F20130FFF748FFA5
:100970000520FFF77BFF40F60F7140F20230FFF7D2
:100980003FFF0520FFF772FF41F20B5140F20330A9
:10099000FFF736FF0520FFF769FF4FF481514FF451
:1009A0004170FFF72DFF0520FFF760FF40F60B2198
:1009B00040F20530FFF724FF0520FFF757FF032122
:1009C00040F20630FFF71CFF0520FFF74FFF40F60F
:1009D000065140F20730FFF713FF0520FFF746FFEF
:1009E00040F204514FF44270FFF70AFF0520FFF771
:1009F0003DFF41F2300140F20930FFF701FF0520D1
:100A0000FFF734FF1B211020FFF7FAFE0520FFF748
:100A10002DFF40F201111120FFF7F2FE0520FFF734
:100A200025FF00211220FFF7EBFE0520FFF71EFF38
:100A300001211320FFF7E4FE0520FFF717FF4FF415
:100A40004C714FF48070FFF7DBFE0520FFF70EFFBF
:100A500040F2472140F20110FFF7D2FE0520FFF7D8
:100A600005FF4FF4805140F20310FFF7C9FE052047
:100A7000FFF7FCFE4FF43F414FF42070FFF7C0FE3C
:100A80000520FFF7F3FE4DF2B0114FF48170FFF730
:100A9000B7FE0520FFF7EAFE4FF47A70FFF7E6FE97
:100AA0004FF480710120FFF7ABFE0520FFF7DEFE5B
:100AB0004FF480710220FFF7A3FE0520FFF7D6FE5A
:100AC00041F230010320FFF79BFE0520FFF7CEFE29
:100AD00001210920FFF794FE0520FFF7C7FE002142
:100AE0000C20FFF78DFE0520FFF7C0FE4FF40041FC
:100AF0009020FFF785FE05E0000C01400008014052
:100B0000000001400520FFF7B1FE00210F20FFF794
:100B100077FE0520FFF7AAFE00214FF40470FFF7CF
:100B20006FFE0520FFF7A2FEEF2140F21120FFF734
:100B300067FE0520FFF79AFE002140F21220FFF722
:100B40005FFE0520FFF792FE40F28F1140F2132066
:100B5000FFF756FE0520FFF789FE00214FF4A06045
:100B6000FFF74EFE0520FFF781FE002140F2015005
:100B7000FFF746FE0520FFF779FE5F2140F20250A5
:100B8000FFF73EFE0520FFF771FE012140F2014014
:100B9000FFF736FE0520FFF769FE002140F2044012
:100BA000FFF72EFE0520FFF761FE4FF4FA70FFF706
:100BB0005DFE4FF480710720FFF722FE0520FFF74E
:100BC00055FE4FF47A70FFF751FE00214FF400708C
:100BD000FFF716FE0520FFF749FE002140F2012035
:100BE000FFF70EFE0520FFF741FE4FF4FA70FFF706
:100BF0003DFE40F202210020FFF77AFD0520FFF7BD
:100C000035FE4FF4FA70FFF731FE10BD70B50446A3
:100C100040F28F130022EF211046FFF7FCFD002564
:100C20000AE0002605E0744931F81400FFF7A8FD3A
:100C3000761CF02EF7D36D1CB5F5C87FF1D370BDCF
:100C40002DE9FF4F81B004460D4616460E9F4FF02A
:100C5000080B10200090CBF1F000A04204DB0098BC
:100C6000C0F5C870A84202DA05B0BDE8F08F009860
:100C70002844431E04EB0B00411E2A462046FFF782
:100C8000CAFDA7F12000C7B24FF000091FE05B4882
:100C900000EB071010F809804FF0000A11E018F07F
:100CA000800F03D03046FFF76BFD02E00498FFF79A
:100CB00067FD4FEA48604FEA10680AF1010000F052
:100CC000FF0ADA45EBDB09F1010000F0FF090098AB
:100CD0008145DCDBC8E72DE9F84304460D4616469E
:100CE0009846089F0BE03B780093434632462946DE
:100CF0002046FFF7A5FF04F1080084B27F1C387876
:100D00000028F0D1BDE8F8832DE9FF4F89B00446F3
:100D10000D461646179F4FF00008394901A80EC925
:100D20000EC001A850F82600059036B94FF00F0B01
:100D30000F2007902020069010E0012E06D14FF0E2
:100D4000170B172007904820069007E0022E05D1C8
:100D50004FF01F0B1F20079080200690781EDDE9C2
:100D6000051202FB0010049005EB0B0307982118F5
:100D70002A462046FFF74FFD0020089029E00498FE
:100D800010F801AB049066B9089800EBD0714910D7
:100D9000B0EB410102D14FF0080804E04FF0040825
:100DA00001E04FF008084FF000090DE04AFA09F0A1
:100DB00010F0010F03D00C98FFF7E2FC02E0169848
:100DC000FFF7DEFC09F10109C145EFDB0898401C83
:100DD0000890089906988142D1DB0DB0BDE8F08FEC
:100DE000002205E0002100E0491C6429FCDB521CC4
:100DF0008242F7DB704700001C000020B817000893
:100E0000B82F000800BF0100A0F10100FBD170471E
:100E1000002001E0411C88B20A28FBDB704700B5C6
:100E2000FFF7F6FFFFF7F4FFFFF7F2FFFFF7F0FF22
:100E300000BD10B54FF48041994800F00CFA4FF412
:100E40000041974800F007FA4FF48051944800F0B1
:100E500002FA10BD70B50546002425E015F0800F9C
:100E600005D04FF400518E4800F0F5F904E04FF43E
:100E700000518B4800F0EDF94FF48041884800F0B4
:100E8000E8F98848007808B1FFF7C9FF4FF48041BE
:100E9000834800F0E0F98348007808B1FFF7BFFF0E
:100EA0006806050E601CC4B2082CD7DB70BD70B597
:100EB00000244FF400417A4800F0CDF900251DE0F0
:100EC0004FF48041764800F0C4F97648007808B1C4
:100ED000FFF7A5FF4FF48041714800F0BCF971485D
:100EE000007808B1FFF79BFF4FF400416C4800F019
:100EF000A9F940EA4400C4B2681CC5B2082DDFDB82
:100F0000204670BD70B504464FF48051644800F02F
:100F1000A2F9FF20FFF79EFF4FF48051604800F0D8
:100F200098F9002605E014F8010BFFF793FF701CF9
:100F3000C6B2062EF7DB0026FFF7B9FF00BFFFF7AA
:100F4000B6FF0546701CC6B2FF2D01D1642EF6DB3C
:100F5000284670BD70B5FFF76CFFC820FFF752FF41
:100F6000012050490870002404E0FF20FFF772FFC1
:100F7000601CC4B20F2CF8DB002400BF4A48FFF706
:100F8000C1FF0546601CC4B2C82C01DB012070BD46
:100F9000012DF3D1002400BF772043490870084693
:100FA000FFF7B0FF0546012D0BD169203E490870BF
:100FB0000846FFF7A7FF054685B901203B490870A1
:100FC0000CE0412038490870FF2048710846FFF7BF
:100FD00099FF054615B9002034490870601CC4B259
:100FE000C82C01DB0220D2E7002DD5D100202D49ED
:100FF00008704FF480512A4800F02DF90020C6E710
:101000002DE9F04104460D4616464FF0000800BF9A
:101010002046FFF777FF074608F10108B8F1640F93
:1010200002D10420BDE8F081002FF1D100BFFFF70D
:101030003EFFFE28FBD14FF0000805E0FFF737FF29
:1010400005F8010B08F10108B045F7D3FFF72FFFB2
:10105000FFF72DFF4FF48051114800F0FCF80020FD
:10106000E0E770B5044649200F490870FF20487139
:10107000102221460C48FFF7C3FF0546284670BDE5
:1010800070B504464A2008490870FF2048711022B4
:1010900021460548FFF7B4FF0546284670BD00000D
:1010A00000080140320000202C0000203300002006
:1010B000704770477047754600F028F8AE46050047
:1010C0006946534620F00700854618B020B5FFF763
:1010D00067F8BDE820404FF000064FF000074FF0E2
:1010E00000084FF0000B21F00701AC46ACE8C00946
:1010F000ACE8C009ACE8C009ACE8C0098D4670474F
:101100000446AFF300802046FFF739F800487047E7
:101110005C00002003494FF01800ABBE7047000090
:1011200009000000260002007047000004490A6818
:1011300022F010020A600A6802430A607047000049
:101140000020024004490A6802F038020A600A6876
:1011500002430A607047000000200240F0B5CB78DF
:101160000022DC0603F00F0301D58C7823430C88A2
:101170000F2714F0FF0F4FF0010C1CD0D0F80050D7
:101180000E880CFA02F42640A64210D1960007FA07
:1011900006FE25EA0E0E03FA06F5CE7845EA0E05A0
:1011A000282E00D14461CE78482E00D10461521C13
:1011B000082AE5D305600A88FF2A1ED9456800225F
:1011C00002F108060CFA06F40E882640A64210D159
:1011D000960007FA06FE25EA0E0E03FA06F5CE780B
:1011E00045EA0E05282E00D14461CE78482E00D164
:1011F0000461521C082AE3D34560F0BDF0B5104DE0
:101200006B68440D260184B2C0F30157B440C0F3AB
:101210000342032F06D1686823F0706220F07060EB
:10122000686008E0C00203D503209040834300E0DB
:10123000A34343F0706201B122436A60F0BD000035
:10124000000001400246926800200A4200D00120BE
:1012500070474161704701617047C160704700008D
:10126000024A1140014302480160704780FFFF1F9E
:1012700008ED00E0044A0029916901D0014300E033
:101280008143916170470000001002400B480168E3
:1012900041F0010101604168094A11404160016863
:1012A000084A11400160016821F480210160426810
:1012B000002122F4FE02426081607047001002406B
:1012C0000000FFF8FFFFF6FE034600205909094A17
:1012D000012901D1116804E0022901D1116A00E05D
:1012E000516A03F01F02012393400B4200D00120FA
:1012F00070470000001002400248406800F00C00F7
:101300007047000000100240034A516821F0F001CC
:101310000143516070470000001002400B490A6809
:1013200022F480320A600A68B0F5803F22F48022FD
:101330000A6007D0B0F5802F03D1086840F4A020E0
:1013400008607047086840F48030F9E700100240F8
:10135000034A516821F4E061014351607047000085
:1013600000100240034A516821F4605141EAC00074
:101370005060704700100240014908667047000045
:1013800000004242034B5A68084322F47C12104387
:101390005860704700100240034A516821F0030171
:1013A00001435160704700000010024030B50B4C03
:1013B00040F2FF153120FFF787FF20706068401C66
:1013C0006060207810B96068A842F3D13120FFF73F
:1013D0007BFF002800D0012030BD00003400002039
:1013E0000000000000000000000E7000001C7000F3
:1013F0000078380000701C0400300C0EF0FFFF1F56
:1014000000300C0120300C07E0308C07C0318C0319
:101410008033CC018033EC0000336C1800303C3C4E
:10142000FEFFFF7F000000000003C00000FFFF017F
:101430000003C0010003C0000003C0000003C0009F
:1014400000FFFF000003C0000003C0000003C00055
:1014500000FFFF0000FFFF000003C00000010000CC
:1014600000000000000000000000000000C00100BB
:1014700000C0010000C0010000C0010000C0010068
:1014800000C0010430C0010EF0FFFF0F30C0010E9C
:1014900030C0010E30C0010E30C0010E30C0010E50
:1014A00030C0010E30C0010E30C0010EF0FFFF0F42
:1014B00030C0010E30C0010600C0010000C00100B4
:1014C00000C0010000C0010000C0010000C0010018
:1014D00000C0010000C0010000C0010000C0010008
:1014E00000000000000000000000000000000000FC
:1014F00000100007003C0007803F0003FC070003CA
:101500000C03060300030E0300031C0300031C036B
:1015100000231803FC7F0003FCFF0003800301038A
:101520008003070380070E03C01F0E03C07B0C134C
:10153000E0730C7B7073007F3023F80738C33F03E0
:101540001CE301030C030003060300030003000374
:101550000003000300030003000300030003000373
:101560000003000300000001000000000000000074
:101570000000000080033000800370008001300014
:101580008001300080013000800130008019301867
:10159000FCFFFF3F840130008001300080013000FB
:1015A000800130008031300680DFFF0FC007010E60
:1015B000F8010307FE0103079C01860380018603EF
:1015C0008001CC018001CC018001F800800178000D
:1015D000800178008001FE019C01CF07FCC1837F60
:1015E000E0F1007EC03E001C000000000000000092
:1015F000000000000000000910E0FB3F5C101040FC
:101600001010401010401010401310FCFC1F600818
:1016100000E0003070F90F50030150020148000152
:1016200048001144F00F42000140000160002160B9
:10163000FE7F6000000000000000000004000018B1
:1016400000001010F0FF3F10000010000090FF0F8E
:1016500010000610880110700010600010203090FB
:10166000FF7F1060181860040860000860000860C0
:1016700000046000046000023C0000300000000034
:10168000000000000000880010907F10B04110A002
:101690004112804512824D12CC4D12C84D12A84DF8
:1016A00012A04D12A04D12A04D129045129045125D
:1016B0009E0512180412181A10182210186110989A
:1016C000401E400018000000000000000000000064
:1016D0000108000F10001930001120002100FF7FC9
:1016E0000000010000012000013EC001203E012059
:1016F000100320100220100220100620134420D1D5
:101700002CA03C286007382000700000600000001A
:10171000000000000000000C0000040000040000B5
:10172000040C00FC0300040000040000040000049A
:1017300030FCFF0F000C00000400007C000084035C
:1017400000040700040C000408000400000400006A
:101750000400000C00000000EC0327022402EF0349
:101760000400F6078E00E50385008400F4070000FE
:101770002000FE070200FA01A2004200FE0742021A
:10178000420041007100000079044A0448056905DF
:101790006A056A056A056B05220552048E0600007B
:1017A00001030205FA0700010301F20122012201EF
:1017B000EA053606020400000000000000000000F8
:1017C00000000000000000000000183C3C3C18181D
:1017D0001800181800000000006363632200000076
:1017E000000000000000000000000036367F3636A2
:1017F000367F3636000000000C0C3E6361603E030D
:101800000343633E0C0C000000000000006163060F
:101810000C183363000000000000001C36361C3B2F
:101820006E66663B00000000003030306000000053
:10183000000000000000000000000C1818303030DC
:101840003018180C000000000000180C0C060606EA
:10185000060C0C18000000000000000042663CFF6F
:101860003C6642000000000000000000181818FF4D
:101870001818180000000000000000000000000020
:10188000000018181830000000000000000000FFE1
:101890000000000000000000000000000000000048
:1018A000000018180000000000000103070E1C389B
:1018B00070E0C0800000000000003E6363636B6B5B
:1018C0006363633E0000000000000C1C3C0C0C0C29
:1018D0000C0C0C3F0000000000003E6303060C18D7
:1018E0003061637F0000000000003E6303031E03BD
:1018F0000303633E000000000000060E1E3666660D
:101900007F06060F0000000000007F6060607E031D
:101910000363733E0000000000001C3060607E63C3
:101920006363633E0000000000007F630306060C53
:101930000C1818180000000000003E6363633E634B
:101940006363633E0000000000003E636363633F27
:101950000303063C0000000000000000001818000F
:101960000000181800000000000000000018180017
:101970000000181818300000000000060C18306035
:1019800030180C06000000000000000000007E007F
:10199000007E0000000000000000006030180C060F
:1019A0000C1830600000000000003E6363060C0C61
:1019B0000C000C0C0000000000003E63636F6B6BBA
:1019C0006E60603E000000000000081C3663636328
:1019D0007F6363630000000000007E3333333E33D7
:1019E0003333337E0000000000001E33616060600E
:1019F0006061331E0000000000007C363333333357
:101A00003333367C0000000000007F3331343C3437
:101A10003031337F0000000000007F3331343C342C
:101A2000303030780000000000001E336160606FCD
:101A30006363371D000000000000636363637F631E
:101A4000636363630000000000003C181818181856
:101A50001818183C0000000000000F0606060606D5
:101A60000666663C000000000000733336363C36E4
:101A700036333373000000000000783030303030EF
:101A80003031337F00000000000063777F6B6363B9
:101A9000636363630000000000006363737B7F6F18
:101AA000676363630000000000001C3663636363C8
:101AB0006363361C0000000000007E3333333E3089
:101AC000303030780000000000003E6363636363E1
:101AD000636B6F3E0607000000007E3333333E36F3
:101AE000363333730000000000003E6363301C0691
:101AF0000363633E000000000000FFDB9918181824
:101B00001818183C000000000000636363636363FF
:101B10006363633E0000000000006363636363630C
:101B200063361C0800000000000063636363636B9E
:101B30006B7F3636000000000000C3C3663C1818F7
:101B40003C66C3C3000000000000C3C3C3663C186A
:101B50001818183C0000000000007F6343060C18B2
:101B60003061637F0000000000003C3030303030D6
:101B70003030303C00000000000080C0E070381CB5
:101B80000E0703010000000000003C0C0C0C0C0CC4
:101B90000C0C0C3C00000000081C36630000000028
:101BA0000000000000000000000000000000000035
:101BB00000000000FF00000018180C0000000000EA
:101BC000000000000000000000000000003C46068D
:101BD0003E66663B0000000000007030303C36334B
:101BE0003333336E0000000000000000003E6360ED
:101BF0006060633E0000000000000E06061E3666B0
:101C00006666663B0000000000000000003E636363
:101C10007E60633E0000000000001C3632307C30E5
:101C2000303030780000000000000000003B6666A5
:101C300066663E06663C00000000703030363B337E
:101C4000333333730000000000000C0C001C0C0C3C
:101C50000C0C0C1E0000000000000606000E06061C
:101C600006060666663C00000000703030333336EE
:101C70003C3633730000000000001C0C0C0C0C0CF4
:101C80000C0C0C1E0000000000000000006E7F6BBA
:101C90006B6B6B6B0000000000000000006E3333C4
:101CA000333333330000000000000000003E636364
:101CB0006363633E0000000000000000006E3333E9
:101CC00033333E303078000000000000003B666691
:101CD00066663E06060F000000000000006E3B3303
:101CE000303030780000000000000000003E633813
:101CF0000E03633E0000000000000818187E18184C
:101D000018181B0E00000000000000000066666648
:101D10006666663B0000000000000000006363365A
:101D2000361C1C0800000000000000000063636314
:101D30006B6B7F3600000000000000000063361C63
:101D40001C1C366300000000000000000063636399
:101D500063633F03063C000000000000007F660C48
:101D60001830637F0000000000000E18181870186B
:101D70001818180E00000000000018181818180095
:101D800018181818180000000000701818180E18FD
:101D9000181818700000000000003B6E00000000E2
:101DA00000000000000000000070D8D870000000A3
:101DB0000000000000000000000000000000000023
:101DC0000000000000000000000000000000000013
:101DD0000000000000000000000000000000000003
:101DE00000000000000000000000000000000000F3
:101DF00007000700070007000700020002000200BA
:101E000002000200020000000000000007000700BE
:101E100007000000000000000000000006600660EF
:101E20000CC019801100220000000000000000001A
:101E300000000000000000000000000000000000A2
:101E40000000000000000000000000000000000092
:101E5000000010401040104010407FE07FE0104034
:101E60001040208020807FE07FE020802080208044
:101E700020800000000000000000000000000200C0
:101E800002000F801AC032C032C032001A000E00A9
:101E900007000380038002C032C032C032C012800B
:101EA0000F0002000200000000000000000000001F
:101EB000000070C050808880890089008B008A00F3
:101EC0005FC0754006200A200A201A201220114007
:101ED00021C0000000000000000000000000000021
:101EE00000001C00260026002600260025C03880A1
:101EF000308058804900CD00C700C600C30065206F
:101F000038C0000000000000000000003000380071
:101F10000800080010006000000000000000000041
:101F200000000000000000000000000000000000B1
:101F30000000000000000000000000000020004041
:101F40000080018001000300030006000600060077
:101F500006000600060006000300030001000180E1
:101F60000080004000200000000000004000200031
:101F70001000180008000C000C0006000600060007
:101F800006000600060006000C000C000800180001
:101F900010002000400000000000000000000000D1
:101FA0000000000002000200020072703AE00F80A0
:101FB0000F803AE072700200020002000000000090
:101FC0000000000000000000000000000000000011
:101FD00000000000000002000200020002000200F7
:101FE0007FF0020002000200020002000000000078
:101FF00000000000000000000000000000000000E1
:1020000000000000000000000000000000000000D0
:102010000000000000000000000000003000380058
:102020000800080010006000000000000000000030
:1020300000000000000000000000000000000000A0
:102040007FE0000000000000000000000000000031
:102050000000000000000000000000000000000080
:102060000000000000000000000000000000000070
:1020700000000000000000000000000038003800F0
:102080003800000000000000000000000020006098
:10209000004000C00080008001000100020002003A
:1020A00006000400040008000800100010003000C2
:1020B0002000600040000000000000000000000060
:1020C00000000F00198030C030C060606060606048
:1020D0006060606060606060606030C030C01980C7
:1020E0000F000000000000000000000000000000E1
:1020F0000000020006003E00060006000600060082
:10210000060006000600060006000600060006009F
:102110003FC00000000000000000000000000000C0
:1021200000001F00218040C060C060C000C001806E
:1021300001800300040008001040204040407FC0A0
:102140007FC0000000000000000000000000000050
:1021500000001E0023006180618061800180030017
:102160000E000180008000C060C060C060C021809F
:102170001F00000000000000000000000000000040
:102180000080018003800380058009800980118020
:102190002180218041807FE00180018001800180D9
:1021A00007E0000000000000000000000000000048
:1021B00000003FC03FC020002000200020002F0072
:1021C000318020C000C000C060C060C0418021805C
:1021D0001F000000000000000000000000000000E0
:1021E0000000078018C030C0300020006000678009
:1021F00068C070606060606060602060304018C0DF
:102200000F000000000000000000000000000000BF
:1022100000001FE03FE0304020802080008001006F
:10222000010002000200020006000600060006008F
:102230000600000000000000000000000000000098
:1022400000001F8030C060606060606070403CC013
:102250000F00338020C0606060606060606030C0EC
:102260000F800000000000000000000000000000DF
:1022700000000F00308030C06040606060606060CF
:1022800060E031601E60006000C000C030803180BE
:102290001E00000000000000000000000000000020
:1022A0000000000000000000000007000700070019
:1022B0000000000000000000000000000700070010
:1022C0000700000000000000000000000000000007
:1022D00000000000000000000000000006000600F2
:1022E00000000000000000000000000000000600E8
:1022F00006000200040000000000000000000000D2
:1023000000200040008001000200040008001000CE
:1023100020001000080004000200010000800040BE
:10232000002000000000000000000000000000008D
:102330000000000000000000000000007FE000003E
:102340000000000000007FE000000000000000002E
:10235000000000000000000000000000000000007D
:10236000200010000800040002000100008000406E
:10237000002000400080010002000400080010005E
:10238000200000000000000000000000000000002D
:102390000F8030C0406040606060606000C00180BD
:1023A0000600040004000400000000000E000E00FF
:1023B0000E0000000000000000000000000000000F
:1023C000000007801C601020335026D06490649079
:1023D00068906890699069A066C0301030201840FD
:1023E0000780000000000000000000000000000066
:1023F0000000060006000E000B000B001300118009
:10240000118011801F8020C020C020C0206060602B
:10241000F0F00000000000000000000000000000DC
:102420000000FF00618060C060C060C060C061806B
:102430007F0060C06040606060606060606060C03D
:10244000FF8000000000000000000000000000000D
:10245000000007E01860302030202000600060009D
:102460006000600060006000602030203040188014
:102470000F0000000000000000000000000000004D
:102480000000FE00618060C060C0606060606060ED
:102490006060606060606060606060C060C0638059
:1024A000FE0000000000000000000000000000002E
:1024B0000000FFC0604060206000600061006100BB
:1024C0007F0061006100600060006020602060406B
:1024D000FFC000000000000000000000000000003D
:1024E0000000FFC060C060206020600061006100EB
:1024F0007F006100610060006000600060006000BB
:10250000F0000000000000000000000000000000DB
:1025100000000F4018C030403040200060006000D4
:102520006000600063F060C060C030C030C018C0A0
:102530000F0000000000000000000000000000008C
:102540000000F0F06060606060606060606060602B
:102550007FE06060606060606060606060606060DC
:10256000F0F000000000000000000000000000008B
:1025700000003FC006000600060006000600060038
:10258000060006000600060006000600060006001B
:102590003FC000000000000000000000000000003C
:1025A00000000FF001800180018001800180018026
:1025B0000180018001800180018001800180018013
:1025C0000180618063003E00000000000000000008
:1025D0000000F3E0608061006200620064006C0053
:1025E0007C007600670063006380618060C060E00B
:1025F000F1F00000000000000000000000000000FA
:102600000000F0006000600060006000600060009A
:10261000600060006000600060006020602060403A
:10262000FFC00000000000000000000000000000EB
:102630000000F0F070E070E070E05960596059609F
:1026400059605A604E604E604E604E604460446017
:10265000E4F00000000000000000000000000000A6
:102660000000E07070207020582058204C20462038
:1026700046204320432041A040E040E040604060CD
:10268000E02000000000000000000000000000004A
:1026900000000F00198030C03040606060606060F2
:1026A00060606060606060606060304030C0198071
:1026B0000F0000000000000000000000000000000B
:1026C0000000FF8060C060606060606060606060AB
:1026D00060C07F806000600060006000600060009B
:1026E000F0000000000000000000000000000000FA
:1026F00000000F00198030C0304060606060606092
:1027000060606060606060606E60324031C0118007
:102710000F8001E000C00000000000000000000089
:102720000000FF8060C0606060606060606060C0EA
:102730007F006600630063006180618060C060C0EC
:10274000F070000000000000000000000000000029
:1027500000001F2030E060206020600070003C001E
:102760000F0003C000C0006040604060606070C047
:102770004F8000000000000000000000000000008A
:1027800000007FE046208610861006000600060046
:102790000600060006000600060006000600060009
:1027A0000F0000000000000000000000000000001A
:1027B0000000F070602060206020602060206020B9
:1027C0006020602060206020602060206020304019
:1027D0001F8000000000000000000000000000005A
:1027E0000000F8F070603040304030403080188099
:1027F0001880188018800D000D000D000F000600D5
:1028000006000000000000000000000000000000C2
:102810000000F770662066206640664067403740DB
:1028200037403B803B803B803B803980110011006A
:102830001100000000000000000000000000000087
:10284000000079E030C01880188019000D000E00DB
:102850000600060007000B000B801980118030C0B5
:1028600079E000000000000000000000000000000F
:102870000000F8F0706030403080188018800D0043
:102880000D000E0006000600060006000600060009
:102890001F80000000000000000000000000000099
:1028A00000003FE020C041C001800380030003001E
:1028B000060006000C000C001800182038203040DC
:1028C0007FC00000000000000000000007E00400DE
:1028D00004000400040004000400040004000400D8
:1028E00004000400040004000400040004000400C8
:1028F0000400040007E000000000000000000000E9
:10290000200010001000100008000800040004005F
:1029100004000200020001000100010000800080AC
:102920000040004000400020000000003F00010087
:10293000010001000100010001000100010001008F
:10294000010001000100010001000100010001007F
:10295000010001003F0000000000000007000D80A2
:102960001040000000000000000000000000000017
:102970000000000000000000000000000000000057
:102980000000000000000000000000000000000047
:102990000000000000000000000000000000000037
:1029A0000000000000000000000000000000000027
:1029B000000000000000FFF00000000030003800C0
:1029C0000800080010006000000000000000000087
:1029D00000000000000000000000000000000000F7
:1029E00000000000000000000000000000000000E7
:1029F0000000000000000000000000000F8030C058
:102A000030C007C01CC030C060C060C060C071D0A2
:102A10003EF0000000000000000000000000000088
:102A200010007000300030003000300033803CC0B7
:102A3000386030603060306030603060304038C0C6
:102A40002F800000000000000000000000000000D7
:102A50000000000000000000000000000F003180B6
:102A600031806180600060006000604030403080F4
:102A70000F00000000000000000000000000000047
:102A8000004001C000C000C000C000C01EC031C076
:102A900030C060C060C060C060C060C020C031E0B5
:102AA0001E80000000000000000000000000000088
:102AB000000000000000000000000000078018C0B7
:102AC000106030603FE030003000300018201C40C3
:102AD000078000000000000000000000000000006F
:102AE000000003C006600C600C000C007FC00C00EE
:102AF0000C000C000C000C000C000C000C000C0076
:102B00003F80000000000000000000000000000006
:102B10000000000000000000000000000F7019908D
:102B200030C030C030C019801F0030003E001FC0D0
:102B30006060606070E01F80000000000000000026
:102B4000100070003000300030003000378038C096
:102B500030C030C030C030C030C030C030C030C0F5
:102B600079E000000000000000000000000000000C
:102B70000000060006000000000000003E00060005
:102B80000600060006000600060006000600060015
:102B90003FC0000000000000000000000000000036
:102BA0000000018001800000000000000F80018013
:102BB000018001800180018001800180018001800D
:102BC0000180018033003E00000000000000000092
:102BD00010007000300030003000300033C0310091
:102BE0003300320036003E003B003300318031803C
:102BF00079E000000000000000000000000000007C
:102C000002003E0006000600060006000600060060
:102C10000600060006000600060006000600060084
:102C20003FC00000000000000000000000000000A5
:102C3000000000000000000000000000EEE07760EF
:102C40006660666066606660666066606660666054
:102C5000F77000000000000000000000000000000D
:102C600000000000000000000000000073803CC075
:102C700030C030C030C030C030C030C030C030C0D4
:102C800079E00000000000000000000000000000EB
:102C90000000000000000000000000000F0019808C
:102CA00030C06060606060606060606030C030C094
:102CB0000F00000000000000000000000000000005
:102CC000000000000000000000000000778038C015
:102CD00030603060306030603060306030C038C0AC
:102CE0003780300030007C00000000000000000051
:102CF0000000000000000000000000001E4031C085
:102D000030C060C060C060C060C060C020C031C062
:102D10001EC000C000C003E0000000000000000072
:102D2000000000000000000000000000F9E01A6050
:102D30001C001800180018001800180018001800CF
:102D4000FF00000000000000000000000000000084
:102D50000000000000000000000000000FE018600C
:102D6000302030001C000F8001C02060206030C087
:102D70003F80000000000000000000000000000094
:102D800000000000040004000C000C007F800C0018
:102D90000C000C000C000C000C000C000C400C4053
:102DA000078000000000000000000000000000009C
:102DB00000000000000000000000104071C030C0A2
:102DC00030C030C030C030C030C030C030C039E05A
:102DD0001E80000000000000000000000000000055
:102DE0000000000000000000000000007CF03860DF
:102DF000184018400C800C800C800700070007006A
:102E000002000000000000000000000000000000C0
:102E1000000000000000000000000000F7B0632088
:102E200063206720372035C039C039C039C01080D1
:102E30001080000000000000000000000000000002
:102E40000000000000000000000000007DE018808D
:102E500019800D000E00060007000B00198011C03C
:102E60007BE0000000000000000000000000000007
:102E70000000000000000000000000007DE038803D
:102E8000188018800D000D000D00060006000200DD
:102E900004000400280038000000000000000000CA
:102EA0000000000000000000000000003FC0218082
:102EB00023800300070006000E000C201C20186071
:102EC0003FC0000000000000000000000000000003
:102ED00000000000000000000000000000000000F2
:102EE00000000000000000000000000000000000E2
:102EF00000000000000000000000000000000000D2
:102F000000000000000000000000000000000000C1
:102F100000000000000000000000000000000000B1
:102F200000000000000000000000000000000000A1
:102F30000000000000000000000000000000000091
:102F40000000000000000000000000000000000081
:102F50000000000000000000000000000000000071
:102F60000000000000000000000000000000000061
:102F70000000000000000000000000000000000051
:102F80000000000000000000000000000000000041
:102F90000000000000000000000000000000000031
:102FA0000000000000000000000000000000000021
:102FB000000000000000000058170008F01500088D
:102FC000E0130008E42F0008000000203C0000008F
:102FD00028010008203000083C0000208402000086
:102FE0004401000800000000000000000000000094
:102FF00000000000000000000000000000000000D1
:1030000000F8E0071F00E0FF0000FF071FF8FFFFC8
:1030100040000000009500000000000000000000DB
:04000005080000ED02
:00000001FF
