:020000040800F2
:1000000098060020B9380008692200086B22000811
:100010006D2200086F220008712200080000000015
:100020000000000000000000000000007322000833
:10003000752200080000000077220008D13800086F
:10004000D3380008D3380008D3380008D338000864
:10005000D3380008D3380008D3380008D338000854
:10006000D3380008D3380008D3380008D338000844
:10007000D3380008D3380008D3380008D338000834
:10008000D3380008D3380008D3380008D338000824
:10009000D3380008D3380008D3380008D338000814
:1000A000D3380008D3380008D3380008D338000804
:1000B000D3380008D3380008D3380008D3380008F4
:1000C000D3380008D3380008D3380008D3380008E4
:1000D000D338000879220008D3380008D338000844
:1000E000D3380008D3380008D3380008D3380008C4
:1000F000D3380008D3380008D3380008D3380008B4
:10010000D3380008D3380008D3380008D3380008A3
:10011000D3380008D3380008D3380008D338000893
:10012000D3380008D3380008D3380008D338000883
:10013000D3380008D3380008D3380008D338000873
:10014000D3380008D3380008D3380008D338000863
:10015000D3380008D3380008D3380008D338000853
:10016000D3380008D3380008D3380008D338000843
:10017000D3380008D33800089F220008D33800087D
:10018000D3380008D338000800F002F800F044F833
:100190000AA090E8000C82448344AAF10107DA45E2
:1001A00001D100F039F8AFF2090EBAE80F0013F0F0
:1001B000010F18BFFB1A43F00103184764580000F1
:1001C00084580000103A24BF78C878C1FAD8520782
:1001D00024BF30C830C144BF04680C6070470000C1
:1001E0000023002400250026103A28BF78C1FBD840
:1001F000520728BF30C148BF0B607047782904F010
:100200007B87632905F05580002070471FB505F0F6
:10021000F5F81FBD10B510BD05F0B8F81146FFF791
:10022000F5FF00F009F805F0D6F803B4FFF7F2FF88
:1002300003BC02F004F800001CB501F0A3FF00F0BD
:10024000DBFA4FF47844204601F037FE4FF6FF7595
:100250002B4639A246213220009401F03FFF3AA0FC
:1002600004F0E0FE48A004F0DDFE02F0FBFD0028F3
:100270002ED049A004F0D6FE2B464DA200945A2160
:10028000322001F02BFF01A803F0CBFA9DF8060005
:1002900000909DF807309DF805209DF8041049A0B6
:1002A00004F0C0FE46F26801112005F09FF800211D
:1002B000084601F0D2FD01F034FF0121494803F066
:1002C000D0FC012003F0C6FB012003F0CEFBFEE7CB
:1002D00045A004F0A7FE2B4649A20094CFE701B544
:1002E0004C480099016001680029FCD108BD4948CB
:1002F0000168002902D00168491E016070471CB5E1
:100300000121082004F063FB8020009001208DF87B
:10031000040000208DF8060003218DF805103E4CE6
:100320008DF807006946204603F0FCFF8021204637
:1003300004F05FF81CBD000043616D6572612049E7
:100340006E69742E2E0000000D0A0D0A57656C634D
:100350006F6D6520746F20576176655368617265B3
:100360002053544D333246322073657269657320D1
:100370004D435520426F617264204F70656E32307C
:1003800037490D0A000000004F56393635352049EF
:100390006E69742E2E0D0A004F56393635352049B8
:1003A0006E6974206661696C7321210D0A0000007A
:1003B0004F563936353520496E6974206661696C4F
:1003C000732121004F56393635352049443A30786B
:1003D00025782030782578203078257820307825C9
:1003E000780D0A002864024043616D6572612048FF
:1003F00061766520496E69742E2E0D0A000000009A
:1004000043616D657261204861766520496E69744B
:100410002E2E000000000020000C024070B586B0B7
:100420000121022004F0D3FA0121880504F0EDFA3D
:10043000924E04220B21304603F0E8FF04220A21E9
:10044000304603F0E3FF02208DF8040001208DF810
:1004500006008DF805003515002400958DF807403D
:100460006946304603F05EFF6800009069463046FA
:1004700003F058FF824E304603F0EAFFADF80C401F
:100480004BF6FF70ADF80E00FE20ADF8100028010D
:10049000ADF814007B480290ADF8125001213046AF
:1004A00004F056F802A9304603F0EEFF0121304671
:1004B00004F074F806B070BD2DE9F047724D814626
:1004C000924628680E466E4F0121384604F04AF8DD
:1004D0002C68DFF8B88101E0641E3BD34146384602
:1004E00004F009F90028F7D000224946384604F004
:1004F0004DF82C68DFF8988101E0641E2AD341464C
:10050000384604F0F8F80028F7D0F1B2384604F085
:10051000AAF82C685E4EB61C01E0641E1AD3314660
:10052000384604F0E8F80028F7D05146384604F081
:100530009AF82C6801E0641E0CD33146384604F06A
:10054000DAF80028F7D00121384604F015F8002029
:10055000BDE8F087FF20FBE72DE9F74F4A4F9246B1
:1005600089463868464E1436308840F480603080C2
:10057000DFF80C810121404603F0F4FF3C68434D55
:1005800001E0641E78D32946404604F0B4F8002800
:10059000F7D000224046009903F0F8FF3C68DFF8EE
:1005A000F0B001E0641E67D35946404604F0A3F85A
:1005B0000028F7D009F0FF01404604F054F83C68E9
:1005C000DFF8CC9009F1020901E0641E54D34946DA
:1005D000404604F090F80028F7D0308840F480605E
:1005E000308001214446404603F0C6FF01212046E9
:1005F00003F0B8FFB8463F6801E07F1E3CD32946B0
:10060000204604F078F80028F7D00122274620463B
:10061000009903F0BBFFD8F800404546DFF86C8036
:1006200008F1010801E0641E26D34146384604F073
:1006300062F80028F7D00021384603F0AFFF2C689D
:10064000124D3F3501E0641E16D32946384604F0AA
:1006500052F80028F7D00121384603F08DFF3846C4
:1006600004F003F88AF80000308840F4806030809D
:100670000020BDE8FE8FFFE7FF20FAE700040240FC
:1006800000580040A0860100040000200100030083
:1006900082000700034A02EB0111A1F5007110224C
:1006A00004F058BD065400081CB50121582004F080
:1006B0008EF90121084604F09EF9FF4C0C2200211E
:1006C000204603F0A3FE0C220121204603F09EFEEB
:1006D0000C220421204603F099FE0C22052120461D
:1006E00003F094FE0C220821204603F08FFE0C221A
:1006F0000921204603F08AFE0C220A21204603F03D
:1007000085FE0C220E21204603F080FE0C220F21D4
:10071000204603F07BFE02218DF804108DF80510B1
:1007200000214CF233708DF8061000908DF8071000
:100730006946204603F0F6FDE04C0C2202212046DB
:1007400003F064FE0C220721204603F05FFE0C221A
:100750000821204603F05AFE0C220921204603F00E
:1007600055FE0C220A21204603F050FE0C220B21DC
:10077000204603F04BFE0C221146204603F046FEB5
:100780000C220D21204603F041FE0C220E212046B2
:1007900003F03CFE0C220F21204603F037FE4FF6FB
:1007A000847100916946204603F0BCFDC44C0C22C4
:1007B0000521204603F02AFE0C221146204603F0B4
:1007C00025FE0C220D21204603F020FE43F22001DD
:1007D00000916946204603F0A5FD1CBD002240F2B1
:1007E000754306E00021491C89B29942FBD3521C93
:1007F00092B28242F6D370472DE9F05FB14CFFF719
:1008000053FF641EFDD201F091FC4FF0DE42AE4971
:1008100000201080AD4B18884880A0F513474FF496
:10082000807440F2272840F2077540F23F164FF4DB
:10083000887B253F01D0FF1E7ED10120087010214A
:10084000E72004F0D3FD0121002004F0CFFD214674
:10085000012004F0CBFD4FF4E061022004F0C6FD5E
:1008600041F23001032004F0C1FD0021042004F016
:10087000BDFD40F20721082004F0B8FD0021092049
:1008800004F0B4FD00210A2004F0B0FD01210C2089
:1008900004F0ACFD00210D2004F0A8FD00210F2084
:1008A00004F0A4FD0021102004F0A0FD0721112078
:1008B00004F09CFD0021122004F098FD002113207B
:1008C00004F094FD3220FFF789FF41F2905110208F
:1008D00004F08CFD4146112004F088FD3220FFF722
:1008E0007DFF9C21122004F081FD3220FFF776FF6E
:1008F0004FF4C851132004F079FD2321292004F07E
:1009000075FD0E212B2004F071FD3220FFF766FFEC
:100910000021202004F06AFD0021212004F066FD62
:100920003220FFF75BFF0721302004F05FFD2946EE
:10093000312004F05BFD00E080E00621322004F06D
:1009400055FD40F20471352004F050FD41F604716C
:10095000362004F04BFD0421372004F047FD002130
:10096000382004F043FD40F20671392004F03EFDCA
:1009700040F201713C2004F039FD0F213D2004F0CC
:1009800035FD3220FFF72AFF0021502004F02EFD14
:10099000EF21512004F02AFD0021522004F026FD11
:1009A0003146532004F022FD4FF42741602004F02B
:1009B0001DFD0121612004F019FD00216A2004F0D1
:1009C00015FD0021802004F011FD0021812004F09C
:1009D0000DFD0021822004F009FD0021832004F098
:1009E00005FD0021842004F001FD0021852004F094
:1009F000FDFC1021902004F0F9FC0021922004F06D
:100A0000F5FC0321932004F0F1FC5946952004F0F5
:100A1000EDFC0021972004F0E9FC0021982004F06F
:100A2000E5FC40F23311072004F0E0FC0021202017
:100A300004F0DCFC0021212001F008BAA0F51347E6
:100A4000203F7CD0B0F5134FFBD0A0F5134C4FF4F2
:100A50000177BCF1310C73D10320087041F214010D
:100A6000E72004F0C3FC2146012004F0BFFC391F3D
:100A7000022004F0BBFC41F23001032004F0B6FC7C
:100A8000B91E082004F0B2FC0021092004F0AEFCDD
:100A900000210A2004F0AAFC00210C2004F0A6FC8E
:100AA00000210D2004F0A2FC00210F2004F09EFC88
:100AB000002110200CE00000000C02400010024059
:100AC00000180240FFFF1F00080000200000016F17
:100AD00004F08CFC0721112004F088FC0021122076
:100AE00004F084FC0021132004F080FCC820FFF7F0
:100AF00075FE41F29061102004F078FC414611200F
:100B000004F074FC3220FFF769FE0C21122004F07F
:100B10006DFC3220FFF762FE4FF40061132004F0F9
:100B200065FC1121292004F061FC0B212B2004F02D
:100B30005DFC3220FFF752FE0021202001E080E022
:100B400024E104F053FC0021212004F04FFC00219B
:100B5000302004F04BFC4FF483742146312004F024
:100B600045FC0021322004F041FC3946352004F0D8
:100B70003DFC41F20A61362004F038FC294637205A
:100B800004F034FC2146382004F030FC294639209A
:100B900004F02CFC40F202413C2004F027FC40F61B
:100BA0000F413D2004F022FC0021502004F01EFCE7
:100BB000EF21512004F01AFC0021522004F016FC11
:100BC0003146532004F012FC4FF41C51602004F015
:100BD0000DFC0121612004F009FC00216A2004F0D1
:100BE00005FC0021802004F001FC0021812004F09C
:100BF000FDFB0021822004F0F9FB0021832004F09A
:100C0000F5FB0021842004F0F1FB0021852004F095
:100C1000EDFB1021902004F0E9FB4FF4C06192201D
:100C200004F0E4FB2121072004F0E0FB3220FFF771
:100C3000D5FD6121072004F0D9FB3220FFF7CEFD5E
:100C4000FEE300200870014604F0D0FB214601209D
:100C500004F0CCFB4FF4E061022004F0C7FB41F24A
:100C60001801032004F0C2FB0021042004F0BEFBA5
:100C700040F20221082004F0B9FB0021092004F011
:100C8000B5FB00210A2004F0B1FB01210C2004F087
:100C9000ADFB00210D2004F0A9FB00210F2004F082
:100CA000A5FB6420FFF79AFD40F20111072004F034
:100CB0009DFB6420FFF792FD4FF48651102004F055
:100CC00095FB0721112004F091FB5C465946122048
:100CD00004F08CFB4FF43061132004F087FB0021FB
:100CE000292004F083FB44F210012B2004F07EFB4A
:100CF0000021502004F07AFBEF21512004F076FB14
:100D00000021522004F072FB3146532004F06EFBA8
:100D10004FF41C51602004F069FB0121612004F0B4
:100D200065FB00216A2004F061FB0021802004F0B3
:100D30005DFB0021812004F059FB0021822004F09A
:100D400055FB0021832004F051FB0021842004F096
:100D50004DFB0021852004F049FB1021902004F078
:100D600045FB0021922004F041FB0121932004F077
:100D70003DFB2146952004F039FB0021972004F02B
:100D800035FB00219820FDE3072055E6A0F5194C1E
:100D900040F20559BCF1190C7DD10D2008700621D7
:100DA000282004F023FB0121002004F01FFB002178
:100DB000102004F01BFB47F2EF21012004F016FB8A
:100DC0004FF4C061022004F011FB46F638210320E5
:100DD00004F00CFB46F67401112004F007FB00211F
:100DE0000F2004F003FB45F208310B2004F0FEFA5B
:100DF00003210C2004F0FAFA0A210D2004F0F6FA7F
:100E00004FF438510E2004F0F1FABE211E2004F0F8
:100E1000EDFA4FF40041252004F0E8FA4FF4F041D8
:100E2000262004F0E3FA7821272004F0DFFA0021DD
:100E30004E2004F0DBFA00214F2004F0D7FA40F6F0
:100E4000D901122004F0D2FA0021302004F0CEFAA9
:100E50004FF48271312004F0C9FA2146322004F0A7
:100E6000C5FA40F205342146332004F0BFFA494662
:100E7000342004F0BBFA2146352004F0B7FA2946A5
:100E8000362004F0B3FA611F372004F0AFFA4FF4B4
:100E900090513A2000E008E004F0A8FA4FF4006115
:100EA0003B2004F0A3FA33216EE7A0F5A85CBCF167
:100EB000050C01D048457DD109200870002107208C
:100EC00004F094FA3220FFF789FC4FF48E7112205F
:100ED00004F08CFA0121A42004F088FA0F210820E4
:100EE00004F084FA08210A2004F080FA08210D2079
:100EF00004F07CFA2946302004F078FA07213120EA
:100F000004F074FA40F20361322004F06FFA4FF4F7
:100F1000E0673946332004F069FA40F202213420B8
:100F200004F064FA0221352004F060FA41F60F71F2
:100F3000362004F05BFA2946372004F057FA0021E6
:100F4000382004F053FA0021392004F04FFA2946E2
:100F50003A2004F04BFA00213B2004F047FA072125
:100F60003C2004F043FA00213D2004F03FFA3220F7
:100F7000FFF734FC0121072004F038FA0121172083
:100F800004F034FA3220FFF729FC4FF4BD51102051
:100F900004F02CFA40F21721112004F027FA4FF444
:100FA0008F71122004F022FA4FF47061132004F0C4
:100FB0001DFA00E08AE000212A2004F017FA0A2135
:100FC000292004F013FA4FF49F71122004F00EFA56
:100FD0000021502004F00AFAEF21512004F006FA13
:100FE0000021522004F002FA3146532004F0FEF9A9
:100FF0004FF41C51602004F0F9F90121612004F044
:10100000F5F900216A2004F0F1F90021802004F0B4
:10101000EDF90021812004F0E9F90021822004F09B
:10102000E5F90021832004F0E1F90021842004F097
:10103000DDF90021852004F0D9F91321902004F076
:10104000D5F94FF44071922004F0D0F90521932096
:1010500004F0CCF90021952004F0C8F90021972074
:1010600004F0C4F90021982004F0C0F921460120C1
:1010700004F0BCF93946022004F0B8F941F230011D
:10108000032004F0B3F90021042004F0AFF900219B
:101090000C2004F0ABF900210F2004F0A7F9002187
:1010A000202004F0A3F90021212004F09FF9212140
:1010B000072004F09BF9C820FFF790FB612107206F
:1010C00004F094F9C820FFF789FBA5E2A0F5094CCC
:1010D00040F2025840F2023ABCF1890C7ED1052060
:1010E00008700121002004F081F93220FFF776FB1F
:1010F0004AF6A401032004F079F93220FFF76EFBD1
:1011000000210C2004F072F93220FFF767FB40F653
:101110000C010D2004F06AF93220FFF75FFB4FF459
:101120002C510E2004F062F93220FFF757FBB0215A
:101130001E2004F05BF93220FFF750FB42F63F31EE
:10114000012004F053F93220FFF748FB4FF4C0614F
:10115000022004F04BF93220FFF740FB0021102061
:1011600004F044F93220FFF739FB46F270011120F8
:1011700004F03CF93220FFF731FB0021052004F098
:1011800035F93220FFF72AFB0021062004F02EF962
:101190003220FFF723FB4EF61C71162004F026F9CF
:1011A0003220FFF71BFB0321172004F01FF9322028
:1011B000FFF714FB40F23311072004F017F9322037
:1011C000FFF70CFB00210B2004F010F93220FFF791
:1011D00005FB00210F2004F009F900E0ADE032200A
:1011E000FFF7FCFA0021412004F000F93220FFF75C
:1011F000F5FA0021422004F0F9F83220FFF7EEFA68
:101200000021482004F0F2F83220FFF7E7FA3146D7
:10121000492004F0EBF83220FFF7E0FA00214A20E1
:1012200004F0E4F83220FFF7D9FA00214B2004F053
:10123000DDF83220FFF7D2FA4FF46F41442004F07A
:10124000D5F83220FFF7CAFA0021452004F0CEF885
:101250003220FFF7C3FA3146462004F0C7F83220A7
:10126000FFF7BCFA2946302004F0C0F83220FFF71F
:10127000B5FA3946312004F0B9F83220FFF7AEFA5A
:101280003946322004F0B2F83220FFF7A7FA44467C
:101290004146332004F0AAF83220FFF79FFA40F2CB
:1012A0000751342004F0A2F83220FFF797FA3946AC
:1012B000352004F09BF83220FFF790FA39463620AB
:1012C00004F094F83220FFF789FA2146372004F021
:1012D0008DF83220FFF782FA544651463A2004F046
:1012E00085F83220FFF77AFA21463B2004F07EF899
:1012F0003220FFF773FA0021232004F077F8322020
:10130000FFF76CFA0021242004F070F83220FFF778
:1013100065FA4FF40041252004F068F83220FFF709
:101320005DFA00214F2004F061F800214E2004F006
:101330005DF846F26801112027E5A0F5094CBCF1E3
:10134000990C7ED1042008700621282004F04EF864
:101350000121002004F04AF84AF6A461032004F0B9
:1013600045F804210C2004F041F80C210D2004F074
:101370003DF84FF420510E2004F038F8B5211E201E
:1013800004F034F843F63F31012004F02FF84FF415
:10139000C061022004F02AF80021102004F026F891
:1013A00046F63001112004F021F80021052004F058
:1013B0001DF80021062004F019F84EF61C711620C5
:1013C00004F014F83321072004F010F800210B205A
:1013D00004F00CF800210F2004F008F8002141204F
:1013E00004F004F80021422004F000F80021482015
:1013F00003F0FCFF3146492003F0F8FF00214A20AA
:1014000003F0F4FF00214B2003F0F0FF4FF46F4195
:10141000442003F0EBFF0021452003F0E7FF3146B5
:10142000462003F0E3FF00214E2003F0DFFF002100
:101430004F2003F0DBFF2946302003F0D7FF01E007
:10144000FFE241E040F20221312003F0CFFF3946B4
:10145000322003F0CBFF44464146332003F0C6FF61
:1014600040F20751342003F0C1FF3946352003F024
:10147000BDFF3946362003F0B9FF2146372003F07F
:10148000B5FF544651463A2003F0B0FF21463B20B9
:1014900003F0ACFF0021232003F0A8FF002124204B
:1014A00003F0A4FF4FF40041252003F09FFF4FF409
:1014B000E041262003F09AFF4BF2EB01202003F0DD
:1014C00095FF7C21272060E4A0F5A847083F7CD148
:1014D000082008702146012003F088FF4FF4E061E6
:1014E000022003F083FF41F23001032003F07EFF6E
:1014F0000021042003F07AFF40F20721082003F0C6
:1015000075FF0021092003F071FF00210A2003F07C
:101510006DFF00210C2003F069FF00210D2003F076
:1015200065FF00210F2003F061FF3220FFF756F91D
:1015300040F20111072003F059FF3220FFF74EF966
:1015400041F2B061102003F051FF0121112003F09E
:101550004DFF0121172003F049FF4FF49C71122029
:1015600003F044FF4FF40061132003F03FFF092113
:10157000292003F03BFF09212A2003F037FF002137
:10158000A42000E046E003F031FF0021502003F0EA
:101590002DFFEF21512003F029FF0021522003F0FD
:1015A00025FF3146532003F021FF4FF41C516020EA
:1015B00003F01CFF0321612003F018FF00216A20C3
:1015C00003F014FF0021802000E028E003F00EFF6C
:1015D0000021812003F00AFF0021822003F006FF92
:1015E0000021832003F002FF0021842003F0FEFE8F
:1015F0000021852003F0FAFE1321902003F0F6FE6F
:101600000021922003F0F2FE0321932003F0EEFE6E
:101610005946952003F0EAFE40F2731144E4A0F528
:101620008A47313F7ED1072008700121002003F056
:10163000DDFE4FF4C561102003F0D8FE0621122014
:1016400003F0D4FE40F63221132003F0CFFE4021F8
:10165000112003F0CBFE5021152003F0C7FE162108
:10166000122003F0C3FE3220FFF7B8F845F26061A4
:10167000102003F0BBFE3220FFF7B0F842F64E21F7
:10168000132003F0B3FE2146012003F0AFFE4FF418
:101690004071022003F0AAFE41F23001032003F062
:1016A000A5FE40F20221082003F0A0FE00210A203E
:1016B00003F09CFE0021302003F098FE40F202412E
:1016C000312003F093FE4FF48371322003F08EFE3D
:1016D0004FF4E061332003F089FE4FF4827134202F
:1016E00003F084FE40F20131352003F07FFE2946ED
:1016F000362003F07BFE40F20531372003F076FE02
:101700004FF40271382003F071FE40F60B7139205E
:1017100003F06CFE3220FFF761F80221412003F054
:1017200065FE00E028E04FF41C51602003F05EFEEF
:101730000121612003F05AFE40F21911902003F0BC
:1017400055FE4FF48571922003F050FE0421932042
:1017500003F04CFE2146A02003F048FE3220FFF7A4
:101760003DF840F23311072003F040FE3220FFF72E
:1017700035F80021A02069E3A0F58A47353F7CD1E8
:101780000C2008703021152003F030FE10219A2023
:1017900003F02CFE2021112003F028FE43F2284103
:1017A000102003F023FE0221122003F01FFE41F25D
:1017B0003801132003F01AFE2820FFF70FF812213A
:1017C000084603F013FE2820FFF708F843F22041F3
:1017D000102003F00BFE43F24501132003F006FE38
:1017E0004620FEF7FBFF0021302003F0FFFD40F212
:1017F0000241312003F0FAFD40F20731322003F0BC
:10180000F5FD4FF44171332003F0F0FD0421342045
:1018100003F0ECFD40F20141352003F0E7FD2946DD
:10182000362003F0E3FD40F20531372003F0DEFD02
:101830004FF4C2652946382003F0D8FD29463920E7
:1018400003F0D4FD2146012003F0D0FD4FF4407198
:10185000022003F0CBFD41F23001032003F0C6FD6E
:1018600040F60801082003F0C1FD08210A2003F01A
:10187000BDFD4FF41C51602000E02AE003F0B6FDEE
:101880000121612003F0B2FD4FF49F71902003F01D
:10189000ADFD2146922003F0A9FD2146932003F0DF
:1018A000A5FD4FF44051A02003F0A0FD1021A3207E
:1018B00003F09CFD0121072003F098FD2121072062
:1018C00003F094FD2321072003F090FD332107202E
:1018D000B5E047287ED0A0F5EE47833F7BD10620B8
:1018E00008700121FF2003F081FD0821F32003F09F
:1018F0007DFD2146012003F079FD4FF4E0610220D7
:1019000003F074FD41F23001032003F06FFD5146F6
:10191000082003F06BFD40F20721082003F066FD6C
:101920000021092003F062FD00210A2003F05EFD82
:101930000021102003F05AFD0521112003F056FD6F
:101940000021122003F052FD0021132003F04EFD70
:101950003220FEF743FF41F2B021102003F046FD94
:101960003220FEF73BFF0721112003F03FFD32201C
:10197000FEF734FF8B21122003F038FD3220FEF7F2
:101980002DFF4FF4B851132003F030FD3220FEF745
:1019900025FF2221292003F029FD0021302003F01A
:1019A00025FD2946312003F021FD4946322003F070
:1019B0001DFD40F20711352003F018FD08213620E7
:1019C00003F014FD0021372003F010FD40F2022443
:1019D000214601E038E017E1382003F007FD4FF41D
:1019E0008371392003F002FD21463C2003F0FEFC08
:1019F0004FF481613D2003F0F9FC3220FEF7EEFE4A
:101A00000021502003F0F2FCEF21512003F0EEFC06
:101A10000021522003F0EAFC3146532003F0E6FC9B
:101A20004FF42741602003F0E1FC0121612003F025
:101A3000DDFC3321902003F0D9FC0B212B2003F097
:101A4000D5FC40F23311E9E50A2008700021EA20B4
:101A500003F0CCFC2021EB2003F0C8FC0C21EC208F
:101A600003F0C4FCC421ED2003F0C0FC4021E820B9
:101A700003F0BCFC3821E92003F0B8FC0121F1207F
:101A800003F0B4FC1021F22003F0B0FCA3212720C6
:101A900003F0ACFC0121402003F0A8FC0021412010
:101AA00003F0A4FC0021422003F0A0FC10214320FD
:101AB00003F09CFC0E21442003F098FC24214520D7
:101AC00003F094FC0421462003F090FC50214720B1
:101AD00003F08CFC0221482003F088FC13214920EC
:101AE00003F084FC19214A2003F080FC19214B20CB
:101AF00003F07CFC16214C2003F078FC1B215020C5
:101B000003F074FC3121512003F070FC2F2152208E
:101B100003F06CFC3F21532003F068FC3F2154206C
:101B200003F064FC3E21552003F060FC2F21562079
:101B300003F05CFC7B21572003F058FC092158205E
:101B400003F054FC0621592003F050FC06215A20D2
:101B500003F04CFC0C215B2003F048FC1D215C20B1
:101B600003F044FCCC215D2003F040FC18211B2035
:101B700003F03CFC01211A2003F038FC152124203D
:101B800003F034FC5021252003F030FC8B2123206E
:101B900003F02CFC3621182003F028FC0121192029
:101BA00003F024FC0021012003F020FC88211F20E9
:101BB00003F01CFC3220FEF711FE80211F2003F0F1
:101BC00015FC3220FEF70AFE90211F2003F00EFCC8
:101BD0003220FEF703FED0211F2003F007FC322045
:101BE000FEF7FCFD0521172003F000FC0021362044
:101BF00003F0FCFB3821282003F0F8FB3220FEF72D
:101C0000EDFD3C21282021E16720108018884880C4
:101C100047287DD10B2008700821422003F0E6FB05
:101C2000B421462003F0E2FB4321472003F0DEFB12
:101C30001321482003F0DAFB4721492003F0D6FBAB
:101C400014214A2003F0D2FB36214B2003F0CEFBB7
:101C500003214C2003F0CAFB46214D2003F0C6FBB4
:101C600005214E2003F0C2FB10214F2003F0BEFBE4
:101C70000821502003F0BAFB0A21512003F0B6FBE3
:101C80000021022003F0B2FB0021032003F0AEFB91
:101C90000021042003F0AAFBEF21052003F0A6FB9E
:101CA0000021062003F0A2FB0021072003F09EFB89
:101CB0000121082003F09AFB3F21092003F096FB45
:101CC0000A20FEF78BFD0621012003F08FFBC821BF
:101CD000162003F08BFB9521232003F087FB952131
:101CE000242003F083FBFF21252003F07FFB02214A
:101CF000272003F07BFB0221282003F077FB022141
:101D0000292003F073FB02212A2003F06FFB00E07F
:101D10009EE002212C2003F069FB02212D2003F01C
:101D200065FB01213A2003F061FB01213B2003F018
:101D30005DFBF0213C2003F059FB00213D2003F026
:101D400055FB1420FEF74AFD3821352003F04EFBE9
:101D50007821362003F04AFB38213E2003F046FB71
:101D60000F21402003F042FBF021412003F03EFB15
:101D70000021382003F03AFB4921192003F036FBFB
:101D80000A21932003F032FB0A20FEF727FD2021D1
:101D9000084603F02BFB03211D2003F027FB002145
:101DA0001E2003F023FB09211F2003F01FFB5321FA
:101DB000442003F01BFB1021452003F017FB0A20F1
:101DC000FEF70CFD04211C2003F010FB1420FEF78D
:101DD00005FD8021432003F009FB0520FEF7FEFCF2
:101DE0000A211B2003F002FB2820FEF7F7FC12213A
:101DF0001B2003F0FBFA2820FEF7F0FC7F21902047
:101E000003F0F4FA0421262003F0F0FA2820FEF76C
:101E1000E5FC2421262003F0E9FA2C21262003F0FA
:101E2000E5FA2820FEF7DAFC0821702003F0DEFA3C
:101E30003C21262003F0DAFA0221572003F0D6FADB
:101E40000021552003F0D2FA0021572003F0CEFAEA
:101E5000BDE8F05F3220FEF7C1BC70B50446C7484C
:101E60000D460078001F0A2806D2DFE800F00C0CAF
:101E700005050505131305252146202003F0B6FAB4
:101E80002946212014E021464E2003F0AFFA2946CE
:101E90004F200DE0210A022003F0A8FA214603207A
:101EA00003F0A4FA290A062003F0A0FA2946072025
:101EB000BDE8704003F09ABA70BD70B50546AF48F2
:101EC000002400780A2811D00B280FD000210846E2
:101ED000FFF7C3FF4FF0DE4122200880A8484FF4EF
:101EE00096310580641C8C42FBD370BD002102201A
:101EF00003F07CFA0021032003F078FA002104208B
:101F000003F074FAEF21052003F070FA0021062097
:101F100003F06CFA0021072003F068FA0121082081
:101F200003F064FA3F21092003F060FAD2E710B50C
:101F3000FFF793FF4FF0DE41222008808F480178A1
:101F40008F48091F092918D2DFE801F005050505AA
:101F50001717080805000188008810BD0188C1F323
:101F6000C70201880088C1F3C701C0F38700C90216
:101F700041EA4010104380B210BD01880088C0F3D0
:101F80004511C20AC00200EB41101044F3E710B53E
:101F90001446F0280AD2B1F5A07F07D2FFF75DFF03
:101FA0002146BDE81040222003F020BA10BD2DE9E3
:101FB000F04705469146DDF820A098460C461046AD
:101FC0004D4501D9A94685B21846444501D98846F0
:101FD00084B2A9EB0500A8EB040100B20EB250B127
:101FE000A6B1B04230DDC0EB46010FB271004042F5
:101FF00001EB400825E0524621462846FFF7C7FF7F
:10200000641CA4B2A045F6D2BDE8F0875246214632
:102010002846FFF7BCFF6D1CADB2A945F6D2F3E729
:10202000524621462846FFF7B2FF6D1CADB2002F85
:1020300004DD641CA4B208EB070001E007EB4600D6
:1020400007B24D45ECD11AE0C6EB40010FB271006A
:10205000404201EB400910E0524621462846FFF776
:1020600096FF641CA4B2002F04DD6D1CADB209EB19
:10207000070001E007EB460007B24445ECD15246A9
:1020800021462846BDE8F04781E72DE9FF5F8946F4
:1020900007469B4611466846FEF7FCFA0025EA46CD
:1020A00000241AF8058009EB0506C4F1070128FA97
:1020B00001F0C00707EB0400B1B280B201D05A466C
:1020C00000E00E9AFFF763FF641CA4B2082CECD367
:1020D0006D1CADB2102DE3D3BDE8FF9F2DE9F84391
:1020E0009946089F16460D4604464FF4987816F810
:1020F000012B4B46294620460097FFF7C6FFE82CE8
:1021000002D20834A4B207E045454FF0000402D2E1
:102110001035ADB200E0002530780028E7D1BDE8E9
:10212000F8834FF0DE4122200880704700B597B059
:102130000620009000201021CDE902010490090240
:102140000190CDE90801069007900A900FA905902B
:102150000F220B90CDE90C01CDE90F20CDE9112024
:102160001390149015900E91684601F05BFE0121CA
:10217000062001F0E8FE17B000BD000008000020B6
:102180000000016F70B5012186B0084602F01FFC07
:102190000121084602F01BFC0121102002F03FFC47
:1021A0002F4E07220921304602F030F907220A217A
:1021B000304602F02BF97015009002208DF80400D3
:1021C00000248DF806408DF8050001258DF8075094
:1021D0006946304602F0A6F8A80200908DF8065035
:1021E0008DF807406946304602F09CF84FF4E13024
:1021F000ADF80C400290ADF80E40ADF81040ADF8CF
:1022000014400C20174CADF8120002A9204602F031
:10221000E0FC0121204602F052FD06B070BD08B579
:1022200025208DF8000001208DF8010000218DF897
:1022300002108DF80300684601F063FB08BD70478B
:1022400070B5084D0446C1B2284602F05EFD40213B
:10225000284602F0EBFD0028F9D0204670BD0000B2
:1022600000000240001001407047FEE7FEE7FEE775
:10227000FEE770477047704710B51C4C40F225517F
:10228000204602F0DDFD002808D0204602F041FD86
:102290000146BDE8104016A002F0C4BE10BD10B546
:1022A000082001F00FFC40B100210846FFF7D5FDE2
:1022B000FFF737FF082001F00DFC102001F002FCB1
:1022C00010B1102001F006FC012001F0FBFB10B161
:1022D000012001F0FFFB042001F0F4FB002804D0F2
:1022E000BDE81040042001F0F5BB10BD0010014016
:1022F0000A0D5553415254204879706572746572C5
:102300006D696E616C20496E74657272757074735C
:102310002052656365697665206120776F72643A43
:102320002025630A0D0000002DE9F04796B0012139
:1023300040F2811002F04BFB0121084602F051FBF4
:10234000DFF804A40D220621504602F05FF8FF4F8B
:102350000D220821384602F059F80D22092138468D
:1023600002F054F80D220A21384602F04FF80D22EF
:102370000B21384602F04AF80D220C21384602F0B3
:1023800045F80D220E21384602F040F8DFF8C093E0
:102390000D220521484602F039F80D220621484653
:1023A00002F034F80D220721484602F02FF80D22E2
:1023B0000421484602F02AF802268DF840604FF0CA
:1023C00003084FF4BE408DF8418000240F908DF833
:1023D000424001258DF843500FA9384601F0A2FF75
:1023E000F0200F900FA9484601F09CFF40278DF880
:1023F00040600F978DF842400FA9504601F092FFC0
:10240000ADF848408020ADF84440ADF84A00ADF842
:102410004C70ADF84640ADF84E40ADF8504011A8B4
:1024200001F0CDFA0121082001F02DFB4FF4C0602E
:1024300001F062FA4E208DF854008DF855508DF859
:1024400056508DF8575015A801F05BFA0121880508
:1024500002F0BDFABF4D284601F042FB3006009065
:10246000BD480190BD48CDE902044FF4A070CDE90C
:102470000404A814CDE906404000089040110990DA
:1024800040020A900420CDE90C840B90694628464E
:102490000E9401F0ADFB16B0BDE8F08710B5022038
:1024A000401EFDD2002211466020FEF705F80220F2
:1024B000401EFDD2802201216020FDF7FDFF022099
:1024C000401EFDD2802202216020FDF7F5FF022090
:1024D000401EFDD2022203216020FDF7EDFF022005
:1024E000401EFDD2002204216020FDF7E5FF0220FE
:1024F000401EFDD2032209216020FDF7DDFF0220EE
:10250000401EFDD257220B216020FDF7D5FF02208F
:10251000401EFDD201220E216020FDF7CDFF0220DA
:10252000401EFDD2C0220F216020FDF7C5FF022012
:10253000401EFDD2502210216020FDF7BDFF022079
:10254000401EFDD2802211216020FDF7B5FF022040
:10255000401EFDD2632212216020FDF7ADFF022054
:10256000401EFDD2EF2213216020FDF7A5FF0220BF
:10257000401EFDD23A2214216020FDF79DFF02206B
:10258000401EFDD2182215216020FDF795FF022084
:10259000401EFDD2242216216020FDF78DFF02206F
:1025A000401EFDD2182217216020FDF785FF022072
:1025B000401EFDD2042218216020FDF77DFF02207D
:1025C000401EFDD2012219216020FDF775FF022077
:1025D000401EFDD281221A216020FDF76DFF0220EE
:1025E000401EFDD200221E216020FDF765FF022063
:1025F000401EFDD23C2224216020FDF75DFF022019
:10260000401EFDD2362225216020FDF755FF022015
:10261000401EFDD2722226216020FDF74DFF0220D0
:10262000401EFDD2082227216020FDF745FF022031
:10263000401EFDD2082228216020FDF73DFF022028
:10264000401EFDD2152229216020FDF735FF022012
:10265000401EFDD200222A216020FDF72DFF02201E
:10266000401EFDD200222B216020FDF725FF022015
:10267000401EFDD208222C216020FDF71DFF022004
:10268000401EFDD2122232216020FDF715FF0220EC
:10269000401EFDD2002233216020FDF70DFF0220F5
:1026A000401EFDD23F2234216020FDF705FF0220AD
:1026B000401EFDD2002235216020FDF7FDFE0220E4
:1026C000401EFDD23A2236216020FDF7F5FE0220A1
:1026D000401EFDD2722238216020FDF7EDFE02205F
:1026E000401EFDD2572239216020FDF7E5FE022071
:1026F000401EFDD2CA223A216020FDF7DDFE0220F5
:10270000401EFDD204223B216020FDF7D5FE0220B1
:10271000401EFDD299223D216020FDF7CDFE022012
:10272000401EFDD202223E216020FDF7C5FE0220A0
:10273000401EFDD2C1223F216020FDF7BDFE0220D8
:10274000401EFDD2D0220BE000000240001C0240DF
:102750000020024028640240280005500000016F5C
:1027600040216020FDF7A8FE0220401EFDD241223C
:1027700011466020FDF7A0FE0220401EFDD2C022BF
:1027800042216020FDF798FE0220401EFDD20A2261
:1027900043216020FDF790FE0220401EFDD2F02272
:1027A00044216020FDF788FE0220401EFDD2462213
:1027B00045216020FDF780FE0220401EFDD26222EE
:1027C00046216020FDF778FE0220401EFDD22A221D
:1027D00047216020FDF770FE0220401EFDD23C2202
:1027E00048216020FDF768FE0220401EFDD2FC2239
:1027F0004A216020FDF760FE0220401EFDD2FC222F
:102800004B216020FDF758FE0220401EFDD27F22A2
:102810004C216020FDF750FE0220401EFDD27F2299
:102820004D216020FDF748FE0220401EFDD27F2290
:102830004E216020FDF740FE0220401EFDD298226E
:102840004F216020FDF738FE0220401EFDD2982265
:1028500050216020FDF730FE0220401EFDD20022F4
:1028600051216020FDF728FE0220401EFDD22822C3
:1028700052216020FDF720FE0220401EFDD2702272
:1028800053216020FDF718FE0220401EFDD2982241
:1028900054216020FDF710FE0220401EFDD21A22B6
:1028A00058216020FDF708FE0220401EFDD285223F
:1028B00059216020FDF700FE0220401EFDD2A92212
:1028C0005A216020FDF7F8FD0220401EFDD264224F
:1028D0005B216020FDF7F0FD0220401EFDD2842226
:1028E0005C216020FDF7E8FD0220401EFDD253224E
:1028F0005D216020FDF7E0FD0220401EFDD20E228A
:102900005E216020FDF7D8FD0220401EFDD2F0229E
:102910005F216020FDF7D0FD0220401EFDD2602126
:10292000F0220846FDF7C8FD0220401EFDD2F0222D
:1029300061216020FDF7C0FD0220401EFDD2002273
:1029400062216020FDF7B8FD0220401EFDD200226A
:1029500063216020FDF7B0FD0220401EFDD202225F
:1029600064216020FDF7A8FD0220401EFDD2202238
:1029700065216020FDF7A0FD0220401EFDD200224F
:1029800066216020FDF798FD0220401EFDD20A223C
:1029900069216020FDF790FD0220401EFDD20A2231
:1029A0006B216020FDF788FD0220401EFDD204222D
:1029B0006C216020FDF780FD0220401EFDD25522D3
:1029C0006D216020FDF778FD0220401EFDD200221F
:1029D0006E216020FDF770FD0220401EFDD29D2279
:1029E0006F216020FDF768FD0220401EFDD22122EC
:1029F00070216020FDF760FD0220401EFDD278228C
:102A000071216020FDF758FD0220401EFDD20220FA
:102A1000401EFDD2112272216020FDF74DFD0220E3
:102A2000401EFDD20220401EFDD2012273216020F3
:102A3000FDF742FD0220401EFDD2102274216020CD
:102A4000FDF73AFD0220401EFDD2102275216020C4
:102A5000FDF732FD0220401EFDD2012276216020CA
:102A6000FDF72AFD0220401EFDD2022277216020C0
:102A7000FDF722FD0220401EFDD212227A216020A5
:102A8000FDF71AFD0220401EFDD208227B216020A6
:102A9000FDF712FD0220401EFDD216227C2160208F
:102AA000FDF70AFD0220401EFDD230227D2160206C
:102AB000FDF702FD0220401EFDD25E227E21602035
:102AC000FDF7FAFC0220401EFDD272227F21602019
:102AD000FDF7F2FC0220401EFDD282228021602000
:102AE000FDF7EAFC0220401EFDD28E2281216020EB
:102AF000FDF7E2FC0220401EFDD29A2282216020D6
:102B0000FDF7DAFC0220401EFDD2A42283216020C2
:102B1000FDF7D2FC0220401EFDD2AC2284216020B1
:102B2000FDF7CAFC0220401EFDD2B822852160209C
:102B3000FDF7C2FC0220401EFDD2C3228621602088
:102B4000FDF7BAFC0220401EFDD2D622872160206C
:102B5000FDF7B2FC0220401EFDD2E6228821602053
:102B6000FDF7AAFC0220401EFDD2F222892160203E
:102B7000FDF7A2FC0220401EFDD224228A21602003
:102B8000FDF79AFC0220401EFDD280228C2160209D
:102B9000FDF792FC0220401EFDD27D229021602094
:102BA000FDF78AFC0220401EFDD27B22912160208D
:102BB000FDF782FC0220401EFDD202229D216020F2
:102BC000FDF77AFC0220401EFDD202229E216020E9
:102BD000FDF772FC0220401EFDD27A229F21602068
:102BE000FDF76AFC0220401EFDD27922A021602060
:102BF000FDF762FC0220401EFDD21F22A1216020B1
:102C0000FDF75AFC0220401EFDD25022A421602074
:102C1000FDF752FC0220401EFDD26822A521602053
:102C2000FDF74AFC0220401EFDD24A22A621602068
:102C3000FDF742FC0220401EFDD2C122A8216020E7
:102C4000FDF73AFC0220401EFDD2EF22A9216020B0
:102C5000FDF732FC0220401EFDD29222AA21602004
:102C6000FDF72AFC0220401EFDD20422AB21602089
:102C7000FDF722FC0220401EFDD28022AC21602004
:102C8000FDF71AFC0220401EFDD28022AD216020FB
:102C9000FDF712FC0220401EFDD28022AE216020F2
:102CA000FDF70AFC0220401EFDD28022AF216020E9
:102CB000FDF702FC0220401EFDD2F222B22160206C
:102CC000FDF7FAFB0220401EFDD22022B321602036
:102CD000FDF7F2FB0220401EFDD22022B42160202D
:102CE000FDF7EAFB0220401EFDD20022B521602044
:102CF000FDF7E2FB0220401EFDD2AF22B62160208C
:102D0000FDF7DAFB0220401EFDD2AF22B621602083
:102D1000FDF7D2FB0220401EFDD2AE22BB21602077
:102D2000FDF7CAFB0220401EFDD27F22BC2160209D
:102D3000FDF7C2FB0220401EFDD27F22BD21602094
:102D4000FDF7BAFB0220401EFDD27F22BE2160208B
:102D5000FDF7B2FB0220401EFDD27F22BF21602082
:102D6000FDF7AAFB0220401EFDD27F22BF2160207A
:102D7000FDF7A2FB0220401EFDD2AA22C021602046
:102D8000FDF79AFB0220401EFDD2C022C121602027
:102D9000FDF792FB0220401EFDD20122C2216020DD
:102DA000FDF78AFB0220401EFDD24E22C321602087
:102DB000FDF782FB0220401EFDD20522C6216020C5
:102DC000FDF77AFB0220401EFDD28122C721602040
:102DD000FDF772FB0220401EFDD2E022C9216020D7
:102DE000FDF76AFB0220401EFDD2E822CA216020C6
:102DF000FDF762FB0220401EFDD2F022CB216020B5
:102E0000FDF75AFB0220401EFDD2D822CC216020C3
:102E1000FDF752FB0220401EFDD29322CD216020FF
:102E2000FDF74AFB0220401EFDD210BD1CB501215A
:102E3000084601F0CCFD4FF48070009003208DF81F
:102E4000050002208DF8040000208DF806008DF8A2
:102E500007006946FE4801F065FA0021084601F0C6
:102E60001AFD1CBD10B5FFF7E1FFFDF7D7FA40F6DC
:102E7000FF74204600F016FD802212216020FDF72D
:102E80001BFB08B1FF2010BD204600F00BFDFFF733
:102E900005FB632212216020FDF70EFB102240216A
:102EA0006020FDF709FB082215216020FDF704FBD7
:102EB000FFF73AFA002010BD802212216020FDF7B2
:102EC000FBBA10B50220401EFDD200221146602040
:102ED000FDF7F2FA0220401EFDD28022012160207F
:102EE000FDF7EAFA0220401EFDD280220221602076
:102EF000FDF7E2FA0220401EFDD2022203216020EB
:102F0000FDF7DAFA0220401EFDD2032204216020E0
:102F1000FDF7D2FA0220401EFDD2012209216020D5
:102F2000FDF7CAFA0220401EFDD257220B21602075
:102F3000FDF7C2FA0220401EFDD261220E21602060
:102F4000FDF7BAFA0220401EFDD240220F21602078
:102F5000FDF7B2FA0220401EFDD2012211216020AD
:102F6000FDF7AAFA0220401EFDD262221221602043
:102F7000FDF7A2FA0220401EFDD2C72213216020D5
:102F8000FDF79AFA0220401EFDD23A221421602059
:102F9000FDF792FA0220401EFDD208221521602082
:102FA000FDF78AFA0220401EFDD22422162160205D
:102FB000FDF782FA0220401EFDD218221721602060
:102FC000FDF77AFA0220401EFDD20422182160206B
:102FD000FDF772FA0220401EFDD201221921602065
:102FE000FDF76AFA0220401EFDD281221A216020DC
:102FF000FDF762FA0220401EFDD220221E21602031
:10300000FDF75AFA0220401EFDD23C222421602006
:10301000FDF752FA0220401EFDD236222521602003
:10302000FDF74AFA0220401EFDD2722226216020BE
:10303000FDF742FA0220401EFDD20822272160201F
:10304000FDF73AFA0220401EFDD208222821602016
:10305000FDF732FA0220401EFDD215222921602000
:10306000FDF72AFA0220401EFDD200222A2160200C
:10307000FDF722FA0220401EFDD200222B21602003
:10308000FDF71AFA0220401EFDD208222C216020F2
:10309000FDF712FA0220401EFDD2A4223221602048
:1030A000FDF70AFA0220401EFDD2002233216020E3
:1030B000FDF702FA0220401EFDD23F22342160209B
:1030C000FDF7FAF90220401EFDD2002235216020D2
:1030D000FDF7F2F90220401EFDD23A22362160208F
:1030E000FDF7EAF90220401EFDD27222382160204D
:1030F000FDF7E2F90220401EFDD25722392160205F
:10310000FDF7DAF90220401EFDD2CC223A216020E0
:10311000FDF7D2F90220401EFDD204223B2160209F
:10312000FDF7CAF90220401EFDD299223D21602000
:10313000FDF7C2F90220401EFDD20E223E21602082
:10314000FDF7BAF90220401EFDD2C1223F216020C6
:10315000FDF7B2F90220401EFDD2C02240216020BE
:10316000FDF7AAF90220401EFDD24122114660203F
:10317000FDF7A2F90220401EFDD2C02242216020AC
:10318000FDF79AF90220401EFDD20A224321602059
:10319000FDF792F90220401EFDD2F022442160206A
:1031A000FDF78AF90220401EFDD24622452160200B
:1031B000FDF782F90220401EFDD2622246216020E6
:1031C000FDF77AF90220401EFDD22A224721602015
:1031D000FDF772F90220401EFDD23C2248216020FA
:1031E000FDF76AF90220401EFDD2FC224A21602030
:1031F000FDF762F90220401EFDD2FC224B21602027
:10320000FDF75AF90220401EFDD27F224C2160209A
:10321000FDF752F90220401EFDD27F224D21602091
:10322000FDF74AF90220401EFDD27F224E21602088
:10323000FDF742F90220401EFDD298224F21602066
:10324000FDF73AF90220401EFDD29822502101E0FC
:10325000000002406020FDF72FF90220401EFDD241
:10326000002251216020FDF727F90220401EFDD2E7
:10327000282252216020FDF71FF90220401EFDD2B6
:10328000702253216020FDF717F90220401EFDD265
:10329000982254216020FDF70FF90220401EFDD234
:1032A0001A2258216020FDF707F90220401EFDD2A6
:1032B000852259216020FDF7FFF80220401EFDD233
:1032C000A9225A216020FDF7F7F80220401EFDD206
:1032D00064225B216020FDF7EFF80220401EFDD242
:1032E00084225C216020FDF7E7F80220401EFDD219
:1032F00053225D216020FDF7DFF80220401EFDD241
:103300000E225E216020FDF7D7F80220401EFDD27C
:10331000F0225F216020FDF7CFF80220401EFDD291
:103320006021F0220846FDF7C7F80220401EFDD2BA
:10333000F02261216020FDF7BFF80220401EFDD27F
:10334000002262216020FDF7B7F80220401EFDD266
:10335000002263216020FDF7AFF80220401EFDD25D
:10336000022264216020FDF7A7F80220401EFDD252
:10337000202265216020FDF79FF80220401EFDD22B
:10338000002266216020FDF797F80220401EFDD242
:103390000A2269216020FDF78FF80220401EFDD22D
:1033A0001A226B216020FDF787F80220401EFDD213
:1033B00004226C216020FDF77FF80220401EFDD220
:1033C00055226D216020FDF777F80220401EFDD2C6
:1033D00000226E216020FDF76FF80220401EFDD212
:1033E0009D226F216020FDF767F80220401EFDD26C
:1033F000212270216020FDF75FF80220401EFDD2DF
:10340000782271216020FDF757F80220401EFDD27E
:10341000222272216020FDF74FF80220401EFDD2CB
:10342000022273216020FDF747F80220401EFDD2E2
:10343000102274216020FDF73FF80220401EFDD2CB
:10344000102275216020FDF737F80220401EFDD2C2
:10345000012276216020FDF72FF80220401EFDD2C8
:10346000022277216020FDF727F80220401EFDD2BE
:1034700012227A216020FDF71FF80220401EFDD2A3
:1034800008227B216020FDF717F80220401EFDD2A4
:1034900016227C216020FDF70FF80220401EFDD28D
:1034A00030227D216020FDF707F80220401EFDD26A
:1034B0005E227E216020FCF7FFFF0220401EFDD22D
:1034C00072227F216020FCF7F7FF0220401EFDD210
:1034D000822280216020FCF7EFFF0220401EFDD2F7
:1034E0008E2281216020FCF7E7FF0220401EFDD2E2
:1034F0009A2282216020FCF7DFFF0220401EFDD2CD
:10350000A42283216020FCF7D7FF0220401EFDD2B9
:10351000AC2284216020FCF7CFFF0220401EFDD2A8
:10352000B82285216020FCF7C7FF0220401EFDD293
:10353000C32286216020FCF7BFFF0220401EFDD27F
:10354000D62287216020FCF7B7FF0220401EFDD263
:10355000E62288216020FCF7AFFF0220401EFDD24A
:10356000F22289216020FCF7A7FF0220401EFDD235
:1035700024228A216020FCF79FFF0220401EFDD2FA
:1035800080228C216020FCF797FF0220401EFDD294
:103590007D2290216020FCF78FFF0220401EFDD28B
:1035A0007B2291216020FCF787FF0220401EFDD284
:1035B00002229D216020FCF77FFF0220401EFDD2E9
:1035C00002229E216020FCF777FF0220401EFDD2E0
:1035D0007A229F216020FCF76FFF0220401EFDD25F
:1035E0007922A0216020FCF767FF0220401EFDD257
:1035F0004022A1216020FCF75FFF0220401EFDD287
:103600005022A4216020FCF757FF0220401EFDD26B
:103610006822A5216020FCF74FFF0220401EFDD24A
:103620004A22A6216020FCF747FF0220401EFDD25F
:10363000C122A8216020FCF73FFF0220401EFDD2DE
:10364000EF22A9216020FCF737FF0220401EFDD2A7
:103650009222AA216020FCF72FFF0220401EFDD2FB
:103660000422AB216020FCF727FF0220401EFDD280
:103670008022AC216020FCF71FFF0220401EFDD2FB
:103680008022AD216020FCF717FF0220401EFDD2F2
:103690008022AE216020FCF70FFF0220401EFDD2E9
:1036A0008022AF216020FCF707FF0220401EFDD2E0
:1036B000F222B2216020FCF7FFFE0220401EFDD264
:1036C0002022B3216020FCF7F7FE0220401EFDD22D
:1036D0002022B4216020FCF7EFFE0220401EFDD224
:1036E0000022B5216020FCF7E7FE0220401EFDD23B
:1036F000AF22B6216020FCF7DFFE0220401EFDD283
:10370000AF22B6216020FCF7D7FE0220401EFDD27A
:10371000AE22BB216020FCF7CFFE0220401EFDD26E
:103720007F22BC216020FCF7C7FE0220401EFDD294
:103730007F22BD216020FCF7BFFE0220401EFDD28B
:103740007F22BE216020FCF7B7FE0220401EFDD282
:103750007F22BF216020FCF7AFFE0220401EFDD279
:103760007F22BF216020FCF7A7FE0220401EFDD271
:10377000AA22C0216020FCF79FFE0220401EFDD23D
:10378000C022C1216020FCF797FE0220401EFDD21E
:103790000122C2216020FCF78FFE0220401EFDD2D4
:1037A0004E22C3216020FCF787FE0220401EFDD27E
:1037B0000522C6216020FCF77FFE0220401EFDD2BC
:1037C0008222C7216020FCF777FE0220401EFDD236
:1037D000E022C9216020FCF76FFE0220401EFDD2CE
:1037E000E822CA216020FCF767FE0220401EFDD2BD
:1037F000F022CB216020FCF75FFE0220401EFDD2AC
:10380000D822CC216020FCF757FE0220401EFDD2BA
:103810009322CD216020FCF74FFE0220401EFDD2F6
:1038200010BD38B504466A461C216020FCF794FEA2
:103830009DF8000020706A461D216020FCF78CFE78
:103840009DF8000060706A460B216020FCF784FE42
:103850009DF80000A0706A460A216020FCF77CFEFB
:103860009DF80000E07038BD024611216020FCF791
:1038700023BE024612216020FCF71EBE0246122122
:103880006020FCF719BE0A4601466020FCF714BE12
:10389000024632216020FCF70FBE02464021602024
:1038A000FCF70ABE4FF47A7302E01946491EFDD2B6
:1038B000401EFAD270470000094880470948004777
:1038C000FEE7FEE7FEE7FEE7FEE7FEE7FEE7FEE7D0
:1038D000FEE7FEE704480549054A064B704700002D
:1038E000474F000889010008980000209806002032
:1038F00098020020980200202749084327490860C1
:10390000704770B50F23C278017801254FF0E0268B
:10391000E2B1224A126802F4E062C2F5E062C2F348
:103920000722C2F10404D3404278A24084781C40AC
:103930001B4B14432201CA54007800F01F018D4034
:10394000400906EB8000C0F8005170BD01F01F0077
:103950008540480906EB8000C0F8805170BD114ACF
:10396000114001430D48001F016070470B4A121DB2
:103970000029116801D0014300E0814311607047C4
:103980004FF0E0210428086903D020F0040008610A
:10399000704740F00400FAE70000FA050CED00E083
:1039A00000E400E080FFFF1F4C4800210160C1607F
:1039B0001F2242618161C16101624162704730B57D
:1039C00046490A6844F201039A430A600A6840F6CD
:1039D000F2739A4303884488C588234384882C4320
:1039E00023430489234344898089234303431343A6
:1039F0000B6030BD0021018041808180C180018148
:103A000041818181704701684FEA314233490A623E
:103A100040684FEA304048627047304900280868E3
:103A200002D040F0040001E020F00400086070477C
:103A3000C178006861F31F60284988617047274991
:103A40000028086802D040F0080001E020F00800DB
:103A50000860704721490028086802D040F480407F
:103A600001E020F48040086070471C490028086885
:103A700002D040F0010001E020F001000860704732
:103A80001648806A7047154A0029D16801D0014361
:103A900002E0C04380B20140D1607047034600207D
:103AA000190B0E4A012906D0022906D011691942C4
:103AB00000D0012070479168F9E75168F7E707499E
:103AC000486170470549024600200969114200D04B
:103AD000012070470149486170470000000005500F
:103AE0002DE9F043016821F001010160002101602E
:103AF00041608160C160016121214161B849B84ADA
:103B00003D251039904202D18D60BDE8F083B44A62
:103B10004FF474661832904201D18E60F5E7B04AD6
:103B20004FF474173032904201D18F60EDE7AC4A08
:103B30004FF0746C4832904202D1C1F808C0E4E7FB
:103B4000A74BA84A6033984201D1CA60DDE7A44C74
:103B5000A54B7834A04201D1CB60D6E7DFF8808254
:103B6000A24C08F19008404501D1CC60CDE7DFF8C8
:103B700070824FF03D5908F1A808404502D1C1F8C4
:103B80000C90C2E79A49DFF868820839404501D1B4
:103B90000D60BAE7964D1835A84201D10E60B4E722
:103BA000934D3035A84201D10F60AEE7904D4835B6
:103BB000A84202D1C1F800C0A7E78D4D8C496035FD
:103BC000091FA84201D10A609FE7894A78329042D2
:103BD00001D10B6099E7864A9032904201D10C6086
:103BE00093E7834AA83290428FD1C1F800908CE7C6
:103BF00030B503687F4ACC6813400A682243D1E994
:103C000005452C432243CC6922430C6A22434C6A6B
:103C100022438C6A22434C6B22438C6B22431A430F
:103C20000260426922F00703D1E90B2422431A43C0
:103C300042610A6942604A6882608968C16030BD39
:103C40000021016041608160C16001614161816169
:103C5000C161016241628162C1620163416381634A
:103C600070470029016802D041F0010101E021F014
:103C70000101016070470029016802D041F4004150
:103C800001E021F40041016070470029016802D081
:103C900041F0200101E021F0200101607047416006
:103CA0007047406880B27047002A026802D042F430
:103CB000002201E022F40022026001617047002925
:103CC000016802D041F4802101E021F480210160EB
:103CD00070470AB101617047C1607047014600201A
:103CE0000968090300D501207047014600200968D2
:103CF000C90700D001207047406900F038007047C4
:103D000002463B4B00209A4202D2354A103A01E06B
:103D1000374A103A8B0001D5526800E01268364BE2
:103D20001A400A4200D001207047314A904202D224
:103D30002B48103801E02E4810382F4A8B0001EA3A
:103D4000020101D5C1607047816070470B0607D53D
:103D5000436912B143F0800301E023F08003436123
:103D6000802908D0002A026801F01E0101D00A4310
:103D700000E08A430260704730B51D4A002490423B
:103D800002D2174A103A01E0194A103A1B4B194265
:103D900005D01E2303EAD12503682B4002E04069C9
:103DA00000F08003880001D5506800E01068124AD6
:103DB0001040084201D003B10124204630BD0C4A16
:103DC000904202D20648103801E0094810380A4AE9
:103DD0008B0001EA020101D5C16070478160704724
:103DE000106002403D000020400F002000003D20F8
:103DF000106402403F801CF07D0F7D0F3C0F3C0F94
:103E00004FF0204202EB800140B143F2D200086043
:103E10006FF070404860C1F80401704743F2DB0066
:103E20001060F5E730B5D0E901121143D0E9032362
:103E30001A43114342690368114382691143C269FD
:103E40001143026A1143426A1143826A1143C26AF2
:103E50001143026B11434FF0204242F82310816856
:103E6000082906D1016802EB81010B6843F0400389
:103E70000B60416BD1E9003443EA04138C688D89EF
:103E8000240244EA054423430C8A43EA04530C7D8C
:103E9000896943EA04630B43016802EB81014B60CB
:103EA000C16AB1F5804F07D000686FF0704102EB36
:103EB0008000C0F8041130BD816B0068D1E9003486
:103EC00043EA04138C680D8A240244EA0554234310
:103ED0000C7D896943EA046302EB80000B43C0F860
:103EE000043130BD10B500210222C0E9001281600A
:103EF000C160016141618161D202C161C0E9081202
:103F00005200C0E90A210163436B0F221A60436B20
:103F10005A60446BFF23A360446BE260446B2261F0
:103F2000446B6261446BA161846B2260846B62604C
:103F3000846BA360836BDA60836B1A61836B5A6155
:103F4000806B816110BD4FF0204202EB80000029A0
:103F5000016802D041F0010101E0C04A1140016056
:103F6000704710B5182340244FF020414FF0FC3229
:103F7000102805D041F8803F4C608A60CA6010BDAF
:103F80000B664C668A66CA6610BD30B5D0E9011270
:103F90001143D0E903231A431143426941EA422104
:103FA000826941EA423141F00804C169D1E9002344
:103FB00042EA03220B89097B1B0443EA01610A439D
:103FC000016AD1E9003543EA05230D89097B2D04F7
:103FD00045EA01610B4301684FF02040102904D0ED
:103FE00040F8804F8260C36030BD04668266C3665D
:103FF00030BD10210160002141608160C16001611C
:1040000041618161C269FC211160C2695160C2696C
:104010009160C269D160026A1160026A5160026AED
:104020009160006AC16070474FF0204251B1102882
:1040300004D052F8800F40F004000AE0106E40F007
:1040400004000AE08549C91E102804D052F8800FE8
:10405000084010607047106E0840106670474FF0BF
:10406000204251B1102804D052F8800F40F0400097
:104070000AE0106E40F040000AE078493F3910280D
:1040800004D052F8800F084010607047106E08404E
:10409000106670474FF02041102802D0D1F89400EC
:1040A0007047486F70476E481821016000214160D9
:1040B0004FF0FC318160C1600161704710B5D0E9FB
:1040C000001241EA42218268102343EA423211433E
:1040D000634A1160C168D1E9003443EA04230C89C2
:1040E000097B240444EA01610B4393600169D1E92F
:1040F000003443EA04230C89097B240444EA016167
:104100000B43D3604069D0E9001341EA03210389DE
:10411000007B1B0443EA00600143116110BD0021D4
:10412000016041608160C268FC211160C268516019
:10413000C2689160C268D160026911600269516011
:10414000026991600269D1604269116042695160FF
:10415000426991604069C160704741490028086820
:1041600002D040F0040002E03C4AD21E1040086039
:10417000704710B54FF480744FF020436AB1102897
:1041800003D0A04204D1843303E0586E08430CE00E
:10419000A43318680843186010BD102803D0A0424B
:1041A00005D1843304E0586E8843586610BDA433AB
:1041B00018688843EFE7034600204FF02042102B99
:1041C00008D0B3F5807F07D0D2F8A4200A4200D0EF
:1041D00001207047526EF9E7D2F88420F6E74FF0DD
:1041E0002042102807D0B0F5807F08D0A432106894
:1041F000884310607047506E884350667047843221
:10420000F5E7034600204FF02042102B0CD0B3F509
:10421000807F0BD0D2F8A4200A4202EAD10102D05A
:10422000002900D001207047526EF5E7D2F88420B3
:10423000F2E74FF02042102808D0B0F5807F0AD076
:10424000A432106820EAD10010607047506E20EA56
:10425000D100506670478432F3E70000FEFF0F0084
:10426000A00000A0714910B5884206D1012108467E
:1042700000F0DFFB002101204FE06D49884206D1AC
:104280000121022000F0D5FB0021022045E0694910
:10429000884206D10121042000F0CBFB002104203C
:1042A0003BE06549884206D10121082000F0C1FBAE
:1042B0000021082031E06149884206D10121102007
:1042C00000F0B7FB0021102027E05D49884206D1AD
:1042D0000121202000F0ADFB002120201DE05949E4
:1042E000884206D10121402000F0A3FB002140209C
:1042F00013E05549884206D10121802000F099FB46
:104300000021802009E0514988420AD18415012109
:10431000204600F08EFB00212046BDE8104000F052
:1043200088BB10BDF0B5002201274FF0030C0B68CD
:1043300007FA02F52B40AB422CD1066853000CFA69
:1043400003F4A64306600E79D0F800E09E4046EAEA
:104350000E0606600E79012E01D0022E12D186685B
:10436000A64386604E79D0F808E09E4046EA0E06E5
:1043700086604668AE43466045688E799640B6B220
:1043800035434560C568A543C560CC799C40C3688A
:104390001C43C460521C102AC9D3F0BD4FF6FF71F4
:1043A00001600021017141718171C171704708B5CF
:1043B00041F480320092C261C1610099C161C1695A
:1043C000C069009008BD0246002012690A4200D070
:1043D00001207047006980B2704702460020526990
:1043E0000A4200D001207047406980B270470183C3
:1043F0007047418370470AB101837047418370471A
:104400004161704742694A40426170474B07DB0E89
:104410009A40C90810B500EB8100016A0F249C4046
:10442000A1430162016A1143016210BD0000024014
:104430000004024000080240000C0240001002404C
:104440000014024000180240001C024000200240FC
:10445000C94910B5884202D101214C050AE0C7497B
:10446000884202D101218C0504E0C54988420AD165
:104470000121CC05204600F0FAFA2046BDE81040A4
:10448000002100F0F4BA10BD7FB5044680880D46C7
:1044900020F03F06684600F037FABA490298B0FBB0
:1044A000F1F189B20E43A680228822F00102228017
:1044B000B54B2A689A421BD85200B0FBF2F080B28A
:1044C000042800D20420491C2184A083208840F0C5
:1044D0000100208020884FF6F5310840A9886A89BC
:1044E000114301432180A8892989084320817FBD88
:1044F000EB88A3F53F46FF3E05D102EB4202B0FB3D
:10450000F2F080B208E002EBC20303EB0212B0FB50
:10451000F2F080B240F48040020501D140F0010089
:104520004FF4967251434FF47A72B1FBF2F140F4BA
:104530000040C8E741F288310160002181804BF6DC
:10454000FF72C280018141814FF4804181817047B7
:104550000029018802D041F0010101E021F00101B0
:10456000018070470029018802D041F4807101E088
:1045700021F48071018070470029018802D041F444
:10458000007101E021F400710180704712B141F027
:10459000010101E001F0FE0101827047002901885C
:1045A00002D041F4806101E021F480610180704714
:1045B000828901F0FE0122F0FE02114381817047E1
:1045C0000029818902D041F0010101E021F00101BF
:1045D000818170470029018802D041F0400101E04B
:1045E00021F04001018070470029018802D041F488
:1045F000004101E0C1F30E010180704700290188EC
:1046000003D021F080010180704741F08001FAE77A
:10461000B1F5804F818B02D021F4804101E041F45B
:10462000804181837047B1F5006F018803D021F488
:1046300000610180704741F40061FAE7B1F5005F65
:10464000018803D021F400510180704741F40051EA
:10465000FAE70029018802D041F0100101E021F0C1
:1046600010010180704701827047008AC0B2704714
:104670000029018802D041F4805101E021F48051E9
:1046800001807047B1F5006F018803D021F400610B
:104690000180704741F40061FAE70029018802D0E7
:1046A00041F0200101E021F0200101807047008BE2
:1046B000000A70470029818802D041F4006101E0BE
:1046C00021F40061818070470029818802D041F483
:1046D000805101E021F480518180704708B5084481
:1046E0000090008808BD002A828801D00A4300E0BB
:1046F0008A4382807047034600209A8A1B8B42EAD5
:10470000034222F07F42914300D101207047818A09
:10471000008B41EA004121F07F4070470CB5024612
:10472000002000920A0F21F07F41019202D0009AEE
:10473000143202E0009A090C1832009212680A4200
:1047400000D001200CBDC9438182704710B50346DB
:1047500000209A884FF4E06404EA11449B8A2240C6
:1047600021F07F410B4202D0002A00D0012010BD71
:10477000C943818270470000005400400058004047
:10478000005C004040420F00A0860100EA4801683A
:1047900041F001010160E84A00210832116002681D
:1047A000E64B1A400260031DE54A1A60026822F4D3
:1047B00080220260E0480C3001607047DE49002230
:1047C000891C0A70087070470246002051090129AF
:1047D0000CD002290CD0D8497431096802F01F02AC
:1047E000012393400B4200D001207047D249F4E7E7
:1047F000D1497031F1E718B500204FF4A064009062
:104800003120FFF7E1FF0099491C0091A14201D03E
:104810000028F5D03120FFF7D7FF002800D0012075
:1048200018BDC54A116821F0F80141EAC0001060C6
:104830007047C44908607047BF49002270310A7050
:104840000A70012802D0042801D1052008707047A1
:10485000BD490860704741EA82115A0810B5BB4B48
:10486000029C03EB02421143014341EA0460B24956
:10487000091D086010BDB34908667047800140EA11
:104880000170AD49843108607047AE498866704751
:10489000AC49C8647047A84B08331A68084322F033
:1048A000EC62104318607047A34B08331A68084342
:1048B00022F078421043186070479F4A083211680E
:1048C00021F003010143116070479B4808300068E4
:1048D00000F00C007047984A0832116821F0F0018E
:1048E000014311607047944A0832116821F4E05185
:1048F000014311607047904A0832116821F4604109
:1049000041EAC0001060704770B58B4B08331968DE
:104910008F4C11F00C0104D06610042903D0082933
:1049200003D004601BE0066019E0834A121D116881
:10493000C1F38055116801F03F0115B1B6FBF1F1EB
:1049400001E0B4FBF1F114681268C4F38814614308
:10495000C2F30142521C5200B1FBF2F1016019682E
:104960000F2202EA11117B4A545C0168E140416068
:104970001C68072505EA9424145D21FA04F4846078
:104980001B6805EA5333D25CD140C16070BDC0F3EF
:104990000121032908D1684B083319686E4A21F4B4
:1049A000F81102400A431A60634970310A68C0F383
:1049B0000B0002430A60704763494439086070473E
:1049C00061494039086070476449086070475A4A35
:1049D00030320029116801D0014300E081431160A9
:1049E0007047554A34320029116801D0014300E074
:1049F000814311607047504A38320029116801D054
:104A0000014300E08143116070474B4A4032002966
:104A1000116801D0014300E0814311607047464AAC
:104A200044320029116801D0014300E08143116044
:104A30007047414A10320029116801D0014300E05B
:104A40008143116070473C4A14320029116801D03B
:104A5000014300E0814311607047374A1832002952
:104A6000116801D0014300E0814311607047324A70
:104A700020320029116801D0014300E08143116018
:104A800070472D4A24320029116801D0014300E00B
:104A9000814311607047284A50320029116801D0C3
:104AA000014300E0814311607047234A54320029DA
:104AB000116801D0014300E08143116070471E4A34
:104AC00058320029116801D0014300E08143116090
:104AD0007047194A60320029116801D0014300E093
:104AE000814311607047144A64320029116801D073
:104AF000014300E08143116070470F4A0D320029E5
:104B0000117801D0014300E08143117070470A48D9
:104B10007430016841F08071016070470146064AB7
:104B200000200C3212680A4200D00120704702496E
:104B30000E3108707047000000380240FFFFF6FE9B
:104B40001030002400004742800E47420000FFFF63
:104B50000024F40010000020FFFCFF0F5C0147421E
:104B6000CA4910B5884206D101211020FFF789FFFC
:104B70000021102028E0C649884202D101214C04BE
:104B800010E0C449884202D101218C040AE0C249E4
:104B9000884202D10121CC0404E0C04988420AD1F4
:104BA00001210C052046FFF762FF2046BDE81040BA
:104BB0000021FFF75CBFBA49884209D101212020BA
:104BC000FFF75FFF00212020BDE81040FFF759BF2D
:104BD00010BD7FB50446008A0D46C98820F44050B8
:104BE00001432182A08941F20C618843A9882A8966
:104BF00011436A8902431143A181A08A20F44071C4
:104C0000A8890843A0826846FFF77EFE9F48844239
:104C100002D0A348844201D1039800E00298A18900
:104C20000904002900EBC00101EB0010296802DA39
:104C30004FEA410101E04FEA8101B0FBF1F064224B
:104C4000B0FBF2F14FEA01114FEA11136FF01805B2
:104C50006B4300EB8300A3891D044FF0320306D59C
:104C600003EBC000B0FBF2F000F0070005E003EB3F
:104C70000010B0FBF2F000F00F00084320817FBD70
:104C80004FF41651016000218180C18001810C2206
:104C900042818181704710B5028A4C8822F470638A
:104CA0000A8822438C88C9880C4322431A43028213
:104CB00010BD0021018041808180C18070470029A2
:104CC000818902D041F4005101E021F40051818139
:104CD0007047028B02F47F420283028B0A430283F5
:104CE00070470029818902D041F4004101E0C1F3FD
:104CF0000E01818170470029818A02D041F4006150
:104D000001E021F4006181827047C1F308018180D4
:104D100070478088C0F308007047028A22F00F02B3
:104D20000282028A0A43028270470029818902D0E6
:104D300041F0020101E021F0020181817047828986
:104D400022F40062828182890A4382817047028A4A
:104D500022F020020282028A0A430282704700295E
:104D6000018A02D041F4804101E021F480410182B6
:104D70007047818941F00101818170470029818A52
:104D800002D041F0080101E021F008018182704762
:104D9000028BD2B20283028B42EA01210183704767
:104DA0000029818A02D041F0200101E021F0200198
:104DB000818270470029818A02D041F0100101E010
:104DC00021F0100181827047828A22F004028282DF
:104DD000828A0A43828270470029818A02D041F088
:104DE000020101E021F0020181827047002A828ADB
:104DF00001D00A4300E08A438282704710B5C1F3B4
:104E0000421301F01F040121A140012B07D0022B06
:104E100007D01430002A026805D00A4304E00C30A1
:104E2000F8E71030F6E78A43026010BD0246002022
:104E300012880A4200D001207047C94301807047A0
:104E400070B501F01F0501260024C1F3421306FAD4
:104E500005F2012B0FD0022B0FD0838A4FEA1121CC
:104E60000088134206FA01F600EA060001D000B1FC
:104E70000124204670BD8389F0E7038AEEE70A0A21
:104E800001219140C943018070470000001001409A
:104E90000044004000480040004C004000500040EA
:104EA000001401400CB50022544900920192086898
:104EB00040F4803008604FF4A063086800F40030CC
:104EC00001900098401C0090019810B900989842F9
:104ED000F3D10868800334D5012001904748403061
:104EE000026842F0805202604548026842F4804203
:104EF00002604248083002680260026842F40042E0
:104F00000260026842F4A0520260031F3D4A1A6028
:104F10000A6842F080720A600A689201FCD53A4938
:104F200040F205620A60016821F003010160016836
:104F300041F0020101600168C1F381010229FAD147
:104F40000CBD01920CBD314810B5016841F47001EF
:104F500001602A48016841F001010160274A0021EF
:104F60000832116002682A4B1A400260031D294A68
:104F70001A60026822F48022026020480C3001602E
:104F8000FFF790FF21494FF000608039086010BDA5
:104F900070B51A4D083528681F4B204910F00C00D9
:104FA00004D05E10042803D0082803D00B601BE057
:104FB0000E6019E0114A121D1068C0F38054106889
:104FC00000F03F0014B1B6FBF0F001E0B3FBF0F0ED
:104FD00013681268C3F388135843C2F30142521C8A
:104FE0005200B0FBF2F0086028680C4AC0F30310CE
:104FF000121D105C0A68C2400A6070BD0038024091
:105000000070004008544007003C024088ED00E07A
:10501000FFFFF6FE103000240024F40020000020E2
:10502000704700000FB4044910B503AA029800F0BD
:105030004DF910BC5DF814FB0C0000202DE9F04187
:105040000E460446002020622046E168884730B3BF
:10505000252805D0D4E901219047206A401CF2E7B9
:10506000E168204600278847050018D0A5F14100D7
:10507000192802D820354FF40067324629462046C9
:105080002760FBF7BBF840B1012804D0F61D26F0DD
:1050900007060836D8E7361DD6E72846DAE7206A3D
:1050A000BDE8F08170B50C460546012A05D0287888
:1050B000800600D5EA69002302E0012305E05B1CBD
:1050C000934202D2E05C0028F9D1A869E618C01A20
:1050D000A861286A184428622846AFF3008004E0DB
:1050E000D5E9012114F8010B9047B442F8D32846C2
:1050F000AFF3008070BD000070B504460D46214638
:105100001068AFF300802188090502D5104A7A445F
:1051100002E00F4A7A440E32002104F1240307E032
:1051200000F00F064FEA1010965D5E5401F1010188
:105130000028F5D103462078000704D5702D02D051
:1051400009B1113202232046BDE8704000F04BB88F
:10515000E4080000032A40F2308010F0030C00F055
:10516000158011F8013BBCF1020F624498BF11F8A1
:1051700001CB00F8013B38BF11F8013BA2F104025A
:1051800098BF00F801CB38BF00F8013B11F00303D2
:1051900000F0AE80083AC0F0088051F8043B083AAD
:1051A00051F804CBA0E80810F5E7121D5CBF51F8D8
:1051B000043B40F8043BAFF30080D20724BF11F852
:1051C000013B11F801CB48BF11F8012B24BF00F8B7
:1051D000013B00F801CB48BF00F8012B7047704736
:1051E0007047704770472DE9F0470D469946924643
:1051F000044600F124080168880604D5E06921F01E
:105200001001216000E00120A84202DDA0EB0507AB
:1052100000E00027A16907EB050202EB0900A1EB02
:105220000000A0612078C00602D42046AFF30080C1
:10523000002608E0D4E901211AF806009047206A08
:10524000401C761C20624E45F4DB2078C0060AD54F
:105250002046AFF3008006E0D4E9012130209047DA
:10526000206A401C2062381EA7F10107F4DC07E029
:10527000D4E9012118F805009047206A401C2062FB
:10528000281EA5F10105F3DC2046AFF3008020784D
:10529000000602D50220BDE8F0870120FBE710B52B
:1052A000436913B1AFF3008001E0FFF7FBFE01207B
:1052B00010BD127800F124010A7000224A70012208
:1052C000EDE711684FF0FF32E9E70000074B70B5DA
:1052D0000D467B4400F043F80446284600F052F89F
:1052E00010B14FF0FF3070BD204670BD6BCFFFFF97
:1052F00010B5203AC0F00B80B1E81850203AA0E871
:105300001850B1E81850A0E81850BFF4F5AF5FEAA4
:10531000027C24BFB1E81850A0E8185044BF18C957
:1053200018C0BDE810405FEA827C24BF51F8043BFE
:1053300040F8043B08BF7047D20728BF31F8023B52
:1053400048BF11F8012B28BF20F8023B48BF00F8E6
:10535000012B704701694A1C02610878704700B54B
:105360008FB0CDE901310021059105497944CDE99E
:10537000031011466846FFF761FE0FB000BD000044
:10538000E5FFFFFF007B00F080007047754600F0EE
:1053900029F8AE4605006946534620F007008546C9
:1053A00018B020B5FEF796FABDE820404FF0000691
:1053B0004FF000074FF000084FF0000B21F00701FD
:1053C000AC46ACE8C009ACE8C009ACE8C009ACE840
:1053D000C0098D4670470446AFF300802046FAF7B7
:1053E00024FF000000487047340000204FF0DE42E8
:1053F00010800148018070470000016F4FF040703D
:10540000E1EE100A704700000000000000000000FC
:10541000000000000000000000183C3C3C18180090
:10542000181800000000000000666666000000001A
:1054300000000000000000000036367F3636367F60
:105440003636000000000018183C666030180C0664
:10545000663C18180000000070D8DA760C18306E20
:105460005B1B0E000000000000386C6C38606F663B
:10547000663B000000000000001818180000000043
:105480000000000000000000000C18183030303020
:105490003018180C00000000003018180C0C0C0C10
:1054A0000C18183000000000000000361C7F1C366D
:1054B000000000000000000000000018187E18180E
:1054C00000000000000000000000000000000000DC
:1054D0001C1C0C180000000000000000007E0000F2
:1054E00000000000000000000000000000000000BC
:1054F0001C1C0000000000000006060C0C181830F0
:105500003060600000000000001E333737333B3B43
:10551000331E000000000000000C1C7C0C0C0C0C66
:105520000C0C000000000000003C6666060C183001
:10553000607E000000000000003C6666061C0666F7
:10554000663C000000000000003030363636667FD2
:105550000606000000000000007E6060607C060619
:105560000C78000000000000001C18307C666666A5
:10557000663C000000000000007E060C0C1818308D
:105580003030000000000000003C6666763C6E662D
:10559000663C000000000000003C666666663E0C4B
:1055A00018380000000000000000001C1C00000073
:1055B0001C1C0000000000000000001C1C0000007B
:1055C0001C1C0C180000000000060C18306030187D
:1055D0000C06000000000000000000007E007E00BD
:1055E0000000000000000000006030180C060C18DD
:1055F0003060000000000000003C66660C181800D7
:105600001818000000000000007EC3C3CFDBDBCF12
:10561000C07F00000000000000183C6666667E66E1
:105620006666000000000000007C6666667C6666B8
:10563000667C000000000000003C666660606066FA
:10564000663C00000000000000786C6666666666D6
:105650006C78000000000000007E6060607C60608C
:10566000607E000000000000007E6060607C606082
:105670006060000000000000003C666660606E66CE
:10568000663E00000000000000666666667E666694
:105690006666000000000000003C18181818181872
:1056A000183C00000000000000060606060606661C
:1056B000663C0000000000000066666C6C786C6C54
:1056C000666600000000000000606060606060606E
:1056D000607E000000000000006363776B6B6B630B
:1056E0006363000000000000006363737B6F676307
:1056F0006363000000000000003C66666666666644
:10570000663C000000000000007C6666667C60600D
:105710006060000000000000003C66666666666629
:10572000663C0C0600000000007C6666667C6C66C9
:105730006666000000000000003C666030180C0641
:10574000663C000000000000007E181818181818A9
:10575000181800000000000000666666666666664F
:10576000663C0000000000000066666666666666CD
:105770003C18000000000000006363636B6B6B3635
:1057800036360000000000000066663418182C66EB
:10579000666600000000000000666666663C181839
:1057A0001818000000000000007E06060C1830608B
:1057B000607E000000000000003C303030303030AF
:1057C000303030303C000000006060303018180C81
:1057D0000C06060000000000003C0C0C0C0C0C0C2D
:1057E0000C0C0C0C3C0000183C6600000000000093
:1057F00000000000000000000000000000000000A9
:1058000000000000FF000000001818180000000051
:1058100000000000000000000000003C06063E669C
:10582000663E0000000000000060607C6666666600
:10583000667C0000000000000000003C66606060C4
:10584000663C0000000000000006063E66666666D4
:10585000663E0000000000000000003C66667E60BE
:10586000603C000000000000001E3030307E303010
:1058700030300000000000000000003E66666666F2
:10588000663E06067C0000000060607C6666666618
:105890006666000000000000181800781818181834
:1058A000187E0000000000000C0C003C0C0C0C0CDE
:1058B0000C0C0C0C7800000000606066666C786C64
:1058C0006666000000000000007818181818181804
:1058D000187E0000000000000000007E6B6B6B6B08
:1058E0006B630000000000000000007C66666666D6
:1058F00066660000000000000000003C6666666608
:10590000663C0000000000000000007C66666666E1
:10591000667C6060600000000000003E66666666AF
:10592000663E060606000000000000666E706060BD
:1059300060600000000000000000003E60603C0667
:10594000067C0000000000000030307E3030303037
:10595000301E0000000000000000006666666666FB
:10596000663E000000000000000000666666666695
:105970003C18000000000000000000636B6B6B6BC4
:10598000363600000000000000000066663C183C4F
:10599000666600000000000000000066666666663D
:1059A000663C0C18F00000000000007E060C183069
:1059B000607E000000000000000C181818306030F5
:1059C0001818180C000000000018181818181818DB
:1059D000181818181800000000301818180C060CB9
:1059E00018181830000000000071DB8E0000000065
:1059F000000000000000303132333435363738399A
:105A0000414243444546403058003031323334350A
:105A1000363738396162636465664030780000006B
:105A2000405A00080000002034000000C4010008B3
:105A3000745A00083400002064060000E0010008E9
:105A4000000000001027000000000000000000001F
:105A50000000000001020304010203040607080914
:105A6000007A030A000000000000000001020304A5
:045A70000607080914
:040000050800018965
:00000001FF
