:0416B30012152122C9
:0B166F00EF1FAC0670011E4C70F6224D
:1015E000EF1FAA0670011E4A600A7D82AC051DEC41
:0415F00060EE80F831
:0115F40022D4
:101560008F828E83E5821582AE83700215834E6072
:0B157000097FE87E031215E080EA22EC
:0316B7000215E039
:1015C900E4FEFDEE25E0FEEF54012EFEEFC313FF0E
:0615D9000DBD08EFAF0696
:0115DF0022E9
:1000030068656C6C6F20776F726C640A0049276DAA
:1000130020657269632E210A004E69636520746F3F
:10002300206D65657420796F75210A0041637475CD
:10003300616C6C792C746869732069732061207416
:100043006573742070726F6772616D2E42757420D0
:100053006920776F756C64206C696B6520746F2001
:1000630066696E64206966207468657265206578C8
:1000730069737420616E792070726F626C656D7341
:100083002E0A000A0A417765736F6D6521204920A6
:100093006C696B652074686973206F6E6521200A33
:1000A300282A5E2D5E2A29200A000A4B6579002042
:1000B30069732070726573736564210A0000000020
:1000C3000000000000000000000000000000001815
:1000D3003C3C3C181818001818000000000063632B
:1000E3006322000000000000000000000000000088
:1000F30036367F3636367F3636000000000C0C3E2F
:100103006361603E030343633E0C0C000000000088
:1001130000006163060C1833630000000000000058
:100123001C36361C3B6E66663B0000000000303018
:100133003060000000000000000000000000000C20
:1001430018183030303018180C0000000000001868
:100153000C0C060606060C0C18000000000000003C
:100163000042663CFF3C66420000000000000000C5
:1001730000181818FF1818180000000000000000ED
:1001830000000000000000181818300000000000F4
:1001930000000000FF00000000000000000000005D
:1001A300000000000000001818000000000000011B
:1001B30003070E1C3870E0C0800000000000003E02
:1001C3006363636B6B6363633E0000000000000CBA
:1001D3001C3C0C0C0C0C0C0C3F0000000000003EFF
:1001E3006303060C183061637F0000000000003ECB
:1001F3006303031E030303633E00000000000006C5
:100203000E1E3666667F06060F0000000000007FA4
:100213006060607E030363733E0000000000001C07
:100223003060607E636363633E0000000000007F14
:10023300630306060C0C1818180000000000003EAB
:100243006363633E636363633E0000000000003E3C
:10025300636363633F0303063C0000000000000088
:10026300000018180000001818000000000000002B
:1002730000001818000000181818300000000000D3
:10028300060C18306030180C060000000000000057
:100293000000007E00007E0000000000000000005F
:1002A3006030180C060C1830600000000000003E9F
:1002B3006363060C0C0C000C0C0000000000003EF5
:1002C30063636F6B6B6E60603E00000000000008AC
:1002D3001C366363637F6363630000000000007E7A
:1002E3003333333E333333337E0000000000001ECC
:1002F30033616060606061331E0000000000007CB9
:1003030036333333333333367C0000000000007F51
:100313003331343C343031337F0000000000007F40
:100323003331343C34303030780000000000001E9C
:10033300336160606F6363371D000000000000637A
:100343006363637F63636363630000000000003CD7
:1003530018181818181818183C0000000000000F8F
:1003630006060606060666663C00000000000073EB
:100373003336363C363633337300000000000078E2
:1003830030303030303031337F0000000000006304
:10039300777F6B6363636363630000000000006344
:1003A30063737B7F6F676363630000000000001C5F
:1003B30036636363636363361C0000000000007EE2
:1003C3003333333E30303030780000000000003EDD
:1003D3006363636363636B6F3E0607000000007E25
:1003E3003333333E36363333730000000000003EB0
:1003F3006363301C060363633E000000000000FFDC
:10040300DB991818181818183C0000000000006346
:1004130063636363636363633E0000000000006320
:10042300636363636363361C0800000000000063BA
:10043300636363636B6B7F3636000000000000C3A9
:10044300C3663C18183C66C3C3000000000000C329
:10045300C3C3663C181818183C0000000000007F56
:100463006343060C183061637F0000000000003C0A
:1004730030303030303030303C000000000000803D
:10048300C0E070381C0E0703010000000000003CB0
:100493000C0C0C0C0C0C0C0C3C00000000081C3663
:1004A30063000000000000000000000000000000E6
:1004B300000000000000000000FF00000018180CFE
:1004C3000000000000000000000000000000000029
:1004D30000003C46063E66663B00000000000070DC
:1004E30030303C36333333336E00000000000000FD
:1004F30000003E63606060633E0000000000000E89
:1005030006061E36666666663B00000000000000B5
:1005130000003E63637E60633E0000000000001C39
:100523003632307C3030303078000000000000007C
:1005330000003B666666663E06663C00000000708F
:100543003030363B33333333730000000000000C8C
:100553000C001C0C0C0C0C0C1E0000000000000610
:1005630006000E060606060666663C0000000070DE
:1005730030303333363C3633730000000000001C48
:100583000C0C0C0C0C0C0C0C1E00000000000000EA
:1005930000006E7F6B6B6B6B6B0000000000000054
:1005A30000006E33333333333300000000000000A8
:1005B30000003E63636363633E00000000000000CD
:1005C30000006E333333333E3030780000000000D8
:1005D30000003B666666663E06060F0000000000EC
:1005E30000006E3B33303030780000000000000024
:1005F30000003E63380E03633E0000000000000865
:1006030018187E181818181B0E00000000000000B0
:1006130000006666666666663B0000000000000038
:100623000000636336361C1C080000000000000055
:1006330000006363636B6B7F360000000000000003
:10064300000063361C1C1C36630000000000000021
:10065300000063636363633F03063C000000000024
:1006630000007F660C1830637F0000000000000E5E
:1006730018181870181818180E0000000000001839
:10068300181818180018181818180000000000701F
:100693001818180E18181818700000000000003BF6
:1006A3006E0000000000000000000000000070D891
:1006B300D8700000000000000000000000C08000AF
:1006C30080830300C70100C610FCFF3F08E704183E
:1006D300660C30660C606606E0660340E631FFFF99
:1006E3007F000000400002C0FF0FC00007C00003EE
:1006F300C0FF07C0FF07C00007C00007C0FF07C057
:100703000007400000000400003C00001C00001C27
:1007130000001C00031C60FFFFFF071C60071C6038
:10072300071C60071C60071C60071C70FFFF7F0726
:100733001C60031C20001C00001C00001C00001C8B
:1007430000001C00001C00001C00000C0000000640
:1007530000031CE0070CFE000CC0300CC0600CC092
:10076300C00CC0440CFF0F0CE0100CE0300CE06137
:100773000CF0632CF8066CD804FECCF00FC61E0CEC
:10078300C2000CC1000CC0000CC0000CC0000CC0A7
:10079300000C000004208000E08003608001608082
:1007A30001608001608021FFFF7F60800160800124
:1007B30060800160D711E0F93F7810187F300C6634
:1007C300200C60600660600760C00360800160C049
:1007D3000362700F7E3CFC380F789001208000800C
:1007E30000FC1F40004000FF7F20001004F00F00BA
:1007F30004000240018000000100020000200220EA
:100803000220022022226224322412280A380A28D3
:1008130006200220022022FF7F00000000080408B7
:10082300040804BF7F08042804983F8C100B1108A8
:100833000908060806080988706A200400800080F9
:100843000480088000FF7F8000C001A002A0049004
:10085300088818847083208000800000000202044E
:10086300020C05040980104060A7208408841C84BE
:10087300038400A40094208C20043F00000000881F
:100883003F0800080008003F00C87F080208060868
:100893000138118C20437EE063402000002801FFD3
:1008A3000728012801FF072104FC0124012401A4D6
:1008B30001200000002400E4071202AB0192028A27
:1008C30004E20010002A030A05F9010000220124B2
:1008D30001F80720012301FA072201220112010D69
:1008E30001F90700001800200020002000500050EC
:1008F30000880088000401020201040000880050FF
:1009030000FC032402FC032402FC032000FF072055
:100913000020000000440044004400FC07040004DD
:1009230000FC00840084008200810000000401E4D4
:10093300033F01240124012E01360125012505145D
:10094300050C070000100112011201FF071201122A
:10095300011201F20112010200FE070000FC032450
:1009630002FC032402FC0388009401930690008890
:0E0973000086000000FF08A0FF07E0FF06C09E
:10143000046800000000026400000262FFDF016631
:1014400000016700C100015100105220202E2D7CA8
:0B1450002F5F3C3E3F7E212B2A230033
:05169F00AE64AF6522FE
:0516A400AE62AF6322FD
:0516A9008E628F632238
:0516AE008E648F65222F
:1016300075A0FF7580FF120981AF65AE640213E7E4
:101640000567E567C394194003E4F567E4F566228E
:1012DB00A907E56675F008A4FFAEF0E56775F01099
:1012EB00A4FDACF085642D85652E892F1211650543
:1012FB0066E566C3941E401274E22566F5660567C3
:10130B00E567C394194003E4F56730001EE5667585
:10131B00F008A4FFAEF0E56775F010A4FDACF08506
:0C132B00642D85652E752F5F1211652260
:101337008B248A258926AB24AA25A926120DEC60C1
:1013470049640A702EE56675F008A4FFAEF0E567FC
:1013570075F010A4FDACF085642D85652E752F20E2
:1013670012116512164074012526F526E43525F578
:101377002580C3AB240526E526AA2570020525147A
:0B138700F9120DECFF1212DB80AC220B
:10098100D2B37F057E001215E0C2B37F057E00124F
:1009910015E0D2B37F057E001215E0C2A7E4FDFC8D
:1009A100FFFE1216227F057E001215E0E4FDFCFF1A
:1009B100FE1216227F057E001215E0E4FDFCFFFE0B
:1009C1001216227F057E001215E0E4FDFCFFFE12E7
:1009D10016227F057E001215E07F647E001215E06D
:1009E1001215967F057E001215E01215967F057E81
:1009F100001215E0E4FFFE1215997F057E00121525
:100A0100E0E4FFFE1215997F057E001215E07F6478
:100A11007E001215E07D007C627F007E04121622AA
:100A21007F057E001215E07408FDFCFF7E001216A2
:100A3100227F057E001215E0740CFDFC7F007E0311
:100A41001216227F057E001215E07D137CFF7F01C7
:100A51007E031216227F057E001215E0740FFDFC45
:100A61007F027E031216227F057E001215E07D0BA8
:100A71007C157403FFFE1216227F057E001215E01D
:100A81007D207C107F047E031216227F057E0012DA
:100A910015E07D0B7C0A7F057E031216227F057E01
:100AA100001215E07D037C007F067E031216227F73
:100AB100057E001215E07D067C0D7F077E03121670
:100AC100227F057E001215E07D047C057F087E03F0
:100AD1001216227F057E001215E07D307C107F0901
:100AE1007E031216227F057E001215E07D1B7C001D
:100AF1007F107E001216227F057E001215E0740120
:100B0100FDFC7F117E001216227F057E001215E08A
:100B1100E4FDFC7F12FE1216227F057E001215E015
:100B21007D017C007F137E001216227F057E00125C
:100B310015E07D307C037F007E011216227F057E49
:100B4100001215E07D477C027401FFFE1216227F20
:100B5100057E001215E07D007C107F037E011216D8
:100B6100227F057E001215E07D007CBF7F807E0222
:100B71001216227F057E001215E07DB07CD17F0226
:100B81007E011216227F057E001215E07FC47E04CD
:100B91001215E07D007C017F017E001216227F0587
:100BA1007E001215E07D007C017F027E001216227C
:100BB1007F057E001215E07D307C107F037E0012E0
:100BC10016227F057E001215E07D017C007F097EE3
:100BD100001216227F057E001215E0E4FDFC7F0C59
:100BE100FE1216227F057E001215E07D007C807FBB
:100BF100907E001216227F057E001215E0E4FDFCB6
:100C01007F0FFE1216227F057E001215E07F101263
:100C1100161D7F057E001215E07DEF7C007F117EA1
:100C2100021216227F057E001215E0E4FDFC7F1200
:100C31007E021216227F057E001215E07D8F7C0157
:100C41007F137E021216227F057E001215E0E4FD5D
:100C5100FCFF7E051216227F057E001215E0E4FDE1
:100C6100FC7F017E051216227F057E001215E07DB4
:100C71005F7C007F027E051216227F057E00121521
:100C8100E07D017C007F017E041216227F057E003B
:100C91001215E0E4FDFC7404FFFE1216227F057EAE
:100CA100001215E07FF47E011215E07D007C017FCA
:100CB100077E001216227F057E001215E07FE87E76
:100CC100031215E0E4FDFCFF7E021216227F057E71
:100CD100001215E07F0112161D7F057E001215E03E
:100CE1007FF47E011215E07402FFFE1215B07FF44D
:050CF1007E010215E088
:101392008E498F4A8C4B8D4C8A4D8B4EAD4AAC494F
:1013A2007F007E02121622AD4EAC4D7F017E0212EC
:1013B2001622AD4AAC497F107E02121622AD4CAC09
:1013C2004B7F117E02121622AD4EAC4D7F127E0271
:1013D200121622AD50AC4F7F137E021216227402F7
:0513E200FFFE0215B042
:0413E7008E248F259C
:1013EB00754F0175508FE4FBFA7DEFFCFFFE121376
:1013FB0092E4F526F527E4F528F529AF25AE24125E
:10140B0015990529E52970020528C39490E52894C0
:10141B000140E80527E52770020526C394F0E52671
:04142B00940040D217
:01142F00229A
:0C0F81008E248F258C268D278A288B2932
:100F8D00E4F52FF53078407C00FD7BFF7A09797808
:100F9D00FE7F09120DC6E52975F003A42440F886DD
:100FAD000308E6FA08E6F9E52945287011F53775C5
:100FBD00380BF539753A0BF53B753C188030E52942
:100FCD00640145287011F53775380FF539753A0FED
:100FDD00F53B753C208017E52964024528700FF517
:100FED0037753817F539753A17F53B753C48AF2EFF
:100FFD00EF3395E0FEEF24FFFFEE34FFFEAC3BAD8B
:10100D003C120E05E92FF9EA3E8B3DF53E893FE591
:10101D0025253AFDE5243539FCE5272538F550E53C
:10102D00263537F54FAB27AA26AF25AE24121392DE
:10103D00E4F531F532C3E532953CE531953B40039E
:10104D000210D8AB3D053FE53FAA3E7002053E14A8
:10105D00F9120DEC753500F536E5294528701AAEF7
:10106D0031AF32FC7D02120E17ED4C7004F52F805E
:10107D000B752F007530048006752F00753008E450
:10108D00F533F534C3E5349530E52F6480F8E53359
:10109D00648098502BE536AE35A834088006CEA274
:1010AD00E713CE13D8F830E006AF2BAE2A8004AF8D
:1010BD002DAE2C1215990534E53470C8053380C456
:0B10CD000532E53270020531021042CE
:0110D80022F5
:04116500AB63AA626C
:081169008A2B8B2C8D828C83F4
:10117100EF2407FDE43EFCAB82AA83E582240FF550
:1011810050E43583F54F12139274E0252FF52FE4C7
:10119100F531AF2FEF3395E0FEEFC4F8540FC86877
:1011A100FFEEC454F048FE74C02FF58274003EF582
:1011B10083E5822531F582E43583F583E493F530C7
:1011C100E4F532E53030E706AF2CAE2B8004AF2ECC
:1011D100AE2D121599E53025E0F5300532E532C323
:0D11E100940840DF0531E531C3941040A5AE
:0111EE0022DE
:1015B000AD07AC06C2A7C2B2C2A58C80D2A500C23C
:0915C000A58D80D2A500D2A7225E
:03159600E4FFFE71
:10159900AD07AC06C2A7D2B2C2A58C80D2A5C2A59E
:0715A9008D80D2A5D2A7221C
:05161D00E4FDFC7E026B
:0E162200AB05AA041215B0AF03AE0202159973
:1011EF00121630752101AF660566EF75F010A4FF7A
:1011FF00AEF0E56775F010A4FDACF0752A0F752BF6
:10120F00C085642C85652D85212EE4FBFA120F8194
:10121F000521E521C3940A40CD1216407BFF7A00C9
:10122F0079031213377BFF7A0079101213371216D6
:10123F00A48E228F237F007EF81216A97BFF7A00DF
:10124F00791C121337AF23AE221216A97BFF7A0037
:0E125F00792F1213377BFF7A0079860213373E
:061541008B228A2389249D
:10154700E4FFAB220524E524AA237002052314F93E
:08155700120DEC60030F80EAA5
:01155F002269
:10126D00E47BE87A03F9F8AF6BAE6AAD69AC68124E
:10127D000E89AC00AD01AE02AF03E4FBFAF9F8C381
:10128D00120F1B70117A0079521215410551E5515B
:10129D008FF08485F05174522551F8E6FF1212DB60
:1012AD00E4F521AF21121660501A7BFF7A0079AD5B
:1012BD00121337E5212430FF1212DB7BFF7A007900
:0D12CD00B21213370521E521C3940840D665
:0112DA0022F1
:101521001211EFE56B2401F56BE4356AF56AE435D8
:1015310069F569E43568F56812146612126D80E385
:07145B00010AFF0208000373
:10146600AD90EDF4520AE4FC74017E00A8040880F5
:1014760005C333CE33CED8F9FFEF550A6011740B8E
:101486002CF806740B2CF8E6D394144002760A0C5A
:05149600BC08D58D0A21
:01149B00222E
:10157B0074017E00A807088005C333CE33CED8F99B
:0B158B00FFEF550A7003D38001C3225C
:1014FF0074017E00A807088005C333CE33CED8F918
:10150F00FFEF550AD39400748094804003D3800179
:02151F00C322E5
:10149C00AD07740B2DF8E6D39400402674017E0042
:1014AC00A805088005C333CE33CED8F9FFE50AFB77
:1014BC00EF5BD39400748094804007740B2DF81666
:0414CC00D322C32242
:0F166000740B2FF8E6D39400400316D322C32255
:091685007F08780BE4F608DFFC95
:01168E002239
:1015F500AF097801EF08800123D8FD750800F509CA
:04160500FF02169931
:10160900AF097801EF08800103D8FD750800F509D5
:04161900FF0216991D
:0A168F00750800750903E4F59022C8
:1014D000E4FF12166050031215F57F0112166050DA
:1014E000031216097F0212157B50130509E50970D6
:0F14F000020508FF1216997F2C7E011216B722F3
:0B167A0012168F1214661214D080F8B4
:0314620001130073
:061699001215C98F80222A
:10165000AF1305131216997F017E0012156080F0FA
:030000000210D912
:0C10D900787FE4F6D8FD75816B021120D1
:100CF600E709F608DFFA8046E709F208DFFA803EE0
:100D060088828C83E709F0A3DFFA8032E309F608CC
:100D1600DFFA8078E309F208DFFA807088828C8334
:100D2600E309F0A3DFFA806489828A83E0A3F608E8
:100D3600DFFA805889828A83E0A3F208DFFA804CC2
:100D460080D280FA80C680D4806980F28033801099
:100D560080A680EA809A80A880DA80E280CA803302
:100D660089828A83ECFAE493A3C8C582C8CCC5837A
:100D7600CCF0A3C8C582C8CCC583CCDFE9DEE7804A
:100D86000D89828A83E493A3F608DFF9ECFAA9F0C9
:100D9600EDFB2289828A83ECFAE0A3C8C582C8CC1F
:100DA600C583CCF0A3C8C582C8CCC583CCDFEADE38
:100DB600E880DB89828A83E493A3F208DFF980CC9A
:100DC60088F0EF60010E4E60C388F0ED2402B40493
:100DD6000050B9F582EB2402B4040050AF2323453A
:060DE6008223900D46730C
:100DEC00BB010689828A83E0225002E722BBFE0205
:090DFC00E32289828A83E4932238
:100E0500EF8DF0A4A8F0CF8CF0A428CE8DF0A42E01
:020E1500FE22BB
:100E1700C2D5EC30E709B2D5E4C39DFDE49CFCEEF6
:100E270030E715B2D5E4C39FFFE49EFE120F2CC333
:100E3700E49DFDE49CFC8003120F2C30D507C3E42E
:060E47009FFFE49EFE2265
:100E4D0075F008758200EF2FFFEE33FECD33CDCC5C
:100E5D0033CCC58233C5829BED9AEC99E5829840DF
:100E6D000CF582EE9BFEED9AFDEC99FC0FD5F0D6BC
:100E7D00E4CEFBE4CDFAE4CCF9A88222B800C1B9E6
:100E8D000059BA002DEC8BF084CFCECDFCE5F0CB24
:100E9D00F97818EF2FFFEE33FEED33FDEC33FCEB5D
:100EAD0033FB10D703994004EB99FB0FD8E5E4F918
:100EBD00FA227818EF2FFFEE33FEED33FDEC33FC05
:100ECD00C933C910D7059BE99A4007EC9BFCE99AF9
:100EDD00F90FD8E0E4C9FAE4CCFB2275F010EF2F3E
:100EED00FFEE33FEED33FDCC33CCC833C810D7073E
:100EFD009BEC9AE899400AED9BFDEC9AFCE899F879
:0E0F0D000FD5F0DAE4CDFBE4CCFAE4C8F9220B
:100F1B00EB9FF5F0EA9E42F0E99D42F0E89C45F02C
:010F2B0022A3
:1010E5000216B3E493A3F8E493A34003F68001F258
:1010F50008DFF48029E493A3F85407240CC8C3330C
:10110500C4540F4420C8834004F456800146F6DFDA
:10111500E4800B0102040810204080901430E47E26
:10112500019360BCA3FF543F30E509541FFEE493CF
:10113500A360010ECF54C025E060A840B8E493A396
:10114500FAE493A3F8E493A3C8C582C8CAC583CAC1
:10115500F0A3C8C582C8CAC583CADFE9DEE780BE79
:011465000086
:100F2C00BC000BBE0029EF8DF084FFADF022E4CCA9
:100F3C00F875F008EF2FFFEE33FEEC33FCEE9DEC72
:100F4C00984005FCEE9DFE0FD5F0E9E4CEFD22EDB8
:100F5C00F8F5F0EE8420D21CFEADF075F008EF2F02
:100F6C00FFED33FD4007985006D5F0F222C398FDF3
:050F7C000FD5F0EA2290
:00000001FF
