:020000040800F2
:100000000004002077020008F5070008F707000841
:10001000FB070008FF0700080308000800000000B5
:1000200000000000000000000000000007080008B9
:1000300009080008000000000B0800080D0800086F
:10004000970200089702000897020008970200082C
:10005000970200089702000897020008970200081C
:10006000970200089702000897020008970200080C
:1000700097020008970200089702000897020008FC
:1000800097020008970200089702000897020008EC
:1000900097020008970200089702000897020008DC
:1000A00097020008970200089702000897020008CC
:1000B00097020008970200089702000897020008BC
:1000C00097020008970200089702000897020008AC
:1000D00097020008630900089702000897020008C9
:1000E000A10700089702000897020008970200087D
:1000F000970200089702000897020008970200087C
:10010000970200089702000897020008970200086B
:10011000970200089702000897020008970200085B
:10012000970200089702000897020008970200084B
:10013000DFF80CD002F024FE00480047F10200086E
:10014000600400204FF000010846464A126842F45D
:100150008032444B1A6000BF424A126802F40030F9
:1001600001F1010110B9B1F5A06FF5D13D4A126856
:1001700012F4003F02D04FF0010001E04FF0000008
:10018000012843D1384A126842F01002364B1A60F7
:100190001A46126822F003021A601A46126842F0E8
:1001A00002021A602F4A52682E4B5A601A46526851
:1001B0005A601A46526842F480625A601A4652687F
:1001C00022F47C125A601A46526842F4E8125A60CD
:1001D0001A46126842F080721A6000BF214A126803
:1001E00012F0007FFAD01F4A526822F003021D4B22
:1001F0005A601A46526842F002025A6000BF194A19
:10020000526802F00C02082AF9D101E000BFFEE7B3
:10021000704710B5FFF796FF10BD10B51148006884
:1002200040F001000F490860084640680F4900EAA5
:1002300001000C494860084600680D4900EA0100C9
:10024000084908600846006820F4802008600846D5
:10025000406820F4FE0048604FF41F008860FFF7FC
:10026000D8FF10BD00100240002002400000FFF83F
:10027000FFFFF6FE704708488047084981F3088869
:1002800007480047FEE7FEE7FEE7FEE7FEE7FEE77A
:10029000FEE7FEE7FEE7FEE77502000860040020C7
:1002A00031010008FD49086000BFFC4909680029C8
:1002B000FBD1704708B500214FF0006001F08EFEC1
:1002C0004FF4C06001F044FE4FF028008DF80000AC
:1002D0004FF001008DF801004FF002008DF8020090
:1002E0004FF001008DF80300684601F037FE08BDAD
:1002F00008B5FFF792FF00BFE94800684FF47A7233
:10030000B0FBF2F1B1F1807F02D34FF0010028E0A1
:1003100021F07F40A0F101004FF0E02250614FF04A
:10032000FF304FF00F0200280ADA4FEA02734FEA5B
:100330001365DC4B00F00F04A4F104041D5505E027
:100340004FEA02734FEA1364D74B1C5400BF4FF0BF
:1003500000004FF0E02290614FF0070010614FF075
:1003600000000028C8D1FFF7A5FF00F038FC0020EE
:1003700000F012FC01F011FB4FF00000CB490880A7
:10038000CB484FF061034FF063024FF06E010090D5
:100390004FF0640001F037F91F23C6A2AA21002004
:1003A00001F06BF84FF47843D1A2DC21002001F07A
:1003B00064F86420FFF776FF4FF00000D149086031
:1003C0004FF0C80001F07EFC4FF00100CE49C1F8AB
:1003D000AC014FF00000CD49086001F10401086054
:1003E0004FF0010008604FF0000008604FF001007E
:1003F000C549C1F8A8014FF0C80001F063FC4FF0F7
:100400000100C149C1F8A40103E001F0DEFB00B125
:1004100000E0FAE700BF4FF47843BDA2DC210020E2
:1004200001F02BF84FF44870FFF73CFF01F015FC8A
:100430009CE0BC4800780228FAD140F23F13EF223A
:100440000021084600F06BFE00F076FB4FF0000044
:10045000B54908604FF00100B449C1F8B4014FF04C
:100460000000B349086046E04FF00000B149086061
:1004700000BF00BF4FF00100A349C1F8A80100BFB1
:1004800000BF00BF00BFAC480068C0B2AB490880E5
:10049000084600884FEA00604FEA104008804FF09D
:1004A0000000A449086000BF00BF4FF0010096495A
:1004B000C1F8A80100BF00BF9F480068C0B2A049B2
:1004C00008809E480088098840EA01009B4908800E
:1004D000084600889B4908604FF000009A49086070
:1004E0004FF001009149C1F8B8019148006800F14E
:1004F00001008F4908608E480068B0F5963FB3D37D
:100500004FF00100884908604FF000007E49C1F8B3
:10051000A4018E4908700EE04FF000008549086084
:100520004FF001007849C1F8A8018848007800F12F
:10053000010086490870854800788028ECDB4FF080
:100540000100724908604FF000006F49C1F8AC012A
:1005500000BF00BF4FF0020001F0B4FB4FF00100FC
:10056000684908604FF000006E49087061E710B5F7
:100570004FF6FF7000F010FB4FF4784374A2002197
:10058000D82000F07AFF4FF01F007249088010BD9C
:1005900008B5012144F23D0002F0B4F84FF4706058
:1005A000ADF800004FF010008DF803004FF003008D
:1005B0008DF802006946684801F0AAFD4FF001007D
:1005C000ADF800004FF028008DF80300694663483D
:1005D00001F09EFD4FF48070ADF800004FF0480030
:1005E0008DF8030069465D4801F092FD4FF400501C
:1005F000ADF800004FF048008DF8030069465848F8
:1006000001F086FD4FF40070ADF800004FF01800C7
:100610008DF803004FF003008DF8020069464F4843
:1006200001F076FD4FF48060ADF800004FF004005B
:100630008DF803006946494801F06AFD4FF020003B
:10064000ADF800004FF000008DF803006946444803
:1006500001F05EFD08BD1148006828B10F48006830
:10066000A0F101000D490860704700B53D480078D1
:1006700088B13D48006810B13C48006858B90A206C
:10068000FFF710FE4FF0000036490870364800684A
:1006900010B9012000BD70E06AE000003C000020BD
:1006A000C42D000818ED00E000E400E04400002044
:1006B000B8470008494C493933325820544654C988
:1006C000E3CFF1CDB7C7FDB6AFCAB5D1E90D0A0D7D
:1006D0002020202020202020202020A1AAA1AABB69
:1006E000F9D3DA53544D3332463130335643000098
:1006F0004F563736373020496E69742E2E2E2E2EE7
:100700002E000000AC81214200802142A4812142C0
:100710004F563736373020496E69742E2E2E2E2EC6
:100720002E4F4B00400000209801224200802242C0
:100730001C000020A8812142080801402000002060
:10074000220000200C180140B8812242190000202C
:1007500052535400420000200014014000080140A0
:1007600000100140240000203401224220012142D7
:100770000848006858B9022000BD074800680128F1
:1007800005D104480068012801D1044908700020FF
:10079000F2E700002001214234012242240000201F
:1007A00010B54FF4805002F0C1FA10B34FF48050EE
:1007B00002F0CFFA17480078022805DA15480078C9
:1007C00000F101001349087012480078012805D192
:1007D000114908601149C1F8A0010AE00D480078EC
:1007E000022806D14FF000000B4908600B49C1F800
:1007F000A00110BD704700BFFEE700BFFEE700BFCD
:10080000FEE700BFFEE770477047704710B5FFF77F
:1008100022FF10BD40000020B8812142008021420B
:1008200000BF5749098811F0800FFAD0C0F30801C2
:10083000544A1180704700B50D20FFF7F1FF0A20E0
:10084000FFF7EEFF00BD70B50546284602F090FAAE
:10085000A0F1010086B24FF0000405E0285DFFF72B
:10086000DFFF04F1010084B2B442F7DB285D0A28FF
:1008700002D1FFF7E0FF02E0285DFFF7D1FF70BD76
:1008800070B585B002464FF00000034600BF10E08F
:100890004FF00A04B2FBF4F504FB152404F1300414
:1008A0000DF8004000F10104E0B24FF00A04B2FB81
:1008B000F4F2002AECD10346104609E0A3EB000451
:1008C000A4F101041DF804400C5400F10104E0B24D
:1008D0009842F3DB30B94FF03006044600F10105D1
:1008E000E8B20E554FF000040C5405B070BD10B5C1
:1008F00086B0044601A92046FFF7C2FF01A8FFF712
:10090000A2FF06B010BD70B505460C462846FFF79D
:100910009AFF2046FFF7EBFF1BA0FFF794FF70BD87
:100920001FB54FF4E13000904FF00000ADF8040027
:10093000ADF80600ADF80800ADF80C004FF00C0063
:10094000ADF80A0069460E4801F095FF012240F219
:1009500025510B4802F027F80121094802F016F84A
:100960001FBD10B540F22551054802F00AF928B123
:1009700004480088C4B22046FFF752FF10BD0000B3
:1009800000380140043801400A0000004FF0000127
:10099000FE4A11604FF00101FD4AC2F8B411FD4951
:1009A00008604FF00001FC4A11604FF00101116036
:1009B000F64A116070474FF00001F44A1160F44AA2
:1009C000C2F8B411F34908604FF00001F24A116017
:1009D0004FF001011160ED4A1160704710B50446F7
:1009E0000B462046FFF7E7FF1846FFF7CFFF10BD85
:1009F00010B503461846FFF7DEFFE84800684FF0E1
:100A00004430E6490860A1F1040000684FF044302A
:100A1000A1F1040108604FF00000DC4908604FF0CC
:100A20000100DB49C1F8B4014FF00000C1F8BC017E
:100A3000DB48006884B24FF00100DA490860DA4907
:100A4000C1F89801D54800684FF03330D3490860A9
:100A5000A1F1040000684FF03330A1F104010860F7
:100A6000204610BDCD4909684FF04431CB4A116092
:100A7000A2F1040109684FF04431A2F104021160AF
:100A80004FF00001C14A11604FF00101C04AC2F8A5
:100A9000B4114FF00001C2F8BC11C149096888B215
:100AA0004FF00101BF4A1160BF4AC2F89811BB491B
:100AB00009684FF03331B94A1160A2F104010968A5
:100AC0004FF03331A2F104021160704708B50121E3
:100AD0007D2001F017FE4FF46040ADF800004FF0AC
:100AE00010008DF803004FF003008DF802006946F6
:100AF000AE4801F00DFB4FF04000ADF800004FF0A4
:100B000010008DF803004FF003008DF802006946D5
:100B1000A74801F0FDFA4FF6FF70ADF800004FF066
:100B200010008DF803004FF003008DF802006946B5
:100B3000A04801F0EDFA08BD00B52220FFF73BFF09
:100B400000BD30B504460D469B480088A0F509411C
:100B5000993905D098480088A0F5194119390DD167
:100B6000C5F1EF0081B24E20FFF738FF40F23F1091
:100B7000001B81B24F20FFF731FF0CE0C4F1EF0002
:100B800081B22020FFF72AFF40F23F10401B81B2C4
:100B90002120FFF723FF30BD30B505464FF000049C
:100BA00021460846FFF7CDFFFFF7C6FF00BF04E070
:100BB0002846FFF7EBFE04F10104B4F5963FF7D3A6
:100BC00030BD4FF0000102E001F1010291B200EBF3
:100BD000C00202EB0012B1EB820FF5D3704710B5E3
:100BE000FFF774FF01210020FFF7F8FE0520FFF753
:100BF000E8FF0020FFF7FCFE6F49088008460088E8
:100C0000A0F51341253905D06B480088A0F51341A4
:100C100028397CD143F20801E320FFF7DFFE1221DF
:100C2000E720FFF7DBFE41F23121EF20FFF7D6FE90
:100C300001210020FFF7D2FE00210120FFF7CEFEA8
:100C40004FF4E0610220FFF7C9FE41F208010320E2
:100C5000FFF7C4FE00210420FFF7C0FE40F204416C
:100C60000820FFF7BBFE00210920FFF7B7FE002197
:100C70000A20FFF7B3FE80211020FFF7AFFE072107
:100C80001120FFF7ABFE00211220FFF7A7FE002185
:100C90001320FFF7A3FE01210720FFF79FFE42F27A
:100CA000107001F00FF841F290511020FFF796FEFE
:100CB00040F227211120FFF791FE42F2107001F05F
:100CC00001F81F211220FFF789FE42F2107000F098
:100CD000F9FF4FF4A8511320FFF780FE22212920AD
:100CE000FFF77CFE0F212B20FFF778FE42F21070F9
:100CF00000F0E8FFEF212020FFF770FE40F23F11E7
:100D00002120FFF76BFE40F20111302000E0A0E04F
:100D1000FFF764FE40F207713120FFF75FFE40F2FB
:100D200005513220FFF75AFE40F207413520FFF708
:100D300055FE4FF481713620FFF750FE4FF481715C
:100D40003720FFF74BFE40F202213820FFF746FE26
:100D50004FF483713920FFF741FE40F202213C201D
:100D6000FFF73CFE40F206713D20FFF737FE002101
:100D70005020FFF733FEEF215120FFF72FFE002117
:100D80005220FFF72BFE40F23F1117E0980122425C
:100D9000008022420C180140B88122420418014010
:100DA00008180140BC812242000022420014014088
:100DB0000010014000180140460000205320FFF7BA
:100DC0000DFE4FF427416020FFF708FE012161204E
:100DD000FFF704FE00216A20FFF700FE00218020BB
:100DE000FFF7FCFD00218120FFF7F8FD00218220A4
:100DF000FFF7F4FD00218320FFF7F0FD00218420A0
:100E0000FFF7ECFD00218520FFF7E8FD1021902081
:100E1000FFF7E4FD00219220FFF7E0FD032193207E
:100E2000FFF7DCFD4FF488719520FFF7D7FD002117
:100E30009720FFF7D3FD00219820FFF7CFFD40F268
:100E400073110720FFF7CAFD42F2107000F03AFF5D
:100E500051E1FD480088A0F51341203904D0FA483B
:100E60000088B0F5134F7DD100210846FFF7B6FD8D
:100E700000210120FFF7B2FD4FF4E0610220FFF7EF
:100E8000ADFD41F208010320FFF7A8FD0021042079
:100E9000FFF7A4FD40F202210820FFF79FFD00218B
:100EA0000920FFF79BFD00210A20FFF797FD012194
:100EB0000C20FFF793FD00210D20FFF78FFD00218F
:100EC0000F20FFF78BFD0A20FFF77BFE40F2011198
:100ED0000720FFF783FD0A20FFF773FE4FF48651CA
:100EE0001020FFF77BFD07211120FFF777FD4FF45E
:100EF00088711220FFF772FD4FF430611320FFF765
:100F00006DFD00212920FFF769FD44F210012B201F
:100F1000FFF764FD00215020FFF760FDEF21512015
:100F2000FFF75CFD00215220FFF758FD40F23F1112
:100F30005320FFF753FD4FF41C516020FFF74EFD87
:100F400001216120FFF74AFD00216A20FFF746FDDD
:100F500000218020FFF742FD00218120FFF73EFDA8
:100F6000002100E030E08220FFF738FD00218320DF
:100F7000FFF734FD00218420FFF730FD002185209C
:100F8000FFF72CFD10219020FFF728FD0021922073
:100F9000FFF724FD01219320FFF720FD4FF4887116
:100FA0009520FFF71BFD00219720FFF717FD00217B
:100FB0009820FFF713FD40F273110720FFF70EFD95
:100FC0000A20FFF7FEFD96E09F480088A0F5094142
:100FD0009939F8D101210020FFF700FD47F63F3194
:100FE0000120FFF7FBFC4FF4C0610220FFF7F6FC85
:100FF00007210C20FFF7F2FC06210D20FFF7EEFC85
:101000004FF448510E20FFF7E9FCBB211E20FFF7EB
:10101000E5FC46F664210320FFF7E0FC00210F20E9
:10102000FFF7DCFC4FF46F414420FFF7D7FC0021B1
:101030004520FFF7D3FC40F23F114620FFF7CEFCDE
:1010400000213020FFF7CAFC40F206713120FFF783
:10105000C5FC40F206213220FFF7C0FC4FF440717E
:101060003320FFF7BBFC02213420FFF7B7FC00213F
:101070003520FFF7B3FC40F207713620FFF7AEFCD6
:101080004FF400713720FFF7A9FC40F608113A2011
:10109000FFF7A4FC40F60D713B20FFF79FFC0621F3
:1010A0002820FFF79BFC41F2EB212F20FFF796FC55
:1010B0004FF4E0412620FFF791FC4BF2E3012020A2
:1010C000FFF78CFC44212720FFF788FC47F6456199
:1010D0002E20FFF783FC00211020FFF77FFC082063
:1010E000FFF76FFD46F648011120FFF777FC33212B
:1010F0000720FFF773FC55480088FFF74DFD10BD32
:1011000030B504460D4629462046FFF71AFD222039
:10111000FFF751FC4E480088FFF738FC30BDF0B5B2
:1011200004460F4615461E4647480088A0F509416B
:10113000993905D044480088A0F51941193916D1CC
:1011400044EA052081B24420FFF748FC3946452097
:10115000FFF744FC31464620FFF740FC21464E2075
:10116000FFF73CFC39464F20FFF738FC17E02146DB
:101170005020FFF733FC29465120FFF72FFC39465A
:101180005220FFF72BFC31465320FFF727FC214666
:101190002020FFF723FC39462120FFF71FFCF0BD7C
:1011A0002DE9F04F8046894617461C46B8F1E80FF6
:1011B00002DCB9F5987F01DDBDE8F08FA34604EBB2
:1011C000DB704010401E82B2601E83B2494640462A
:1011D000FFF7A5FFFFF7B0FC0998A0BB4FF0000593
:1011E0002EE00C2C09D1A7F1200000EB400019499A
:1011F00001EB800010F805A006E0A7F120001649D9
:1012000001EB001010F805A04FF0000610E00AFAFC
:1012100006F010F0800F04D04FF47840FFF7B6FBD3
:1012200003E04FF6FF70FFF7B1FB06F10100C6B215
:1012300004EBD471B6EB610FE9DB05F10100C5B237
:10124000A542CEDB3CE009E046000020440000203F
:1012500042000020D4370008D43100084FF00005C8
:101260002CE00C2C09D1A7F1200000EB4000FE4936
:1012700001EB800010F805A006E0A7F12000FB4973
:1012800001EB001010F805A04FF000060EE00AFA7E
:1012900006F010F0800F06D009EB050291B208EBC2
:1012A0000600FFF72DFF06F10100C6B204EBD47172
:1012B000B6EB610FEBDB05F10100C5B2A542D0DB57
:1012C00000215020FFF78AFBEF215120FFF786FB1A
:1012D00000215220FFF782FB40F23F115320FFF71D
:1012E0007DFB00BF68E778B505460E4614461EE054
:1012F000E82D04DD4FF0000506F1100086B2B6F5CA
:10130000987F07DD4FF00000054606464FF6FF7058
:10131000FFF742FC00200090227810233146284637
:10132000FFF73EFF05F10800C5B204F10104207883
:101330000028DDD178BD2DE9F04F04460F469046D8
:10134000994646464FF0000A34E014F801BBC848FD
:101350000088A0F50941993905D0C5480088A0F555
:101360001941193904D131463846FFF7EAFB03E049
:1013700039463046FFF7E5FBFFF7DEFB4FF000058F
:101380000FE00BFA05F010F0800F03D04846FFF78E
:10139000FDFA03E0B7480088FFF7F8FA05F101000D
:1013A00085B2082DEDDB06F1010086B20AF10100DD
:1013B0001FFA80FABAF1100FC7DB0820BDE8F08FE2
:1013C0002DE9F04F88B00746884691469A46BB46BD
:1013D0004FF0000411E03BF8020B2DF814003DF82B
:1013E00014004FEA10203DF81410C9B240EA012061
:1013F0002DF8140004F1010084B2102CEBDB4D46F3
:101400004FF0000433E09A480088A0F5094199396B
:1014100005D097480088A0F51941193904D129460B
:101420004046FFF78EFB03E041462846FFF789FB65
:10143000FFF782FB4FF0000611E03DF8140000FAC0
:1014400006F010F4004F03D05046FFF79FFA03E078
:1014500088480088FFF79AFA06F1010086B2102E3C
:10146000EBDB05F1010085B204F1010084B2102C20
:10147000C9DB102008B0BDE8F08F2DE9F047064623
:101480000D46144698464FF00009CA46DFF8E8A119
:101490005DE0207800B95BE006EB090086B22078B9
:1014A00080281FDD06F11000F02808DD4FF000064F
:1014B00005F1100085B2B5F5A07F00DD3546204668
:1014C00000F008FA074607EB07110AEB410101F1AA
:1014D000020043462A463146FFF772FF814604F177
:1014E000020433E020780D280CD105F1100085B2FC
:1014F000B5F5A07F01DD4FF0000504F101044FF0C8
:10150000000924E020780A2806D14FF0000604F1F3
:1015100001044FF000091AE006F10800F02808DD88
:101520004FF0000605F1100085B2B5F5A07F00DD93
:10153000354621782039514A02EB011043462A46AC
:101540003146FFF7F8FE814604F1010400BFA0E731
:1015500000BFBDE8F08710B502464FF0010000E083
:1015600050430B00A1F10104E1B2F9D110BD2DE906
:10157000FF4F81B0074691461E460E9D4FF0000A70
:1015800054463BE0301B401EC1B20A20FFF7E3FF88
:10159000B9FBF0F04FF00A01B0FBF1F201FB1208C9
:1015A000BAF1000F16D1701EA04213DDB8F1000F82
:1015B0000ED10020AB4605EBDB71491001FB047135
:1015C0000090C8B22B4620220299FFF7E9FD12E0F5
:1015D0004FF0010A0020AB4605EBDB71491001FB1F
:1015E00004710090C8B22B4608F13001CAB20299CA
:1015F000FFF7D6FD00BF04F10100C4B2B442C1DB65
:1016000005B0BDE8F08F2DE9F04F06460F461446B1
:101610001D46DDF824A004FB05FBD14607EB0400C2
:10162000A0F1010083B206EB0500A0F1010082B237
:1016300039463046FFF773FDFFF77EFA4FF000089A
:1016400005E039F8020BFFF7A1F908F10108D845C8
:10165000F7D307480088A0F50941993912D004480A
:101660000088A0F519410BE0D4370008D4310008F8
:101670004600002044000020D82D0008483C000807
:1016800019390ED14FF46F414420FFF7A7F900211B
:101690004520FFF7A3F940F23F114620FFF79EF9DE
:1016A00010E000215020FFF799F9EF215120FFF7BA
:1016B00095F900215220FFF791F940F23F11532094
:1016C000FFF78CF9BDE8F08F2DE9FF4F84B081461C
:1016D0008A464FF00000039002900698A0EB09059F
:1016E0000798A0EB0A06CDF80490CDF800A0002DD5
:1016F00002DD4FF0010707E015B94FF0000703E0E6
:101700004FF0FF37C5F10005002E02DD4FF0010854
:1017100007E016B94FF0000803E04FF0FF38C6F1BC
:101720000006B54201DD2C4600E034464FF0000BC8
:1017300023E0009881B2019880B2FFF7E1FC0398A2
:10174000284403900298304402900398A04206DD9A
:101750000398A0EB0400039001983844019002988C
:10176000A04206DD0298A0EB0400029000984044DD
:1017700000900BF101001FFA80FB601C8345D8DD4F
:1017800008B0BDE8F08F2DE9F04306460F469046BD
:101790004FF0000445464FF00300A0EB48094FE02E
:1017A0003A1B91B2721B90B2FFF7AAFC3A1B91B29E
:1017B000721990B2FFF7A4FC7A1991B2321B90B261
:1017C000FFF79EFC3A1B91B2721B90B2FFF798FC98
:1017D0007A1B91B2321B90B2FFF792FC3A1991B288
:1017E000721990B2FFF78CFC7A1B91B2321990B249
:1017F000FFF786FC7A1991B2321990B2FFF780FC9C
:101800003A1991B2721B90B2FFF77AFC04F101040D
:10181000B9F1000F05DA4FEA840000F106008144B7
:1018200008E0A4EB05004FEA800000F10A008144C3
:10183000A5F101057A1991B2321990B2FFF760FC57
:10184000AC42ADDDBDE8F0832DE9F04304460F4620
:1018500015461E46DDF81C8021464FF05000FFF76C
:10186000BDF829465120FFF7B9F839465220FFF755
:10187000B5F831465320FFF7B1F839462046FFF757
:1018800060F9FFF759F9A6EB070000F10100A5EB9D
:10189000040101F1010100FB01F902E04046FFF7FC
:1018A00075F85FEA0900A9F10109F7D1002150207C
:1018B000FFF794F8EF215120FFF790F80021522014
:1018C000FFF78CF840F23F115320FFF787F8BDE88F
:1018D000F083000010B502464FF000010F4B14E0FA
:1018E000107801EB011413F81440A04209D150788C
:1018F00001EB011403EB44046478A04201D10846D3
:1019000010BD01F1010081B200BF01EB011013F81D
:1019100010008028E4DC00BF0020F1E7D82D00088B
:101920001CB50C21012000F015FD4FF480500090F3
:101930004FF000008DF804004FF00C008DF805000A
:101940004FF001008DF80600684601F07EF90C208A
:1019500001F0D5F91CBD08B501210C2000F0D2FE24
:101960004FF4DE40ADF800004FF010008DF803009A
:101970004FF003008DF802006946D64800F0C8FB1E
:101980004FF0FF00ADF800004FF004008DF80300A9
:101990006946D14800F0BCFB08BD10B5FFF7C0FF99
:1019A000FFF7D9FF10BD08B50121082000F0AAFEFD
:1019B0004FF48050ADF800004FF004008DF80300A4
:1019C0006946C44800F0A4FB08BD08B50121042005
:1019D00000F098FE4FF48070ADF800004FF0030067
:1019E0008DF802004FF018008DF803006946BA48E0
:1019F00000F08EFB062000F0C7FE08BD08B50121EF
:101A0000042000F07FFE4FF48070ADF800004FF02E
:101A100003008DF802004FF010008DF803006946B6
:101A2000AD4800F075FB08BD70B505460C4600F0EA
:101A30009BF9422000F0FBF918B900F0B9F9002039
:101A400070BD642000F04CF9284600F0F0F918B998
:101A500000F0AEF90020F3E7642000F041F92046E1
:101A600000F0E5F918B900F0A3F90020E8E700F06C
:101A70009FF90120E4E770B505460C4600F074F9C3
:101A8000422000F0D4F918B900F092F9002070BD9E
:101A9000642000F025F9284600F0C9F918B900F0D3
:101AA00087F90020F3E700F083F9642000F018F9CB
:101AB00000F05AF9432000F0BAF918B900F078F9AB
:101AC0000020E4E7642000F00BF900F004FA207035
:101AD00000F089F900F06CF90120D8E72DE9FC5FEE
:101AE00004460D4617461E4604EB07001FFA80F811
:101AF00005EB86001FFA80F901A94FF00300FFF7FC
:101B0000BAFF83469DF8040000F0C00001906946CA
:101B10004FF03200FFF7AFFF83469DF8000000F062
:101B2000C000009008F007009DF8001041EAC000D6
:101B300004F0070140EA010A51464FF03200FFF776
:101B400073FF8346C4F3C70A51464FF01700FFF7EF
:101B50006BFF8346C8F3C70A51464FF01800FFF7E2
:101B600063FF834609F007009DF8041041EAC000B6
:101B700005F0070140EA010A51464FF00300FFF764
:101B800053FF8346C5F3C70A51464FF01900FFF7CC
:101B90004BFF8346C9F3C70A51464FF01A00FFF7BF
:101BA00043FF8346BDE8FC9F0CE04FF0000102E0DC
:101BB00001F1010291B242F210729142F8DBA0F100
:101BC000010290B20028F0D170477CB54FF00000C0
:101BD0000190009000F08AF8FFF7E5FEFFF7F5FEB0
:101BE0004FF0800529464FF01200FFF71DFF08B99E
:101BF00000207CBD01A91220FFF73DFF01A90A20AA
:101C0000FFF739FF9DF80400762801D00020F0E7A7
:101C100069460B20FFF72FFF9DF80000732801D0C5
:101C20000020E6E74FF0000410E02C4A02EBC4026B
:101C30005268D1B2294A52F83420D0B2FFF7F4FEEC
:101C400008B90020D5E704F10100C4B2B02CECDBE8
:101C5000C820FFF7A9FF0120CBE710B500BF142172
:101C60001220FFF7E1FE0128F9D116211720FFF716
:101C7000DBFE04211820FFF7D7FE02211920FFF711
:101C8000D3FE7B211A20FFF7CFFE40213220FFF741
:101C9000CBFE0A210320FFF7C7FE3A217020FFF791
:101CA000C3FE35217120FFF7BFFE11217220FFF71F
:101CB000BBFEF9217320FFF7B7FE0221A220FFF738
:101CC000B3FE10BD00BF0100A0F1010290B2FAD135
:101CD00070470000000C014000080140C09200085D
:101CE00000BF0100A0F10100FBD1704708B5012140
:101CF000102000F007FD4FF44070ADF800004FF0E9
:101D000010008DF803004FF003008DF802006946C3
:101D10008B4800F0FDF908BD08B50121102000F046
:101D2000F1FC4FF40070ADF800004FF010008DF89A
:101D300003004FF003008DF802006946804800F070
:101D4000E7F908BD08B50121102000F0DBFC4FF4D5
:101D50000070ADF800004FF004008DF803006946F4
:101D6000774800F0D5F908BD00B54FF0010075497E
:101D700008604FF49670FFF7B3FF4FF0010072490F
:101D8000C1F8A0014FF49670FFF7AAFF4FF00000D2
:101D90006C4908604FF49670FFF7A2FF4FF0000007
:101DA0006949C1F8A0014FF49670FFF799FF00BD93
:101DB00000B54FF00000634908604FF4FA70FFF778
:101DC0008FFF4FF001006049C1F8A0014FF4FA7095
:101DD000FFF786FF4FF001005A4908604FF4FA7090
:101DE000FFF77EFF00BD00B54FF0010055490860C8
:101DF0004FF4FA70FFF774FF4FF001005249C1F839
:101E0000A0014FF4FA70FFF76BFF4FF000004F494D
:101E100008604FF4FA70FFF763FF4FF000004A4983
:101E2000C1F8A4014FF4FA70FFF75AFF00BD70B576
:101E300006464FF0000425E006FA04F010F0800F8B
:101E400004D04FF001003F49086003E04FF000006C
:101E50003C4908604FF4FA70FFF742FF4FF0010071
:101E60003A4908604FF4FA70FFF73AFF4FF000006C
:101E70003549C1F8A0014FF4FA70FFF731FF04F1C2
:101E80000100C4B2082CD7DB6420FFF729FFFFF75D
:101E900059FF4FF4FA70FFF723FF4FF001002B4971
:101EA00008604FF06400FFF71BFF2548806810F4BE
:101EB000007F02D04FF0000501E04FF001054FF028
:101EC0000000224908604FF4FA70FFF709FFFFF79E
:101ED00023FF284670BD70B54FF00004FFF732FFB6
:101EE0004FF4FA70FFF7FCFE4FF0080522E04FF4C4
:101EF000FA70FFF7F5FE4FF00100144908604FF447
:101F0000FA70FFF7EDFE4FEA44604FEA10640C48A8
:101F1000806810F4007F02D004F10100C4B24FF0D9
:101F200000000A4908604FF4FA70FFF7D9FEA5F1E6
:101F30000100C5B2002DDADCFFF7EEFE204670BDD1
:101F400000100140A401224200002242A0012242CE
:101F5000384940EA0101384A1160704770B54FF0C6
:101F600000010B464FF00F02C4784CB3324C24688A
:101F700004F4E064C4F5E0644FEA1421C1F1040301
:101F800022FA01F2447804FA03F1847804EA0204A4
:101F900044EA01014FEA0111284C0678A155047862
:101FA00004F01F054FF0010404FA05F405784FEA28
:101FB00065154FF0E02606EB8505C5F800410CE0FD
:101FC000047804F01F054FF0010404FA05F41C4DD9
:101FD00006784FEA661645F8264070BD194A01EAB0
:101FE000020242EA0002184B1A60704731B1174AE8
:101FF000126842EA0002154B1A6005E0134A1268A3
:1020000022EA0002114B1A607047042808D14FF0F1
:10201000E021096941F004014FF0E022116107E07D
:102020004FF0E021096921F004014FF0E022116135
:10203000704700000000FA050CED00E000E400E04D
:1020400080E100E080FFFF1F08ED00E010ED00E000
:1020500010B50446D648844208D10121042000F07E
:102060006FFB0021042000F06BFB46E0D148844266
:1020700008D10121082000F063FB0021082000F0B6
:102080005FFB3AE0CC48844208D10121102000F0E7
:1020900057FB0021102000F053FB2EE0C74884427C
:1020A00008D10121202000F04BFB0021202000F06E
:1020B00047FB22E0C248844208D10121402000F0C1
:1020C0003FFB0021402000F03BFB16E0BD4884426E
:1020D00008D10121802000F033FB0021802000F096
:1020E0002FFB0AE0B848844207D10121801500F097
:1020F00027FB0021A01500F023FB10BD10B5012126
:10210000084600F01DFB0021012000F019FB10BD66
:102110002DE9F04102464FF000052E4628460346C1
:102120000446074691F803C00CF00F0591F803C070
:102130001CF0100F03D091F802C04CEA0505B1F86D
:1021400000C01CF0FF0F35D014684FF000002EE0E7
:102150004FF0010C0CFA00F3B1F800C00CEA0306D2
:102160009E4222D14FEA80034FF00F0C0CFA03F786
:1021700024EA070405FA03FC4CEA040491F803C0BE
:10218000BCF1280F06D14FF0010C0CFA00FCC2F88C
:1021900014C00AE091F803C0BCF1480F05D14FF01C
:1021A000010C0CFA00FCC2F810C000F10100082874
:1021B000CED31460B1F800C0BCF1FF0F38DD546815
:1021C0004FF0000031E000F1080C4FF0010808FA70
:1021D0000CF3B1F800C00CEA03069E4223D14FEA8B
:1021E00080034FF00F0C0CFA03F724EA070405FAFA
:1021F00003FC4CEA040491F803C0BCF1280F05D19C
:1022000000F1080C08FA0CF8C2F8148091F803C029
:10221000BCF1480F07D100F1080C4FF0010808FA93
:102220000CF8C2F8108000F101000828CBD35460EC
:10223000BDE8F0814FF6FF7101804FF0020181701F
:102240004FF00401C170704702464FF000009368E0
:102250000B4202D04FF0010001E04FF00000704748
:102260000146886880B2704702464FF00000D3688C
:102270000B4202D04FF0010001E04FF00000704728
:102280000146C86880B2704701617047416170477C
:102290000AB1016100E041617047C16070474FF4CD
:1022A000803242EA010282618161826182698269CF
:1022B000704702464FF00000444B18684FF6807399
:1022C00000EA030040EA021040EA01003F4B1860B8
:1022D00070473F49C8617047F0B50A464FF00003A8
:1022E0001C4619460D46394E7168C0F3034583B24A
:1022F00000F44016B6F5401F08D121F07061334E4E
:10230000766826F07066314F7E6017E000F4801624
:10231000B6F5801F08D14FF0030606FA05F421EA4E
:10232000040141F0706109E04FEA50564FEA061689
:1023300003FA06F621EA060141F070613AB14FEA6C
:1023400050564FEA061603FA06F646EA01011F4EFA
:102350007160F0BD30B54FF000024FEA81734FEA73
:1023600013744FF00F0303FA04F21A4B4FEAA1045F
:1023700053F8243023EA0203164C4FEAA10544F82F
:10238000253023464FEAA10453F824304FEA8174E4
:102390004FEA147400FA04F443EA04030D4C4FEAC4
:1023A000A10544F8253030BD0B4908607047000096
:1023B00000080140000C01400010014000140140E1
:1023C00000180140001C01400020014000000140B5
:1023D0000000204208000140DC002042F74800686D
:1023E00040F00100F549086008464068F44900EAF9
:1023F0000100F249486008460068F24900EA01001D
:10240000EE4908600846006820F48020086008460D
:10241000406820F4FE0048604FF41F008860704759
:10242000E649096821F48031E44A116011460968DF
:1024300021F480211160B0F5803F03D0B0F5802FEA
:102440000ED106E0DD49096841F48031DB4A1160B4
:1024500007E0DA49096841F4A021D84A116000E098
:1024600000BF00BF704710B501464FF00002134691
:1024700010464FEA6112012A02D1D04C236806E0CF
:10248000022A02D1CD4C236A01E0CC4C636A01F0F0
:102490001F024FF0010404FA02F41C4202D04FF074
:1024A000010001E04FF0000010BD70B54FF00004D6
:1024B0002546264600BF3120FFF7D5FF064604F12A
:1024C0000104B4F5A06F01D0002EF4D03120FFF745
:1024D000CAFF10B14FF0010501E04FF0000528469A
:1024E00070BD01464FF00000B44A106820F0F800BB
:1024F00040EAC10010607047B34908607047024667
:102500004FF00000AD4B586820F47C1042EA010304
:1025100043EA0000A94B58607047AB490866704712
:1025200001464FF00000A54A506820F0030040EA41
:10253000010050607047A148406800F00C007047EF
:1025400001464FF000009D4A506820F0F00040EA3C
:1025500001005060704701464FF00000974A5068F4
:1025600020F4E06040EA01005060704701464FF0FF
:102570000000924A506820F4605040EAC100506068
:10258000704731B18D4A527A42EA00028B4B5A723F
:1025900008E08A4A527A6FEA0003DBB202EA0302D9
:1025A000864B5A72704789490860704701464FF060
:1025B0000000824A506820F4404040EA0100506028
:1025C00070474FF00001824A11707C4A82F8201057
:1025D000012802D004280AD104E04FF001017C4A0E
:1025E000117005E04FF00501794A117000E000BF5D
:1025F00000BF70477749086070477049096A41EA2F
:1026000000016E4A1162704773490860704730B527
:102610004FF000010A460C460B46684D6D6805F008
:102620000C0121B1042905D0082927D105E06B4D03
:10263000056026E0694D056023E0604D6D6805F496
:1026400070125E4D6D6805F480344FF0020505EBA5
:10265000924224B9624D02FB05F505600DE0574D2D
:102660006D6815F4003F04D05D4D02FB05F5056073
:1026700003E05A4D02FB05F5056002E0574D056089
:1026800000BF00BF4D4D6D6805F0F0014FEA11111C
:10269000544D6B5C056825FA03F54560474D6D6840
:1026A00005F4E0614FEA11214E4D6B5C456825FA57
:1026B00003F58560414D6D6805F460514FEAD12105
:1026C000484D6B5C456825FA03F5C5603B4D6D6868
:1026D00005F440414FEA9131434D6B5CC568B5FB51
:1026E000F3F5056130BD31B1344A526942EA000266
:1026F000324B5A6105E0314A526922EA00022F4BFF
:102700005A61704731B12D4A926942EA00022B4B5F
:102710009A6105E0294A926922EA0002274B9A61F0
:10272000704731B1254AD26942EA0002234BDA618F
:1027300005E0224AD26922EA0002204BDA617047A2
:1027400031B11E4AD26842EA00021C4BDA6005E051
:102750001A4AD26822EA0002184BDA60704731B197
:10276000164A126942EA0002144B1A6105E0134A44
:10277000126922EA0002114B1A6170471B49086076
:1027800070471149C86470470C49C87170470B48BD
:10279000406A40F0807009494862704701464FF036
:1027A0000000064A92680A4202D04FF0010001E0A0
:1027B0004FF00000704701498872704700100240D6
:1027C0000000FFF8FFFFF6FE00004242D800424240
:1027D00020100240800442423C04424200127A002F
:1027E00000093D00480000205800002040044242FB
:1027F00010B50446FB48844209D101218803FFF744
:102800009FFF00214FF48040FFF79AFF32E0F64827
:10281000844209D101214804FFF7A1FF00214FF4B0
:102820000030FFF79CFF25E0F048844209D10121E8
:102830008804FFF794FF00214FF48020FFF78FFFFB
:1028400018E0EB48844209D10121C804FFF787FF53
:1028500000214FF40020FFF782FF0BE0E54884429F
:1028600008D101210805FFF77AFF00214FF48010FD
:10287000FFF775FF10BD2DE9F04786B005460E46FF
:102880004FF00004A24600BF00BF2746B08900B148
:1028900000BF2F462C8A4CF6FF7004EA0004F08833
:1028A00040EA04042C82AC894EF6F31004EA0004DA
:1028B000B088318940EA0100718940EA010040EAAC
:1028C0000404AC81AC8A4FF6FF4004EA0004B089EE
:1028D00040EA0404AC8201A8FFF799FEC148874290
:1028E00002D1DDF810A001E0DDF80CA00AEBCA006F
:1028F00000EB0A1031684FEA8101B0FBF1F84FF0AC
:102900006400B8FBF0F04FEA00144FEA14104FF0E7
:10291000640101FB10894FF0320000EB0910B0FB9D
:10292000F1F000F00F0040EA04042C8106B0BDE88D
:10293000F0874FF4165101604FF000018180C18093
:1029400001814FF00C0141814FF0000181817047FE
:1029500010B502464FF00000108A4FF2FF0300EA64
:1029600003000B884C8843EA04038C8843EA040381
:10297000CC8843EA040343EA0000108210BD4FF004
:102980000001018041808180C180704721B182892E
:1029900042F40052828105E082894DF6FF7302EA1B
:1029A000030282817047F0B503464FF000042646CB
:1029B00025462046A1F510676A3F00D100BF1846A2
:1029C000C1F3421401F01F064FF0010707FA06F5A4
:1029D000012C02D100F10C0006E0022C02D100F122
:1029E000100001E000F1140022B1076847EA050772
:1029F000076003E0076827EA05070760F0BD10B528
:102A000022B1838A43EA0103838206E0838A6FEA64
:102A10000104A4B203EA0403838210BD028A4FF6C4
:102A2000F07302EA03020282028A42EA010202828F
:102A3000704782894FF2FF7302EA03028281828922
:102A400042EA01028281704721B1828942F002028A
:102A5000828105E082894FF6FD7302EA03028281DA
:102A60007047028A4FF6DF7302EA03020282028A8B
:102A700042EA01020282704721B1028A42F4804296
:102A8000028205E0028A4BF6FF7302EA0302028229
:102A90007047C1F308028280704701468888C0F3FE
:102AA00008007047818941F0010181817047028BE4
:102AB000D2B20283028B42EA012202837047028B68
:102AC00002F47F420283028B42EA010202837047D2
:102AD00021B1828A42F02002828205E0828A4FF68A
:102AE000DF7302EA03028282704721B1828A42F0D8
:102AF0001002828205E0828A4FF6EF7302EA030237
:102B00008282704721B1828A42F00802828205E007
:102B1000828A4FF6F77302EA030282827047828A42
:102B20004FF6FB7302EA03028282828A42EA0102C2
:102B30008282704721B1828A42F00202828205E0DD
:102B4000828A4FF6FD7302EA0302828270470246D0
:102B50004FF00000B1F5007F00D100BF13880B4299
:102B600002D04FF0010001E04FF00000704701F487
:102B70000072B2F5007F00D100BF6FEA010202804F
:102B8000704770B502464FF0000423461D461846B4
:102B9000A1F510666A3E00D100BFC1F3421501F0F5
:102BA0001F034FF0010606FA03F3012D03D19689A6
:102BB00006EA030308E0022D03D1168A06EA03039E
:102BC00002E0968A06EA03034FEA21244FF0010649
:102BD00006FA04F4168806EA04046BB164B14FF0F7
:102BE00001000BE000380140004400400048004074
:102BF000004C0040005000404FF0000070BD10B588
:102C00004FF000021346A1F510646A3C00D100BFEA
:102C10004FEA21224FF0010404FA02F4A3B26FEA52
:102C20000304048010BD00004FF000004A49086012
:102C300001F10401086001F10401086001F10401DF
:102C4000086046484649086070474FF00001424915
:102C50008279002A40D00A461268036822EA0302F9
:102C60000B461A6001F104021268036822EA0302AB
:102C700001F104031A60027911440A68036842EA08
:102C800003020A60374A1268036822EA0302354BDE
:102C90001A6003F104021268036822EA0302324B4D
:102CA0001A604279102A0ED12E4A1268036842EA4D
:102CB00003022C4B1A602C4A1268036842EA030292
:102CC000294B1A600FE02449427911440A680368CD
:102CD00042EA03020A6006E0027911440A680368C6
:102CE00022EA03020A6070474FF00001016001719F
:102CF0004FF00C0141714FF00001817170471B4989
:102D0000096841EA0001194A1160704701464FF015
:102D10000000134A12680A4202D04FF0010001E09D
:102D20004FF0000070470E490860704701464FF0B1
:102D300000000246084B1B6803EA0102084B1B68AF
:102D40000B4203D012B14FF0010001E04FF0000040
:102D5000704703490860704700040140FFFF0F00FF
:102D600014040140080401400C0401401004014017
:102D70000146002000E0401C0A5C002AFBD170479D
:102D8000064C074D06E0E06840F0010394E80700B8
:102D900098471034AC42F6D3FDF7CEF940980008BE
:102DA0006098000802E008C8121F08C1002AFAD182
:102DB00070477047002001E001C1121F002AFBD1BB
:102DC0007047000000A24A0400A24A0400A24A047C
:102DD0000051250200A24A04A1F600007FFC7FFCFE
:102DE0007FFC7FFC7FFC7FFC7FFC7FFC7FFC7FFC0B
:102DF0007FFC7FFC7FFC00000000D2BA4040202016
:102E000027FE09208920527C524416A82B98225074
:102E1000E220223022502288230E2204BEA7000086
:102E20000FF008100FF008100FF0081000007E7E61
:102E300042427E7E424242427E7E42420000C7FDC6
:102E40000000F9FEF9FE198059CC59EC59B87D986B
:102E50007D980DB8FDECFDC40D801DFE19FE00002F
:102E6000B6AF006000607E607E6001FC7FFC7E6C1F
:102E7000186C186C326C3ECC7ECC618C033C021812
:102E80000000CAB5030001807FFC7FFC6CCC06C04B
:102E900018C00CC000C07FFE7FFE03000E707C3C9B
:102EA000700C0000D1E90060F860F8F019985B0E32
:102EB0005EF658F058007D4C0D4CED4CED580C185A
:102EC0003DFC39FC0000A1AA000000000000000049
:102ED000000000000000FFFE0000000000000000F5
:102EE0000000000000000000BBF90C303FFC3FFC7C
:102EF0000C300FF00C300FF00C307FFE7FFE31985D
:102F00006FEE01803FFC3FFC0000D3DA00003FF889
:102F10003FF8018001800180FFFEFFFE01800180FB
:102F2000018001800180078007000000C8C3404085
:102F30002040304020400040007CE04020402040C5
:102F40002040204020402840304027FE0000D3C5CC
:102F5000108018A01098209037FC6140A1402140BB
:102F6000214021402140224422442446283C200084
:102F7000D0E300F83F0001007FFE03C00D30310EAA
:102F8000C1041FF00220024004FC040408041028BD
:102F90002010B3C900A0009000803FFE2080208058
:102FA0003E88228C2248225022202A604492410AE4
:102FB00086060002CEAA008010800C8004847FFE6A
:102FC000010401040184014402240224040408448D
:102FD000102820100000CFB000003FFC00040804BF
:102FE000040403040114006401840604380410047A
:102FF0000004002400140008B9DF200023F8224850
:103000002FFE3248AA48ABF8A00023F822482248F5
:103010002248224820B023082C04A3AC0000000062
:1030200000000000000000000000000000000000A0
:10303000000030003000100020000000D7A8010080
:1030400001003FF802000200FFFE040008200FF01C
:103050000020004002800100008000400000D7A254
:1030600020801040104007FE8040484048401040FB
:1030700013FC2040E0402040204020402FFE200054
:10308000C1A601000100010001007FFC0104010450
:1030900001040104020402040404040408041028C6
:1030A0002010C1BF1FF010101FF010101FF0000003
:1030B000FFFE11101FF011101FF001001FF801009A
:1030C000FFFE0000B3C900A0009000803FFE2080FA
:1030D00020803E88228C2248225022202A6044925E
:1030E000410A86060002BECD10200828FF240024D5
:1030F00000207FFE425042507E5008502C502A90B3
:103100004A9289122A0E1000C3CE082008207EFEA3
:1031100008301C682AAECB240C2007F808100C20BD
:103120003240018003000C007000CFEB100010FC57
:103130001084FEFC388434FC5484508490FC0000DD
:10314000010008842882281267F00000C9E337FCD8
:1031500037FC3318FBF8FB1833F83B1EFFF8F01868
:1031600037BC30A436A4311872A46C420000CFF1F1
:10317000198019F033F036307FFCF6CCB7FC338081
:1031800036D831F0337834EC336636E030C00000A6
:10319000CDB700C018C00CC006C030C018C00CC0ED
:1031A0007FFE7FFE01800180033006181C0C78062C
:1031B0000000A3A1000000000000000010001000AB
:1031C000100010001000100010001000100000008F
:1031D00010000000000000000000000000000000DF
:1031E000000000000000001010101010101000006F
:1031F00018180000001236244800000000000000EB
:1032000000000000000000242424FE484848FE4836
:10321000484800000000103854545030181414541A
:103220005438101000000044A4A8A8A8541A2A2A50
:103230002A44000000000030484848506EA494889A
:10324000897600000060100000000000000000000F
:1032500000000000000204080810101010101008F0
:103260000804020000402010100808080808081090
:1032700010204000000000001010D63838D6101082
:10328000000000000000000010101010FE101010D0
:10329000100000000000000000000000000000001E
:1032A000606020C000000000000000007F000000FF
:1032B000000000000000000000000000000000000E
:1032C00060600000000001020204040808101020E1
:1032D0002040400000000018244242424242424244
:1032E00024180000000000107010101010101010B2
:1032F000107C00000000003C424242040408102000
:10330000427E00000000003C4242041804020242D7
:1033100044380000000000040C14242444447E04BB
:10332000041E00000000007E40404058640202423B
:10333000443800000000001C2440405864424242CF
:10334000241800000000007E4444080810101010EB
:10335000101000000000003C424242241824424267
:10336000423C00000000001824424242261A020299
:1033700024380000000000000000181800000000C1
:1033800018180000000000000000001000000000FD
:103390000010102000000002040810204020100837
:1033A00004020000000000000000FE000000FE001B
:1033B0000000000000000040201008040204081073
:1033C000204000000000003C424262020408080065
:1033D0001818000000000038445AAAAAAAAAB44249
:1033E000443800000000001010182828243C4442F3
:1033F00042E70000000000F844444478444242425E
:1034000044F800000000003E4242808080808042FC
:1034100044380000000000F8444242424242424226
:1034200044F80000000000FC424848784848404208
:1034300042FC0000000000FC4248487848484040F8
:1034400040E000000000003C44448080808E8444C2
:1034500044380000000000E7424242427E424242BD
:1034600042E700000000007C101010101010101037
:10347000107C00000000003E080808080808080842
:10348000080888F0000000EE444850705048484456
:1034900044EE0000000000E040404040404040401A
:1034A00042FE0000000000EE6C6C6C6C54545454EE
:1034B00054D60000000000C7626252524A4A4A468F
:1034C00046E20000000000384482828282828282CA
:1034D00044380000000000FC424242427C40404030
:1034E00040E0000000000038448282828282B2CA3A
:1034F0004C380600000000FC4242427C48484444EC
:1035000042E300000000003E424240201804024214
:10351000427C0000000000FE9210101010101010ED
:1035200010380000000000E742424242424242425C
:10353000423C0000000000E74242442424282818AE
:1035400010100000000000D692929292AAAA6C4439
:1035500044440000000000E74224241818182424E2
:1035600042E70000000000EE44442828101010102C
:10357000103800000000007E84040808102020425B
:1035800042FC0000001E101010101010101010103F
:1035900010101E00000040402020101010080804E9
:1035A0000404020200780808080808080808080847
:1035B00008087800001C2200000000000000000045
:1035C00000000000000000000000000000000000FB
:1035D000000000FF00606020C0000000000000004C
:1035E00000000000000000000000003C421E2242DB
:1035F000423F0000000000C0404040586442424248
:1036000064580000000000000000001C2240404000
:10361000221C0000000000060202021E224242425A
:10362000261B0000000000000000003C427E4040DD
:10363000423C00000000000F1110107E101010100E
:10364000107C0000000000000000003E44443840B0
:103650003C42423C000000C04040405C624242426A
:1036600042E7000000000030300000701010101021
:10367000107C00000000000C0C00001C040404047A
:1036800004044478000000C04040404E4850684860
:1036900044EE000000000070101010101010101008
:1036A000107C000000000000000000FE494949496C
:1036B00049ED000000000000000000DC62424242D0
:1036C00042E70000000000000000003C424242428D
:1036D000423C000000000000000000D8644242426A
:1036E000447840E0000000000000001E22424242F8
:1036F000221E020700000000000000EE3220202001
:1037000020F80000000000000000003E42403C02A3
:10371000427C0000000000000010107C101010100F
:10372000100C000000000000000000C642424242AF
:10373000463B000000000000000000E7422424286F
:103740001010000000000000000000D79292AAAA0A
:1037500044440000000000000000006E2418181807
:103760002476000000000000000000E74224242826
:10377000181010E0000000000000007E4408101047
:10378000227E00000003040404040408040404046A
:1037900004040300080808080808080808080808BE
:1037A0000808080800601010101010081010101001
:1037B00010106000304C43000000000000000000CA
:1037C00000000000000000000000000000000000F9
:1037D00000000000000000000000000000000000E9
:1037E00000000404040404040004000000140A0A95
:1037F0000000000000000000000014143F140A3F05
:103800000A0A000000041E1505060C14150F04001A
:10381000000012150D0A142C2A1200000000040AE0
:103820000A1E151509360000000202010000000002
:1038300000000000002010080808080808102000F8
:103840000002040808080808080402000000000438
:10385000150E0E150400000000000404041F0404EB
:10386000040000000000000000000000000202014F
:1038700000000000001F0000000000000000000029
:103880000000000000020000001008080804040204
:103890000202010000000E1111111111110E0000A1
:1038A0000000040604040404040E000000000E11CD
:1038B00011080402011F000000000E11100C10106E
:1038C000110E00000000080C0A0A091E081800006A
:1038D00000001F01010F1010110E000000000E0962
:1038E000010F1111110E000000001F09080404044B
:1038F0000404000000000E11110E1111110E000041
:1039000000000E1111111E10120E00000000000028
:10391000040000000004000000000000000400009B
:103920000004040000201008040204081020000015
:10393000000000001F00001F00000000000204083B
:10394000102010080402000000000E1111080404E9
:103950000004000000000E111915151D011E0000C5
:10396000000004040C0A0A1E1233000000000F12AB
:10397000120E1212120F000000001E1101010101AF
:10398000110E000000000F1212121212120F00008E
:1039900000001F120A0E0A02121F000000001F1270
:1039A0000A0E0A020207000000001C120101391170
:1039B000120C000000003312121E1212123300000B
:1039C00000001F0404040404041F000000003E085B
:1039D0000808080808090700000037120A060A0A42
:1039E000123700000000070202020202223F00001C
:1039F00000001B1B1B1B15151515000000003B12BA
:103A000016161A1A1217000000000E1111111111CA
:103A1000110E000000000F12120E02020207000039
:103A200000000E1111111117190E180000000F12CD
:103A3000120E0A121237000000001E1101060810B3
:103A4000110F000000001F1504040404040E000000
:103A50000000331212121212120C00000000331276
:103A6000120A0A0C0404000000001515150E0A0ABB
:103A70000A0A000000001B0A0A04040A0A1B0000CC
:103A800000001B0A0A040404040E000000001F09C1
:103A900008040402121F0000001C040404040404AF
:103AA00004041C00000202020404080808100000BC
:103AB000000E08080808080808080E0000040A009C
:103AC00000000000000000000000000000000000F6
:103AD0000000003F000400000000000000000000A3
:103AE00000000000000C121C123C00000000030249
:103AF000020E1212120E000000000000001C120242
:103B0000021C000000001810101C1212123C0000D1
:103B100000000000000C121E021C0000000038040F
:103B2000041E0404041E000000000000003C120CEF
:103B3000021E221C00000302020E121212370000A5
:103B40000000040000060404040E00000000080049
:103B5000000C08080808080700000302023A0A0ED1
:103B6000123700000000070404040404041F0000CE
:103B700000000000000F15151515000000000000E2
:103B8000000F12121237000000000000000C121289
:103B9000120C000000000000000F1212120E0207AB
:103BA00000000000001C1212121C1038000000005F
:103BB000001B06020207000000000000001E020CAD
:103BC000101E000000000004040E0404041800008D
:103BD00000000000001B1212123C00000000000058
:103BE0000037120A0C040000000000000015150E3A
:103BF0000A0A000000000000001B0A040A1B000063
:103C0000000000000037120A0C040403000000004A
:103C1000001E0804041E0000001808080804080814
:103C2000080818000808080808080808080808080C
:103C30000006040404080404040406000225180015
:103C40000000000000000000000000000000000074
:103C5000000000000000000000000000183C3C3C98
:103C600018180018180000000000000066666600C2
:103C700000000000000000000000000036367F3623
:103C800036367F3636000000000018183C6660307B
:103C9000180C06663C18180000000070D8DA760C84
:103CA00018306E5B1B0E000000000000386C6C3892
:103CB000606F66663B0000000000000018181800E6
:103CC0000000000000000000000000000C18183088
:103CD0003030303018180C00000000003018180C7C
:103CE0000C0C0C0C18183000000000000000361CF2
:103CF0007F1C3600000000000000000000001818C3
:103D00007E18180000000000000000000000000005
:103D100000001C1C0C180000000000000000007EC9
:103D20000000000000000000000000000000000093
:103D300000001C1C0000000000000006060C0C180F
:103D400018303060600000000000001E3337373349
:103D50003B3B331E000000000000000C1C7C0C0CE0
:103D60000C0C0C0C000000000000003C6666060C09
:103D70001830607E000000000000003C6666061CF3
:103D80000666663C00000000000000303036363623
:103D9000667F0606000000000000007E6060607C18
:103DA00006060C78000000000000001C18307C663D
:103DB0006666663C000000000000007E060C0C18E1
:103DC00018303030000000000000003C6666763C91
:103DD0006E66663C000000000000003C6666666699
:103DE0003E0C18380000000000000000001C1C0001
:103DF00000001C1C0000000000000000001C1C0053
:103E000000001C1C0C180000000000060C1830609C
:103E100030180C06000000000000000000007E00CA
:103E20007E000000000000000000006030180C065A
:103E30000C183060000000000000003C66660C18A2
:103E400018001818000000000000007EC3C3CFDB7C
:103E5000DBCFC07F00000000000000183C666666F3
:103E60007E666666000000000000007C6666667C78
:103E70006666667C000000000000003C66666060CC
:103E80006066663C00000000000000786C666666B4
:103E900066666C78000000000000007E6060607C58
:103EA0006060607E000000000000007E6060607C5A
:103EB00060606060000000000000003C66666060BA
:103EC0006E66663E00000000000000666666667E64
:103ED00066666666000000000000003C18181818AE
:103EE0001818183C000000000000003C6666606086
:103EF0006E66663E0000000000000066666C6C782E
:103F00006C6C66660000000000000060606060602D
:103F10006060607E000000000000006363776B6BF0
:103F20006B636363000000000000006363737B6FDA
:103F300067636363000000000000003C666666661D
:103F40006666663C000000000000007C6666667CD9
:103F500060606060000000000000003C666666660D
:103F60006666663C0C0600000000007C6666667CA7
:103F70006C666666000000000000003C6660301859
:103F80000C06663C000000000000007E181818189F
:103F900018181818000000000000006666666666C3
:103FA0006666663C000000000000006666666666A5
:103FB00066663C18000000000000006363636B6BE2
:103FC0006B363636000000000000006666341818B4
:103FD0002C66666600000000000000666666663CAF
:103FE00018181818000000000000007E06060C18C3
:103FF0003060607E000000000000003C3030303057
:104000003030303030303C0000000060603030181C
:10401000180C0C06060000000000003C0C0C0C0CF8
:104020000C0C0C0C0C0C3C0000183C660000000052
:104030000000000000000000000000000000000080
:10404000000000000000FF000038180C0000000015
:10405000000000000000000000000000003C060618
:104060003E66663E0000000000000060607C666600
:104070006666667C0000000000000000003C666090
:104080006060663C0000000000000006063E6666B8
:104090006666663E0000000000000000003C6666A8
:1040A0007E60603C000000000000001E3030307E6A
:1040B000303030300000000000000000003E666636
:1040C0006666663E06067C0000000060607C6666F0
:1040D0006666666600000000000018180078181870
:1040E0001818187E0000000000000C0C003C0C0C9E
:1040F0000C0C0C0C0C0C7800000000606066666C08
:10410000786C666600000000000000781818181827
:104110001818187E0000000000000000007E6B6B85
:104120006B6B6B630000000000000000007C6666A3
:10413000666666660000000000000000003C6666DF
:104140006666663C0000000000000000007C6666B9
:104150006666667C6060600000000000003E666687
:104160006666663E060606000000000000666E7089
:10417000606060600000000000000000003E6060C1
:104180003C06067C0000000000000030307E30302D
:104190003030301E0000000000000000006666663F
:1041A0006666663E0000000000000000006666666D
:1041B00066663C18000000000000000000636B6BA6
:1041C0006B6B363600000000000000000066663CA5
:1041D000183C66660000000000000000006666668D
:1041E0006666663C0C18F00000000000007E060CBD
:1041F0001830607E000000000000000C1818183015
:1042000060301818180C0000000000181818181852
:104210001818181818181800000000301818180C72
:10422000060C18181830000000000071DB8E00002A
:1042300000000000000000003A0000000400000040
:1042400040000000100000001200000014000000F8
:10425000320000008000000017000000160000007F
:104260001800000004000000190000000200000017
:104270001A0000007B0000000300000006000000A0
:104280000C0000000C0000003E00000000000000D8
:10429000700000000000000071000000010000003C
:1042A000720000001100000073000000090000000F
:1042B000A200000002000000110000000200000047
:1042C0007A000000200000007B0000001C000000BD
:1042D0007C000000280000007D0000003C00000081
:1042E0007E000000550000007F0000006800000014
:1042F00080000000760000008100000080000000C7
:104300008200000088000000830000008F00000091
:10431000840000009600000085000000A30000005B
:1043200086000000AF00000087000000C40000000D
:1043300088000000D700000089000000E8000000AD
:1043400013000000E000000000000000000000007A
:1043500010000000000000000D0000000000000040
:10436000140000001A000000A50000000500000075
:10437000AB000000070000002400000075000000F2
:10438000250000006300000026000000A5000000DA
:104390009F00000078000000A000000068000000FE
:1043A000A100000003000000A6000000DF000000E4
:1043B000A7000000DF000000A8000000F0000000DF
:1043C000A900000090000000AA0000009400000076
:1043D00013000000E50000000E0000006100000076
:1043E0000F0000004B00000016000000020000005B
:1043F0001E00000027000000210000000200000055
:1044000022000000910000002900000007000000C9
:10441000330000000B000000350000000B0000001E
:10442000370000001D00000038000000710000008F
:10443000390000002A0000003C0000007800000065
:104440004D000000400000004E0000002000000071
:10445000690000005D0000006B000000C00000006B
:1044600074000000190000008D0000004F000000E3
:104470008E000000000000008F000000000000001F
:10448000900000000000000091000000000000000B
:1044900092000000000000009600000000000000F4
:1044A0009A00000080000000B000000084000000BE
:1044B000B10000000C000000B20000000E0000007F
:1044C000B300000082000000B80000000A000000F5
:1044D000430000001400000044000000F000000051
:1044E00045000000340000004600000058000000B5
:1044F0004700000028000000480000003A000000CB
:1045000059000000880000005A00000088000000E8
:104510005B000000440000005C0000006700000039
:104520005D000000490000005E0000000E00000079
:10453000640000000400000065000000200000008E
:104540006600000005000000940000000400000068
:1045500095000000080000006C0000000A00000048
:104560006D000000550000006E000000110000000A
:104570006F0000009F0000006A0000004000000083
:104580000100000080000000020000008000000028
:1045900013000000E700000015000000000000000C
:1045A0004F0000008000000050000000800000006C
:1045B0005100000000000000520000002200000036
:1045C000530000005E000000540000008000000066
:1045D000550000000A0000005600000050000000D6
:1045E0005700000090000000580000009E000000EE
:1045F00041000000080000003F0000000A00000029
:10460000750000000500000076000000E1000000D9
:104610004C0000000F000000770000000A000000BE
:104620003D000000C20000004B0000000900000037
:10463000C9000000600000004100000038000000D8
:1046400034000000110000003B00000002000000E8
:10465000A400000089000000960000000000000097
:1046600097000000300000009800000020000000CB
:1046700099000000300000009A0000008400000053
:104680009B000000290000009C00000003000000C7
:104690009D0000004C0000009E0000003F00000054
:1046A0007800000004000000790000000100000014
:1046B000C8000000F0000000790000000F000000BA
:1046C000C800000000000000790000001000000099
:1046D000C80000007E000000790000000A00000011
:1046E000C800000080000000790000000B000000FE
:1046F000C800000001000000790000000C0000006C
:10470000C80000000F000000790000000D0000004C
:10471000C80000002000000079000000090000002F
:10472000C8000000800000007900000002000000C6
:10473000C8000000C0000000790000000300000075
:10474000C8000000400000007900000005000000E3
:10475000C80000003000000069000000AA0000004E
:1047600009000000020000003B00000042000000C1
:104770002D0000000100000000000000000000000B
:104780000000000000000000000000000000000029
:104790000000000000000000000000000000000019
:1047A0000000000000000000000000000000000009
:1047B00000000000000000000842FFFF3CE7BEF7D9
:1047C0007DEFBEF73DE7BEF77EEFFFFFFFFF7DEF1A
:1047D000BFF7FCE6BEF77DEF7DEF7DEF7CEF7CEF72
:1047E0007CEF7CEF7DEFBDEF7CEF7CEFBDEFBDEFAD
:1047F000BDEFBDEFBDEFBDEFBDEFBDEFBDEFBDEF59
:10480000BDEFBDEFBCEFBCEF7CEF7CEF7CEF7CEF4E
:104810007CEF7CEF7CEF7CEF7DEF7CEF7CE77CE74F
:104820007CEF7DEF7CEF7CE77DEF7DEF7DEF7DEF33
:104830007DEF7DEF7DEF7DEF7CF77CF77EF73DEF41
:104840003EEF7CE779DF3AD73ED7BFE73FD7BCBE24
:104850007ECFBFD7BFD7FFDF3DD7BEE7BDEF7BEF32
:104860007AEF7CF77DF77EF77EF7BEF77DEFBDEF41
:104870007DE73EEFBFF73FEF3EEFFFFF0842084204
:10488000FFFF3CE7BEF77DEFBEF73DE7BEF7FBDE7F
:104890003CE77DEF3DE7FFFF7EEFFFFFBFF7BEEF99
:1048A000BEF7BEF7BEF7BEF7BDEF7CEF3CE7BDEF4E
:1048B000BDEFBDEFBDEFBDEFBDEFBDEFBDF7BDEF90
:1048C000BDEFBDEFBDEFBDEFBDEFBDEFBDEFBDEF88
:1048D000BDEFBDEFBDEFBDEFBDEFBDEFBDEFBDEF78
:1048E0007DEF7DEF7DEFBDEFBDF7BDEF7DEFBDEF60
:1048F000BDEFBDEFBDEFBDEFBDEFBDEFBDEF7DF790
:10490000BEF77FF77FF77FEF7EEF7BE73BDFFFCEE2
:104910007FBE7DB6BEBEBDBE7CB6BCB6BCB6FECE4E
:104920003EDF7DE77CEF7BEF7CF77DF77EF77EF760
:10493000BEF77DEFBDEF7DE77EEFBFFF3FEF3DEFC1
:10494000FFFF08420842FFFF3CE7BEF77DEFBEF7DE
:104950003DE7BEF7FFFFBEF7FFFF7EF7BEF73CE780
:10496000FCDEFBDE3CE73CE73DE77DE77DEF7EEFED
:10497000BEF7BEF77CE77DE77DE77DE77DEF7DEF66
:104980007DEF7DEF7DEF7DEF7DEF7DEF7DEF7DEFC7
:104990007DEF7DEF7DEF7DEF7DEF7DEF7DEF7DEFB7
:1049A0007DEF7DEF7DEF7CE77CE77CE77DEF7DEFC2
:1049B0007DEF7DEF7DEF7CEF7DEF7CEF7DEF7CEF9A
:1049C0007DEF7DEF3DEF7EEF7FEF3FE73FE7FEDEE0
:1049D000FBCE7BBEBFC63D957C95FEADBC9DBD9517
:1049E0007FAEBFB6BFBEFECE3DD77DE77DEF7DF784
:1049F0007EF77EF77EF7BEF77CEFBCEF7CE77DEFBE
:104A0000BFFF3EEF3DEFFFFF08420842FFFF3CE7DC
:104A1000BEF77DEFBEF73DE7BEF73CE7FBDEBFFF2D
:104A2000BFF7BFF7FFFFFFFFFFFFFFFFFFFFFFFF26
:104A3000FFFFFFFFFFFFFFFFFFFFFFFFFFFFFFFF86
:104A4000FFFFFFFFFFFFFFFFFFFFFFFFFFFFFFFF76
:104A5000FFFFFFFFFFFFFFFFFFFFFFFFFFFFFFFF66
:104A6000FFFFFFFFFFFFFFFFFFFFFFFFFFFFFFFF56
:104A7000FFFFFFFFFFFFFFFFFFFFFFFFFFFFFFFF46
:104A8000FFFFFFFFFFFFFFFFFFFFFFFFFFFFFFFF36
:104A9000BFF77FEF7FE7FDCEBDC6FFAD3F953D95EC
:104AA0007E953C85FC847E8DBF957FB67FBEBECE55
:104AB0003DDF7DE77EEF7EF77EF77EEFBEF77CEF92
:104AC000BCEF7BEF7CEFBFF73DEF3DEFFFFF084210
:104AD0000842FFFF3CE7BEF77DEFBEF73DE7BEF7BC
:104AE0007DEF3DE7FFFFBBD675ADB7BD75ADB7B583
:104AF00077ADB8B5F9BDF9C539C6F9BDB8B5B7B523
:104B0000B7B5B7B5B7B5B7B5B7B5B7B5B7B5B7B545
:104B1000B7B5B7B5B7B5B7B5B7B5B7B5B7B5B7B535
:104B2000B7B5B7B5B7B5B7B5B7B5B7B5B7B5B7B525
:104B3000F7BDF7BDF7B5B7B5B7B5B6B5B7B5B6B547
:104B4000B7B5B7B5B7B5B7B5B7B5B7B5B7B5B7B505
:104B5000B7B5F8B5B8B5B9AD79A5389DF58C767C03
:104B60009863195B9542933A943A9432184BBD740A
:104B7000BF9DFFAD7FBEFED63EDF7EEF7EEF7EEFB8
:104B80007EEFBEF7BCEFFCEF7BEF7BEFBEF73CEFB9
:104B90003DEFFFFF08420842FFFF3CE7BEF77DEF15
:104BA000BEF73DE7BEF7BEF77DEFBEF7718C452936
:104BB000873983108310841084108418C518052148
:104BC0004629873188314729472947294629862997
:104BD000862986318631462946294629462946298D
:104BE0004629472947294729472947294729472946
:104BF00047294729462946298629863146294629B3
:104C0000462946294629462946294629462946292C
:104C10004629462946294629862987298729892917
:104C2000882147190911CE1051190E110E0990193A
:104C30000F09100955327D747F957FB6FFCEFED6E1
:104C40003EE77FEF7EEF7EEFBEEFBCEFBBEFBAEF4C
:104C50007BEFBDFF3CEF7CEFFFFF08420842FFFF08
:104C60003CE7BEF77DEFBEF73DE7BEF77DEFBEF751
:104C7000FFFFB294C739CF7B4E6B4E6B8B524A4AC3
:104C8000C939883147294731883188310A420A4277
:104C90004A4A4A4A494A494A494A494A4A4A4A4A78
:104CA0004A4A4A4A4A4A4A4A4A4A4A4A4B4A4B4A62
:104CB0004B4A4B4A4A4A4A4A4A4A4A4A4A4A4A4A52
:104CC0004A4A4A4A4A4A4A4A4A4A4A4A4A4A4A4A44
:104CD0004A4A4A4A4A4A4A4A4A4A4A4A494A894AF6
:104CE000894A8A4A8B4ACC4ACC4A8E42D1313B749B
:104CF000FFAD7FB63FAEBE9D985B92191843BD7461
:104D00003FAEBFC6FECE7EE77FEF7EEF7EEFBEEF0B
:104D1000BCEFFCF7BBEF7BEFBDFF3CEF7CEFFFFF91
:104D200008420842FFFF3CE7BEF77DEFBEF73DE7D4
:104D3000BEF77DEFBFF7FFFF31840521D07B8E7377
:104D40004E730E634E6B4E6B4E6BCD5A8B520A42B6
:104D5000C839462946294629462946294629462949
:104D600046298731873187318731873187318831CB
:104D70008831883188318731873187318731873170
:104D80008731C839094209420942094209420942A8
:104D90000A420942094209420942094209420942BA
:104DA000094208420742073A073A083A493A493A5B
:104DB0000C3A0E19BD8CBFE77FDF3FD7FFEF3FB640
:104DC000D12114223C643FA6BFBEFDCE7EE7BFEFDB
:104DD0007EEF7EEFBEEF7DEFBDF7BBEF7BEFBDFF5C
:104DE0003CEF7CEFFFFF08420842FFFF3CE7BEF7C5
:104DF0007DEFBEF73DE7BEF77DEF7DEFFFFFF39C54
:104E0000C7398B52C8418A528A52C8390942C839B7
:104E1000C8390A420A4A4B4A4B4A0A42C83946290B
:104E200005218210010000000000000000000000C9
:104E3000010001000100010001000100010000006B
:104E40000000000000000000C4180A420A42C939EC
:104E5000C839C8390A42C9390A420A420942C9391D
:104E6000094209420A4209420942084208420842EC
:104E7000083A49424A42CB310E217B8CFFD6FFCE05
:104E8000FFCE7FDFBFC6D129D3117C64BE8D7DAE3E
:104E90003DCF3DDF7FE77EEF7FEF7EE77EEFBDEF2B
:104EA0007CEF7DEF7EF77DEF3DEFFFFF084208428C
:104EB000FFFF3CE7BEF77DEFBEF73DE7BEF77DEFB6
:104EC0007EEFFFFFB39C87318A5209420C63CF7398
:104ED0004E6B8E6BCC5A4A4A4A4AC939473188319F
:104EE0008831C839C839C839C839083A083A462912
:104EF00005218310010001000100010001004308A9
:104F0000010005214942CB5A0C6385290000C418D1
:104F100009420A420A420A420A424A4A094288317E
:104F2000C9390A424A4A4A4A0A420942C9410A421E
:104F3000C9410842084208420A420A428B310E2106
:104F40003B8CBFD6FFD6BECE3FDFBFCED129D3111B
:104F50007C5CBD8D7DAE3DCF3DDF7EE77EEF7FEF9C
:104F60007EEF7EEFBEEF7DEF7DEF7EF77DEF7DEF95
:104F7000FFFF08420842FFFF3CE7BEF77DEFBEF7A8
:104F80003DE7BEF77DEFBEF7FFFFB39486318A524F
:104F90004A4A4E6BD07B8E734D6BC8398731CD5AE0
:104FA0000E63CD5ACD5ACD5ACD5ACD5ACD5ACD5A7F
:104FB000CD5ACC5A0D630E634E6B4E6B0E63CD5AB9
:104FC0004B4ACA4102000100430887310842494A5E
:104FD0008529000005210A420A4209420942094284
:104FE0000A42C839C839C939094209420942094245
:104FF00009420A42CB41CA4109420942CA410B4215
:105000000C428D39D028DC8BBFD6BFD6BECE3FDF59
:105010007FCED129D4113C5CBD8D7CAE3CCF3CD73A
:105020007DE77EEF7FEF3EEF7EEFBEEF7DEF7EEF21
:105030007FF77EEF3DEFFFFF08420842FFFF3CE7AE
:10504000BEF77DEFBEF73DE7BEF77EEFBEF7FFFF91
:10505000B39486318A52494A0D638E738E730D6301
:10506000C8390D637BCEFFFFFFFFBFF7BFF7BFFF60
:10507000BFFFBFF7BFF7BFF7BFF7BFF7BFF7BFF778
:105080007FF7BFF7BFF7FFFFFFFF78B54C52472907
:105090008731C731073A032100000521C83988311B
:1050A0008731C839C9390A4209424A4A0A42094283
:1050B000C939C939C93909420A42CC41CB410A42EE
:1050C0000A42CA410B42CD414E39D128DD8B7FD6F1
:1050D000BFD67ECEFFDE3FCE923194113C5C7D8DFB
:1050E0007DAE3CCF3CD77DE77EEF7FEF3EEF7FEF9D
:1050F000BFEF7DEF7EEF7FF77EEF3DEFFFFF0842D2
:105100000842FFFF3CE7BEF77DEFBEF73DE7BEF785
:105110007EEF7EEFFFFFB39487318A52C8418B52F6
:105120000C634D6BCC5A8831CD5A3BC67FEFBED64F
:105130007ED67ED6BED6BED67ED6BDD67DD67DD612
:10514000BED67DD67DCE3DCE3CCE7DCEBEDEFFE64C
:10515000B69CCA39CA394F6B8E6B0C630842042166
:10516000C8394A4A0942C839C8398731C8398731EC
:10517000C939C839C8390942094209420942C939FD
:10518000CB41CB3909420942C9410B420D424E3154
:10519000D128DD837FCEBECE7ECEFFD63FC69329FB
:1051A00095193D5C7E8D7DAE3DCF3BDF7DEF7EF77B
:1051B0007FEF3EEF7EEFBEF77DEF7DEF7EF77DEF79
:1051C0007DEFFFFF08420842FFFF3CE7BEF77DEF9F
:1051D000BEF73DE7BEF77EEF7EEFFFFFB39487316A
:1051E0008A52C8394A4A08424A4A4A4A8831CD5AFC
:1051F000FBC5FFE6FCC57ECE3ECE3ECE3DCEFDC518
:10520000FCC5FCBDFBBDBBBDFCBDFCC5FCC5FCBD00
:10521000BBBDBBBDFCBD7694492948290A428731F4
:1052200086290842494ACC5A4F6B0D63CC5A8B529F
:105230000A4209428831C839C8398831C839C83961
:10524000C939C939C9390B42CA39083A0842083A3A
:105250000A420C3A8E31D120DC837FCE7ECE7DC6D1
:10526000FFD63FC6933196193E5C7E8D7EAE3DD70C
:105270003CDF7DEF7EF77FEF3EEF7EEFBEF77DEF09
:105280007DEFBEF77DEF7DEFFFFF08420842FFFF95
:105290003CE7BEF77DEFBEF73DE7BEF7BEF7BEF7D2
:1052A000FFFFB39486314A520842CB5A0D634E6BCE
:1052B0000E63CA398E5A7AB57ED6FCBDBCBDBDBD63
:1052C000BDBDBDBDFDBDFDBDFDBDFDBD3EC6FDBD44
:1052D000BCBD7CB57BB57CB5FDC57FD677944A3126
:1052E0008A390F630E6B4E6BCB5246294A4A4E6B7E
:1052F0000E634E6B4F6B0E634E6B0E638B528B5275
:105300004A4A0942C839C839C8390942093A0832F3
:10531000463A463A063A493A0B3A8D311121DB8337
:105320007FC6BDCE7DC6FFD63FC6D4319611DE53B3
:105330007F857EAE3DD73BDF7DEF7EF77EF73EEF8C
:105340007EEFBEF77CEF7CEFBDF77CEF7CEFFFFFDD
:1053500008420942FFFF3CE7BEF77DEFBEF73CE79E
:10536000BEF7BEF7BEF7FFFFB29446294A4A494A44
:105370004E6B8F7390730F63CB394D4AF89CFDBD14
:10538000BDB5BDB5BDB5BDB5BDB57CB57BAD3AADA3
:105390003AADFAA43BA57CADBDB57CAD3BA53BA524
:1053A0007BADD5838B310C4A4F6B0D5B4E6B0C5B29
:1053B000C7318B524E6B0E630D630E630D634E6BE4
:1053C0004E6B4E6B8F73D07B4F6B8C520942C8393A
:1053D000C831093A073A463A463A063A483A0A3A4A
:1053E0008C291021DB7B7FC6BDC67DC6FFCE3FC6A4
:1053F000D3299611DE533F853FAE3ECF3CD73CE7E5
:105400007DF77EF73EEF7EEFBEF77CEF7CEFBDF7DA
:105410007CEF7CEFFFFF08420942FFFF3CE7BEF74D
:105420007DEFBEF73CE7BDF77DEFFFFFFFFFF39C8D
:105430004629094A4A4ACD5A90734F630E5B0C4283
:10544000CF4AF88CBDADBDA53D9D3D9D7DA57CA5FC
:105450007BA57AA579AD3CC67CA53B9D3B957DA5FA
:105460007D9D3B9D7CA53AA5D47BCA310A424E6303
:105470008F6BCF6BCB4A86218A4A4D630D630D63D8
:105480000D630D630D6B0D630D630D630E630D6393
:10549000B3944B4A8729093AC9410942083A08425C
:1054A000083A093A4B428B290F213C847FC67EBEC5
:1054B0003EBEBFCE3FBE9221D4193D5C7F8D7FAEF4
:1054C0003FD73DDF7DEFBDF77DEF7DEFBEEFBDEF59
:1054D0007DEFBDEFBDF77CEF7CEFFFFF0842094297
:1054E000FFFF3CE7BEF77DEFBEF73CE7BDF77CEF83
:1054F000BEF7FFFFF39C8631094AC9414B520E6348
:105500008D5A8D52CB398F4AF88C7C9D3C957E9D6F
:10551000FB84BEA57C9D7684FBB5BFEF7FE7BDA570
:105520003C95FC8C3D953C8D3B8D7C9D7BA53584CD
:105530000B3A0A428B528B52CB528A4AC7318A4A63
:105540004D630D630D630D6B0D630D6B0D630D638B
:105550000D630D630D63B3948B4A4729093AC94122
:105560000A42C8410942C9390A3A4B428B290F21E4
:105570003C847FC67FBE3EBEBFCE3FBE9129D411C4
:105580003C5C7F857FAE3FD73EDF7DE7BDF77DEF9B
:105590007DEFBEEF7EEF7DEF7DEFBDF77CEF7CEF23
:1055A000FFFF08420942FFFF3CE7BEF77DEFBEF771
:1055B0003CE7BDF77DEFBEF7FFFFF39C8731094A5B
:1055C000C8390A4AC9498849894149398E52B8942B
:1055D0007C9DFC8CFD8CFC8C7A7C3B953FD7FFF747
:1055E000BFE73FD77C95FB7CFB7CFC7CBB74BB7C22
:1055F000FB8C3A95D57BCB3989390A4A8841084AD0
:10560000084A87398A524D630D630D630D6B0D6334
:105610000D6B0D630D630D630D630D5BB3944B4A0E
:105620004729093AC9410A42C8410942C9390A3AD7
:105630004B428B2910213C7C7FC63FBE3EBEBFCE75
:105640003FBED229D4113C5C7F857FAE3FD73EDF81
:105650007DE7BDF77DEF7DEFBEEF7EEF7DEF7DEF68
:10566000BDF77CEF7CEFFFFF08420942FFFF3CE7FC
:10567000BEF77DEFBEF73CE7BDF77DEFBEF7FFFF5E
:10568000B39446290942C9394A52CD728C6A8C6258
:10569000CB498F52B784FB8C7A74FC7C7A6C7E95F4
:1056A0003FCF3FCF3FD7FFE73FCF7B85FB6C3C75BC
:1056B0003D75FD74FC74FB7CFA8436740C3A4C4ADC
:1056C000CD6A8C62CB624A5A87418A524E6B0D6317
:1056D0000D630D6B0D630D6B0D630D630D630D633A
:1056E0000D5BB3944B4A4729093AC9410A42C84164
:1056F0000942C9390A3A4B428B291021DB7B3FBE54
:105700003FBEFEB57FC63FBED229D4113C5C7F852B
:105710007FAE3FD73EDF7DE7BDF77DEF7DEFBEEF8C
:105720007EEF7DEF7DEFBDF77CEF7CEFFFFF084262
:105730000942FFFF3CE7BEF77DEFBEF73CE7BDF750
:105740007DEFBEF7FFFFB294452909420942CC5ACA
:105750008F834E7B0E6B0B424D3A3564796C385417
:105760007A643954FC74BE8D776CB6743FCFFFDF1A
:10577000B96C394CBB5CFC5CBC5CFC647A5CBA64A4
:1057800036640D2A8D4290738F7B8F7BCB62873975
:105790008A524E6B0D630D630D6B0D630D6B0D63C4
:1057A0000D630D630D630D5BB38C4B424721093ACA
:1057B000C9410A42C8390942C939CA394B428B2901
:1057C0005029DB7B3FBE3EB6FEB57FC6FFBDD2296A
:1057D000D4113C5C7F857FAE3FD73EDF7DE7BDF7D0
:1057E0007DEF7DEFBEEF7EEF7DEF7DEFBDF77CEFD0
:1057F0007CEFFFFF08420942FFFF3CE7BEF77DEF69
:10580000BEF73CE7BDF77DEFFEFFFFFFB294052931
:1058100008420942CC620D6BCC5ACC52C9294C2AA1
:10582000D553795C394CD9437B54563B543B944B0C
:10583000F77CFEC67FCF785C973B3A4C3A443A44BB
:105840007B4C39447A5C3654CC190C324F5B4E6B2E
:105850008E73CB5A86318B524E6B4D630D630E6B3C
:105860000D630D6B0D630D630D630D630D5BB38CE9
:105870004B424721093AC9390A42C8390942C93954
:10588000CA394B428B295021DB7B3FB63EB6FEB571
:105890007FBEFFB5D329D4113C5C7F857FAE3FD757
:1058A0003EDF7DE7BDF77DEF7DEFBEEF7EEF7DEF65
:1058B0007DEFBDF77CEF7CEFFFFF08420942FFFF61
:1058C0003CE7BEF77DEFBEF73CE7BDF77DEFFEFF9F
:1058D000FFFFB39446290842C8394A4A0C63CC52A8
:1058E000CC4A4B2A8E2A7654B95439447B4C3A44DC
:1058F000BC5CFC7495533A8DFFF7FFCEFB74D95313
:10590000BC647C547C4CFD5C7B54FC64B95C4E22D2
:105910004D320E53CC520C63CA5A07428B524E6B17
:105920004D6B4D634E6B0D630E6B0D630D630D631D
:105930000D630D5BB38C4B424721093AC9410942C3
:10594000C839C941C939CA394B428B215029DB7347
:10595000FFB5FEB5FEAD3FBEFFB5D329D4113C5C0B
:105960007F857FAE3FD73EDF7DE7BDF77DEF7DEFE3
:10597000BEEF7EEF7DEF7DEFBDF77CEF7CEFFFFFAD
:1059800008420942FFFF3CE7BEF77DEFBEF73CE768
:10599000BDF77DEFBEF7FFFFF39C4631084287312C
:1059A000C839C739C731092AC9198F2AB85CFB5CC5
:1059B0003A44BD54FD5C7B54BC64385CF9847FDFA1
:1059C0007FD7FA74D953FD64BC5CBC54FE5C7B4C3D
:1059D000FC6479644F2A0D328D42093A094A084A1B
:1059E000C7418B524E6B4D6B4D634E6B0D630E6B0F
:1059F0000D630D630D630D630D5BB38C4B4247214B
:105A0000093AC9410942C841C941C939CA394B4259
:105A10008B215129DB73FFB5FEADFEAD3FBEFFB557
:105A2000D329D4113C5C7F857FAE3FD73EDF7DE735
:105A3000BDF77DEF7DEFBEEF7EEF7DEF7DEFBDF734
:105A40007CEF7CEFFFFF08420942FFFF3CE7BEF717
:105A50007DEFBEF73CE7BDF7BDF7BDF7FFFFB294A2
:105A60004629494AC8394B528B5A4B528C4A8A2193
:105A70008E2AB864FB5CFC54FD543B44BD5CBB5CAB
:105A8000D7537B857FCF7FCF3B7D7A5CFC64BC5C4A
:105A9000BD5C3E65BB54FB64FA740E2A0C3A0F637E
:105AA000CD6ACD728B6AC7498B5A8E6B4D6B4D6335
:105AB0004E6B0D630E6B0D630E6B0E630D630D5B12
:105AC000B3944B4A4621C839C939C941C841C8397C
:105AD000C9390A3ACA318C295129DB73FFB53FAE67
