:030000000205DB1B
:0C05DB00787FE4F6D8FD758177020622D7
:0B0C1800EF1FAC0670011E4C70F622AE
:100BCC00EF1FAA0670011E4A600A7D82AC051DEC5F
:040BDC0060EE80F84F
:010BE00022F2
:100B6C008F828E83E5821582AE83700215834E6070
:0B0B7C00097FE87E03120BCC80EA2208
:03000E00020BCC16
:100B9F00E4FEFDEE25E0FEEF54012EFEEFC313FF42
:060BAF000DBD08EFAF06CA
:010BB500221D
:100529008C668D678B638A648965E56725E0FFE5DD
:100539006633FEE92FF9EA3EFAC003C002C0011290
:100549000108FDACF0C005C004E56925E0FFE568D8
:1005590033FEE5652FF9E5643EFAC003C002C00128
:10056900120108FDACF0C005C004E56725E0FFE510
:100579006633FEE5652FF9E5643EFAC002C0011253
:100589000108FDACF0E56925E0FFE56833AA64A937
:10059900658F82F583120133FFEC65F0FEED6FFF85
:1005A900D001D002EE8FF012016BD0E06EFED0E0E8
:1005B9006FFFD001D002D003EE8FF012016BD0E0B3
:1005C9006EFED0E06FFFD001D002D003EE8FF002B3
:0205D900016BB4
:100BE100D3EF9DEC6480F8EE6480984006AE04AFCC
:040BF1000580002259
:100BF500D3EF9DEC6480F8EE64809840028004AEEB
:040C050004AF052211
:10045D008B418A4289438C448D45D3E5459401E512
:0A046D0044648094805003020528C7
:10047700E4F546F547F548754901C3E5499545E56E
:10048700446480F8E5486480985042E54925E0FFD8
:10049700E54833AB41AA42A9438F82F58312013362
:1004A700FFAEF0120108FDC3EF9DEE95F050140565
:1004B70047E54770020546FDAC46854868854969AA
:1004C7001205290549E54970B1054880ADE547455D
:1004D700466012AB41AA42A943854668854769E44D
:1004E700FDFC120529AB41AA42A943AD47AC461210
:1004F700045DE54725E0FFE54633FEAB41E5432FC5
:10050700F9E5423EFAE92402F9E43AFAC3E54595EA
:1005170047CFE5449546CF24FFFDEF34FFFC120497
:010527005D76
:0105280022B0
:100878008B538A548955E55A155AAE597002155941
:100888004E602EAB53E555F92402F555E554FA347C
:1008980000F554120108FFAEF0AB56E558F92402F2
:1008A800F558E557FA3400F557EE8FF012016B80D2
:0208B800C52257
:1007EC008F5E8E5D8D5C8C5BAF62AE61AD60AC5F1D
:1007FC00AB5EAA5DA95CA85BD31201B74015E55EA0
:10080C009562FFE55D9561FEE55C9560FDE55B95A8
:10081C005FFC22C3E562955EFFE561955DFEE560D8
:09082C00955CFDE55F955BFC2283
:100AC6008F738E728D718C70E4FFFEFDFCAB73AA82
:100AD60072A971A870D31201B740037F0122AC70CE
:0A0AE600EC3350037FFF227F002253
:0809A2008B6A8A6B896C8D6D74
:1009AA00E4F56FF56EE56EC3956D501DAB6AAA6BE3
:1009BA00A96C75F004E56EA4F58285F0831201CD69
:0F09CA00EF256FF56F056E80DCAF6FE4FCFDFE6F
:0109D90022FB
:060231008B1E8A1F8920CC
:10023700C003C002C001AB23AA24A92512001EFFD8
:100247002402540375F002A4F58285F083D001D00F
:1002570002D003120133F52785F026AB1EAA1FA98A
:1002670020EF2403540375F002A4F58285F083126E
:100277000133F52985F028C003C002C001AB23AACA
:1002870024A92512001E75F002A4F58285F083D0FB
:1002970001D002D003120133F52B85F02A8C2C8D67
:1002A7002D2424FFE52A34FAAB07FAE52B24DCFFDB
:1002B700E52A34058F82F583C3E52B9529FDE52AC9
:1002C7009528FCC3E5299527FFE5289526FE12000A
:1002D7006BD3EF9400EE64809480403EE52B25E0DD
:1002E700FFE52A33FEC3EF9529F52FEE9528F52E66
:1002F700AF03AE02E52F24D4FDE52E34FEFC120B2E
:10030700F5AA06AB07AF82AE83E52F242CFDE52EB9
:100317003401FC120BE18E838F82D3E52D9582E5A4
:10032700836480F8E52C648098400685832C858259
:100337002DC3E52D9BEA6480F8E52C648098500472
:100347008A2C8B2DAB23AA24A925740112003712FE
:10035700001E5403120059AB1EAA1FA920C003C0D8
:1003670002C001AB23AA24A92512001E75F002A41E
:10037700F58285F083D001D002D003E52C852DF0DE
:0703870012018AAE2CAF2D1C
:01038E00224C
:100A9B000235FFFF0237FFFF013B00013F00013929
:100AAB0000013C00014000013A0002300000013D12
:070ABB0000013200013E00C2
:100BB600D2AFD2ABC28ED2A9758999C28CC2AAC253
:060BC600A8D28AD28822A9
:03001B000206EFEB
:1006EF00C0E0C0F0C083C082C0D075D000C000C0D1
:1006FF0001C002C003C004C005C006C007753C009E
:10070F00C28EC2AAC3E53894B8E537940B500B7468
:10071F00C82538F538E43537F537120A43D007D0F6
:10072F0006D005D004D003D002D001D000D0D0D055
:08073F0082D083D0F0D0E0323B
:03000B00020747A2
:10074700C0E0C0F0C083C082C0D075D000C000C078
:1007570001C002C003C004C005C006C007753B0046
:10076700C28CC2A8C3E53694B8E535940B500B7418
:10077700C82536F536E43535F535120A43D007D0A6
:1007870006D005D004D003D002D001D000D0D0D0FD
:0807970082D083D0F0D0E032E3
:05000600C291C290222E
:100B1A00E53B600F053FE53FC3940A401BE4F53F00
:100B2A00F53B22753B01E4F58CF58AD28CD290FF15
:080B3A000FBF05FCC290D2A818
:010B42002290
:100B4300E53C600F0540E540C3940A401BE4F540D3
:100B5300F53C22753C01E4F58DF58BD28ED291FFE5
:080B63000FBF05FCC291D2AAEC
:010B6B002267
:10093000E5397034E53B6030753901AF8CEFFEADC1
:100940008AEDFFC3EF940AEE94005004E4F53922D7
:10095000C28CC2A87C007D1112006B7D6412007DE8
:08096000120C2AE4F539F53B05
:01096800226C
:10096900E53A7034E53C6030753A01AF8DEFFEAD84
:100979008BEDFFC3EF940AEE94005004E4F53A229C
:10098900C28EC2AA7C007D1112006B7D6412007DAB
:08099900120C23E4F53AF53CD1
:0109A1002233
:030003000208BA36
:1008BA00C0E0C0F0C083C082C0D075D000C000C004
:1008CA0001C002C003C004C005C006C00712093037
:1008DA00D007D006D005D004D003D002D001D00072
:0B08EA00D0D0D082D083D0F0D0E0321C
:030013000208F5EB
:1008F500C0E0C0F0C083C082C0D075D000C000C0C9
:1009050001C002C003C004C005C006C007120969C2
:10091500D007D006D005D004D003D002D001D00036
:0B092500D0D0D082D083D0F0D0E032E0
:070C23008E378F38020A43EF
:070C2A008E358F36020A43EC
:070AF000120A107FF47E01E1
:100AF700D3EF9400EE94004019EF1FAA0670011E71
:100B07004A600F7D01EDD3940040EE7C02DCFE1DB0
:020B170080F369
:010B190022B9
:040A10008F828E83C0
:100A14007B05742B2582F582E43583F583AF031BB4
:100A2400EF601BD280AF82AE83120AF7C280C37418
:0E0A3400089582FF74079583FE120AF780DF93
:010A42002291
:100A70007FF27EFF120A107FE87E03120BCC7F0EFE
:100A80007E00120A107FE87E03120BCCE4FFFE12F8
:0B0A90000A107FE87E03120BCC80D51B
:070667007DF47C01E4FFFEBD
:10066E008E1A8F1B8C1C8D1DC3E51A6480948050CE
:10067E003DC3E4951BF51BE4951AF51AE51D151DF2
:10068E00AE1C7002151C4E605712079F7C037DE84E
:10069E001200D2C3ED951BE51A6480F8EC648098C5
:1006AE005006D292C29380D4C292C29380CEE51DE0
:1006BE00151DAE1C7002151C4E602512079F7C0383
:1006CE007DE81200D2C3ED951BE51A6480F8EC6448
:1006DE0080985006C292D29380D4C292C29380CE9A
:0106EE0022E9
:10038F00E4FFFE7533037534E8C3E5369496E5351F
:10039F0094004004E532601D7532017533FC7534ED
:1003AF0018D3E536940EE53594015003020447E463
:1003BF00F532020447C3E53694F0E5359400400466
:1003CF00E53D6028753D01D3E53894F4E537940198
:1003DF0040067EFF7FF280047E007F0ED3E53694C9
:1003EF0090E53594014051E4F53D804CC3E53894D8
:1003FF0046E53794004004E53E601D753E017533B8
:10040F00037534E87E007F04D3E53894DCE5379438
:10041F00004025E4F53E8020C3E5389458E5379435
:10042F0002500C7533037534E87EFF7FFC8009752D
:10043F0033037534E8E4FEFFEF65317003EE65308A
:0D044F00600B8E308F31AF31AE30120A10CD
:01045C00227D
:100B8700C2AF1206677FF27EFF120A101206677F56
:080B97000E7E00120A1080EA34
:100A4300D3740A9536E495355022C3E53694C8E548
:100A53003594005017740A9538E49537500EC3E562
:0D0A63003894C8E53794005003120B872229
:10083500E4F508F509120BB67533037534E87D64E4
:10084500FCAF34AE3312066E7FF27EFF120AF07FE4
:100855000E7E00120AF0E4FFFE120AF0D281120B9E
:100865001A120B43C2817D647C00AF34AE3312068D
:030875006E80E9A9
:030AC200014AFFE7
:1009DA00ADA0EDF4524AE4FC74017E00A80408803C
:1009EA0005C333CE33CED8F9FFEF554A6011744BA5
:1009FA002CF806744B2CF8E6D394144002760A0CB1
:050A0A00BC08D58D4A77
:010A0F0022C4
:0F0C0900744B2FF8E6D39400400316D322C32276
:1005E700020835E493A3F8E493A34003F68001F2ED
:1005F70008DFF48029E493A3F85407240CC8C33315
:10060700C4540F4420C8834004F456800146F6DFE3
:10061700E4800B0102040810204080900A9BE47ECE
:10062700019360BCA3FF543F30E509541FFEE493D8
:10063700A360010ECF54C025E060A840B8E493A39F
:10064700FAE493A3F8E493A3C8C582C8CAC583CACA
:10065700F0A3C8C582C8CAC583CADFE9DEE780BE82
:010AC5000030
:10001E00BB010689828A83E0225002E722BBFE02E0
:09002E00E32289828A83E4932213
:10003700BB010989828A83F8E028F022500327F759
:1000470022BBFE05F8E328F3228A838982F8E4932A
:0200570028225D
:10005900BB010689828A83F0225002F722BBFE0186
:02006900F32280
:10006B00EF8DF0A4A8F0CF8CF0A428CE8DF0A42EA9
:02007B00FE2263
:10007D00BC000BBE0029EF8DF084FFADF022E4CC67
:10008D00F875F008EF2FFFEE33FEEC33FCEE9DEC30
:10009D00984005FCEE9DFE0FD5F0E9E4CEFD22ED76
:1000AD00F8F5F0EE8420D21CFEADF075F008EF2FC0
:1000BD00FFED33FD4007985006D5F0F222C398FDB1
:0500CD000FD5F0EA224E
:1000D200C2D5EC30E709B2D5E4C39DFDE49CFCEE49
:1000E20030E715B2D5E4C39FFFE49EFE12007DC344
:1000F200E49DFDE49CFC800312007D30D507C3E43F
:060102009FFFE49EFE22B7
:10010800BB010A89828A83E0F5F0A3E022500687C2
:10011800F009E71922BBFE07E3F5F009E319228984
:0B012800828A83E493F5F074019322B7
:10013300BB0110E58229F582E5833AF583E0F5F00A
:10014300A3E0225009E92582F886F008E622BBFEE7
:100153000AE92582F8E2F5F008E222E5832AF5832D
:08016300E993F5F0A3E99322F2
:10016B00BB010A89828A83F0E5F0A3F0225006F7DF
:0F017B0009A7F01922BBFE06F3E5F009F31922DC
:10018A00F8BB0111E58229F582E5833AF583E8F0A7
:10019A00E5F0A3F0225009E92582C8F608A6F02264
:0D01AA00BBFE09E92582C8F2E5F008F2224B
:1001B700EB9FF5F0EA9E42F0E99D42F0EC6480C8BF
:0601C70064809845F0225F
:1001CD00BB010DE58229F582E5833AF5830202092B
:1001DD005007E92582F80201FDBBFE07E92582F8EB
:1001ED00020215E58229F582E5833AF583020221A3
:10079F00AC74AD75AE76AF777810EC4D4E4F7004EC
:1007AF007CA57DA5C3EC13FCED13FDEE13FEEF133B
:1007BF00FF5010EC64CCFCED644CFDEE644EFEEF8C
:1007CF0064CEFFD8DF8C748D758E768F77EE547F65
:0D07DF00FE228E748F7574A5F576F57722D5
:0C01FD00E6FC08E6FD08E6FE08E6FF222E
:0C020900E0FCA3E0FDA3E0FEA3E0FF2268
:0C021500E2FC08E2FD08E2FE08E2FF2225
:10022100E493FC740193FD740293FE740393FF2223
:00000001FF
