:0300000002087D76
:0C087D00787FE4F6D8FD7581770208C48E
:0B0EC900EF1FAC0670011E4C70F622FB
:100E7E00EF1FAA0670011E4A600A7D82AC051DECAA
:040E8E0060EE80F89A
:010E9200223D
:100E36008F828E83E5821582AE83700215834E60A3
:0B0E4600097FE87E03120E7E80EA2286
:03000E00020E7E61
:100E5100E4FEFDEE25E0FEEF54012EFEEFC313FF8D
:060E61000DBD08EFAF0615
:010E67002268
:1007CB008C5C8D5D8B598A5A895BE55D25E0FFE575
:1007DB005C33FEE92FF9EA3EFAC003C002C00112F6
:1007EB000108FDACF0C005C004E55F25E0FFE55E48
:1007FB0033FEE55B2FF9E55A3EFAC003C002C00198
:10080B00120108FDACF0C005C004E55D25E0FFE575
:10081B005C33FEE55B2FF9E55A3EFAC002C00112CC
:10082B000108FDACF0E55F25E0FFE55E33AA5AA9B0
:10083B005B8F82F583120133FFEC65F0FEED6FFFEA
:10084B00D001D002EE8FF012016BD0E06EFED0E043
:10085B006FFFD001D002D003EE8FF012016BD0E00E
:10086B006EFED0E06FFFD001D002D003EE8FF0020E
:02087B00016B0F
:100E9300D3EF9DEC6480F8EE6480984006AE04AF17
:040EA30005800022A4
:100EA700D3EF9DEC6480F8EE64809840028004AE36
:040EB70004AF05225D
:10057B008B408A4189428C438D44D3E5449401E5F9
:0A058B00436480948050030206468A
:10059500E4F545F546F547754801C3E5489544E555
:1005A500436480F8E5476480985042E54825E0FFBC
:1005B500E54733AB40AA41A9428F82F58312013347
:1005C500FFAEF0120108FDC3EF9DEE95F050140546
:1005D50046E54670020545FDAC4585475E85485FA5
:1005E5001207CB0548E54870B1054780ADE546459E
:1005F500456012AB40AA41A94285455E85465FE448
:10060500FDFC1207CBAB40AA41A942AD46AC451251
:10061500057BE54625E0FFE54533FEAB40E5422F8A
:10062500F9E5413EFAE92402F9E43AFAC3E54495CD
:1006350046CFE5439545CF24FFFDEF34FFFC12057A
:010645007B39
:010646002291
:100C2D008B498A4A894BE5501550AE4F7002154FCE
:100C3D004E602EAB49E54BF92402F54BE54AFA34EB
:100C4D0000F54A120108FFAEF0AB4CE54EF9240257
:100C5D00F54EE54DFA3400F54DEE8FF012016B8037
:020C6D00C5229E
:100B5D008F548E538D528C51AF58AE57AD56AC55F8
:100B6D00AB54AA53A952A851D31202064015E5540D
:100B7D009558FFE5539557FEE5529556FDE5519570
:100B8D0055FC22C3E5589554FFE5579553FEE556A0
:090B9D009552FDE5559551FC222D
:100DE7008F698E688D678C66E4FFFEFDFCAB69AA90
:100DF70068A967A866D312020640037F0122AC6682
:0A0E0700EC3350037FFF227F00222E
:080D57008B608A6189628D63E3
:100D5F00E4F565F564E564C39563501DAB60AA6166
:100D6F00A96275F004E564A4F58285F08312021C74
:0F0D7F00EF2565F565056480DCAF65E4FCFDFEDE
:010D8E002242
:06041D008B2E8A2F8930AE
:10042300C003C002C001AB33AA34A93512001EFFBA
:100433002402540375F002A4F58285F083D001D021
:1004430002D003120133F53785F036AB2EAA2FA95C
:1004530030EF2403540375F002A4F58285F0831270
:100463000133F53985F038C003C002C001AB33AAAC
:1004730034A93512001E75F002A4F58285F083D0ED
:1004830001D002D003120133F53B85F03A8C3C8D49
:100493003D2424FFE53A34FAAB07FAE53B24DCFFBD
:1004A300E53A34058F82F583C3E53B9539FDE53A9B
:1004B3009538FCC3E5399537FFE5389536FE1200CC
:1004C3006BD3EF9400EE64809480403EE53B25E0DF
:1004D300FFE53A33FEC3EF9539F53FEE9538F53E28
:1004E300AF03AE02E53F24D4FDE53E34FEFC120E1D
:1004F300A7AA06AB07AF82AE83E53F242CFDE53EFA
:100503003401FC120E938E838F82D3E53D9582E5F1
:10051300836480F8E53C648098400685833C85824B
:100523003DC3E53D9BEA6480F8E53C648098500454
:100533008A3C8B3DAB33AA34A935740112003712C0
:10054300001E5403120059AB2EAA2FA930C003C0BA
:1005530002C001AB33AA34A93512001E75F002A400
:10056300F58285F083D001D002D003E53C853DF0D0
:0705730012018AAE3CAF3D0E
:01057A00225E
:100BEA00020BFFFF020DFFFF011700012400011194
:100BFA0000011800012500011200011A00042A0050
:100C0A00000000020903E801100002260000022881
:100C1A00FC18021C0000010F010119000108000163
:020C2A001B00AD
:100E6800D2AFD2ABC28ED2A9758999C28CC2AAC29E
:060E7800A8D28AD28822F4
:03001B00020A6076
:100A6000C0E0C0F0C083C082C0D075D000C000C05C
:100A700001C002C003C004C005C006C0077518004D
:100A8000C28EC2AAC3E50E94B8E50D940B500B7448
:100A9000C8250EF50EE4350DF50D1202A0D007D0D5
:100AA00006D005D004D003D002D001D000D0D0D0E1
:080AB00082D083D0F0D0E032C7
:03000B00020AB82E
:100AB800C0E0C0F0C083C082C0D075D000C000C004
:100AC80001C002C003C004C005C006C007751700F6
:100AD800C28CC2A8C3E50C94B8E50B940B500B74F8
:100AE800C8250CF50CE4350BF50B1202A0D007D085
:100AF80006D005D004D003D002D001D000D0D0D089
:080B080082D083D0F0D0E0326E
:05000600C2B1C2B022EE
:100D8F00E51760100524E524C3940A401CE4F524FC
:100D9F00F5178015751701E4F58CF58AD28CD2B052
:0B0DAF00FF0FBF05FCC2B0D2A8B29637
:010DBA002216
:100DBB00E51860100525E525C3940A401CE4F525CC
:100DCB00F5188015751801E4F58DF58BD28ED2B11F
:0B0DDB00FF0FBF05FCC2B1D2AAB29707
:010DE60022EA
:100CE500E5117034E5176030751101AF8CEFFEAD7D
:100CF5008AEDFFC3EF940AEE94005004E4F5112247
:100D0500C28CC2A87C007D1112006B7D6412007D2F
:080D1500120EE4E4F511F517DC
:010D1D0022B3
:100D1E00E5127034E5186030751201AF8DEFFEAD3F
:100D2E008BEDFFC3EF940AEE94005004E4F512220B
:100D3E00C28EC2AA7C007D1112006B7D6412007DF2
:080D4E00120EDDE4F512F518A8
:010D5600227A
:0100110022CC
:03000300020C6F7D
:100C6F00C0E0C0F0C083C082C0D075D000C000C04B
:100C7F0001C002C003C004C005C006C007120CE5C6
:100C8F00D007D006D005D004D003D002D001D000B9
:0B0C9F00D0D0D082D083D0F0D0E03263
:03001300020CAA32
:100CAA00C0E0C0F0C083C082C0D075D000C000C010
:100CBA0001C002C003C004C005C006C007120D1E51
:100CCA00D007D006D005D004D003D002D001D0007E
:0B0CDA00D0D0D082D083D0F0D0E03228
:070EDD008E0D8F0E0202A032
:070EE4008E0B8F0C0202A02F
:100BA600E4F56DF56CF56BF56A120B10EE3395E016
:100BB6008F6D8E6CF56BF56AAB6DAA6CF9A86AC081
:100BC60000C001C002C003120B10EE3395E0FDFC1D
:100BD600D003D002D001D0001201B78F6D8E6C8D7C
:030BE6006B8C6AAB
:010BE90022E9
:100647008E728F73C3E572648094804056120B10CC
:100657007C047D4C1200D2C3ED9573E5726480F87B
:10066700EC6480985020E4751632F515F514F513EF
:10067700781374FF12024EEC4D4E4F7003020708B9
:10068700D291C29080EAE4751632F515F514F51388
:10069700781374FF12024EEC4D4E4F6064C291C244
:1006A7009080EDC3E49573F573E49572F572120BC0
:1006B700107C047D4C1200D2C3ED9573E572648003
:1006C700F8EC648098501DE4751632F515F514F5AD
:1006D70013781374FF12024EEC4D4E4F6023C291F4
:1006E700D29080EDE4751632F515F514F5137813ED
:1006F70074FF12024EEC4D4E4F6006C291C29080BD
:02070700ED22E1
:100709008E748F75C3E574648094804056120B1003
:100719007C037DE81200D2C3ED9575E5746480F819
:10072900EC6480985020E4751632F515F514F5132C
:10073900781374FF12024EEC4D4E4F70030207CA34
:10074900D293C29280EAE4751632F515F514F513C1
:10075900781374FF12024EEC4D4E4F6064C293C27F
:100769009280EDC3E49575F575E49574F574120BF3
:10077900107C037DE81200D2C3ED9575E5746480A1
:10078900F8EC648098501DE4751632F515F514F5EA
:1007990013781374FF12024EEC4D4E4F6023C2932F
:1007A900D29280EDE4751632F515F514F513781328
:1007B90074FF12024EEC4D4E4F6006C293C29280F6
:0207C900ED221F
:10090900E4F51CF51D751E01751F90C3E50E942CA9
:10091900E50D94015030C3E50C942CE50B9401507E
:100929002574E0251FF51F74FC351EF51EE50C2501
:100939001DF51DE50B351CF51CC3E51D950EF51DB3
:10094900E51C950DF51CC3E50E94C8E50D94005002
:1009590030C3E50C94C8E50B940050257418251F85
:10096900F51F74FC351EF51EE50C251DF51DE50B5F
:10097900351CF51CC3E51D950EF51DE51C950DF5FA
:020989001C222E
:1009F600D3E52794E8E526648094834008752603AA
:100A06007527E88013C3E5279418E5266480947C4F
:100A160050067526FC752718D3E52994E8E5286461
:100A260080948340087528037529E88013C3E52957
:100A36009418E5286480947C50067528FC7529185E
:100A4600E5292527F521E5283526F520C3E529954D
:0A0A560027F523E5289526F5222256
:1002A000E4F526F527F528F529C3E50C9450E50B70
:1002B00094004004E5086046750801E42527F52709
:1002C000E43526F526AE0BAF0C7C007D0712006BE3
:1002D000C374B09FFF74049EFEC3E49FFFE49EFEC0
:1002E000EF2529F529EE3528F528D3E50C94C8E546
:1002F0000B9400500302041AE4F50802041AC3E543
:100300000C94E6E50B94004004E51960777519013B
:10031000D3E50E94FAE50D9400401FE4950CFFE43C
:10032000950BFE7C007D0312006BEF24DEFFEE34A4
:1003300003FEC3E49FFFE49E8017C3E4950CFFE433
:10034000950BFE7C007D0312006BEF24DEFFEE3484
:1003500003FEEF2527F527EE3526F526E50C248844
:10036000FFE50B34FFFEEF2529F529EE3528F528AA
:10037000D3E50C9490E50B9401500302041AE4F5C4
:100380001902041AC3E50E9446E50D94004004E5F5
:100390001B6030751B01742C2527F5277401352649
:1003A000F526E50DC313FEE50E132529F529EE35D7
:1003B00028F528D3E50E94AAE50D9400405CE4F5F9
:1003C0001B8057C3E50E94C2E50D94015036AE0D67
:1003D000AF0E7C007D0312006BEF2404FFEE3401AE
:1003E000FEEF2529F529EE3528F528E50E246AFFCC
:1003F000E50D34FFFEC3E49FFFE49EFEEF2527F5E5
:1004000027EE801274E82529F52974033528F5288C
:0D041000E42527F527E43526F5260209F638
:0E0EBB00AF21AE20120647AF23AE2202070978
:10098B00E4751602F515F514F513781374FF1202BE
:10099B004EEC4D4E4F601EE4F526F527752803757A
:1009AB0029E81209F6AF21AE20120647AF23AE227B
:1009BB0012070980D5E475160AF515F514F51378A9
:1009CB001374FF12024EEC4D4E4F601EE4F526F5EC
:1009DB00277528FC7529181209F6AF21AE201206CF
:0B09EB0047AF23AE2212070980D5227F
:100E11007576090576E57675F00A84E5F0700612B7
:100E21000D8F120DBBAF21AE20120647AF23AE22AC
:050E310012070980DE3C
:090ED40075770AD2A0C2A180FAD0
:10088900020ED4E493A3F8E493A34003F68001F2A3
:1008990008DFF48029E493A3F85407240CC8C33370
:1008A900C4540F4420C8834004F456800146F6DF3F
:1008B900E4800B0102040810204080900BEAE47EDA
:1008C900019360BCA3FF543F30E509541FFEE49334
:1008D900A360010ECF54C025E060A840B8E493A3FB
:1008E900FAE493A3F8E493A3C8C582C8CAC583CA26
:1008F900F0A3C8C582C8CAC583CADFE9DEE780BEDE
:010C2C0000C7
:10001E00BB010689828A83E0225002E722BBFE02E0
:09002E00E32289828A83E4932213
:10003700BB010989828A83F8E028F022500327F759
:1000470022BBFE05F8E328F3228A838982F8E4932A
:0200570028225D
:10005900BB010689828A83F0225002F722BBFE0186
:02006900F32280
:10006B00EF8DF0A4A8F0CF8CF0A428CE8DF0A42EA9
:02007B00FE2263
:10007D00BC000BBE0029EF8DF084FFADF022E4CC67
:10008D00F875F008EF2FFFEE33FEEC33FCEE9DEC30
:10009D00984005FCEE9DFE0FD5F0E9E4CEFD22ED76
:1000AD00F8F5F0EE8420D21CFEADF075F008EF2FC0
:1000BD00FFED33FD4007985006D5F0F222C398FDB1
:0500CD000FD5F0EA224E
:1000D200C2D5EC30E709B2D5E4C39DFDE49CFCEE49
:1000E20030E715B2D5E4C39FFFE49EFE12007DC344
:1000F200E49DFDE49CFC800312007D30D507C3E43F
:060102009FFFE49EFE22B7
:10010800BB010A89828A83E0F5F0A3E022500687C2
:10011800F009E71922BBFE07E3F5F009E319228984
:0B012800828A83E493F5F074019322B7
:10013300BB0110E58229F582E5833AF583E0F5F00A
:10014300A3E0225009E92582F886F008E622BBFEE7
:100153000AE92582F8E2F5F008E222E5832AF5832D
:08016300E993F5F0A3E99322F2
:10016B00BB010A89828A83F0E5F0A3F0225006F7DF
:0F017B0009A7F01922BBFE06F3E5F009F31922DC
:10018A00F8BB0111E58229F582E5833AF583E8F0A7
:10019A00E5F0A3F0225009E92582C8F608A6F02264
:0D01AA00BBFE09E92582C8F2E5F008F2224B
:1001B700E88FF0A4CC8BF0A42CFCE98EF0A42CFCE7
:1001C7008AF0EDA42CFCEA8EF0A4CDA8F08BF0A465
:1001D7002DCC3825F0FDE98FF0A42CCD35F0FCEBC4
:1001E7008EF0A4FEA9F0EB8FF0A4CFC5F02ECD3989
:0F01F700FEE43CFCEAA42DCE35F0FDE43CFC22F6
:10020600EB9FF5F0EA9E42F0E99D42F0EC6480C86F
:0602160064809845F0220F
:10021C00BB010DE58229F582E5833AF5830202786C
:10022C005007E92582F802026CBBFE07E92582F82B
:10023C00020284E58229F582E5833AF58302029075
:10024C007401FF3395E0FEFDFC080808E6CF2FF69D
:10025C0018E6CE3EF618E6CD3DF618E6CC3CF62276
:100B1000AC6EAD6FAE70AF717810EC4D4E4F70048F
:100B20007CA57DA5C3EC13FCED13FDEE13FEEF13C6
:100B3000FF5010EC64CCFCED644CFDEE644EFEEF17
:100B400064CEFFD8DF8C6E8D6F8E708F71EE547F08
:0D0B5000FE228E6E8F6F74A5F570F5712278
:0C026C00E6FC08E6FD08E6FE08E6FF22BE
:0C027800E0FCA3E0FDA3E0FEA3E0FF22F9
:0C028400E2FC08E2FD08E2FE08E2FF22B6
:10029000E493FC740193FD740293FE740393FF22B4
:00000001FF
