:03000000020438BF
:0C043800787FE4F6D8FD75815902047F3E
:1007D5003F065B4F666D7D077F6F777C395E79716C
:0D0723000824000000000000000001230079
:0F07E500EF9007D593F590C374079523F5B022D5
:0804C4008F1E8E1D8D1C8C1B88
:1004CC00E4F51FAF1EAE1DAD1CAC1BEC4D4E4F60CA
:1004DC003AE47B0AFAF9F81200EE74D52BF5827423
:1004EC00073AF583E493FF7424251FF8A607AF1E83
:1004FC00AE1DAD1CAC1BE47B0AFAF9F81200EE8FB2
:10050C001E8E1D8D1C8C1B051F80B8E51F700F9057
:10051C0007D593FFAE1F051F74242EF8A607E51F01
:10052C00C39408500B7424251FF8E4F6051F80EEC5
:01053C00229C
:100704000523E523C39408400674F82523F52374D0
:0F071400242523F8E6F590C374079523F5B0224A
:0B082800EF1FAC0670011E4C70F622A2
:1007C000EF1FAA0670011E4A600A7D82AC051DEC6F
:0407D00060EE80F85F
:0107D4002202
:10075E008F828E83E5821582AE83700215834E6082
:0B076E00097FE87E031207C080EA222A
:03000E000207C026
:1007A900E4FEFDEE25E0FEEF54012EFEEFC313FF3C
:0607B9000DBD08EFAF06C4
:0107BF002217
:1002D4008C488D498B458A468947E54925E0FFE5E9
:1002E4004833FEE92FF9EA3EFAC003C002C0011206
:1002F4000030FDACF0C005C004E54B25E0FFE54A45
:1003040033FEE5472FF9E5463EFAC003C002C001BB
:10031400120030FDACF0C005C004E54925E0FFE55E
:100324004833FEE5472FF9E5463EFAC002C0011204
:100334000030FDACF0E54B25E0FFE54A33AA46A9C1
:10034400478F82F58312005BFFEC65F0FEED6FFFD3
:10035400D001D002EE8FF0120093D0E06EFED0E018
:100364006FFFD001D002D003EE8FF0120093D0E0E3
:100374006EFED0E06FFFD001D002D003EE8FF0020A
:020384000093E4
:100208008B2C8A2D892E8C2F8D30D3E5309401E5E7
:0A0218002F6480948050030202D38B
:10022200E4F531F532F533753401C3E5349530E543
:100232002F6480F8E5336480985042E53425E0FF6E
:10024200E53333AB2CAA2DA92E8F82F58312005BE6
:10025200FFAEF0120030FDC3EF9DEE95F050140595
:1002620032E53270020531FDAC3185334A85344BBB
:100272001202D40534E53470B1053380ADE5324560
:10028200316012AB2CAA2DA92E85314A85324BE45E
:10029200FDFC1202D4AB2CAA2DA92EAD32AC311228
:1002A2000208E53225E0FFE53133FEAB2CE52E2FC7
:1002B200F9E52D3EFAE92402F9E43AFAC3E530956C
:1002C20032CFE52F9531CF24FFFDEF34FFFC120230
:0102D2000823
:0102D3002208
:100586008B358A368937E53C153CAE3B7002153B08
:100596004E602EAB35E537F92402F537E536FA34E9
:1005A60000F536120030FFAEF0AB38E53AF924021A
:1005B600F53AE539FA3400F539EE8FF012009380FA
:0205C600C5224C
:100779008F558E548D538C52EC335003020180AF48
:0807890055AE54AD53AC5222F1
:10053D008F408E3F8D3E8C3DAF44AE43AD42AC41BE
:10054D00AB40AA3FA93EA83DD312018E4015E54010
:10055D009544FFE53F9543FEE53E9542FDE53D950E
:10056D0041FC22C3E5449540FFE543953FFEE5423E
:09057D00953EFDE541953DFC228F
:1006DA008F598E588D578C56E4FFFEFDFCAB59AAF4
:1006EA0058A957A856D312018E40037F0122AC564F
:0A06FA00EC3350037FFF227F002243
:080644008B4C8A4D894E8D4F4D
:10064C00E4F551F550E550C3954F501DAB4CAA4DF8
:10065C00A94E75F004E550A4F58285F0831201A42F
:0F066C00EF2551F551055080DCAF51E4FCFDFE48
:01067B00225C
:100730000213000001100001110001150001120058
:0C0810001207047F017E001207C080F474
:03000B000205C823
:1005C800C0E0C0F0C083C082C0D075D000C000C0F9
:1005D80001C002C003C004C005C006C007758CF87E
:1005E800758A80120704D007D006D005D004D0033E
:1005F800D002D001D000D0D0D082D083D0F0D0E0CB
:0106080032BF
:10079100D2AFD2A9758900438901C28CD28C438919
:0807A10090C28EC2AAD28A2286
:03001B00020003DD
:08000300751000C28EC2AA3282
:03001600C2802283
:1006AD00E510600F0511E511C3940A401FE4F51123
:1006BD00F51022E4F513F514F58DF58BD28E75102A
:0C06CD0001D280FF0FBF05FCC280D2AA42
:0106D90022FE
:10067C00E515702CE5106028751501AF8DEFFEADFA
:10068C008BEDFFC3EF940AEE94005004E4F51522B1
:10069C00C28EC2AA8E138F1412083DE4F515F51004
:0106AC00222B
:06084700E4FCFD0204C404
:090833007F087808E4F608DFFCF8
:01083C002299
:0E07F400D3EF9DEE9C4006AE04AF05800022C0
:0E080200D3EF9DEE9C40028004AE04AF0522B1
:10038600E5122402540325E02408F8E6FE08E6FBFD
:10039600AA06E5122403540325E02408F8E6F51B13
:1003A60008E6F51CE51225E02408F8E6F51D08E642
:1003B600F51EAE1DFF7C007D0312001E8E838F820C
:1003C600AE1BAF1C12001EC3EF9582FFEE9583CFC6
:1003D600C39BCF9AAB07FAE51E25E0FFE51D33FE6A
:1003E600C3EF951CFFEE951B8F82F583C374D49BD8
:1003F600FF74FE9AFEE58224ECFDE58334FAFC12D6
:1004060008028E1F8F20C3742C9BFF74019AFEE591
:10041600822414FDE5833405FC1207F48E218F2215
:100426000512531203E51225E02408F8A61308A6C0
:0104360014B1
:0104370022A2
:0A083D00120386AF14AE1302084741
:03001300020609D9
:10060900C0E0C0F0C083C082C0D075D000C000C0B7
:1006190001C002C003C004C005C006C00712067CA1
:10062900D007D006D005D004D003D002D001D00025
:0B063900D0D0D082D083D0F0D0E032CF
:0C081C001206AD7F147E001207C080F4AD
:100741007F4E7E617DBC7C001204C41207911208A9
:0D075100337FE87E031207C012081C80FEF3
:10044400020741E493A3F8E493A34003F68001F286
:1004540008DFF48029E493A3F85407240CC8C333B9
:10046400C4540F4420C8834004F456800146F6DF88
:10047400E4800B0102040810204080900723E47EEE
:10048400019360BCA3FF543F30E509541FFEE4937D
:10049400A360010ECF54C025E060A840B8E493A344
:1004A400FAE493A3F8E493A3C8C582C8CAC583CA6F
:1004B400F0A3C8C582C8CAC583CADFE9DEE780BE27
:0107400000B8
:10001E00EF8DF0A4A8F0CF8CF0A428CE8DF0A42EF6
:02002E00FE22B0
:10003000BB010A89828A83E0F5F0A3E0225006879B
:10004000F009E71922BBFE07E3F5F009E31922895D
:0B005000828A83E493F5F07401932290
:10005B00BB0110E58229F582E5833AF583E0F5F0E3
:10006B00A3E0225009E92582F886F008E622BBFEC0
:10007B000AE92582F8E2F5F008E222E5832AF58306
:08008B00E993F5F0A3E99322CB
:10009300BB010A89828A83F0E5F0A3F0225006F7B8
:0F00A30009A7F01922BBFE06F3E5F009F31922B5
:1000B20075F008758200EF2FFFEE33FECD33CDCC05
:1000C20033CCC58233C5829BED9AEC99E582984088
:1000D2000CF582EE9BFEED9AFDEC99FC0FD5F0D665
:1000E200E4CEFBE4CDFAE4CCF9A88222B800C1B98F
:1000F2000059BA002DEC8BF084CFCECDFCE5F0CBCD
:10010200F97818EF2FFFEE33FEED33FDEC33FCEB05
:1001120033FB10D703994004EB99FB0FD8E5E4F9C0
:10012200FA227818EF2FFFEE33FEED33FDEC33FCAD
:10013200C933C910D7059BE99A4007EC9BFCE99AA1
:10014200F90FD8E0E4C9FAE4CCFB2275F010EF2FE6
:10015200FFEE33FEED33FDCC33CCC833C810D707E6
:100162009BEC9AE899400AED9BFDEC9AFCE899F821
:0E0172000FD5F0DAE4CDFBE4CCFAE4C8F922B4
:0E018000C3E49FFFE49EFEE49DFDE49CFC2290
:10018E00EB9FF5F0EA9E42F0E99D42F0EC6480C8E8
:06019E0064809845F02288
:1001A400BB010DE58229F582E5833AF5830201E07E
:1001B4005007E92582F80201D4BBFE07E92582F83D
:1001C4000201ECE58229F582E5833AF5830201F820
:0C01D400E6FC08E6FD08E6FE08E6FF2257
:0C01E000E0FCA3E0FDA3E0FEA3E0FF2292
:0C01EC00E2FC08E2FD08E2FE08E2FF224F
:1001F800E493FC740193FD740293FE740393FF224D
:00000001FF
