:020000040800F2
:10000000A0020020990A00089D0A00089F0A000823
:10001000A10A0008A30A0008A50A000800000000C1
:10002000000000000000000000000000A70A000817
:10003000A90A000800000000AB0A0008AD0A000889
:10004000AF0A0008AF0A0008AF0A0008AF0A0008AC
:10005000AF0A0008AF0A0008AF0A0008AF0A00089C
:10006000AF0A0008AF0A0008AF0A0008AF0A00088C
:10007000AF0A0008AF0A0008AF0A0008AF0A00087C
:10008000AF0A0008AF0A0008AF0A0008AF0A00086C
:10009000AF0A0008AF0A0008AF0A0008AF0A00085C
:1000A000AF0A0008AF0A0008AF0A0008AF0A00084C
:1000B000AF0A0008AF0A0008AF0A0008AF0A00083C
:1000C000AF0A0008AF0A0008AF0A0008AF0A00082C
:1000D000AF0A0008AF0A0008AF0A0008AF0A00081C
:1000E000AF0A0008AF0A0008AF0A000800F002F8E3
:1000F00000F03CF80AA090E8000C82448344AAF186
:100100000107DA4501D100F031F8AFF2090EBAE883
:100110000F0013F0010F18BFFB1A43F0010318473B
:10012000304E0000504E0000103A24BF78C878C10D
:10013000FAD8520724BF30C830C144BF04680C60ED
:10014000704700000023002400250026103A28BF35
:1001500078C1FBD8520728BF30C148BF0B60704739
:100160001FB5AFF300801FBD10B510BD01F03CF806
:100170001146FFF7F5FF00F0FEF801F05AF8FFF71F
:10018000F3FF01F05DF800002DE9F04104460D4653
:1001900016461F4605EB070C0CF10103EA1904EBA8
:1001A000060C0CF10101A01900F023FD4FF6FF70C1
:1001B00000F0D4FC05EB070C0CF10103EA19A4EBE9
:1001C000060C0CF10101A01B00F013FD4FF6FF70AF
:1001D00000F0C4FCA5EB070C0CF10103EA1B04EBD7
:1001E000060C0CF10101A01900F003FD4FF6FF70A1
:1001F00000F0B4FCA5EB070C0CF10103EA1BA4EB27
:10020000060C0CF10101A01B00F0F3FC40F6FF709E
:1002100000F0A4FC05EB060C0CF10103AA1904EB99
:10022000070C0CF10101E01900F0E3FC4FF6FF7040
:1002300000F094FC05EB060C0CF10103AA19A4EBE9
:10024000070C0CF10101E01B00F0D3FC4FF6FF702E
:1002500000F084FCA5EB060C0CF10103AA1B04EBD7
:10026000070C0CF10101E01900F0C3FC4FF6FF7020
:1002700000F074FCA5EB060C0CF10103AA1BA4EB27
:10028000070C0CF10101E01B00F0B3FC4FF6FF700E
:1002900000F064FCBDE8F0812DE9F04704460D460E
:1002A00016461F464FF00009B0467000C0F1030A21
:1002B000E7B119E043464A4629462046FFF764FF66
:1002C000BAF1000F05DA042000FB09A000F1060ACC
:1002D00008E0A9EB0800042101FB00A000F10A0AD4
:1002E000A8F1010809F10109C145E3DDBDE8F08786
:1002F00000E0401E0028FCD1704710B500214FF0EF
:10030000006001F043F810BD10B501F055F84FF44E
:10031000803001F099F801F0DFF8FF4908700846D5
:100320000078012826D1102000F096FF022000F06E
:100330009FFF002001F07EF8002001F0A9F84FF4A3
:10034000806001F09BF84FF4E0114FF4803001F031
:10035000AFF8012001F0A6F800BF392001F04AF8FB
:100360000028FAD0022001F0ADF800BF01F05AF8E1
:100370000828FBD110BD2DE9F04F95B000260027CD
:10038000B0460EA800210A4606C00CA806C040F6DA
:10039000137007901A20069040F6027A4FF0260B51
:1003A000FFF7B2FFFFF7A9FF01210D2000F0F8FFD2
:1003B0000121DA4800F0B8FF4FF6FF70D8490880F5
:1003C0001020C87003208870D64800F05DFFD44923
:1003D000D54800F059FF8020D14908800420C8701A
:1003E00003208870D04800F04FFF4FF6FF71CD48D2
:1003F00000F0C9FF4FF6FF71CB4800F0C4FF00F0DA
:100400002EFC9620FFF774FF022000F0E5FDD020BF
:1004100000F082FA902000F07FFA0123C34882881E
:10042000CDE900234389022214213C2000F052FE32
:100430000223BE488288CDE9002343890222142189
:100440005A2000F047FE0323B8488288CDE90023F4
:10045000438902221421782000F03CFE0423B34893
:100460008288CDE90023438902221421962000F0DE
:1004700031FE0121AC4800F084FF87E10121AA4848
:1004800000F07DFF8021A84800F072FF00287ED197
:100490000AA90BA800F0B6FA08A90B9800F003FA15
:1004A000A3A300934FF6F0734FF4784240F2271164
:1004B000002000F0F6FD08AB00934FF6F0734FF408
:1004C000784240F22711202000F0EBFD08A90A989D
:1004D00000F0E9F997A300934FF6F0734FF47842D8
:1004E00040F22711782000F0DCFD08AB00934FF6B6
:1004F000F0734FF4784240F22711982000F0D1FDBC
:100500000B9810901098C0EB001000011090DDE9DE
:100510000610401A1190DDE91010B1FBF0F4FA2C2E
:1005200000D9FA24FA2C01D8C4F1FA048248B4FBA9
:10053000F0F100FB11404FF47A71B0FBF1F0303074
:10054000C0B28DF8380042F21070B4FBF0F100FB3D
:1005500011404FF47A71B0FBF1F03030C0B28DF839
:1005600039000846B4FBF0F100FB11406421B0FBF8
:10057000F1F03030C0B28DF83A006420B4FBF0F1F5
:1005800000FB11400A21B0FBF1F0303000E0F9E04F
:10059000C0B28DF83B000A20B4FBF0F100FB114023
:1005A0003030C0B28DF83C0064A300934FF6F07376
:1005B0004FF478424FF48771002000F072FD0EABCB
:1005C00000934FF6F0734FF478424FF48771202078
:1005D00000F067FD0A98109040F29D111098484372
:1005E0001090AAEB0B001190DDE91010B1FBF0F5B3
:1005F000B5F5CF7F01D340F29D15B5F5CF7F02D27F
:1006000040F29D10451B4C48B5FBF0F100FB11502A
:1006100042F21071B0FBF1F03030C0B28DF8300012
:100620000846B5FBF0F100FB11504FF47A71B0FBB6
:10063000F1F03030C0B28DF831000846B5FBF0F172
:1006400000FB11506421B0FBF1F03030C0B28DF8E6
:1006500032006420B5FBF0F100FB11500A21B0FB21
:10066000F1F03030C0B28DF833000A20B5FBF0F164
:1006700000FB11503030C0B28DF8340030A300932D
:100680004FF6F0734FF478424FF48771782000F002
:1006900008FD0CAB00934FF6F0734FF478424FF423
:1006A0008771982000F0FDFCB44201D9A4EB060943
:1006B000B44201D8A6EB0409BD4201D9E81B12904F
:1006C000BD4201D8781B1290484601F0B5FF1D4A83
:1006D00003C2129801F0B0FF1B4A03C2139801F045
:1006E000ABFF1A4A03C21AA00CC8174803C800F08F
:1006F00063FFCDE9040116A00CC8124803C800F03E
:100700005BFFCDE90201DDE9042301F01DFCCDE929
:10071000000101F0EFFB1FE00400002000043000A6
:100720000000002000080140000C014028000020CB
:10073000583A0000593A0000A0860100783A0000BB
:10074000793A00001000002018000020200000204E
:1007500000000000000000400D4A03C20C4803C81E
:1007600001F01AFF1390B8F1000F07D001233946AA
:100770003046139AFFF790FD4FF000084FF0010844
:1007800026462F460121034800F0FBFD76E60000D7
:1007900020000020000C014010B54FF48041BC48FF
:1007A00000F0EDFD6420FFF7A3FD4FF48051B84841
:1007B00000F0E7FD9620FFF79BFD4FF40051B44891
:1007C00000F0DFFD6420FFF793FD4FF48041B04857
:1007D00000F0D7FDC820FFF78BFD4FF48051AC48E7
:1007E00000F0CDFD9620FFF783FD10BD70B50446E7
:1007F00000254FF48041A64800F0C1FD00BF21E074
:1008000004FA05F010F0800F05D04FF40051A04815
:1008100000F0B7FD04E04FF400519D4800F0AFFD3B
:100820004FF480419A4800F0AAFD9620FFF760FD42
:100830004FF48041964800F0A4FD9620FFF758FD44
:10084000681CC5B2082DDBDB70BD70B50025002427
:1008500000BF24E064004FF480418D4800F091FD1A
:100860009620FFF745FD4FF48041894800F087FD51
:100870009620FFF73DFD4FF4004086490880042094
:10088000C87003208870824800F0FEFC4FF40041DD
:100890007F4800F06DFD00B1641C681CC5B20C2DD2
:1008A000D8DB204670BD42F2107290FBF2F230327B
:1008B0000A704FF47A7290FBF2F242F2107390FBDE
:1008C000F3F303EB8303A2EB430230324A7064225A
:1008D00090FBF2F24FF47A7390FBF3F303EB830394
:1008E000A2EB430230328A700A2290FBF2F26423B8
:1008F00090FBF3F303EB8303A2EB43023032CA70A5
:100900000A2290FBF2F202EB8202A0EB42023032AA
:100910000A7100224A71704770B50446FFF73CFF28
:100920002046FFF763FF4FF48041594800F029FD4E
:10093000C820FFF7DDFC4FF48041554800F01FFD53
:10094000C820FFF7D5FCFFF780FF05469620FFF78C
:10095000CFFC9620FFF7CCFC4FF480514C4800F0C0
:1009600010FD284670BD2DE9F0418CB004464FF0D3
:100970000008002505E02046FFF7CEFF4DF82500D2
:100980006D1C0C2DF7D3002513E06E1C0EE05DF8F6
:1009900025005DF82610884207D95DF825705DF8BE
:1009A00026004DF825004DF82670761C0C2EEED34F
:1009B0006D1C0B2DE9D34FF00008022503E05DF814
:1009C000250080446D1C0A2DF9D34FEAD80738461C
:1009D0000CB0BDE8F0812DE9F04104460D46D02071
:1009E000FFF7C1FF06469020FFF7BDFF0746642EC4
:1009F00001D3642F02D20020BDE8F08126602F6071
:100A00000120F9E77FB504460D4602A903A8FFF7C8
:100A1000E2FF064616B9002004B070BD694601A881
:100A2000FFF7D9FF06460EB90020F5E703990198B4
:100A3000884204D8019832300399814208D3019941
:100A40000398884222D803983230019981421DD2FE
:100A500002990098884204D8009832300299814265
:100A600008D300990298884210D802983230009931
:100A700081420BD2019903980844400820600099F4
:100A800002980844400828600120C5E70020C3E719
:100A9000000801400000002008480047FEE7FEE78C
:100AA000FEE7FEE7FEE7FEE7FEE7FEE7FEE7FEE71E
:100AB00003480449024A044B70470000ED00000857
:100AC000A0000020A0020020A000002070B5044675
:100AD0000D460121FF4800F052FC2CB14FF480710B
:100AE000FD4800F04EFC04E04FF48071FA4800F03D
:100AF00046FC0421F74800F042FC05F47F40F5492C
:100B0000103108604FF47F40A843F449C1F8140C39
:100B10000421F04800F035FC6420FFF7E9FB0421D4
:100B2000EC4800F02CFC4FF47F4000EA0520E94936
:100B300010310860E8434FF47F4101EA0020E749A3
:100B4000C1F8140C0421E34800F01BFC6420FFF7FB
:100B5000CFFB0121DF4800F014FC70BD10B5044646
:100B60000121DC4800F00BFC4FF48071DA4800F002
:100B700008FC0421D74800F002FC04F47F40D5496A
:100B8000103108604FF47F40A043D449C1F8140CE1
:100B90000421D04800F0F5FB0520FFF7A9FB042154
:100BA000CC4800F0ECFB4FF47F4000EA0420C94938
:100BB00010310860E0434FF47F4101EA0020C7494B
:100BC000C1F8140C0421C34800F0DBFB0520FFF73B
:100BD0008FFB0121BF4800F0D4FB10BD70B5044667
:100BE0000D4621460020FFF771FF2846FFF7B6FFAC
:100BF00070BD2DE9F04104460D4616461F46A1B2D0
:100C00004FF40070FFF7EAFFB1B240F20120FFF7A6
:100C1000E5FFA1B24FF40470FFF7E0FFB1B240F27C
:100C20001220FFF7DBFFA9B240F21120FFF7D6FF39
:100C3000B9B240F21320FFF7D1FF40F202210020A9
:100C4000FFF744FFBDE8F081002205E0002100E04D
:100C5000491C6429FCDB521C8242F7DB704710B54B
:100C60004FF400619C4800F08CFB0520FFF7ECFF7F
:100C70004FF40061984800F082FB0520FFF7E4FF85
:100C80004FF40061944800F07CFB0520FFF7DCFF87
:100C90000121904800F073FB00210846FFF79EFFFA
:100CA0000520FFF7D1FF00210846FFF797FF052039
:100CB000FFF7CAFF00210846FFF790FF0520FFF766
:100CC000C3FF00210846FFF789FF0520FFF7BCFF9F
:100CD0006420FFF7B9FF0020FFF740FF0520FFF772
:100CE000B3FF0020FFF73AFF0520FFF7ADFF00201C
:100CF000FFF734FF0520FFF7A7FF0020FFF72EFFC7
:100D00000520FFF7A1FF6420FFF79EFF4FF4C441C9
:100D10004FF48060FFF762FF0520FFF795FF40F674
:100D200008010820FFF75AFF0520FFF78DFF40F666
:100D30000C414FF44070FFF751FF4FF6137140F232
:100D40000130FFF74BFF0520FFF77EFF40F60F71E4
:100D500040F20230FFF742FF0520FFF775FF41F236
:100D60000B5140F20330FFF739FF0520FFF76CFF0E
:100D70004FF481514FF44170FFF730FF0520FFF72A
:100D800063FF40F60B2140F20530FFF727FF0520F7
:100D9000FFF75AFF032140F20630FFF71FFF05203F
:100DA000FFF752FF40F6065140F20730FFF716FFFB
:100DB0000520FFF749FF40F204514FF44270FFF75E
:100DC0000DFF0520FFF740FF41F2300140F20930EE
:100DD000FFF704FF0520FFF737FF1B211020FFF767
:100DE000FDFE40F201111120FFF7F8FE0520FFF78C
:100DF0002BFF00211220FFF7F1FE0520FFF724FF53
:100E000001211320FFF7EAFE0520FFF71DFF4FF435
:100E10004C714FF48070FFF7E1FE0520FFF714FFDF
:100E200040F2472140F20110FFF7D8FE0520FFF7FE
:100E30000BFF4FF4805140F20310FFF7CFFE052067
:100E4000FFF702FF4FF43F414FF42070FFF7C6FE5B
:100E50000520FFF7F9FE4DF2B0114FF48170FFF756
:100E6000BDFE0520FFF7F0FE4FF47A70FFF7ECFEB1
:100E70004FF480710120FFF7B1FE0520FFF7E4FE7B
:100E80004FF480710220FFF7A9FE0520FFF7DCFE7A
:100E900041F230010320FFF7A1FE0520FFF7D4FE49
:100EA00001210920FFF79AFE0520FFF7CDFE002162
:100EB0000C20FFF793FE0520FFF7C6FE4FF400411C
:100EC0009020FFF78BFE0520FFF7BEFE00210F20CC
:100ED00006E00000000C0140000801400000014055
:100EE000FFF77CFE0520FFF7AFFE00214FF40470F2
:100EF000FFF774FE0520FFF7A7FEEF2140F2112057
:100F0000FFF76CFE0520FFF79FFE002140F2122044
:100F1000FFF764FE0520FFF797FE40F28F1140F2C5
:100F20001320FFF75BFE0520FFF78EFE00214FF434
:100F3000A060FFF753FE0520FFF786FE002140F278
:100F40000150FFF74BFE0520FFF77EFE5F2140F2C8
:100F50000250FFF743FE0520FFF776FE012140F225
:100F60000140FFF73BFE0520FFF76EFE002140F237
:100F70000440FFF733FE0520FFF766FE4FF4FA70DA
:100F8000FFF762FE4FF480710720FFF727FE052070
:100F9000FFF75AFE4FF47A70FFF756FE00214FF428
:100FA0000070FFF71BFE0520FFF74EFE002140F208
:100FB0000120FFF713FE0520FFF746FE4FF4FA70FD
:100FC000FFF742FE40F202210020FFF77FFD4FF4C1
:100FD000FA70FFF739FE10BD70B5044640F28F136A
:100FE0000022EF211046FFF704FE00250AE000264C
:100FF00005E06E4931F81400FFF7B0FD761CF02EC5
:10100000F7D36D1CB5F5C87FF1D370BD2DE9FF4F47
:1010100081B004460D4616460E9F4FF0080B102077
:101020000090CBF1F000A04204DB0098C0F5C8703E
:10103000A84202DA05B0BDE8F08F00982844431EAC
:1010400004EB0B00411E2A462046FFF7D2FDA7F114
:101050002000C7B24FF000091FE0554800EB071011
:1010600010F809804FF0000A11E018F0800F03D04B
:101070003046FFF773FD02E00498FFF76FFD4FEA7B
:1010800048604FEA10680AF1010000F0FF0ADA45F3
:10109000EBDB09F1010000F0FF0900988145DCDB82
:1010A000C8E72DE9F84304460D4616469846089FC2
:1010B0000BE03B7800934346324629462046FFF733
:1010C000A5FF04F1080084B27F1C38780028F0D115
:1010D000BDE8F8832DE9FF4F89B004460D4616465A
:1010E000179F4FF00008334901A80EC90EC001A890
:1010F00050F82600059036B94FF00B0B0B200790E7
:101100001820069010E0012E06D14FF00F0B0F2093
:1011100007902020069007E0022E05D14FF0170B14
:101120001720079048200690781EDDE9051202FB83
:101130000010049005EB0B03079821182A4620465F
:10114000FFF757FD0020089029E0049810F801AB44
:10115000049066B9089800EBD0714910B0EB4101DA
:1011600002D14FF0080804E04FF0040801E04FF00E
:1011700008084FF000090DE04AFA09F010F0010FDD
:1011800003D00C98FFF7EAFC02E01698FFF7E6FCA4
:1011900009F10109C145EFDB0898401C0890089946
:1011A00006988142D1DB0DB0BDE8F08F2800002009
:1011B000B0360008B04E000870477047704710B551
:1011C00000F008F8006810BD10B5044600F002F801
:1011D000046010BD014870477047000040000020C7
:1011E00000487047400000207546FFF7F9FFAE4603
:1011F00005006946534620F00700854618B020B523
:10120000FFF756FCBDE820404FF000064FF0000706
:101210004FF000084FF0000B21F00701AC46ACE89E
:10122000C009ACE8C009ACE8C009ACE8C0098D460B
:1012300070470446AFF300802046FEF7A0FF000091
:1012400003494FF01800ABBE7047000009000000D2
:10125000260002007047000004490A6822F01002CC
:101260000A600A6802430A607047000000200240DA
:1012700004490A6802F038020A600A6802430A60F8
:101280007047000000200240F0B5CB780022DC0659
:1012900003F00F0301D58C7823430C880F2714F03B
:1012A000FF0F4FF0010C1CD0D0F800500E880CFA44
:1012B00002F42640A64210D1960007FA06FE25EA5F
:1012C0000E0E03FA06F5CE7845EA0E05282E00D15B
:1012D0004461CE78482E00D10461521C082AE5D31F
:1012E00005600A88FF2A1ED94568002202F1080617
:1012F0000CFA06F40E882640A64210D1960007FA92
:1013000006FE25EA0E0E03FA06F5CE7845EA0E052E
:10131000282E00D14461CE78482E00D10461521CA1
:10132000082AE3D34560F0BDF0B5104D6B68440D5D
:10133000260184B2C0F30157B440C0F30342032F27
:1013400006D1686823F0706220F07060686008E081
:10135000C00203D503209040834300E0A34343F041
:10136000706201B122436A60F0BD000000000140DC
:101370000246926800200A4200D001207047416175
:10138000704701617047C16070470000024A114018
:10139000014302480160704780FFFF1F08ED00E035
:1013A000044A0029916901D0014300E08143916121
:1013B00070470000001002400B48016841F0010135
:1013C00001604168094A114041600168084A1140C2
:1013D0000160016821F4802101604268002122F44B
:1013E000FE02426081607047001002400000FFF87A
:1013F000FFFFF6FE034600205909094A012901D1E1
:10140000116804E0022901D1116A00E0516A03F079
:101410001F02012393400B4200D0012070470000BF
:10142000001002400248406800F00C0070470000C5
:1014300000100240034A516821F0F001014351605D
:1014400070470000001002400B490A6822F4803205
:101450000A600A68B0F5803F22F480220A6007D053
:10146000B0F5802F03D1086840F4A02008607047D1
:10147000086840F48030F9E700100240034A5168E0
:1014800021F4E06101435160704700000010024008
:10149000034A516821F4605141EAC000506070472E
:1014A00000100240014908667047000000004242F7
:1014B000034B5A68084322F47C121043586070476B
:1014C00000100240034A516821F0030101435160BA
:1014D000704700000010024030B50B4C40F2FF1581
:1014E0003120FFF787FF20706068401C6060207823
:1014F00010B96068A842F3D13120FFF77BFF0028C4
:1015000000D0012030BD0000380000202DE9F0415E
:10151000491E0D46044600EBC10103C916461F468D
:1015200009E03B46324601F0C5F86D1E04EBC502EA
:101530000CCA00F009FD35F00602F2D1022D23D0CD
:10154000042D11D0062D30D13B46324601F0B2F8C1
:10155000D4E90A2300F0F8FC3B46324601F0AAF831
:10156000D4E9082300F0F0FC3B46324601F0A2F833
:10157000D4E9062300F0E8FC3B46324601F09AF835
:10158000D4E9042300F0E0FC3B46324601F092F837
:10159000D4E9022300F0D8FC3B46324601F08AF839
:1015A0000CCCBDE8F04100F0CFBCBDE8F0810A46AC
:1015B000194662F31E0170472DE9FF4DA8B0DDE921
:1015C000296E2B9A804626F0004122F00043FF4806
:1015D0002791814209DC02D1B8F1000F05D1834285
:1015E00003DC0BD1BEF1000F08D013462A9A314616
:1015F00040462CB0BDE8F04D00F0A6BC26F0004CF3
:1016000053EA0E004CEA080C0FF2C43A0ED1BCF1BA
:10161000000F03D10120FFF7D7FD05E0EB48814221
:1016200002D1B8F1000FF5D05146D3E00024002ECE
:1016300029DAE648834226DAE748834201DB0224BE
:1016400021E0E64883421EDBE54800EB23501428E6
:101650000ADDC0F134052EFA05F707FA05F07045EA
:1016600011D107F001000CE0BEF1000F0BD1C0F169
:10167000140523FA05F000FA05F59D4203D100F0A8
:101680000100C0F102040FF25C3BBCF1000F13D16A
:10169000002A11DA0EB1022C03D10120FFF794FDCC
:1016A0008EE0012C03D10120FFF78EFD91E0012097
:1016B000FFF78AFDCDA18DE00FF2383C0120BEF18D
:1016C000000F65D1C14DAB4224D1A94222DAC34BF0
:1016D0005B420B4453EA0803E9D0002E07DABF4B04
:1016E000994200DA0020B0EBD27FE0D180E0BB4825
:1016F000814206DB002A0ADB2A9811462CB0BDE89D
:10170000F08D002A03DA82F000412A98F6E7BB49FF
:1017100079445FE0B14FBB4227D1002A22DA61B998
:10172000B8F1000F01D1334603E00220FFF74CFD72
:10173000299B4246584603C88CE0A94207D1B8F11C
:10174000000F04D1DCE900013346424682E0A942A1
:1017500008DADAE90001334642462CB0BDE8F04D24
:1017600000F01ABD40463146C8E7B2F1804F03D1C0
:101770003346424631467BE3A14DAA4208D1002EB2
:1017800006DB314640462CB0BDE8F04D00F0B2BB60
:101790000D46CDF87880B8F1000F3ED10FF2642EDF
:1017A00039B9022C24D01EB3012C21D1002E1FDA0E
:1017B0001AE0864FB9421ED1002E03DD002A17DB46
:1017C000594607E017DA002A0ADB022CF8D0012C70
:1017D00002D18EA103C991E7002C3FF468AF0AE063
:1017E000022C05D0012C02D1DEE9000186E714B9F4
:1017F000DCE9000182E7794FB9420ED1002E3FF7B4
:101800000CAF01DA002CE8D0022C01D04FF0FF30F1
:101810002CB0BDE8F04D00F0F9BE00EBE67026906C
:101820002043DAD07B48834277DD6C487A4D401EF6
:10183000AB4204DD814204DD431C994218DA814247
:1018400013DA002A0BDA0220FFF7BEFCDBE90023E3
:10185000194610462CB0BDE8F04DFFF7A8BE022097
:10186000FFF7B2FCDAE9002348E25C48814202DD7E
:10187000002AF4DDE7E7DAE900233146404601F0CB
:10188000EFF80F466FF001020E9001F0B5FA63A277
:101890000CCA01F037F83B460E9A00F00BFF61A22C
:1018A0000CCA01F02FF80E9A05460E463B46394603
:1018B000104600F0FFFE33462A4600F0FBFE0546C8
:1018C0005AA00CC80E4639460E9800F0F3FE0C9054
:1018D00058A00CC888463146284600F0EBFE054665
:1018E00056A00CC80E4639460E9800F0E3FE33466B
:1018F0002A4601F0B5F807460E460B460246414619
:101900000C9800F021FB0D46002043460C9A01F094
:10191000A7F833463A4687E1FFE70020B1F5801F7C
:1019200007DA352229461E9801F066FA1E906FF0FC
:10193000340000EB2157C1F313002849A7F2FF3709
:1019400040EA01063F49884201DC002508E03E49A3
:10195000884201DA012503E000257F1CA6F58016E8
:101960003A48784400EBC500436825930268314645
:1019700024921E9801F074F8CDE90C01DDE92423CE
:1019800031461E9800F0E0FA0B460246DAE9000103
:1019900000F002FC0B460246CDE90A01DDE90C012C
:1019A00000F088FE10902A48884678440068049029
:1019B0004FF0005040EA660000EB854000F5002043
:1019C000DDE9242305900146049843E00000F07F00
:1019D000000000000000F03F000040430000F03F26
:1019E00001FCFFFF000000000000F07F010000008C
:1019F0000000F87F00000000000000003438000004
:101A00000000E03F00000000000000800000000037
:101A10000000F0FF0000E0410000F043555555552F
:101A20005555D53F000000000000E03F0000006079
:101A30004715F73FFE822B654715F73F44DF5DF8FA
:101A40000BAE543E8E9803007AB60B005A35000058
:101A50009A35000001F004F833461E9A00F052FF58
:101A60000B4602464146002000F024FE0090DDE9CE
:101A700004230E464146002000F01CFEDDE90C2345
:101A800000F040FF3346009A00F0EAFFDDE90A2348
:101A900000F010FECDE90601109A4346414610467B
:101AA00000F008FE02460890F4480E460B46062158
:101AB0007844FFF72BFDCDE90001089A3346314603
:101AC000104600F0F7FDDDE9002300F0F3FD0E46BF
:101AD0001290434641460020109A00F035FADDE9A5
:101AE000062300F0E7FD3346129A00F02DFACDE907
:101AF0001201002243464146104600F0DBFDE0A6FD
:101B0000CDE90801D6E9002300F01EFADDE9122331
:101B100000F01AFA05910CCE002000F0A1FFDDE9DB
:101B2000082300F09DFFDDE9122300F0EBFE0E46D6
:101B30000290002241461046059B00F0BBFDCDE916
:101B40000C0143463146109A029800F0B3FD8046DE
:101B5000DDE905300E460022079900F0ABFD334663
:101B6000424600F0F1F980460E460B460246DDE99A
:101B70000C0100F0E9F9DDE90C231991002000F0D7
:101B80006FFF3346424600F0BDFE8046BEA00CC843
:101B90000E460020199900F08DFDCDE91C01BCA076
:101BA0000CC83146404600F085FD8046BAA00CC8FE
:101BB0000E460020199900F07DFD3346424600F0A4
:101BC000C3F9B74A7A4402EBC5020CCA00F0BCF96B
:101BD0001A908846384600F019FD07460E46DDE9A2
:101BE0001C0143461A9A00F0AFF9AD4A7A44383ADC
:101BF00002EBC502536823931268229200F0A4F905
:101C000033463A4600F0A0F90D4633463A460020E6
:101C100000F026FFDDE9222300F022FFDDE91C238E
:101C200000F01EFF43461A9A00F06CFEAFF26022ED
:101C3000D2E90087269A641E224302D199A2D2E9F2
:101C400000872B9C0B46024621462A9800F032FD65
:101C500082460E46DDE92A012346002200F000FFFD
:101C60002B46002200F026FD3346524600F06CF968
:101C7000CDE9160100222B462146104600F01AFD40
:101C800082460E460B460246DDE9160100F05CF97D
:101C9000864A0C4691421ADB52422244024304D047
:101CA0000220FFF791FA3B4643E53346524600F0E7
:101CB000D7FE05467EA009910CC8DDE9160100F0AB
:101CC00043F92A46099B00F0D9FDE9D319E07A4B84
:101CD00024F000429A4214D3784A2244024308D1A5
:101CE0003346524600F0BCFEDDE9162300F0C6FD87
:101CF00007D80220FFF768FA3B464246704878440E
:101D000019E524F000406F496F4A002501EB20518E
:101D1000904220DD491C4FF48010C8400119C1F3E6
:101D20000A50674AA0F2FF307A442A3A674B126899
:101D3000C34021EA0303C1F3130141F48015C0F14C
:101D40001400C540002C00DA6D423146504600F0C8
:101D500087FE82460E46DDE916013346524600F004
:101D6000F3F85BA00CC80C46002000F0A3FCCDE902
:101D70000C0159A00CC82146002000F09BFC8B46AA
:101D80000890334652462146002000F069FEDDE906
:101D9000162300F0B7FD52A20CCA00F08BFC5B4684
:101DA000089A00F0D1F804460E460B460246DDE9DB
:101DB0000C0100F0C9F8CDE92001DDE90C2300F0A9
:101DC0004FFE3346224600F09DFDDDE92023834689
:101DD0008A461946104600F06DFC06460246424807
:101DE0000C460B4605217844FFF790FB234632460C
:101DF00000F060FCDDE9202300F084FD064615912B
:101E0000DDE9200153465A4600F054FC53465A4639
:101E100000F09AF8089035A00CC88B46304615990A
:101E200000F01EFE82460C46DDE920013246159B7D
:101E300000F040FC2346524600F0AEF95B46089A9B
:101E400000F00EFEDDE9202300F00AFEAFF2804232
:101E50000CCA00F057FD0B4601EB05510A15002A8C
:101E600003DC2A46194600F0C7FF0B4602463946F6
:101E700040462CB0BDE8F04D00F01CBC3C340000E6
:101E80000000000000000840000000E009C7EE3F2D
:101E9000FD033ADC09C7EE3FF5015B14E02F3EBEBF
:101EA00018330000000000000000F0BF0000904068
:101EB000FE822B654715973C00CC904000346F3F65
:101EC0004632000001FCFFFF0000E03FFFFF0F0073
:101ED00000000000432EE63F396CA80C615C20BE78
:101EE000EF39FAFE422EE63F3631000000000000D6
:101EF0000000004070B504000D4601D0012200E052
:101F000000220A430B4B22F000429A1AD20F0AD148
:101F100009A20CCA00F096FB05D20120FFF754F984
:101F200007A103C970BD29462046BDE8704000F0F6
:101F3000F5BC00000000F07F000000000000000081
:101F4000010000000000F87F10B591EA030F48BFC0
:101F500083F0004300F18C85841A71EB030E05D2E7
:101F6000121943EB0E03001B61EB0E01DFF880C179
:101F70004FEA1154A4EB135E1CEA430F18BF9CEA0E
:101F8000445F7DD023EA0C0321EA045143F480131B
:101F9000DEF1200C38D322FA0EFC10EB0C0023FAF1
:101FA0000EFC41EB0C01CEF1200C03FA0CFC10EB03
:101FB0000C0051F10001B1F5801FCEF1200C38D298
:101FC00001EB0451BDE8104012FA0CF258BF704703
:101FD000401C38BF5FEA420218BF7047002814BF98
:101FE00020F0010041F100014FEA410313F5001F09
:101FF00038BF704728BFB1F1C0413E494FF00000E3
:1020000048BF41F000417047012A43EB0302AEF1A3
:10201000200EDEF11F0C32BF4FF0000C23FA0EF33E
:1020200010EB030041EB0451B4EB115FCAD0A1EBFC
:10203000045101F58011490801EB0451BDE810403D
:102040005FEA30000CD350F1000038BF12FA0CFCEC
:1020500006D1C3E7401C38BF5FEA4202C4D1BDE7E6
:102060004FEA410313F5001F38BF704728BFB1F195
:10207000C04120494FF0000048BF41F00041704787
:102080009CEA445F08D0BDE8104011EA5C0F04BF31
:1020900001F0004100207047012841EB0104012AB2
:1020A00043EB030E644598BFE645DFF84CC0BDE83E
:1020B000104000F22580AFF30080012841EB0100C1
:1020C000012A43EB0302904208D010F5001F04BF21
:1020D0000020704719464FF00000704791EA030F47
:1020E0004FF0000058BF704704494FF000007047A0
:1020F0000000E0FF0000F07F110000040000F87F06
:1021000002494FF0000000F045BE00000000F87FDB
:1021100002494FF0000000F03DBE00000000F87FD3
:1021200000B54FF4001E1EEB410F08BF002898BFFA
:102130001EEB430F08BF002A26D85DF804EBAFF36F
:10214000008051EA030C06D4994208BF904210D691
:10215000EFF3008070478B4208BF8242EFF30080AC
:1021600020F0104038BF40F0004080F3008878BF76
:1021700070474FF0010C38BFBCF1020F68BFBCF1D3
:10218000000FEFF3008070475DF804EB1CF4502F54
:102190003FF4B6AF00F060BE70B5DFF8ECC33CEAC8
:1021A000111418BF3CEA131400F09B8081EA030568
:1021B0000CEA111444EAD5741CEA131518BF11EA8D
:1021C0000C1F00F074804FEAC1214FEAC32341EA9B
:1021D000505143EA5253A4EB050404F17F7441F0DB
:1021E000004143F000434FEAC0204FEAC22200F012
:1021F000A9F846054FEAD02003EB244340EA4150BA
:102200004FEAD12101EB035282EAC47116D05FEA92
:10221000460E38BF4FF0404610D314BF00234FF096
:10222000004350F1000041F1000110EAD37F4FF06C
:10223000804620EAD37018BF4FF0404691EAC47F31
:10224000DFF848E316D412EA0E0F18BF3EEA010E7B
:1022500010D070BDE50754BF1EF4000F1EF4800FB0
:102260000ABF4FF080464FF0404610F1010041F1A7
:102270000001E3E7B4F1806FDEBF01F1C04101F07E
:102280000041002000DC70BDA8BFA1F1C04146F0B4
:10229000140CA8BF4CF0805CBDE870406FF00000EB
:1022A00041EA500181EA10314FF00000704711EA15
:1022B0000C1F00D00AE013EA0C1F00F03D804FF025
:1022C000000081EA030101F0004170BD6FF00000E1
:1022D00081EA030141EA500181EA10314FF0000028
:1022E00070BD4FEA410EBEEB4C1F4FEA430508BFDD
:1022F000002898BFB5EB4C1F08BF002ABDE870400E
:10230000DFF88CC23FF6FCAEAFF300804FF4001C48
:102310001CEB410F09D11CEB430F0FD04B4021F0B8
:10232000004148BF41F0004170474FF0000081EA92
:10233000030303F000417047BDE870404FF0000018
:1023400094497047E0B5054610B40C460FF23811B9
:102350004FEA430C4FF0010E4FEA9C6C51F82CC031
:102360004FF00001ACFB02604FF00006ECFB0301F4
:10237000001841EB0101301A66EB0101E1FB0C6C26
:102380004FF00001ACFB02604FF00006ECFB0301D4
:10239000001841EB0101301A66EB0101E1FB0C6C06
:1023A0004FF00001ACFB0560ECFB0401A2FB0167F0
:1023B000E3FB006E17EB0E074FF0000EE3FB017E10
:1023C0004EF1000EB6197F414EEB0E0E764275EBC4
:1023D000070764EB0E0EECFB0E01ACFB07E64FF0BB
:1023E000000E801941F10001A2FB0067B619E2FB63
:1023F000017EE3FB007E7F4103FB01EE4EEB0E0E00
:1024000076424FF0000676EB070765EB0E0EACFB4D
:102410000E674FF0000E4FEA857C4FEA9505C01914
:1024200041F1000145EA847549084FEA3000A2FBFA
:1024300000677642E2FB017EE3FB007E7CEB070750
:1024400003FB01EE65EB0E0EB51A77EB03047EF18C
:10245000000E24BF2E46274650F1000041F1000136
:10246000012E38BF012F404141EB010111F0004F17
:1024700018BF022301D0F0BC00BDF0BC4FF0010337
:10248000001841EB010100BDFCC00FFC830F3EF8BA
:102490005F8D89F4F0F0F0F0B50373EDEAA00EEA79
:1024A00048B4C2E6E3388EE31C3870E0A6C867DDA6
:1024B000A70D74DAE53594D7037BC7D4D2200DD2AB
:1024C000A87464CFCCCCCCCCE68745CA7C0CCEC7F4
:1024D0007BC865C5C3300CC3C0C0C0C00BFA82BE88
:1024E0000B6452BCA28B2EBAE00217B8B6600BB6D2
:1024F000B4400BB4C84216B2020B2CB05C414CAED7
:10250000849176ACAAAAAAAA573FE8A839052FA7B2
:1025100002B57EA53D0AD7A32BC337A2A0A0A0A0D9
:10252000E765119F9DD8899D9CC0099CD9E7909A29
:10253000511A1F99ED25B4976CDA4F964F09F29412
:10254000C4859A939224499209BCFD90EE23B88FDA
:102550006D35788E08CB3D8D8CC0088CFBF2D88A07
:102560008940AE89888888885FAB67877D8A4B867B
:102570005308348542082184976E12838220088292
:1025800008040281000000800000FF070000F07FC7
:10259000140000040000F87F4FEAC12303B40A15B9
:1025A00043EA505318BF43F000430CD4A2F56072C5
:1025B000D2F19E0211DBFF2ACCBF002123FA02F1E7
:1025C000084602B0704701F1804212F5801F80F288
:1025D00004804FF0000002B0704703BCDFF828C051
:1025E000012841EB010313F5001F88BF4CF4803C28
:1025F0003FF68EAD3CBF6FEAE1707047AFF30080ED
:102600006FEAE17070470000E800020410F0004338
:1026100014BF4142014643F08043B1FA81FC03F10B
:10262000F87311FA0CF1A3EB0C534FEA415008BFB9
:10263000704703EBE12170474FF080430146FFF7FD
:10264000ECBF000051EA030C17D41CF5801F58BFE3
:10265000BCF5801F00F10680994218BF704708BF83
:102660009042704707D711F5801F58BF13F5801FA0
:1026700019D499427047894270471CF5801F08D5CC
:10268000BCF5801FF7D58B4218BF704708BF824248
:1026900070474FF4001C1CEB410F38BF1CEB430F7D
:1026A00001D28B427047DFF808C0FFF739BD000048
:1026B00019001604DFF8B4C170B53CEA111E18BF4A
:1026C0003CEA131E00F0A68081EA03050CEA111E05
:1026D0004EEAD57E1CEA131518BF11EA0C1F00F054
:1026E0008F80AE4421EA4C1123EA4C13AEF17F7E79
:1026F00041F4801143F48013A1FB024CA0FB03655D
:10270000361955EB0C05A1FB034C4CF10003A0FB63
:10271000021C16EB0C06654153F10003094218BF79
:1027200046F001064FF0140CB3F5007F4CF1000C9D
:10273000CCF1200425FA0CF203FA04F141EA02017B
:1027400005FA04F026FA0CF240EA02006FF00302E8
:1027500042EB2E4216FA04F401EB025585EACE71E3
:1027600015D05FEA440C38BF4FF040440FD308BF88
:1027700043F0004350F1000041F1000110EAD37F23
:102780004FF0804420EAD37018BF4FF0404415F05A
:10279000004FDFF8DCC017D415EA0C0F18BF3CEA75
:1027A000010C11D070BD5FEACE7454BF1CF4000F51
:1027B0001CF4800F0ABF4FF080444FF0404410F1EA
:1027C000010041F10001E2E7BEF1806FA2BFA1F17B
:1027D000C04144F0130C4CF0805CBDE8704006DA58
:1027E0004FF0000001F1C04101F0004170476FF06F
:1027F000000041EA500181EA10314FF000007047BB
:102800004FEACE714FF0000070BD4FEACE714FF02D
:10281000000070BD4FEA4105B5EB4C1F4FEA43067F
:1028200008BF002898BFB6EB4C1F08BF002ABDE8C0
:102830007040DFF840C03FF663ACAFF300804FF468
:10284000001CBCEB410F98BFBCEB430F0AD84FF004
:10285000000081EA030101F0004141F0FE4141F432
:102860007001704704494FF0000070470000FF07F7
:102870000000F07F130000040000F87F53EA010C11
:1028800017D41CF5801F58BFBCF5801F00F10680CF
:102890008B4218BF704708BF8242704707D713F5B5
:1028A000801F58BF11F5801F19D48B4270479B427F
:1028B00070471CF5801F08D5BCF5801FF7D59942DD
:1028C00018BF704708BF904270474FF4001C1CEBC4
:1028D000430F38BF1CEB410F01D29942704783EA86
:1028E000010182EA000081EA030380EA0202DFF8C4
:1028F00010C083EA010182EA0000FFF711BC00006A
:102900001900160491EA030F10B581F000413FF55C
:1029100023AB83F0004300F0ABB800004FF0E04C75
:102920004CF07F6C70B511EA0C0F00F078803CEA37
:10293000010E00F07D8011F0004F40F087804FEADB
:10294000115C21EA0C5141F480110CF1FD0C5FEA9D
:102950005C0C0CF5C07C02D3400041EB01014FF050
:1029600000034FF080424FEA812141EA90514FEA43
:102970008020A1F180414FF0805E8C1A22BFB4EB21
:102980000E04214602EB4E02400041EB01015FEADA
:102990005E0EF2D171EB020407D3B0F1004574F181
:1029A000000422BF21462846521C400041EB010191
:1029B0004FF0804EC51A71EB020408D3B5EB0E053B
:1029C00074F1000422BF2146284603EB4E03400069
:1029D00041EB01014FEA5E0EBEF1800FEAD151EAF0
:1029E000000418BF0224980A4FEA92215FEA3404D7
:1029F00040EA825001EB0C5100D170BD640050F1EF
:102A00000000244241F1000108BF20F0010070BD28
:102A1000DEF5800E50F1000041F1000170BD50EA7A
:102A2000013C00D170BD01F000414FF0000070BDCD
:102A3000BDE8704050EA013CDFF81CC07FF468AB91
:102A4000AFF30080094258BF704701E0BDE8704015
:102A50004FF0000001497047170000040000F87FA4
:102A600010B591EA030F48BF83F000433FF574AA05
:102A7000841A71EB030E07D212198EF0004E43EB4D
:102A80000E03001B61EB0E01DFF810C24FEA115478
:102A9000A4EB135E1CEA430F18BF9CEA445F00F0EE
:102AA000C58023EA6C03524221EA0451C3EB6C0354
:102AB00038BF5B1EDEF1200C29D322FA0EFC10EB8E
:102AC0000C0043FA0EFC41EB0C01CEF1200C03FA92
:102AD0000CFC10EB0C0051F10001CEF1200C2DD4B8
:102AE00001EB0451BDE8104012FA0CF24FF0120C49
:102AF0004CF0804C58BF7047401C1CBFB2F1004FD7
:102B0000704700280CBF491C20F00100704712EBF1
:102B1000020C43EB030218BF4FF0010C4CEA4202D7
:102B2000AEF1200EDEF11E0C63D943FA0EFC10EB61
:102B30000C0051F1FF31CEF11E0CD1D50CF1010C7E
:102B400012FA0CFC404141EB010101EB445E5FEAEB
:102B50005E5E10D901EB0451BDE8104010EBDC7053
:102B600038BFBCF1004F18BF704700280CBF491C8C
:102B700020F0010070473FD211F5001108BF002876
:102B800001D1BDE810403FD04FEAD42E24F40064B8
:102B9000B1FA81F2202AA4F1020404BFB0FA80F352
:102BA000D218A2F10B02B2F12003A4EB02040CD262
:102BB000C2F1200301FA02F120FA03F341EA030112
:102BC00000FA02F0C2F1200303E000FA03F14FF033
:102BD000000001EBCE71002C01EB0451BDE8104068
:102BE000A8BF704701F1C0414FF0000001F0004163
:102BF000704701EB045110BD491001EB0451BDE8D1
:102C000010404FEA300002E04FF0000170474FF0F3
:102C1000120C4A0008BF0042F6D0B2F5001F28BFD0
:102C2000704701F000414FF0000070479CEA445F9C
:102C300007D0BDE8104011EA5C0F04BF002100205E
:102C40007047012841EB0104012A43EB030E644560
:102C500098BFE645DFF848C0BDE810403FF650AAEF
:102C6000AFF30080012841EB0100012A43EB03028E
:102C7000904209D010F5001F04BF0020704783F078
:102C800000414FF00000704791EA030F4FF0000041
:102C900048BF704703494FF0000070470000E0FF55
:102CA000120000040000F87F094248BF4CF4803C49
:102CB0004FF4C0634FEA115203F1010321EA0251BC
:102CC00022F400629A1A48BF6FF0FE0241F48011AC
:102CD000352A3CD830D0152A1ED3203A0CD90028EA
:102CE000C2F1200321FA02F001FA03F218BF42F008
:102CF00001024FF0000130E0C2F1000302F12002B6
:102D000001FA03F120FA02F241EA020100FA03F2A9
:102D100008464FF0000120E0C2F1200310B400FA91
:102D200003F401FA03F320FA02F021FA02F1224639
:102D300010BC43EA000010E050EA01324FF00000FE
:102D40004FF000014FF0004218BF521C05E04FF059
:102D500001024FF000014FF000001CF4803F2CF402
:102D6000803C18BF41F00041124208BF704752003A
:102D700003D303D0401C41F1000170475FEAAC72FD
:102D8000F8D4FAD1401C41F1000120F00100F4E731
:102D9000704770470CF00F03092B08BF082000F0A4
:102DA0005B800A2B0BD0082B18BF704708BF1CF0A4
:102DB000400F0AD04FF000004FF0000170471CF0A8
:102DC000400F18BF4FF0004070471CF0100F08D0A4
:102DD00020F0704300F07F4242EAD3014FEA437093
:102DE000704700F0604021F07F4242EA000201F0AB
:102DF0007F4040EA727070474FF0FF0C4CF4E06C7B
:102E00001CEA11531CBF9CEA030C9445C2BFDA4272
:102E100001EB02517047002B0DD0BCF1000F0FD019
:102E2000002A01F00041A4BF41F0E04141F07F6180
:102E30004FF00000704701F000414FF00000704774
:102E400050EA01334FF09B0C18BF4CF0806C7FF4BC
:102E50005FA9AFF3008070471CF4801F11D01CF4F1
:102E6000E02F03D06FEACC31490070474FF040505B
:102E7000EFF3008222F0704242EA000282F30088FF
:102E800070474FF000007047000000000000000095
:102E9000000E7000001C70000078380000701C04E8
:102EA00000300C0EF0FFFF1F00300C0120300C072B
:102EB000E0308C07C0318C038033CC018033EC00D0
:102EC00000336C1800303C3CFEFFFF7F0000000028
:102ED0000003C00000FFFF010003C0010003C000A9
:102EE0000003C0000003C00000FFFF000003C0009B
:102EF0000003C0000003C00000FFFF0000FFFF0050
:102F00000003C000000100000000000000000000FD
:102F10000000000000C0010000C0010000C001006E
:102F200000C0010000C0010000C0010430C0010E5B
:102F3000F0FFFF0F30C0010E30C0010E30C0010E97
:102F400030C0010E30C0010E30C0010E30C0010E85
:102F500030C0010EF0FFFF0F30C0010E30C001067F
:102F600000C0010000C0010000C0010000C001005D
:102F700000C0010000C0010000C0010000C001004D
:102F800000C0010000C001000000000000000000BF
:102F9000000000000000000000100007003C0007D7
:102FA000803F0003FC0700030C03060300030E032D
:102FB00000031C0300031C0300231803FC7F000311
:102FC000FCFF0003800301038003070380070E0357
:102FD000C01F0E03C07B0C13E0730C7B7073007F6B
:102FE0003023F80738C33F031CE301030C0300033D
:102FF00006030003000300030003000300030003B3
:1030000000030003000300030003000300000001AD
:1030100000000000000000000000000080033000FD
:10302000800370008001300080013000800130009A
:103030008001300080193018FCFFFF3F8401300010
:103040008001300080013000800130008031300686
:1030500080DFFF0FC007010EF8010307FE01030721
:103060009C018603800186038001CC018001CC0194
:103070008001F80080017800800178008001FE0165
:103080009C01CF07FCC1837FE0F1007EC03E001CA5
:103090000000000000000000C0800080830300C723
:1030A0000100C610FCFF3F08E70418660C30660CF0
:1030B000606606E0660340E631FFFF7F00000040E7
:1030C0000002C0FF0FC00007C00003C0FF07C0FF21
:1030D00007C00007C00007C0FF07C000074000008E
:1030E000000400003C00001C00001C00001C000349
:1030F0001C60FFFFFF071C60071C60071C60071CAB
:1031000060071C60071C70FFFF7F071C60031C200A
:10311000001C00001C00001C00001C00001C000023
:103120001C00001C00000C0000000600031CE0074F
:103130000CFE000CC0300CC0600CC0C00CC0440CB5
:10314000FF0F0CE0100CE0300CE0610CF0632CF889
:10315000066CD804FECCF00FC61E0CC2000CC100D9
:103160000CC0000CC0000CC0000CC0000C0000041F
:10317000208000E080036080016080016080016049
:103180008021FFFF7F60800160800160800160D747
:1031900011E0F93F7810187F300C66200C60600653
:1031A00060600760C00360800160C00362700F7ED2
:1031B0003CFC380F789001200000000000008018CF
:1031C00003801001801011FCFF3F8010018010016E
:1031D000801801000020F8FF7F0C10100C10084030
:1031E0001006C0FF054010044010044010044010B9
:1031F0000440100640D00700180200180000080024
:10320000000000000000C01800601800200C003012
:10321000FC3F30220828C204244100224C022044F2
:1032200004204218204118A07810206000000400FB
:103230008019049031089011329801328C0122805B
:10324000010700FF03000000000000000000001064
:103250000210100230100260100220101200FF0F46
:103260000010022010027E100220100220103220D6
:10327000FF0F201002201802200802200402300252
:10328000024C010286010100FE3F00F01F00000019
:1032900000000000000000000080030000040000A7
:1032A0000800000800001800001C00003C0000247A
:1032B00000002600004200004300008100808001E1
:1032C000C0000360000630000C10003C080030060F
:1032D00000000000000000000000000000008081ED
:1032E00001008300004200002200E0FF07200804E4
:1032F000200804200804E0FF072008042008042018
:103300000804E0FF07200800000820FEFF7F0008F7
:10331000000008000008000008000008000000008D
:1033200000000000000000C000C04000404000401D
:103330004000404000404010404038C0BF074000BF
:1033400000400000400000C0FF01408001408001BB
:103350006080012080012080011080011880010818
:1033600080010480010000000000002000006000D7
:103370000020080420F807201802201802FE1B0273
:10338000201802201802201802F01902301B023007
:103390001A02281802281802240802220822220CE5
:1033A0002220042260026660027EE001000000002C
:1033B000000000000000000406100C02600402205F
:1033C0000402200402200402200432FCFF0F200427
:1033D000022004022004022004022004022004022D
:1033E00020FC03200402200400200000200020F024
:1033F000FF7F20000000000000000000000020000F
:1034000004E0FF0F601804601804E0FF0760180470
:10341000601804601804E0EF070046000083008095
:103420000103C0863D2082381C8200008300008199
:103430000080810080800060800010800008000013
:10344000000000000000000C000004000004000068
:103450000406F0FF01000600000200000230FCFF3D
:103460000F00030000010000010080FF07000003BF
:10347000000001008000004600003C0000700000D9
:10348000E00000C00000000000000000000000425A
:1034900000004200004200004200004200044210CE
:1034A00004423808421810420830420C304204608E
:1034B000420660420260420140C20000C200004277
:1034C00000004200004230FEFF7F000000000000CC
:1034D00000000020000060800160800060800060CB
:1034E0008000608230FCFD0F6080006080006080A2
:1034F0000060FF1FE010087C100C642004602006B0
:1035000060400260400360800160C0016020067876
:10351000183C3007300000000000000008000018D0
:103520000000980100180600180400180000183068
:10353000FCFF0F003C00003C00005E00005B000050
:103540009900809801C0180360180630180C1818EC
:10355000780418100218000018000018000000007D
:1035600000000000000000C00030E00060E00060EB
:10357000300140100100180200080420041C7C06E1
:1035800078203910A0180420100E20100120D0003F
:10359000203200201100A01108E010086010102057
:1035A000303800E00F0000000000000000002000A4
:1035B0000060000020000C20F80320000020000024
:1035C000200100FE030020003020FF7F20C00020EB
:1035D000C000204000202000202002201204E01122
:1035E000083C0818060C3F00FC30000420000000D6
:1035F00080008000FC1F40004000FF7F200010047E
:10360000F00F0004000240018000000100020000F1
:103610002002200220022022226224322412280AC0
:10362000380A2806200220022022FF7F0000000026
:10363000080408040804BF7F08042804983F8C107D
:103640000B11080908060806080988706A2004009A
:103650008000800480088000FF7F8000C001A002FD
:10366000A0049008881884708320800080000000E7
:10367000020204020C05040980104060A72084089F
:10368000841C84038400A40094208C20043F000048
:103690000000883F0800080008003F00C87F0802BB
:1036A0000806080138118C20437EE06340200000AA
:1036B000000000000000000000000000000000000A
:1036C0000000183C3C3C18181800181800000000B6
:1036D000006363632200000000000000000000009F
:1036E00000000036367F3636367F36360000000062
:1036F0000C0C3E6361603E030343633E0C0C000010
:1037000000000000006163060C1833630000000035
:103710000000001C36361C3B6E66663B0000000055
:1037200000303030600000000000000000000000A9
:1037300000000C18183030303018180C0000000051
:103740000000180C0C060606060C0C180000000001
:103750000000000042663CFF3C66420000000000A2
:1037600000000000181818FF1818180000000000CA
:1037700000000000000000000000181818300000D1
:1037800000000000000000FF00000000000000003A
:1037900000000000000000000000181800000000F9
:1037A00000000103070E1C3870E0C080000000001C
:1037B00000003E6363636B6B6363633E0000000065
:1037C00000000C1C3C0C0C0C0C0C0C3F000000000E
:1037D00000003E6303060C183061637F00000000A8
:1037E00000003E6303031E030303633E000000006A
:1037F0000000060E1E3666667F06060F00000000FB
:1038000000007F6060607E030363733E0000000081
:1038100000001C3060607E636363633E0000000054
:1038200000007F630306060C0C1818180000000047
:1038300000003E6363633E636363633E0000000019
:1038400000003E636363633F0303063C0000000027
:103850000000000000181800000018180000000008
:1038600000000000001818000000181818300000B0
:10387000000000060C18306030180C060000000034
:103880000000000000007E00007E0000000000003C
:103890000000006030180C060C18306000000000BA
:1038A00000003E6363060C0C0C000C0C00000000D2
:1038B00000003E63636F6B6B6E60603E0000000053
:1038C0000000081C366363637F63636300000000CD
:1038D00000007E3333333E333333337E0000000049
:1038E00000001E33616060606061331E00000000F4
:1038F00000007C36333333333333367C0000000032
:1039000000007F3331343C343031337F000000001D
:1039100000007F3331343C34303030780000000018
:1039200000001E336160606F6363371D000000009C
:103930000000636363637F6363636363000000008D
:1039400000003C18181818181818183C000000003F
:1039500000000F06060606060666663C000000002C
:103960000000733336363C363633337300000000C4
:1039700000007830303030303031337F00000000CC
:10398000000063777F6B6363636363630000000021
:1039900000006363737B7F6F6763636300000000F5
:1039A00000001C36636363636363361C0000000021
:1039B00000007E3333333E3030303078000000007A
:1039C00000003E6363636363636B6F3E0607000042
:1039D00000007E3333333E3636333373000000004D
:1039E00000003E6363301C060363633E000000007A
:1039F0000000FFDB991818181818183C0000000088
:103A000000006363636363636363633E00000000FD
:103A1000000063636363636363361C080000000097
:103A2000000063636363636B6B7F363600000000E6
:103A30000000C3C3663C18183C66C3C30000000006
:103A40000000C3C3C3663C181818183C00000000EF
:103A500000007F6343060C183061637F00000000A4
:103A600000003C30303030303030303C000000005E
:103A7000000080C0E070381C0E0703010000000049
:103A800000003C0C0C0C0C0C0C0C0C3C000000005E
:103A9000081C366300000000000000000000000069
:103AA000000000000000000000000000FF00000017
:103AB00018180C00000000000000000000000000CA
:103AC00000000000003C46063E66663B0000000029
:103AD00000007030303C36333333336E000000006A
:103AE00000000000003E63606060633E0000000074
:103AF00000000E06061E36666666663B0000000085
:103B000000000000003E63637E60633E0000000032
:103B100000001C3632307C3030303078000000003D
:103B200000000000003B666666663E06663C0000DC
:103B30000000703030363B33333333730000000005
:103B400000000C0C001C0C0C0C0C0C1E00000000E7
:103B500000000606000E060606060666663C000025
:103B600000007030303333363C36337300000000D1
:103B700000001C0C0C0C0C0C0C0C0C1E00000000AB
:103B800000000000006E7F6B6B6B6B6B0000000031
:103B900000000000006E3333333333330000000085
:103BA00000000000003E63636363633E00000000AA
:103BB00000000000006E333333333E3030780000B5
:103BC00000000000003B666666663E06060F0000C9
:103BD00000000000006E3B33303030780000000001
:103BE00000000000003E63380E03633E000000004A
:103BF00000000818187E181818181B0E0000000086
:103C000000000000006666666666663B0000000015
:103C10000000000000636336361C1C080000000032
:103C200000000000006363636B6B7F3600000000E0
:103C3000000000000063361C1C1C366300000000FE
:103C4000000000000063636363633F03063C000001
:103C500000000000007F660C1830637F0000000049
:103C600000000E18181870181818180E0000000020
:103C70000000181818181800181818181800000054
:103C80000000701818180E1818181870000000009E
:103C900000003B6E0000000000000000000000007B
:103CA0000070D8D870000000000000000000000084
:103CB0000000000000000000000000000000000004
:103CC00000000000000000000000000000000000F4
:103CD00000000000000000000000000000000000E4
:103CE00000000000000000000700070007000700B8
:103CF00007000200020002000200020002000000B1
:103D0000000000000700070007000000000000009E
:103D100000000000066006600CC01980110022003F
:103D20000000000000000000000000000000000093
:103D30000000000000000000000000000000000083
:103D40000000000000000000000010401040104083
:103D500010407FE07FE010401040208020807FE016
:103D60007FE0208020802080208000000000000074
:103D7000000000000000020002000F801AC032C0E4
:103D800032C032001A000E0007000380038002C018
:103D900032C032C032C012800F00020002000000A8
:103DA0000000000000000000000070C0508088800B
:103DB000890089008B008A005FC0754006200A20B8
:103DC0000A201A201220114021C00000000000002B
:103DD000000000000000000000001C00260026007B
:103DE0002600260025C03880308058804900CD004C
:103DF000C700C600C300652038C0000000000000F6
:103E000000000000300038000800080010006000CA
:103E100000000000000000000000000000000000A2
:103E20000000000000000000000000000000000092
:103E3000000000000020004000800180010003001D
:103E40000300060006000600060006000600060045
:103E500003000300010001800080004000200000FA
:103E600000000000400020001000180008000C00B6
:103E70000C0006000600060006000600060006000C
:103E80000C000C000800180010002000400000008A
:103E9000000000000000000000000000020002001E
:103EA000020072703AE00F800F803AE072700200F8
:103EB00002000200000000000000000000000000FE
:103EC00000000000000000000000000000000200F0
:103ED00002000200020002007FF002000200020065
:103EE00002000200000000000000000000000000CE
:103EF00000000000000000000000000000000000C2
:103F000000000000000000000000000000000000B1
:103F100000000000300038000800080010006000B9
:103F20000000000000000000000000000000000091
:103F300000000000000000007FE000000000000022
:103F40000000000000000000000000000000000071
:103F50000000000000000000000000000000000061
:103F60000000000000000000000000000000000051
:103F70000000000038003800380000000000000099
:103F80000000000000200060004000C000800080B1
:103F90000100010002000200060004000400080005
:103FA00008001000100030002000600040000000F9
:103FB000000000000000000000000F00198030C069
:103FC00030C06060606060606060606060606060C1
:103FD000606030C030C019800F0000000000000099
:103FE00000000000000000000000020006003E008B
:103FF0000600060006000600060006000600060091
:1040000006000600060006003FC000000000000099
:10401000000000000000000000001F00218040C0E0
:1040200060C060C000C0018001800300040008007F
:104030001040204040407FC07FC0000000000000D2
:10404000000000000000000000001E00230061804E
:1040500061806180018003000E000180008000C04B
:1040600060C060C060C021801F0000000000000030
:104070000000000000000000008001800380038039
:1040800005800980098011802180218041807FE0A6
:10409000018001800180018007E000000000000035
:1040A000000000000000000000003FC03FC02000F2
:1040B0002000200020002F00318020C000C000C060
:1040C00060C060C0418021801F000000000000002F
:1040D00000000000000000000000078018C030C091
:1040E000300020006000678068C0706060606060C1
:1040F00060602060304018C00F0000000000000029
:10410000000000000000000000001FE03FE0304021
:1041100020802080008001000100020002000200D7
:104120000600060006000600060000000000000071
:10413000000000000000000000001F8030C0606030
:104140006060606070403CC00F00338020C06060E1
:1041500060606060606030C00F80000000000000A0
:10416000000000000000000000000F00308030C0A0
:10417000604060606060606060E031601E600060B0
:1041800000C000C0308031801E0000000000000030
:10419000000000000000000000000000000000001F
:1041A00000000700070007000000000000000000FA
:1041B00000000000070007000700000000000000EA
:1041C00000000000000000000000000000000000EF
:1041D00000000000060006000000000000000000D3
:1041E00000000000000006000600020004000000BD
:1041F00000000000000000000020004000800100DE
:104200000200040008001000200010000800040054
:1042100002000100008000400020000000000000BB
:10422000000000000000000000000000000000008E
:10423000000000007FE000000000000000007FE0C0
:10424000000000000000000000000000000000006E
:104250000000000000000000200010000800040022
:1042600002000100008000400020004000800100AA
:104270000200040008001000200000000000000000
:1042800000000000000000000F8030C0406040606F
:104290006060606000C0018006000400040004004B
:1042A000000000000E000E000E00000000000000E4
:1042B0000000000000000000000007801C601020CB
:1042C000335026D06490649068906890699069A09B
:1042D00066C0301030201840078000000000000049
:1042E00000000000000000000000060006000E00B4
:1042F0000B000B0013001180118011801F8020C063
:1043000020C020C020606060F0F0000000000000CD
:1043100000000000000000000000FF00618060C09D
:1043200060C060C060C061807F0060C0604060604D
:1043300060606060606060C0FF800000000000009E
:104340000000000000000000000007E018603020BE
:1043500030202000600060006000600060006000AD
:1043600060203020304018800F0000000000000066
:1043700000000000000000000000FE00618060C03E
:1043800060C06060606060606060606060606060CD
:10439000606060C060C06380FE000000000000003C
:1043A00000000000000000000000FFC0604060202E
:1043B00060006000610061007F00610061006000DA
:1043C0006000602060206040FFC00000000000002E
:1043D00000000000000000000000FFC060C060207E
:1043E00060206000610061007F006100610060008A
:1043F0006000600060006000F0000000000000004D
:10440000000000000000000000000F4018C0304015
:1044100030402000600060006000600063F060C019
:1044200060C030C030C018C00F00000000000000A5
:1044300000000000000000000000F0F0606060601C
:1044400060606060606060607FE0606060606060CD
:104450006060606060606060F0F00000000000007C
:10446000000000000000000000003FC00600060041
:10447000060006000600060006000600060006000C
:1044800006000600060006003FC000000000000015
:10449000000000000000000000000FF0018001801B
:1044A0000180018001800180018001800180018004
:1044B00001800180018001800180618063003E00F5
:1044C00000000000000000000000F3E060806100D8
:1044D0006200620064006C007C007600670063008C
:1044E0006380618060C060E0F1F0000000000000C7
:1044F00000000000000000000000F000600060000C
:1045000060006000600060006000600060006000AB
:104510006000602060206040FFC0000000000000DC
:1045200000000000000000000000F0F070E070E00B
:1045300070E059605960596059605A604E604E6031
:104540004E604E6044604460E4F0000000000000F3
:1045500000000000000000000000E07070207020EB
:10456000582058204C20462046204320432041A07C
:1045700040E040E040604060E020000000000000BB
:10458000000000000000000000000F00198030C093
:10459000304060606060606060606060606060606B
:1045A0006060304030C019800F0000000000000043
:1045B00000000000000000000000FF8060C060609C
:1045C000606060606060606060C07F80600060000C
:1045D0006000600060006000F0000000000000006B
:1045E000000000000000000000000F00198030C033
:1045F000304060606060606060606060606060600B
:104600006E60324031C011800F8001E000C00000B8
:1046100000000000000000000000FF8060C060603B
:1046200060606060606060C07F006600630063007F
:104630006180618060C060C0F07000000000000018
:10464000000000000000000000001F2030E060209B
:104650006020600070003C000F0003C000C00060DC
:1046600040604060606070C04F800000000000004B
:10467000000000000000000000007FE046208610DF
:10468000861006000600060006000600060006006A
:1046900006000600060006000F00000000000000F3
:1046A00000000000000000000000F07060206020AA
:1046B00060206020602060206020602060206020FA
:1046C00060206020602030401F800000000000005B
:1046D00000000000000000000000F8F070603040B2
:1046E00030403040308018801880188018800D00CD
:1046F0000D000D000F000600060000000000000085
:1047000000000000000000000000F7706620662036
:10471000664066406740374037403B803B803B8087
:104720003B803980110011001100000000000000E2
:104730000000000000000000000079E030C0188098
:10474000188019000D000E000600060007000B007F
:104750000B801980118030C079E00000000000005B
:1047600000000000000000000000F8F07060304021
:104770003080188018800D000D000E000600060025
:1047800006000600060006001F8000000000000072
:10479000000000000000000000003FE020C041C019
:1047A0000180038003000300060006000C000C00DB
:1047B00018001820382030407FC0000000000000A2
:1047C0000000000007E004000400040004000400EE
:1047D00004000400040004000400040004000400B9
:1047E00004000400040004000400040007E00000CA
:1047F0000000000000000000200010001000100069
:104800000800080004000400040002000200010087
:1048100001000100008000800040004000400020B6
:10482000000000003F000100010001000100010044
:104830000100010001000100010001000100010070
:104840000100010001000100010001003F00000023
:104850000000000007000D80104000000000000074
:104860000000000000000000000000000000000048
:104870000000000000000000000000000000000038
:104880000000000000000000000000000000000028
:104890000000000000000000000000000000000018
:1048A0000000000000000000000000000000FFF019
:1048B0000000000030003800080008001000600010
:1048C00000000000000000000000000000000000E8
:1048D00000000000000000000000000000000000D8
:1048E00000000000000000000000000000000000C8
:1048F000000000000F8030C030C007C01CC030C0B6
:1049000060C060C060C071D03EF0000000000000D8
:1049100000000000000000001000700030003000B7
:104920003000300033803CC0386030603060306030
:1049300030603060304038C02F8000000000000040
:104940000000000000000000000000000000000067
:10495000000000000F003180318061806000600045
:1049600060006040304030800F0000000000000018
:104970000000000000000000004001C000C000C0B6
:1049800000C000C01EC031C030C060C060C060C088
:1049900060C060C020C031E01E8000000000000048
:1049A0000000000000000000000000000000000007
:1049B00000000000078018C0106030603FE0300049
:1049C0003000300018201C4007800000000000006C
:1049D0000000000000000000000003C006600C6042
:1049E0000C000C007FC00C000C000C000C000C0034
:1049F0000C000C000C000C003F80000000000000C8
:104A000000000000000000000000000000000000A6
:104A1000000000000F70199030C030C030C0198005
:104A20001F0030003E001FC06060606070E01F80AB
:104A30000000000000000000100070003000300096
:104A400030003000378038C030C030C030C030C097
:104A500030C030C030C030C079E00000000000003D
:104A6000000000000000000000000600060000003A
:104A7000000000003E0006000600060006000600DA
:104A800006000600060006003FC00000000000000F
:104A90000000000000000000000001800180000014
:104AA000000000000F8001800180018001800180F2
:104AB00001800180018001800180018033003E007F
:104AC0000000000000000000100070003000300006
:104AD0003000300033C031003300320036003E0079
:104AE0003B0033003180318079E00000000000009D
:104AF000000000000000000002003E00060006006A
:104B00000600060006000600060006000600060075
:104B100006000600060006003FC00000000000007E
:104B20000000000000000000000000000000000085
:104B300000000000EEE077606660666066606660B8
:104B40006660666066606660F770000000000000E6
:104B50000000000000000000000000000000000055
:104B60000000000073803CC030C030C030C030C096
:104B700030C030C030C030C079E00000000000001C
:104B80000000000000000000000000000000000025
:104B9000000000000F00198030C06060606060603D
:104BA0006060606030C030C00F0000000000000096
:104BB00000000000000000000000000000000000F5
:104BC00000000000778038C03060306030603060B6
:104BD0003060306030C038C03780300030007C003A
:104BE00000000000000000000000000000000000C5
:104BF000000000001E4031C030C060C060C060C016
:104C000060C060C020C031C01EC000C000C003E052
:104C10000000000000000000000000000000000094
:104C200000000000F9E01A601C00180018001800CD
:104C30001800180018001800FF0000000000000015
:104C40000000000000000000000000000000000064
:104C5000000000000FE01860302030001C000F80C2
:104C600001C02060206030C03F80000000000000D4
:104C7000000000000000000000000000040004002C
:104C80000C000C007F800C000C000C000C000C00D1
:104C90000C000C000C400C400780000000000000DD
:104CA0000000000000000000000000000000000004
:104CB0000000104071C030C030C030C030C030C0C3
:104CC00030C030C030C039E01E800000000000005D
:104CD00000000000000000000000000000000000D4
:104CE000000000007CF03860184018400C800C80F8
:104CF0000C80070007000700020000000000000011
:104D000000000000000000000000000000000000A3
:104D100000000000F7B0632063206720372035C013
:104D200039C039C039C01080108000000000000078
:104D30000000000000000000000000000000000073
:104D4000000000007DE0188019800D000E000600B4
:104D500007000B00198011C07BE00000000000007C
:104D60000000000000000000000000000000000043
:104D7000000000007DE03880188018800D000D00D4
:104D80000D000600060002000400040028003800A0
:104D90000000000000000000000000000000000013
:104DA000000000003FC021802380030007000600B0
:104DB0000E000C201C2018603FC000000000000006
:104DC00000000000000000000000000000000000E3
:104DD00000000000000000000000000000000000D3
:104DE00000000000000000000000000000000000C3
:104DF00000000000000000000000000000000000B3
:104E000000000000000000000000000000000000A2
:104E10000000000000000000000000000000000092
:104E20000000000000000000000000000000000082
:104E30000000000000000000000000000000000072
:104E40000000000000000000000000000000000062
:104E50000000000000000000000000000000000052
:104E60000000000000000000000000000000000042
:104E70000000000000000000000000000000000032
:104E80000000000000000000000000000000000022
:104E90000000000000000000000000000000000012
:104EA0000000000000000000000000000000000002
:104EB000F0350008F03500089830000800000000C8
:104EC000000000000000F03F000000000000F83F7C
:104ED00000000000000000000000004003B8E23FB6
:104EE000000000000000000006D0CF43EBFD4C3E68
:104EF000033333333333E33FFFAB6FDBB66DDB3F5D
:104F00004D268F515555D53F01411DA96074D13FA4
:104F100065DBC9934A86CD3FEF4E454A287ECA3F9E
:104F20003E5555555555C53F93BDBE166CC166BF20
:104F30002CDE25AF6A56113FF16BD2C541BDBBBE19
:104F4000D0A4BE726937663E000000000000000079
:104F5000704F0008000000204000000028010008F9
:104F6000B04F00084000002060020000440100082B
:104F70000000000000000000000000000000000031
:104F80000000000000000000000000000000000021
:104F9000000000000000000000F8E0071F00E0FF34
:104FA0000000FF071FF8FFFF0000000000000000E6
:04000005080000ED02
:00000001FF
