:030000000205F8FE
:0C05F800787FE4F6D8FD75817402063FA0
:0B0C6300EF1FAC0670011E4C70F62263
:100C1400EF1FAA0670011E4A600A7D82AC051DEC16
:040C240060EE80F806
:010C280022A9
:100BB5008F828E83E5821582AE83700215834E6027
:0B0BC500097FE87E03120C1480EA2276
:03001600020C14C5
:100BD000E4FEFDEE25E0FEEF54012EFEEFC313FF11
:060BE0000DBD08EFAF0699
:010BE60022EC
:1004AA008C548D558B518A528953E55525E0FFE5C9
:1004BA005433FEE92FF9EA3EFAC003C002C0011222
:1004CA000108FDACF0C005C004E55725E0FFE5567C
:1004DA0033FEE5532FF9E5523EFAC003C002C001CC
:1004EA00120108FDACF0C005C004E55525E0FFE5A2
:1004FA005433FEE5532FF9E5523EFAC002C0011209
:10050A000108FDACF0E55725E0FFE55633AA52A9EC
:10051A00538F82F583120133FFEC65F0FEED6FFF16
:10052A00D001D002EE8FF012016BD0E06EFED0E067
:10053A006FFFD001D002D003EE8FF012016BD0E032
:10054A006EFED0E06FFFD001D002D003EE8FF00232
:02055A00016B33
:100C2900D3EF9DEC6480F8EE6480984006AE04AF83
:040C39000580002210
:100C3D00D3EF9DEC6480F8EE64809840028004AEA2
:040C4D0004AF0522C9
:1003DE008B388A39893A8C3B8D3CD3E53C9401E5C8
:0A03EE003B6480948050030204A9D0
:1003F800E4F53DF53EF53F754001C3E540953CE524
:100408003B6480F8E53F6480985042E54025E0FF72
:10041800E53F33AB38AA39A93A8F82F58312013305
:10042800FFAEF0120108FDC3EF9DEE95F0501405E4
:100438003EE53E7002053DFDAC3D853F5685405783
:100448001204AA0540E54070B1053F80ADE53E4580
:100458003D6012AB38AA39A93A853D56853E57E426
:10046800FDFC1204AAAB38AA39A93AAD3EAC3D123C
:1004780003DEE53E25E0FFE53D33FEAB38E53A2FE8
:10048800F9E5393EFAE92402F9E43AFAC3E53C957C
:100498003ECFE53B953DCF24FFFDEF34FFFC120333
:0104A800DE75
:0104A9002230
:1009A6008B418A428943E5481548AE477002154790
:1009B6004E602EAB41E543F92402F543E542FA3495
:1009C60000F542120108FFAEF0AB44E546F92402F9
:1009D600F546E545FA3400F545EE8FF012016B80D9
:0209E600C52228
:100919008F4C8E4B8D4A8C49AF50AE4FAD4EAC4D7E
:10092900AB4CAA4BA94AA849D31202064015E54C7B
:100939009550FFE54B954FFEE54A954EFDE54995E6
:100949004DFC22C3E550954CFFE54F954BFEE54E16
:09095900954AFDE54D9549FC228B
:100B39008F618E608D5F8C5EE4FFFEFDFCAB61AA68
:100B490060A95FA85ED312020640037F0122AC5E52
:0A0B5900EC3350037FFF227F0022DF
:080AD0008B588A59895A8D5B8D
:100AD800E4F55DF55CE55CC3955B501DAB58AA5920
:100AE800A95A75F004E55CA4F58285F08312021C0E
:0F0AF800EF255DF55D055C80DCAF5DE4FCFDFE88
:010B070022CB
:060280008B268A27892865
:10028600C003C002C001AB2BAA2CA92D12001EFF71
:100296002402540375F002A4F58285F083D001D0C0
:1002A60002D003120133F52F85F02EAB26AA27A91B
:1002B60028EF2403540375F002A4F58285F0831217
:1002C6000133F53185F030C003C002C001AB2BAA63
:1002D6002CA92D12001E75F002A4F58285F083D09C
:1002E60001D002D003120133F53385F0328C348D00
:1002F600352424FFE53234FAAB07FAE53324DCFF74
:10030600E53234058F82F583C3E5339531FDE53259
:100316009530FCC3E531952FFFE530952EFE120092
:100326006BD3EF9400EE64809480403EE53325E085
:10033600FFE53233FEC3EF9531F537EE9530F536EE
:10034600AF03AE02E53724D4FDE53634FEFC120CCD
:100356003DAA06AB07AF82AE83E537242CFDE53612
:100366003401FC120C298E838F82D3E5359582E504
:10037600836480F8E53464809840068583348582FA
:1003860035C3E5359BEA6480F8E53464809850040B
:100396008A348B35AB2BAA2CA92D74011200371287
:1003A600001E5403120059AB26AA27A928C003C071
:1003B60002C001AB2BAA2CA92D12001E75F002A4B7
:1003C600F58285F083D001D002D003E5348535F07F
:0703D60012018AAE34AF35BD
:0103DD0022FD
:100B08000116000120000110000117000121000159
:100B18001100020AFFFF020CFFFF020803E8010FA1
:100B280000022200000224FC1802180000010E0135
:100BFE00D2AFD2ABC28ED2A9758999C28CC2AAC20B
:060C0E00A8D28AD2882260
:03001B00020C8F45
:080C8F00751700C28EC2AA32E3
:03000B00020C974D
:080C9700751600C28CC2A832E0
:05000600C282C280224D
:100B6300E516600F0520E520C3940A401BE4F52039
:100B7300F51622751601E4F58CF58AD28CD280FF26
:080B83000FBF05FCC280D2A8DF
:010B8B002247
:100B8C00E517600F0521E521C3940A401BE4F5210C
:100B9C00F51722751701E4F58DF58BD28ED282FFF5
:080BAC000FBF05FCC282D2AAB2
:010BB400221E
:100A5E00E5107034E5166030751001AF8CEFFEAD09
:100A6E008AEDFFC3EF940AEE94005004E4F51022D1
:100A7E00C28CC2A87C007D1112006B7D6412007DB9
:080A8E00120CA6E4F510F516A8
:010A9600223D
:100A9700E5117034E5176030751101AF8DEFFEADCC
:100AA7008BEDFFC3EF940AEE94005004E4F5112296
:100AB700C28EC2AA7C007D1112006B7D6412007D7C
:080AC700120C9FE4F511F51774
:010ACF002204
:0100120022CB
:030003000209E807
:1009E800C0E0C0F0C083C082C0D075D000C000C0D5
:1009F80001C002C003C004C005C006C007120A5ED9
:100A0800D007D006D005D004D003D002D001D00042
:0B0A1800D0D0D082D083D0F0D0E032EC
:03001300020A23BB
:100A2300C0E0C0F0C083C082C0D075D000C000C099
:100A330001C002C003C004C005C006C007120A9764
:100A4300D007D006D005D004D003D002D001D00007
:0B0A5300D0D0D082D083D0F0D0E032B1
:070C9F008E0A8F0B02000E0C
:070CA6008E0C8F0D02000E01
:10096200E4F565F564F563F5621208CCEE3395E0C3
:100972008F658E64F563F562AB65AA64F9A862C0FF
:1009820000C001C002C0031208CCEE3395E0FDFCAA
:10099200D003D002D001D0001201B78F658E648DD2
:0309A200638C6201
:0109A500222F
:100684008E668F678C688D691208CC7C007D02129F
:1006940000D2ED4C703A1208CC7C037DE81200D2F3
:1006A400C3ED9567EC95665006D291C2908004C262
:1006B40091C2901208CC7C037DE81200D2C3ED9560
:1006C40069EC95685005D293C29222C293C29222D9
:1006D4001208CC7C037DE81200D2C3ED9569EC9539
:1006E400685006D293C2928004C293C2921208CC7C
:1006F4007C037DE81200D2C3ED9567EC9566500546
:0A070400D291C29022C291C290224D
:10070E008E6A8F6B8C6C8D6D1208CC7C007D021204
:10071E0000D2ED4C703A1208CC7C037DE81200D268
:10072E00C3ED956BEC956A5006C291D2908004C2CF
:10073E0091C2901208CC7C037DE81200D2C3ED95D5
:10074E006DEC956C5005C293D29222C293C2922246
:10075E001208CC7C037DE81200D2C3ED956DEC95AA
:10076E006C5006C293D2928004C293C2921208CCED
:10077E007C037DE81200D2C3ED956BEC956A5005B3
:0A078E00C291D29022C291C29022C3
:0B0C6E00AD09AC08AF09AE0802068417
:0B0C79007D647C00AF09AE0802068419
:0B0C8400AD09AC087F647E000206840E
:030CAD00020C84B2
:030CB000020C79BA
:04000E00750E012248
:10081A008E738F74C3E57364809480401E1208CC73
:10082A007C037DE81200D2C3ED9574E5736480F809
:10083A00EC648098502ED291C29022C3E49574F54C
:10084A0074E49573F5731208CC7C037DE81200D228
:10085A00C3ED9574E5736480F8EC6480985005C222
:09086A0091D29022C291C29022A9
:100873008E738F74C3E57364809480401E1208CC1A
:100883007C037DE81200D2C3ED9574E5736480F8B0
:10089300EC648098502ED293C29222C3E49574F5EF
:1008A30074E49573F5731208CC7C037DE81200D2CF
:1008B300C3ED9574E5736480F8EC6480985005C2C9
:0908C30093D29222C293C2922248
:10079800E4F518F519751A01751B90C3E50D942C2D
:1007A800E50C94015030C3E50B942CE50A940150F4
:1007B8002574E0251BF51B74FC351AF51AE50B2585
:1007C80019F519E50A3518F518C3E519950DF51940
:1007D800E518950CF518C3E50D94C8E50C94005080
:1007E80030C3E50B94C8E50A940050257418251BFE
:1007F800F51B74FC351AF51AE50B2519F519E50AE8
:100808003518F518C3E519950DF519E518950CF582
:020818001822A4
:10055C00E50E70030205EA120798E5192523F52329
:10056C00E5183522F522E51B2525F525E51A352458
:10057C00F524D3E52394E8E5226480948340087540
:10058C0022037523E88013C3E5239418E5226480C5
:10059C00947C50067522FC752318D3E52594E8E568
:1005AC00246480948340087524037525E88013C364
:1005BC00E5259418E5246480947C50067524FC751C
:1005CC002518E5252523F51DE5243522F51CC3E565
:1005DC00259523F51FE5249522F51EE4F50EAF1D98
:0C05EC00AE1C12081AAF1FAE1E020873EE
:100BE7000572E57275F00584E5F07006120B631265
:070BF7000B8C12055C80E984
:100C5100120BFE1200127FE87E03120C14120BE736
:020C610080FE13
:10060400020C51E493A3F8E493A34003F68001F2AF
:1006140008DFF48029E493A3F85407240CC8C333F7
:10062400C4540F4420C8834004F456800146F6DFC6
:10063400E4800B0102040810204080900B08E47E43
:10064400019360BCA3FF543F30E509541FFEE493BB
:10065400A360010ECF54C025E060A840B8E493A382
:10066400FAE493A3F8E493A3C8C582C8CAC583CAAD
:10067400F0A3C8C582C8CAC583CADFE9DEE780BE65
:010B380000BC
:10001E00BB010689828A83E0225002E722BBFE02E0
:09002E00E32289828A83E4932213
:10003700BB010989828A83F8E028F022500327F759
:1000470022BBFE05F8E328F3228A838982F8E4932A
:0200570028225D
:10005900BB010689828A83F0225002F722BBFE0186
:02006900F32280
:10006B00EF8DF0A4A8F0CF8CF0A428CE8DF0A42EA9
:02007B00FE2263
:10007D00BC000BBE0029EF8DF084FFADF022E4CC67
:10008D00F875F008EF2FFFEE33FEEC33FCEE9DEC30
:10009D00984005FCEE9DFE0FD5F0E9E4CEFD22ED76
:1000AD00F8F5F0EE8420D21CFEADF075F008EF2FC0
:1000BD00FFED33FD4007985006D5F0F222C398FDB1
:0500CD000FD5F0EA224E
:1000D200C2D5EC30E709B2D5E4C39DFDE49CFCEE49
:1000E20030E715B2D5E4C39FFFE49EFE12007DC344
:1000F200E49DFDE49CFC800312007D30D507C3E43F
:060102009FFFE49EFE22B7
:10010800BB010A89828A83E0F5F0A3E022500687C2
:10011800F009E71922BBFE07E3F5F009E319228984
:0B012800828A83E493F5F074019322B7
:10013300BB0110E58229F582E5833AF583E0F5F00A
:10014300A3E0225009E92582F886F008E622BBFEE7
:100153000AE92582F8E2F5F008E222E5832AF5832D
:08016300E993F5F0A3E99322F2
:10016B00BB010A89828A83F0E5F0A3F0225006F7DF
:0F017B0009A7F01922BBFE06F3E5F009F31922DC
:10018A00F8BB0111E58229F582E5833AF583E8F0A7
:10019A00E5F0A3F0225009E92582C8F608A6F02264
:0D01AA00BBFE09E92582C8F2E5F008F2224B
:1001B700E88FF0A4CC8BF0A42CFCE98EF0A42CFCE7
:1001C7008AF0EDA42CFCEA8EF0A4CDA8F08BF0A465
:1001D7002DCC3825F0FDE98FF0A42CCD35F0FCEBC4
:1001E7008EF0A4FEA9F0EB8FF0A4CFC5F02ECD3989
:0F01F700FEE43CFCEAA42DCE35F0FDE43CFC22F6
:10020600EB9FF5F0EA9E42F0E99D42F0EC6480C86F
:0602160064809845F0220F
:10021C00BB010DE58229F582E5833AF5830202588C
:10022C005007E92582F802024CBBFE07E92582F84B
:10023C00020264E58229F582E5833AF583020270B5
:1008CC00AC6EAD6FAE70AF717810EC4D4E4F7004D6
:1008DC007CA57DA5C3EC13FCED13FDEE13FEEF130D
:1008EC00FF5010EC64CCFCED644CFDEE644EFEEF5E
:1008FC0064CEFFD8DF8C6E8D6F8E708F71EE547F4F
:0D090C00FE228E6E8F6F74A5F570F57122BE
:0C024C00E6FC08E6FD08E6FE08E6FF22DE
:0C025800E0FCA3E0FDA3E0FEA3E0FF2219
:0C026400E2FC08E2FD08E2FE08E2FF22D6
:10027000E493FC740193FD740293FE740393FF22D4
:00000001FF
