:030000000200D12A
:0C00D100787FE4F6D8FD75810A0200E695
:10000300EF1FAA0670011E4A600A7D82AC051DEC33
:0400130060EE80F823
:0100170022C6
:0600DD0089A07FF47E0102
:0300E30002000315
:1000A6008F828E83E5821582AE83700215834E6041
:0B00B600097FE87E0312000380EA22AD
:030018008FA02294
:03001B0002004B95
:04004B00C0E0C0D081
:10004F00758D3C758BB0D28E050AE50AB40A09632B
:08005F0009FF6308FF750A00A8
:05006700D0D0D0E03212
:10006C00758910D2AFD2AB758D3C758BB0D28EE446
:0E007C00F508F509E508450924FF92A080F675
:10001E0079FEE4FB1200DDE925E0F9430101E96414
:10002E007F60040BBB08EDE4FBEBC3940850E112B8
:0D003E0000DDE9A2E713F94301800B80EC1F
:10008A007B03AF031200187F017E001200A67801DD
:0C009A00AF03EF08800103D8FDFB80E6F7
:1000C10012001E12006C12008A12008AE4FEFF2246
:0400E6001200C12221
:0400EA00E4FEFF220F
:00000001FF
