:020000040800F2
:1000000088020020C11F0008C51F0008C71F000884
:10001000C91F0008CB1F0008CD1F0008000000000A
:10002000000000000000000000000000CF1F0008DA
:10003000D11F000800000000D31F0008D51F0008D2
:10004000D71F0008D71F0008D71F0008D71F0008B8
:10005000D71F0008D71F0008D71F0008D71F0008A8
:10006000D71F0008D71F0008D71F0008D71F000898
:10007000D71F0008D71F0008D71F0008D71F000888
:10008000D71F0008D71F0008D71F0008D71F000878
:10009000D71F0008D71F0008D71F0008D71F000868
:1000A000D71F0008D71F0008D71F0008D71F000858
:1000B000D71F0008D71F0008D71F0008D71F000848
:1000C000D71F0008D71F0008D71F0008D71F000838
:1000D000D71F0008D71F0008D71F0008D71F000828
:1000E000D71F0008D71F0008D71F000800F002F82C
:1000F00000F03CF80AA090E8000C82448344AAF186
:100100000107DA4501D100F031F8AFF2090EBAE883
:100110000F0013F0010F18BFFB1A43F0010318473B
:100120006456000084560000103A24BF78C878C195
:10013000FAD8520724BF30C830C144BF04680C60ED
:10014000704700000023002400250026103A28BF35
:1001500078C1FBD8520728BF30C148BF0B60704739
:100160001FB5AFF300801FBD10B510BD02F0C1FA7E
:100170001146FFF7F5FF01F0D2FB02F0DFFAFFF7BF
:10018000F3FF02F0E5FA00002DE9F04F95B00446C8
:100190000D4616461F46301B03F014F91290781BCB
:1001A00003F010F91390DDE9121002F0EDFF804624
:1001B000B4427DDA4FF07E51404603F01DF977D806
:1001C000FF49404603F06EF9F9D8284603F0FAF8E3
:1001D0001090204603F0F6F81190B0E24FF07E51F7
:1001E000109802F045FF834602F01AFFCDE90E0198
:1001F000F4A00CC80E9802F011FCCDE90C01F3A09C
:100200000CC80C9802F072FDCDE90A0102F01EFD47
:100210000390109802F004FFCDE90801E9A00CC892
:10022000089802F0FBFBCDE90601E8A00CC806988F
:1002300002F05CFDCDE9040102F008FD4FF07E51B3
:100240000290119802F014FF4FF07E51019003F0DC
:100250005FF9834603F08AF881464FF07E5111988A
:1002600003F056F9834603F081F882464946DDE9FA
:10027000022301F052FF4FF6FF7001F003FF4FF031
:100280007E51109802F0F4FE834602F0C9FECDE9DB
:100290000E01CCA00CC80E9802F0C0FBCDE90C01F9
:1002A000CAA00CC80C9802F021FDCDE90A0100E0BB
:1002B0004EE202F0CBFC0390109802F0B1FECDE9C3
:1002C0000801C0A00CC8089802F0A8FBCDE90601FF
:1002D000BEA00CC8069802F009FDCDE9040102F0A9
:1002E000B5FC4FF07E510290119802F0C1FE83469A
:1002F00003F03CF88146119803F038F882464946ED
:10030000DDE9022301F009FF4FF6FF7001F0BAFEAC
:100310004FF07E51109802F0ABFE834602F080FE53
:10032000CDE90E01A7A00CC80E9802F077FBCDE92D
:100330000C01A6A00CC80C9802F0D8FCCDE90A016B
:1003400002F084FC0390109802F06AFECDE90801E7
:100350009CA00CC8089802F061FBCDE906019BA0A7
:100360000CC8069802F0C2FCCDE9040102F06EFC54
:100370004FF07E510290119802F07AFE4FF07E51BC
:10038000019002F075FE834602F0F0FF81464FF0C7
:100390007E51119802F06CFE834602F0E7FF824620
:1003A0004946DDE9022301F0B8FE4FF6FF7001F087
:1003B00069FE4FF07E51109802F05AFE834602F01B
:1003C0002FFECDE90E017FA00CC80E9802F026FB8F
:1003D000CDE90C0102F03AFC0790109802F020FEE3
:1003E000CDE90A0177A00CC80A9802F017FBCDE905
:1003F000080102F02BFC4FF07E510690119802F09C
:1004000037FE4FF07E51059003F082F8834602F0EC
:10041000ADFF81464FF07E51119803F079F8834685
:1004200002F0A4FF82464946DDE9062301F075FE8D
:100430004FF6FF7001F026FE4FF07E51109802F04B
:1004400017FE834602F0ECFDCDE90E015DA00CC85D
:100450000E9802F0E3FACDE90C0102F0F7FB0790E9
:10046000109802F0DDFDCDE90A0156A00CC80A98EB
:1004700002F0D4FACDE9080102F0E8FB4FF07E511A
:100480000690119802F0F4FD834602F06FFF81465A
:10049000119802F06BFF82464946DDE9062301F020
:1004A0003CFE4FF6FF7001F0EDFD4FF07E511098CD
:1004B00002F0DEFD834602F0B3FDCDE90E0141A05E
:1004C0000CC80E9802F0AAFACDE90C0102F0BEFBAE
:1004D0000790109802F0A4FDCDE90A0139A00CC8DC
:1004E0000A9802F09BFACDE9080102F0AFFB4FF049
:1004F0007E510690119802F0BBFD4FF07E510590A1
:1005000002F0B6FD834602F031FF81464FF07E5186
:10051000119802F0ADFD834602F028FF824649465D
:10052000DDE9062301F0F9FD4FF6FF7001F0AAFDA9
:100530004FF07E51109802F09BFD834602F070FD53
:10054000CDE90E011FA00CC80E9802F067FACDE9A4
:100550000C011EA00CC80C9802F060FACDE90A014B
:1005600002F074FB0390109802F05AFDCDE90801E7
:1005700014A00CC8089802F051FACDE9060113A0A6
:100580000CC8069802F04AFACDE9040102F05EFBBD
:100590004FF07E510290119802F06AFD4FF07E51AB
:1005A000019002F0B5FF834602F0E0FE81464FF075
:1005B0007E51119802F0ACFF834602F0D7FE09E0AD
:1005C000000080BF000000000000E03F00000000CD
:1005D0000000F03F82464946DDE9022301F09DFD1F
:1005E0004FF6FF7001F04EFD4FF07E51109802F073
:1005F0003FFD834602F014FDCDE90E01AFF23C0051
:100600000CC80E9802F00AFACDE90C01AFF24400D2
:100610000CC80C9802F002FACDE90A0102F016FBB0
:100620000390109802F0FCFCCDE90801AFF26C00D9
:100630000CC8089802F0F2F9CDE90601AFF2740097
:100640000CC8069802F0EAF9CDE9040102F0FEFABE
:100650004FF07E510290119802F00AFD834602F09D
:1006600085FE8146119802F081FE82464946DDE909
:10067000022301F052FD4FF6FF7001F003FD4FF031
:100680007E51109802F0F4FC834602F0C9FCCDE9DB
:100690000E01AFF2D0000CC80E9802F0BFF9CDE900
:1006A0000C01AFF2D8000CC80C9802F0B7F9CDE9F4
:1006B0000A0102F0CBFA0390109802F0B1FCCDE9E8
:1006C0000801AFF200100CC8089802F0A7F9CDE9B4
:1006D0000601AFF208100CC8069802F09FF9CDE9A8
:1006E000040102F0B3FA4FF07E510290119802F02B
:1006F000BFFC4FF07E51019002F0BAFC834602F03D
:1007000035FE81464FF07E51119802F0B1FC8346D0
:1007100002F02CFE82464946DDE9022301F0FDFC91
:100720004FF6FF7001F0AEFC4146109802F0A0FCBD
:1007300010904FF07E51119802F09AFC11903046C3
:1007400002F040FE8146119902F0ACFE7FF646AD04
:10075000B4427EDD4FF07E51404602F04DFE78D827
:10076000FF49404602F09EFEF9D8284602F02AFED4
:100770001090204602F026FE1190BFE24FF07E510D
:10078000109802F075FC834602F04AFCCDE90E0198
:10079000AFF2D0100CC80E9802F040F9CDE90C0170
:1007A000AFF2D8100CC80C9802F0A0FACDE90A01FB
:1007B00002F04CFA0390109802F032FCCDE90801E7
:1007C000AFF200200CC8089802F028F9CDE9060124
:1007D000AFF208200CC8069802F088FACDE90401AF
:1007E00002F034FA4FF07E510290119802F040FC72
:1007F0004FF07E51019002F08BFE834602F0B6FD71
:1008000081464FF07E51119802F082FE834602F03D
:10081000ADFD82464946DDE9022301F07EFC4FF63C
:10082000FF7001F02FFC4FF07E51109802F020FC79
:10083000834602F0F5FBCDE90E01AFF278200CC83B
:100840000E9802F0EBF8CDE90C01AFF280200CC855
:1008500000E05CE20C9802F049FACDE90A0102F0EE
:10086000F5F98246109802F0DBFBCDE90801AFF202
:10087000AC200CC8089802F0D1F8CDE90601AFF21F
:10088000B4200CC8069802F031FACDE9040102F058
:10089000DDF94FF07E510390119802F0E9FB834699
:1008A00002F064FD8146119802F060FD534602900B
:1008B0004946039A01F031FC4FF6FF7001F0E2FB6C
:1008C0004FF07E51109802F0D3FB834602F0A8FB54
:1008D000CDE90E01AFF214300CC80E9802F09EF86C
:1008E000CDE90C01AFF21C300CC80C9802F0FEF9F7
:1008F000CDE90A0102F0AAF90390109802F090FBEA
:10090000CDE90801AFF244300CC8089802F086F82F
:10091000CDE90601AFF24C300CC8069802F0E6F9BA
:10092000CDE9040102F092F94FF07E510290119846
:1009300002F09EFB4FF07E51019002F099FB83463E
:1009400002F014FD81464FF07E51119802F090FBA9
:10095000834602F00BFD82464946DDE9022301F0A1
:10096000DCFB4FF6FF7001F08DFB4FF07E511098CD
:1009700002F07EFB834602F053FBCDE90E01AFF29D
:10098000BC300CC80E9802F049F8CDE90C0102F019
:100990005DF90790109802F043FBCDE90A01AFF230
:1009A000DC300CC80A9802F039F8CDE9080102F0F1
:1009B0004DF94FF07E510690119802F059FB4FF01F
:1009C0007E51059002F0A4FD834602F0CFFC8146E3
:1009D0004FF07E51119802F09BFD834602F0C6FC59
:1009E00082464946DDE9062301F097FB4FF6FF708A
:1009F00001F048FB4FF07E51109802F039FB83461E
:100A000002F00EFBCDE90E01AFF248400CC80E9883
:100A100002F004F8CDE90C0102F018F982461098B2
:100A200002F0FEFACDE90A01AFF268400CC80A985C
:100A300001F0F4FFCDE9080102F008F94FF07E5112
:100A40000790119802F014FB834602F08FFC814658
:100A5000119802F08BFC534606904946079A01F024
:100A60005CFB4FF6FF7001F00DFB4FF07E511098CC
:100A700002F0FEFA834602F0D3FACDE90E01AFF29E
:100A8000BC400CC80E9801F0C9FFCDE90C0102F082
:100A9000DDF80790109802F0C3FACDE90A01AFF231
:100AA000DC400CC80A9801F0B9FFCDE9080102F05A
:100AB000CDF84FF07E510690119802F0D9FA4FF020
:100AC0007E51059002F0D4FA834602F04FFC814635
:100AD0004FF07E51119802F0CBFA834602F046FCAB
:100AE00082464946DDE9062301F017FB4FF6FF7009
:100AF00001F0C8FA4FF07E51109802F0B9FA83461F
:100B000002F08EFACDE90E01AFF248500CC80E98F3
:100B100001F084FFCDE90C01AFF250500CC80C98E5
:100B200001F07CFFCDE90A0102F090F803901098E3
:100B300002F076FACDE90801AFF278500CC80898B7
:100B400001F06CFFCDE90601AFF280500CC80698A9
:100B500001F064FFCDE9040102F078F802E0000042
:100B6000000080BF4FF07E510290119802F080FA91
:100B70004FF07E51019002F0CBFC834602F0F6FB71
:100B800081464FF07E51119802F0C2FC834602F07C
:100B9000EDFB82464946DDE9022301F0BEFA4FF63D
:100BA000FF7001F06FFA4FF07E51109802F060FA7A
:100BB000834602F035FACDE90E01AFF2F8500CC8C9
:100BC0000E9801F02BFFCDE90C01AFF200600CC8CC
:100BD0000C9801F023FFCDE90A0102F037F88246B4
:100BE000109802F01DFACDE90801AFF228600CC898
:100BF000089801F013FFCDE90601AFF230600CC890
:100C0000069801F00BFFCDE9040102F01FF84FF048
:100C10007E510390119802F02BFA834602F0A6FB56
:100C20008146119802F0A2FB534602904946039A6E
:100C300001F073FA4FF6FF7001F024FA4FF07E5185
:100C4000109802F015FA834602F0EAF9CDE90E0198
:100C5000AFF290600CC80E9801F0E0FECDE90C01F7
:100C6000AFF298600CC80C9801F0D8FECDE90A01EB
:100C700001F0ECFF0390109802F0D2F9CDE90801E1
:100C8000AFF2C0600CC8089801F0C8FECDE90601BB
:100C9000AFF2C8600CC8069801F0C0FECDE90401AF
:100CA00001F0D4FF4FF07E510290119802F0E0F96C
:100CB0004FF07E51019002F0DBF9834602F056FBC3
:100CC00081464FF07E51119802F0D2F9834602F02E
:100CD0004DFB82464946DDE9022301F01EFA4FF63C
:100CE000FF7001F0CFF94146109802F011FC10900E
:100CF0004FF07E51119802F00BFC1190304602F03B
:100D000061FB8146119902F077FB7FF637ADBD425A
:100D10007DDA4FF07E51404602F0C4FB04D9FF4912
:100D2000404602F069FB72D841464FF07E5002F017
:100D30002BFA8046204602F045FB1190284602F02F
:100D400041FB1090BEE24FF07E51109802F090F9F6
:100D5000834602F065F9CDE90E01AFF298700CC838
:100D60000E9801F05BFECDE90C01AFF2A0700CC84B
:100D70000C9801F0BBFFCDE90A0101F067FF039079
:100D8000109802F04DF9CDE90801AFF2C8700CC817
:100D9000089801F043FECDE90601AFF2D0700CC80F
:100DA000069801F0A3FFCDE9040101F04FFF4FF0D9
:100DB0007E510290119802F05BF94FF07E51019044
:100DC00002F0A6FB834602F0D1FA81464FF07E5135
:100DD000119802F09DFB834602F0C8FA824649460C
:100DE000DDE9022301F099F94FF6FF7001F04AF9AD
:100DF0004FF07E51109802F03BF9834602F010F953
:100E0000CDE90E01AFF644000CC80E9800E062E296
:100E100001F004FECDE90C01AFF650000CC80C98AF
:100E200001F064FFCDE90A0101F010FF824610983D
:100E300002F0F6F8CDE90801AFF678000CC8089882
:100E400001F0ECFDCDE90601AFF680000CC8069874
:100E500001F04CFFCDE9040101F0F8FE4FF07E51A6
:100E60000390119802F004F9834602F07FFA81465C
:100E7000119802F07BFA534602904946039A01F01A
:100E80004CF94FF6FF7001F0FDF84FF07E511098CD
:100E900002F0EEF8834602F0C3F8CDE90E01AFF69A
:100EA000DC000CC80E9801F0B9FDCDE90C01AFF6DD
:100EB000E4000CC80C9801F019FFCDE90A0101F01B
:100EC000C5FE0390109802F0ABF8CDE90801AFF62B
:100ED0000C100CC8089801F0A1FDCDE90601AFF691
:100EE00014100CC8069801F001FFCDE9040101F0CF
:100EF000ADFE4FF07E510290119802F0B9F84FF01C
:100F00007E51019002F0B4F8834602F02FFA814638
:100F10004FF07E51119802F0ABF8834602F026FAAA
:100F200082464946DDE9022301F0F7F84FF6FF70EB
:100F300001F0A8F84FF07E51109802F099F883461E
:100F400002F06EF8CDE90E01AFF688100CC80E98CD
:100F500001F064FDCDE90C0101F078FE07901098D6
:100F600002F05EF8CDE90A01AFF6A8100CC80A98A5
:100F700001F054FDCDE9080101F068FE4FF07E510B
:100F80000690119802F074F84FF07E51059002F02F
:100F9000BFFA834602F0EAF981464FF07E5111987C
:100FA00002F0B6FA834602F0E1F982464946DDE9ED
:100FB000062301F0B2F84FF6FF7001F063F84FF02E
:100FC0007E51109802F054F8069002F029F8CDE90D
:100FD0000E01AFF610200CC80E9801F01FFDCDE9F0
:100FE0000C0101F033FE8246109802F019F8CDE9A9
:100FF0000A01AFF630200CC80A9801F00FFDCDE9C8
:10100000080101F023FE83464FF07E51119802F053
:101010002FF8069002F0AAF98146119802F0A6F97D
:1010200053465A464946079001F077F84FF6FF704D
:1010300001F028F84FF07E51109802F019F883461D
:1010400001F0EEFFCDE90E01AFF688200CC80E9836
:1010500001F0E4FCCDE90C0101F0F8FD07901098D7
:1010600001F0DEFFCDE90A01AFF6A8200CC80A980E
:1010700001F0D4FCCDE9080101F0E8FD4FF07E510C
:101080000690119801F0F4FF4FF07E51059001F0A9
:10109000EFFF834602F06AF981464FF07E511198C6
:1010A00001F0E6FF834602F061F982464946DDE938
:1010B000062301F032F84FF6FF7000F0E3FF4FF027
:1010C0007E51109801F0D4FF834601F0A9FFCDE9CD
:1010D0000E01AFF610300CC80E9801F09FFCCDE960
:1010E0000C01AFF618300CC80C9801F097FCCDE954
:1010F0000A0101F0ABFD0390109801F091FFCDE9DA
:101100000801AFF640300CC8089801F087FCCDE923
:101110000601AFF648300CC8069801E0000080BF19
:1011200001F07CFCCDE9040101F090FD4FF07E510F
:101130000290119801F09CFF4FF07E51019002F057
:10114000E7F9834602F012F981464FF07E5111987B
:1011500002F0DEF9834602F009F982464946DDE9EC
:10116000022300F0DAFF4FF6FF7000F08BFF4FF024
:101170007E51109801F07CFF834601F051FFCDE9CC
:101180000E01AFF6C0300CC80E9801F047FCCDE957
:101190000C01AFF6C8300CC80C9801F03FFCCDE94B
:1011A0000A0101F053FD8246109801F039FFCDE9A4
:1011B0000801AFF6F0300CC8089801F02FFCCDE91B
:1011C0000601AFF6F8300CC8069801F027FCCDE90F
:1011D000040101F03BFD4FF07E510390119801F0A6
:1011E00047FF834602F0C2F88146119802F0BEF82C
:1011F000534602904946039A00F08FFF4FF6FF7066
:1012000000F040FF4FF07E51109801F031FF83460F
:1012100001F006FFCDE90E01AFF658400CC80E985C
:1012200001F0FCFBCDE90C01AFF660400CC80C9856
:1012300001F0F4FBCDE90A0101F008FD03901098DC
:1012400001F0EEFECDE90801AFF688400CC8089821
:1012500001F0E4FBCDE90601AFF690400CC806981A
:1012600001F0DCFBCDE9040101F0F0FC4FF07E5110
:101270000290119801F0FCFE4FF07E51019001F0B8
:10128000F7FE834602F072F881464FF07E511198C6
:1012900001F0EEFE834602F069F882464946DDE938
:1012A000022300F03AFF4FF6FF7000F0EBFE4146DC
:1012B000119801F0DDFE11904FF07E51109801F071
:1012C000D7FE1090384602F07DF88146109902F062
:1012D000E9F87FF638ADBD427DDDFF49404602F0BA
:1012E0008BF805D94FF07E51404602F0DBF872D8FA
:1012F00041464FF07E5001F047FF8046204602F005
:1013000061F81190284602F05DF81090B8E24FF0B5
:101310007E51109801F0ACFE834601F081FECDE9CC
:101320000E01AFF660500CC80E9801F077FBCDE9C6
:101330000C01AFF668500CC80C9801F0D7FCCDE951
:101340000A0101F083FC0390109801F069FECDE9D9
:101350000801AFF690500CC8089801F05FFBCDE98A
:101360000601AFF698500CC8069801F0BFFCCDE915
:10137000040101F06BFC4FF07E510290119801F0D6
:1013800077FE4FF07E51019002F0C2F8834601F0E3
:10139000EDFF81464FF07E51119802F0B9F8834677
:1013A00001F0E4FF82464946DDE9022300F0B5FE84
:1013B0004FF6FF7000F066FE4FF07E51109801F07E
:1013C00057FE834601F02CFECDE90E01AFF60C600E
:1013D0000CC80E9800E05CE201F020FBCDE90C01A6
:1013E000AFF618600CC80C9801F080FCCDE90A013A
:1013F00001F02CFC8246109801F012FECDE90801A4
:10140000AFF640600CC8089801F008FBCDE9060172
:10141000AFF648600CC8069801F068FCCDE90401FD
:1014200001F014FC4FF07E510390119801F020FE62
:10143000834601F09BFF8146119801F097FF5346C8
:1014400002904946039A00F068FE4FF6FF7000F0E4
:1014500019FE4FF07E51109801F00AFE834601F00C
:10146000DFFDCDE90E01AFF6A4600CC80E9801F0C7
:10147000D5FACDE90C01AFF6AC600CC80C9801F0C0
:1014800035FCCDE90A0101F0E1FB0390109801F071
:10149000C7FDCDE90801AFF6D4600CC8089801F08B
:1014A000BDFACDE90601AFF6DC600CC8069801F084
:1014B0001DFCCDE9040101F0C9FB4FF07E51029003
:1014C000119801F0D5FD4FF07E51019001F0D0FD53
:1014D000834601F04BFF81464FF07E51119801F099
:1014E000C7FD834601F042FF82464946DDE90223FB
:1014F00000F013FE4FF6FF7000F0C4FD4FF07E5178
:10150000109801F0B5FD834601F08AFDCDE90E018A
:10151000AFF650700CC80E9801F080FACDE90C01BE
:1015200001F094FB0790109801F07AFDCDE90A01D3
:10153000AFF670700CC80A9801F070FACDE9080196
:1015400001F084FB4FF07E510690119801F090FD60
:101550004FF07E51059001F0DBFF834601F006FF5E
:1015600081464FF07E51119801F0D2FF834601F081
:10157000FDFE82464946DDE9062300F0CEFD4FF62A
:10158000FF7000F07FFD4FF07E51109801F070FD6C
:10159000069001F045FDCDE90E01AFF6D8700CC8FC
:1015A0000E9801F03BFACDE90C0101F04FFB8246A9
:1015B000109801F035FDCDE90A01AFF6F8700CC8BE
:1015C0000A9801F02BFACDE9080101F03FFB4FF03A
:1015D0007E510790119801F04BFD069001F0C6FE78
:1015E0008146119801F0C2FE834653464946079A48
:1015F00000F093FD4FF6FF7000F044FD4FF07E5178
:10160000109801F035FD834601F00AFDCDE90E0189
:1016100032480CC80E9801F001FACDE90C0101F036
:1016200015FB0790109801F0FBFCCDE90A012B484F
:101630000CC80A9801F0F2F9CDE9080101F006FBA7
:101640004FF07E510690119801F012FD4FF07E513F
:10165000059001F00DFD834601F088FE81464FF0B4
:101660007E51119801F004FD834601F07FFE824611
:101670004946DDE9062300F050FD4FF6FF7000F00B
:1016800001FD4FF07E51109801F0F2FC834601F00D
:10169000C7FCCDE90E0111480CC80E9801F0BEF947
:1016A000CDE90C010D4808300CC80C9801F0B6F9D2
:1016B000CDE90A0101F0CAFA0390109801F0B0FCDC
:1016C000CDE9080105480CC8089801F0A7F9CDE953
:1016D00006010248083003E0000080BFC40500088E
:1016E0000CC8069801F09AF9CDE9040101F0AEFAB0
:1016F0004FF07E510290119801F0BAFC4FF07E51EC
:10170000019001F005FF834601F030FE81464FF065
:101710007E51119801F0FCFE834601F027FE8246BF
:101720004946DDE9022300F0F8FC4FF6FF7000F0B7
:10173000A9FC4FF07E51109801F09AFC834601F00D
:101740006FFCCDE90E01FF480CC80E9801F066F958
:10175000CDE90C01FB4808300CC80C9801F05EF98B
:10176000CDE90A0101F072FA8246109801F058FCA6
:10177000CDE90801F3480CC8089801F04FF9CDE90C
:101780000601F04808300CC8069801F047F9CDE989
:10179000040101F05BFA4FF07E510390119801F0C3
:1017A00067FC834601F0E2FD8146119801F0DEFD01
:1017B000534602904946039A00F0AFFC4FF6FF7083
:1017C00000F060FC4FF07E51109801F051FC834610
:1017D00001F026FCCDE90E01DA480CC80E9801F0A4
:1017E0001DF9CDE90C01D74808300CC80C9801F060
:1017F00015F9CDE90A0101F029FA0390109801F0DA
:101800000FFCCDE90801CF480CC8089801F006F993
:10181000CDE90601CB4808300CC8069801F0FEF867
:10182000CDE9040101F012FA4FF07E5102901198B7
:1018300001F01EFC4FF07E51019001F019FC83462F
:1018400001F094FD81464FF07E51119801F010FC9B
:10185000834601F08BFD82464946DDE9022300F014
:101860005CFC4FF6FF7000F00DFC4146119801F052
:101870004FFE11904FF07E51109801F049FE1090EC
:10188000384601F09FFD8146109901F0B5FD7FF6C5
:101890003EAD15B0BDE8F08F00E0401E0028FCD141
:1018A000704710B500214FF0006000F0F7FF10BD49
:1018B00010B501F009F84FF4803001F04DF801F057
:1018C00093F8A149087008460078012826D1102015
:1018D00000F04AFF022000F053FF002001F032F830
:1018E000002001F05DF84FF4806001F04FF84FF4F4
:1018F000E0114FF4803001F063F8012001F05AF854
:1019000000BF392000F0FEFF0028FAD0022001F0CD
:1019100061F800BF01F00EF80828FBD110BD2DE9D9
:10192000F04F8FB0002700200E900D900BA80021E3
:101930000A4606C009A806C040F6137A1A20049089
:1019400040F6027B26200390FFF7B2FFFFF7A9FFC6
:1019500001210D2000F0ACFF01217C4800F06CFF5C
:101960004FF6FF707A4908801020C87003208870F5
:10197000784800F011FF7649774800F00DFF80208D
:10198000734908800420C87003208870724800F0F2
:1019900003FF4FF6FF716F4800F07DFF4FF6FF71B8
:1019A0006D4800F078FF00F0EEFB9620FFF774FF23
:1019B000002404E0204600F0A8FD601CC4B2072CFF
:1019C000F8DB022000F0A1FDD02000F039FA9020D1
:1019D00000F036FA012361488288CDE9002343896B
:1019E000022214213C2000F00EFE02235B48828874
:1019F000CDE900234389022214215A2000F003FE7E
:101A0000032356488288CDE900234389022214210A
:101A1000782000F0F8FD042350488288CDE90023A7
:101A2000438902221421962000F0EDFD01214A484D
:101A300000F02FFF3AE10121474800F028FF802104
:101A4000454800F01DFF00287BD107A908A800F039
:101A50006DFA05A9089800F0BAF941A300934FF672
:101A6000F0734FF4784240F22711002000F0B2FDED
:101A700005AB00934FF6F0734FF4784240F2271114
:101A8000202000F0A7FD05A9079800F0A0F935A3D4
:101A900000934FF6F0734FF4784240F2271178200C
:101AA00000F098FD05AB00934FF6F0734FF47842C9
:101AB00040F22711982000F08DFDDDF82090C9EB51
:101AC00009104FEA00190498AAEB0008B9FBF8F5D1
:101AD000FA2D00D9FA25FA2D01D8C5F1FA052248C8
:101AE000B5FBF0F100FB11504FF47A71B0FBF1F04F
:101AF0003030C0B28DF82C0042F21070B5FBF0F11E
:101B000000FB11504FF47A71B0FBF1F03030C0B2ED
:101B10008DF82D000846B5FBF0F100FB1150642153
:101B2000B0FBF1F03030C0B28DF82E006420B5FB70
:101B3000F0F100FB11500A21B0FBF1F03030C0B2DF
:101B400014E0AFE0C40500080400002000043000E9
:101B50000000002000080140000C0140100000209F
:101B6000583A0000593A0000A08601008DF82F0075
:101B70000A20B5FBF0F100FB11503030C0B28DF8F7
:101B800030004BA300934FF6F0734FF478424FF4BC
:101B90008771002000F01EFD0BAB00934FF6F07331
:101BA0004FF478424FF48771202000F013FDDDF8E8
:101BB0001C9040F29D1009FB00F90398ABEB000864
:101BC000B9FBF8F6B6F5CF7F01D340F29D16B6F516
:101BD000CF7F02D240F29D10861B3648B6FBF0F153
:101BE00000FB116042F21071B0FBF1F03030C0B276
:101BF0008DF824000846B6FBF0F100FB11604FF4AD
:101C00007A71B0FBF1F03030C0B28DF82500084693
:101C1000B6FBF0F100FB11606421B0FBF1F0303055
:101C2000C0B28DF826006420B6FBF0F100FB116015
:101C30000A21B0FBF1F03030C0B28DF827000A2045
:101C4000B6FBF0F100FB11603030C0B28DF8280017
:101C500019A300934FF6F0734FF478424FF4877155
:101C6000782000F0B7FC09AB00934FF6F0734FF407
:101C700078424FF48771982000F0ACFC0D9828B1A1
:101C800033462A4638460E99FEF77EFA80210B48E5
:101C900000F0F6FD10B901200D9001E000200D903C
:101CA0002F460E960121054800F0F3FDC3E6000023
:101CB000783A0000A0860100793A0000000C01404B
:101CC00010B54FF48041BC4800F0E1FD6420FFF7FF
:101CD000E3FD4FF48051B84800F0DBFD9620FFF79C
:101CE000DBFD4FF40051B44800F0D3FD6420FFF752
:101CF000D3FD4FF48041B04800F0CBFDC820FFF782
:101D0000CBFD4FF48051AC4800F0C1FD9620FFF7A9
:101D1000C3FD10BD70B5044600254FF48041A648B0
:101D200000F0B5FD00BF21E004FA05F010F0800FCF
:101D300005D04FF40051A04800F0ABFD04E04FF493
:101D400000519D4800F0A3FD4FF480419A4800F0F7
:101D50009EFD9620FFF7A0FD4FF48041964800F0CD
:101D600098FD9620FFF798FD681CC5B2082DDBDBB7
:101D700070BD70B50025002400BF24E064004FF45E
:101D800080418D4800F085FD9620FFF785FD4FF4DA
:101D90008041894800F07BFD9620FFF77DFD4FF4E0
:101DA0000040864908800420C8700320887082485B
:101DB00000F0F2FC4FF400417F4800F061FD00B1FB
:101DC000641C681CC5B20C2DD8DB204670BD42F2E5
:101DD000107290FBF2F230320A704FF47A7290FB7C
:101DE000F2F242F2107390FBF3F303EB8303A2EBE6
:101DF000430230324A70642290FBF2F24FF47A735D
:101E000090FBF3F303EB8303A2EB430230328A70BF
:101E10000A2290FBF2F2642390FBF3F303EB8303BB
:101E2000A2EB43023032CA700A2290FBF2F202EBBC
:101E30008202A0EB420230320A7100224A717047DE
:101E400070B50446FFF73CFF2046FFF763FF4FF4F1
:101E50008041594800F01DFDC820FFF71DFD4FF4DB
:101E60008041554800F013FDC820FFF715FDFFF72E
:101E700080FF05469620FFF70FFD9620FFF70CFD2B
:101E80004FF480514C4800F004FD284670BD2DE908
:101E9000F0418CB004464FF00008002505E02046D4
:101EA000FFF7CEFF4DF825006D1C0C2DF7D3002554
:101EB00013E06E1C0EE05DF825005DF826108842E8
:101EC00007D95DF825705DF826004DF825004DF81E
:101ED0002670761C0C2EEED36D1C0B2DE9D34FF023
:101EE0000008022503E05DF8250080446D1C0A2DE2
:101EF000F9D34FEAD80738460CB0BDE8F0812DE998
:101F0000F04104460D46D020FFF7C1FF0646902061
:101F1000FFF7BDFF0746642E01D3642F02D20020D5
:101F2000BDE8F08126602F600120F9E77FB5044607
:101F30000D4602A903A8FFF7E2FF064616B90020E6
:101F400004B070BD694601A8FFF7D9FF06460EB977
:101F50000020F5E703990198884204D801983230AF
:101F60000399814208D301990398884222D80398A3
:101F70003230019981421DD202990098884204D8DA
:101F8000009832300299814208D300990298884221
:101F900010D802983230009981420BD201990398EF
:101FA00008444008206000990298084440082860CE
:101FB0000120C5E70020C3E7000801400000002021
:101FC00008480047FEE7FEE7FEE7FEE7FEE7FEE71C
:101FD000FEE7FEE7FEE7FEE703480449024A044B3A
:101FE00070470000ED0000088800002088020020F3
:101FF0008800002070B504460D460121FF4800F01E
:1020000046FC2CB14FF48071FD4800F042FC04E026
:102010004FF48071FA4800F03AFC0421F74800F0D0
:1020200036FC05F47F40F549103108604FF47F40DD
:10203000A843F449C1F8140C0421F04800F029FC2D
:102040006420FFF729FC0421EC4800F020FC4FF449
:102050007F4000EA0520E94910310860E8434FF469
:102060007F4101EA0020E749C1F8140C0421E3484C
:1020700000F00FFC6420FFF70FFC0121DF4800F0A7
:1020800008FC70BD10B504460121DC4800F0FFFBE0
:102090004FF48071DA4800F0FCFB0421D74800F0CF
:1020A000F6FB04F47F40D549103108604FF47F40BF
:1020B000A043D449C1F8140C0421D04800F0E9FB36
:1020C0000520FFF7E9FB0421CC4800F0E0FB4FF4CA
:1020D0007F4000EA0420C94910310860E0434FF412
:1020E0007F4101EA0020C749C1F8140C0421C3480C
:1020F00000F0CFFB0520FFF7CFFB0121BF4800F028
:10210000C8FB10BD70B504460D4621460020FFF700
:1021100071FF2846FFF7B6FF70BD2DE9F041044678
:102120000D4616461F46A1B24FF40070FFF7EAFFB6
:10213000B1B240F20120FFF7E5FFA1B24FF4047005
:10214000FFF7E0FFB1B240F21220FFF7DBFFA9B2C8
:1021500040F21120FFF7D6FFB9B240F21320FFF78B
:10216000D1FF40F202210020FFF744FFBDE8F081DB
:10217000002205E0002100E0491C6429FCDB521C20
:102180008242F7DB704710B54FF400619C4800F0C5
:1021900080FB0520FFF7ECFF4FF40061984800F04A
:1021A00076FB0520FFF7E4FF4FF40061944800F050
:1021B00070FB0520FFF7DCFF0121904800F067FB72
:1021C00000210846FFF79EFF0520FFF7D1FF002101
:1021D0000846FFF797FF0520FFF7CAFF00210846D2
:1021E000FFF790FF0520FFF7C3FF00210846FFF728
:1021F00089FF0520FFF7BCFF6420FFF7B9FF00202F
:10220000FFF740FF0520FFF7B3FF0020FFF73AFF7D
:102210000520FFF7ADFF0020FFF734FF0520FFF793
:10222000A7FF0020FFF72EFF0520FFF7A1FF642086
:10223000FFF79EFF4FF4C4414FF48060FFF762FF49
:102240000520FFF795FF40F608010820FFF75AFF29
:102250000520FFF78DFF40F60C414FF44070FFF76B
:1022600051FF0520FFF784FF4FF6137140F2013054
:10227000FFF748FF0520FFF77BFF40F60F7140F2A4
:102280000230FFF73FFF0520FFF772FF41F20B51CD
:1022900040F20330FFF736FF0520FFF769FF4FF4E8
:1022A00081514FF44170FFF72DFF0520FFF760FFCC
:1022B00040F60B2140F20530FFF724FF0520FFF721
:1022C00057FF032140F20630FFF71CFF0520FFF700
:1022D0004FFF40F6065140F20730FFF713FF05208D
:1022E000FFF746FF40F204514FF44270FFF70AFF38
:1022F0000520FFF73DFF41F2300140F20930FFF7C2
:1023000001FF0520FFF734FF1B211020FFF7FAFE25
:102310000520FFF72DFF40F201111120FFF7F2FE1B
:102320000520FFF725FF00211220FFF7EBFE052017
:10233000FFF71EFF01211320FFF7E4FE0520FFF742
:1023400017FF4FF44C714FF48070FFF7DBFE052050
:10235000FFF70EFF40F2472140F20110FFF7D2FED7
:102360000520FFF705FF4FF4805140F20310FFF7FF
:10237000C9FE0520FFF7FCFE4FF43F414FF42070EB
:10238000FFF7C0FE0520FFF7F3FE4DF2B0114FF44A
:102390008170FFF7B7FE0520FFF7EAFE4FF47A7071
:1023A000FFF7E6FE4FF480710120FFF7ABFE05203A
:1023B000FFF7DEFE4FF480710220FFF7A3FE052039
:1023C000FFF7D6FE41F230010320FFF79BFE052008
:1023D000FFF7CEFE01210920FFF794FE0520FFF74D
:1023E000C7FE00210C20FFF78DFE0520FFF7C0FE81
:1023F0004FF400419020FFF785FE05E0000C0140FE
:1024000000080140000001400520FFF7B1FE002157
:102410000F20FFF777FE0520FFF7AAFE00214FF4FB
:102420000470FFF76FFE0520FFF7A2FEEF2140F2D8
:102430001120FFF767FE0520FFF79AFE002140F20A
:102440001220FFF75FFE0520FFF792FE40F28F118A
:1024500040F21320FFF756FE0520FFF789FE00210A
:102460004FF4A060FFF74EFE0520FFF781FE00212C
:1024700040F20150FFF746FE0520FFF779FE5F218D
:1024800040F20250FFF73EFE0520FFF771FE0121EA
:1024900040F20140FFF736FE0520FFF769FE0021FC
:1024A00040F20440FFF72EFE0520FFF761FE4FF4D7
:1024B000FA70FFF75DFE4FF480710720FFF722FEF0
:1024C0000520FFF755FE4FF47A70FFF751FE00210B
:1024D0004FF40070FFF716FE0520FFF749FE0021BC
:1024E00040F20120FFF70EFE0520FFF741FE4FF4FA
:1024F000FA70FFF73DFE40F202210020FFF77AFD5F
:102500004FF4FA70FFF734FE10BD70B5044640F288
:102510008F130022EF211046FFF7FFFD00250AE090
:10252000002605E06E4931F81400FFF7ABFD761C7C
:10253000F02EF7D36D1CB5F5C87FF1D370BD2DE932
:10254000FF4F81B004460D4616460E9F4FF0080B14
:1025500010200090CBF1F000A04204DB0098C0F501
:10256000C870A84202DA05B0BDE8F08F0098284490
:10257000431E04EB0B00411E2A462046FFF7CDFD0B
:10258000A7F12000C7B24FF000091FE0554800EB4B
:10259000071010F809804FF0000A11E018F0800FC2
:1025A00003D03046FFF76EFD02E00498FFF76AFDA6
:1025B0004FEA48604FEA10680AF1010000F0FF0A94
:1025C000DA45EBDB09F1010000F0FF0900988145D5
:1025D000DCDBC8E72DE9F84304460D46164698466D
:1025E000089F0BE03B78009343463246294620463D
:1025F000FFF7A5FF04F1080084B27F1C387800289B
:10260000F0D1BDE8F8832DE9FF4F89B004460D46AF
:102610001646179F4FF00008334901A80EC90EC097
:1026200001A850F82600059036B94FF00B0B0B208F
:1026300007901820069010E0012E06D14FF00F0BE6
:102640000F2007902020069007E0022E05D14FF0C2
:10265000170B1720079048200690781EDDE9051219
:1026600002FB0010049005EB0B03079821182A4683
:102670002046FFF752FD0020089029E0049810F84A
:1026800001AB049066B9089800EBD0714910B0EB2B
:10269000410102D14FF0080804E04FF0040801E0C6
:1026A0004FF008084FF000090DE04AFA09F010F069
:1026B000010F03D00C98FFF7E5FC02E01698FFF736
:1026C000E1FC09F10109C145EFDB0898401C0890C5
:1026D000089906988142D1DB0DB0BDE8F08F00006B
:1026E00010000020783F00087857000870477047B6
:1026F0007047754600F028F8AE4605006946534617
:1027000020F00700854618B020B5FFF765FCBDE84E
:1027100020404FF000064FF000074FF000084FF048
:10272000000B21F00701AC46ACE8C009ACE8C009D9
:10273000ACE8C009ACE8C0098D4670470446AFF369
:1027400000802046FDF71BFD004870472800002050
:1027500003494FF01800ABBE7047000009000000AD
:10276000260002007047000004490A6822F01002A7
:102770000A600A6802430A607047000000200240B5
:1027800004490A6802F038020A600A6802430A60D3
:102790007047000000200240F0B5CB780022DC0634
:1027A00003F00F0301D58C7823430C880F2714F016
:1027B000FF0F4FF0010C1CD0D0F800500E880CFA1F
:1027C00002F42640A64210D1960007FA06FE25EA3A
:1027D0000E0E03FA06F5CE7845EA0E05282E00D136
:1027E0004461CE78482E00D10461521C082AE5D3FA
:1027F00005600A88FF2A1ED94568002202F10806F2
:102800000CFA06F40E882640A64210D1960007FA6C
:1028100006FE25EA0E0E03FA06F5CE7845EA0E0509
:10282000282E00D14461CE78482E00D10461521C7C
:10283000082AE3D34560F0BDF0B5104D6B68440D38
:10284000260184B2C0F30157B440C0F30342032F02
:1028500006D1686823F0706220F07060686008E05C
:10286000C00203D503209040834300E0A34343F01C
:10287000706201B122436A60F0BD000000000140B7
:102880000246926800200A4200D001207047416150
:10289000704701617047C16070470000024A1140F3
:1028A000014302480160704780FFFF1F08ED00E010
:1028B000044A0029916901D0014300E081439161FC
:1028C00070470000001002400B48016841F0010110
:1028D00001604168094A114041600168084A11409D
:1028E0000160016821F4802101604268002122F426
:1028F000FE02426081607047001002400000FFF855
:10290000FFFFF6FE034600205909094A012901D1BB
:10291000116804E0022901D1116A00E0516A03F054
:102920001F02012393400B4200D00120704700009A
:10293000001002400248406800F00C0070470000A0
:1029400000100240034A516821F0F0010143516038
:1029500070470000001002400B490A6822F48032E0
:102960000A600A68B0F5803F22F480220A6007D02E
:10297000B0F5802F03D1086840F4A02008607047AC
:10298000086840F48030F9E700100240034A5168BB
:1029900021F4E061014351607047000000100240E3
:1029A000034A516821F4605141EAC0005060704709
:1029B00000100240014908667047000000004242D2
:1029C000034B5A68084322F47C1210435860704746
:1029D00000100240034A516821F003010143516095
:1029E000704700000010024030B50B4C40F2FF155C
:1029F0003120FFF787FF20706068401C60602078FE
:102A000010B96068A842F3D13120FFF77BFF00289E
:102A100000D0012030BD00002000002010B591EA58
:102A2000030F48BF83F0004300F16881841A71EB03
:102A3000030E05D2121943EB0E03001B61EB0E01CE
:102A4000DFF880C14FEA1154A4EB135E1CEA430F78
:102A500018BF9CEA445F7DD023EA0C0321EA0451AD
:102A600043F48013DEF1200C38D322FA0EFC10EB75
:102A70000C0023FA0EFC41EB0C01CEF1200C03FA02
:102A80000CFC10EB0C0051F10001B1F5801FCEF1F0
:102A9000200C38D201EB0451BDE8104012FA0CF2C0
:102AA00058BF7047401C38BF5FEA420218BF7047EA
:102AB000002814BF20F0010041F100014FEA41035A
:102AC00013F5001F38BF704728BFB1F1C0413E4920
:102AD0004FF0000048BF41F000417047012A43EB2E
:102AE0000302AEF1200EDEF11F0C32BF4FF0000CDE
:102AF00023FA0EF310EB030041EB0451B4EB115F2A
:102B0000CAD0A1EB045101F58011490801EB045131
:102B1000BDE810405FEA30000CD350F1000038BF30
:102B200012FA0CFC06D1C3E7401C38BF5FEA420230
:102B3000C4D1BDE74FEA410313F5001F38BF70470A
:102B400028BFB1F1C04120494FF0000048BF41F01B
:102B5000004170479CEA445F08D0BDE8104011EA8C
:102B60005C0F04BF01F0004100207047012841EBD9
:102B70000104012A43EB030E644598BFE645DFF8E4
:102B80004CC0BDE8104000F22580AFF30080012862
:102B900041EB0100012A43EB0302904208D010F5FB
:102BA000001F04BF0020704719464FF00000704717
:102BB00091EA030F4FF0000058BF704704494FF0EF
:102BC000000070470000E0FF0000F07F11000004EB
:102BD0000000F87F02494FF0000000F06EBD0000D9
:102BE0000000F87F02494FF0000000F066BD0000D1
:102BF0000000F87F4FF0807212EB400F98BF12EB8D
:102C0000410F1DD8AFF3008050EA010204D488427E
:102C10000DD6EFF3008070478142EFF3008020F083
:102C2000104038BF40F0004080F3008870474FF0FC
:102C3000010238BF022A68BF002AEFF30080704704
:102C40001CF4502F00F0948200F069BD4FEAC123BC
:102C500003B40A1543EA505318BF43F000430CD4A1
:102C6000A2F56072D2F19E0211DBFF2ACCBF0021D7
:102C700023FA02F1084602B0704701F1804212F5D2
:102C8000801F80F204804FF0000002B0704703BC48
:102C9000DFF828C0012841EB010313F5001F88BFAE
:102CA0004CF4803C3FF69EAF3CBF6FEAE17070474A
:102CB000AFF300806FEAE17070470000E8000204A3
:102CC00010F0004314BF4142014643F08043B1FA83
:102CD00081FC03F1F87311FA0CF1A3EB0C534FEAEA
:102CE000415008BF704703EBE121704710B591EAEE
:102CF000030F48BF83F000433FF598AE841A71EB91
:102D0000030E07D212198EF0004E43EB0E03001B88
:102D100061EB0E01DFF810C24FEA1154A4EB135E11
:102D20001CEA430F18BF9CEA445F00F0C58023EA09
:102D30006C03524221EA0451C3EB6C0338BF5B1EA3
:102D4000DEF1200C29D322FA0EFC10EB0C0043FA22
:102D50000EFC41EB0C01CEF1200C03FA0CFC10EB45
:102D60000C0051F10001CEF1200C2DD401EB0451E7
:102D7000BDE8104012FA0CF24FF0120C4CF0804CEF
:102D800058BF7047401C1CBFB2F1004F704700286D
:102D90000CBF491C20F00100704712EB020C43EB02
:102DA000030218BF4FF0010C4CEA4202AEF1200EB4
:102DB000DEF11E0C63D943FA0EFC10EB0C0051F14E
:102DC000FF31CEF11E0CD1D50CF1010C12FA0CFC26
:102DD000404141EB010101EB445E5FEA5E5E10D9C8
:102DE00001EB0451BDE8104010EBDC7038BFBCF1C2
:102DF000004F18BF704700280CBF491C20F001008D
:102E000070473FD211F5001108BF002801D1BDE87D
:102E100010403FD04FEAD42E24F40064B1FA81F27E
:102E2000202AA4F1020404BFB0FA80F3D218A2F160
:102E30000B02B2F12003A4EB02040CD2C2F1200376
:102E400001FA02F120FA03F341EA030100FA02F069
:102E5000C2F1200303E000FA03F14FF0000001EBA0
:102E6000CE71002C01EB0451BDE81040A8BF7047A3
:102E700001F1C0414FF0000001F00041704701EB4B
:102E8000045110BD491001EB0451BDE810404FEA58
:102E9000300002E04FF0000170474FF0120C4A0082
:102EA00008BF0042F6D0B2F5001F28BF704701F0FE
:102EB00000414FF0000070479CEA445F07D0BDE836
:102EC000104011EA5C0F04BF002100207047012868
:102ED00041EB0104012A43EB030E644598BFE6452C
:102EE000DFF848C0BDE810403FF674AEAFF3008095
:102EF000012841EB0100012A43EB0302904209D073
:102F000010F5001F04BF0020704783F000414FF010
:102F10000000704791EA030F4FF0000048BF704770
:102F200003494FF0000070470000E0FF120000046A
:102F30000000F87F094248BF4CF4803C4FF4C06366
:102F40004FEA115203F1010321EA025122F4006217
:102F50009A1A48BF6FF0FE0241F48011352A3CD81E
:102F600030D0152A1ED3203A0CD90028C2F12003F4
:102F700021FA02F001FA03F218BF42F001024FF009
:102F8000000130E0C2F1000302F1200201FA03F176
:102F900020FA02F241EA020100FA03F208464FF079
:102FA000000120E0C2F1200310B400FA03F401FA9A
:102FB00003F320FA02F021FA02F1224610BC43EAA0
:102FC000000010E050EA01324FF000004FF0000125
:102FD0004FF0004218BF521C05E04FF001024FF0C5
:102FE00000014FF000001CF4803F2CF4803C18BF1F
:102FF00041F00041124208BF7047520003D303D092
:10300000401C41F1000170475FEAAC72F8D4FAD17C
:10301000401C41F1000120F00100F4E770477047C7
:1030200000F5000C1CF0FE4F09D0C1104FEA4070B3
:1030300001F1605158BF7047A1F1E04170471CF4A5
:10304000000F08D00146400008BF70474FF0000055
:103050004FEA30017047DFF814C0420240F08E8022
:10306000AFF3008040F4E001104670471800000400
:1030700090EA010F48BF81F0004100F15082421AEE
:103080003CBF801A89184FEAD0524FF07F4C1CEA9F
:10309000410FA2EBD15318BF9CEA026F00F04080B1
:1030A0004FF0004C4CEA00204CEA012121FA03FCCD
:1030B00010EB0C0C23D202F1FF325FEA1C2040EB34
:1030C000C25038BF70471CF07F0F4FEA400C18BF4A
:1030D000BCF17F4F38BF7047C3F12003994008BF50
:1030E00020F00100BCF17F4F38BF7047A0F1C04015
:1030F0004FF0FF0141EAD0514FEAC15070474FEA0B
:103100003C00000A40EBC25028BF1CF0FF0F4FEA02
:10311000400CE1D018BFBCF17F4F38BF7047E5E7E6
:103120009CEA026F05D010EA5C0F08BF00F0004077
:103130007047BCEB410F4FEA400228BF9445DFF8CF
:1031400028C0C0F01580AFF30080B2EB410F05D06E
:1031500012F1807F08BF70470846704790EA010F60
:1031600058BF704701487047010000040000C07F4D
:10317000014800F0A2BA00000000C07F014800F042
:103180009CBA00000000C07F4FF47F0C1CEAD012F4
:103190001EBF1CEAD11392EA0C0F93EA0C0F00F049
:1031A000A58090EA010F48BF42F4807240F4000C01
:1031B00041F400002CF07F4120F07F4000B58142B7
:1031C000A2EB03020FF2401CACEB504EC0F100002A
:1031D0009EF800E04FEA4E0E00FB0EFC38BF49009F
:1031E0004FEA2C1C02F5FA020CFB0EF34FEACE1E3E
:1031F0004FEA112C4FEAC1210EEB635E0EFB0CFC73
:103200004FEA1C5300FB03114FEA112C4FEA013126
:103210000EFB0CFC02F4807E42EB22424FEADC4CB7
:1032200000FB0C11C14228BF09184CEB03330129E4
:1032300024BF4EF0020E4EF0804E10EB410F24BF23
:103240004EF0010E4EF0804E08BF4EF0040E4EF0D0
:1032500008015DF804EB43EBC25018BFB2F57C0FD8
:1032600038BF704741EAC07108BF20F00100B2F5D5
:103270007C0F38BF704729D512F0F00F1CBF00F14A
:10328000C04000F0004070470081828384858687BB
:1032900088898B8C8D8E8F919293959697999A9C15
:1032A0009D9FA0A2A3A5A7A8AAACAEB0B2B3B5B784
:1032B000B9BCBEC0C2C5C7C9CCCED1D4D7D9DCDF5A
:1032C000E2E6E9ECF0F3F7FAFE0000004FEA400C0A
:1032D0000CF1807CBCF17E4F28BF7047B0F1C0403C
:1032E0004FF07F404CBF40104008704790EA010FFC
:1032F0000CEAD11348BF42F48072624538BF63457F
:1033000007D213F47F0F23D080EA010000F00040C1
:1033100070474FF0807C1CEB400F98BF1CEB410FB7
:10332000DFF840C03FF624AFAFF300804FF0807C61
:103330001CEB400F02BF1CEB410F0B4870471CEB0E
:10334000410F0CBF002020F0004040EAC2507047FF
:1033500012F47F0F04BF0448704742F0FF004FEAA9
:10336000C0507047040000040000C07FC2154FEA3F
:10337000002318BF43F0004305D4D2F19E020AD3C4
:1033800023FA02F070474FEA4001B1F1FE4F02D23A
:103390004FF000007047DFF828C04FEA4001B1F15C
:1033A0007F4F88BF4CF4803C3FF6E8AE1CBF6FEA0D
:1033B000E0707047AFF300806FEAE0707047000084
:1033C0006800020410F0004218BF404242F0804200
:1033D000B0FA80F18840A2EBC15202F1786208BFD6
:1033E0007047410642EB202018BF5FF0806C28BF79
:1033F00020F001007047000050EA010C00F113803A
:103400001CF5000F58BFBCF5000F01D4884270476F
:1034100007D710F5000F58BF11F5000F15D48842DB
:103420007047894270471CF5000F04D5BCF5000FAA
:10343000F7D5814270474FF0807C1CEB400F38BFBE
:103440001CEB410F01D281427047DFF808C0FFF743
:10345000D1BB00000900160410B412F47F0F4FEA2C
:1034600000204FEA012110D1B0FA80F400FA04F0F4
:10347000A2EB044213F47F0F02F5803218BF41F033
:10348000004100D010BC18BF604740F00040B1FAC6
:1034900081F401FA04F1A3EB044310BC03F580337B
:1034A0006047000051EA000C00F113801CF5000F8A
:1034B00058BFBCF5000F01D48142704707D711F502
:1034C000000F58BF10F5000F15D481427047894294
:1034D00070471CF5000F04D5BCF5000FF7D58842E6
:1034E00070474FF0807C1CEB410F38BF1CEB400F46
:1034F00001D28842704781EA000080EA0101DFF8CA
:103500000CC081EA0000FFF775BB0000090016043B
:1035100090EA010F48BF81F000413FF5B0AD421A7B
:103520003EBF82F00042801A89184FEAD0524FF015
:103530007F4C1CEA410FA2EBD15318BF9CEA026FEB
:103540004FD04FF0004C4CEA00204CEA012121FA08
:1035500003FCB0EB0C0C0FD412F0FE0F18BF5FEAA7
:103560004C001DD5001240EBC25038BF70471CF014
:103570003F0F18BF70470BE0A2F101025FEA1C2069
:1035800040EBC25038BF70471CF07F0F18BF704728
:10359000C3F12003994014BF401E20F00100704782
:1035A0004FEA122316D0004204BF002070474FEAB2
:1035B0009000B0FA80FCA2EB0C02CCF1280C60FA6F
:1035C0000CF093EA122F04BF00EBC25070474FEA91
:1035D000C37070475FEADC1008BF70474FEAC370E2
:1035E00070479CEA026F04D010EA5C0F08BF00200D
:1035F0007047BCEB410F4FEA400228BF9445DFF80B
:103600002CC0FFF4B5ADAFF30080B2EB410F06D094
:1036100012F1807F08BF704781F00040704790EA48
:10362000010F48BF704702487047000002000004C5
:103630000000C07F00F0004343EAD05323F48073BE
:10364000C3F1C10323F0004117291FD8C3F12003A0
:1036500010FA03F1C3F1200320F07F4040F4000092
:1036600020FA03F003F0004340EA03000DD00B46BC
:10367000590009D318BF401C06D17FEAE27398BFF6
:10368000401C38BF20F0010070477047182903EB39
:10369000912318BF6FF00041013168BF03F0004073
:1036A00009D6400203F0004000F1010004BF12F00F
:1036B000004F20F00100704770470CF00F03092BFA
:1036C00008BF082000F02B800A2B0BD0082B18BF56
:1036D000704708BF1CF0400F0AD04FF000004FF0B9
:1036E000000170471CF0400F18BF4FF000407047BA
:1036F0001CF0100F08D020F0704300F07F4242EA27
:10370000D3014FEA4370704700F0604021F07F42E0
:1037100042EA000201F07F4040EA727070471CF4F8
:10372000801F11D01CF4E02F03D06FEACC31490088
:1037300070474FF04050EFF3008222F0704242EAAF
:10374000000282F3008870474FF0000070470000CD
:103750000000000000000000000E7000001C70005F
:103760000078380000701C0400300C0EF0FFFF1FC2
:1037700000300C0120300C07E0308C07C0318C0386
:103780008033CC018033EC0000336C1800303C3CBB
:10379000FEFFFF7F000000000003C00000FFFF01EC
:1037A0000003C0010003C0000003C0000003C0000C
:1037B00000FFFF000003C0000003C0000003C000C2
:1037C00000FFFF0000FFFF000003C0000001000039
:1037D00000000000000000000000000000C0010028
:1037E00000C0010000C0010000C0010000C00100D5
:1037F00000C0010430C0010EF0FFFF0F30C0010E09
:1038000030C0010E30C0010E30C0010E30C0010EBC
:1038100030C0010E30C0010E30C0010EF0FFFF0FAE
:1038200030C0010E30C0010600C0010000C0010020
:1038300000C0010000C0010000C0010000C0010084
:1038400000C0010000C0010000C0010000C0010074
:103850000000000000000000000000000000000068
:1038600000100007003C0007803F0003FC07000336
:103870000C03060300030E0300031C0300031C03D8
:1038800000231803FC7F0003FCFF000380030103F7
:103890008003070380070E03C01F0E03C07B0C13B9
:1038A000E0730C7B7073007F3023F80738C33F034D
:1038B0001CE301030C0300030603000300030003E1
:1038C00000030003000300030003000300030003E0
:1038D00000030003000000010000000000000000E1
:1038E0000000000080033000800370008001300081
:1038F00080013000800130008001300080193018D4
:10390000FCFFFF3F84013000800130008001300067
:10391000800130008031300680DFFF0FC007010ECC
:10392000F8010307FE0103079C018603800186035B
:103930008001CC018001CC018001F8008001780079
:10394000800178008001FE019C01CF07FCC1837FCC
:10395000E0F1007EC03E001C0000000000000000FE
:10396000C0800080830300C70100C610FCFF3F0831
:10397000E70418660C30660C606606E0660340E6F5
:1039800031FFFF7F000000400002C0FF0FC00007B2
:10399000C00003C0FF07C0FF07C00007C00007C08A
:1039A000FF07C00007400000000400003C00001CAE
:1039B00000001C00001C00031C60FFFFFF071C60D0
:1039C000071C60071C60071C60071C60071C70FF59
:1039D000FF7F071C60031C20001C00001C00001C53
:1039E00000001C00001C00001C00001C00000C005B
:1039F00000000600031CE0070CFE000CC0300CC0E9
:103A0000600CC0C00CC0440CFF0F0CE0100CE03088
:103A10000CE0610CF0632CF8066CD804FECCF00FBF
:103A2000C61E0CC2000CC1000CC0000CC0000CC0B3
:103A3000000CC0000C000004208000E080036080C7
:103A400001608001608001608021FFFF7F60800154
:103A500060800160800160D711E0F93F7810187F25
:103A6000300C66200C60600660600760C0036080F8
:103A70000160C00362700F7E3CFC380F789001201B
:103A8000000000000000801803801001801011FC6D
:103A9000FF3F801001801001801801000020F8FF16
:103AA0007F0C10100C1008401006C0FF05401004D9
:103AB00040100440100440100440100640D007009D
:103AC0001802001800000800000000000000C018E4
:103AD00000601800200C0030FC3F30220828C2048F
:103AE000244100224C02204404204218204118A006
:103AF00078102060000004008019049031089011B3
:103B0000329801328C012280010700FF030000007F
:103B100000000000000000100210100230100260CF
:103B2000100220101200FF0F0010022010027E1061
:103B30000220100220103220FF0F20100220180255
:103B40002008022004023002024C0102860101001A
:103B5000FE3F00F01F000000000000000000000019
:103B600000800300000400000800000800001800A6
:103B7000001C00003C000024000026000042000061
:103B80004300008100808001C00003600006300017
:103B90000C10003C0800300600000000000000008F
:103BA000000000000000808101008300004200004E
:103BB0002200E0FF07200804200804200804E0FF9A
:103BC00007200804200804200804E0FF072008005C
:103BD000000820FEFF7F0008000008000008000029
:103BE000080000080000000000000000000000C005
:103BF00000C04000404000404000404000404010B5
:103C0000404038C0BF07400000400000400000C0F6
:103C1000FF01408001408001608001208001208000
:103C2000011080011880010880010480010000005B
:103C300000000020000060000020080420F8072099
:103C40001802201802FE1B02201802201802201859
:103C500002F01902301B02301A022818022818023A
:103C6000240802220822220C22200422600266601C
:103C7000027EE001000000000000000000000004DF
:103C800006100C0260040220040220040220040238
:103C9000200432FCFF0F2004022004022004022032
:103CA000040220040220040220FC03200402200459
:103CB00000200000200020F0FF7F20000000000016
:103CC000000000000000200004E0FF0F6018046006
:103CD0001804E0FF07601804601804601804E0EF9F
:103CE00007004600008300800103C0863D20823823
:103CF0001C820000830000810080810080800060C1
:103D00008000108000080000000000000000000C8F
:103D100000000400000400000406F0FF010006009B
:103D2000000200000230FCFF0F0003000001000051
:103D3000010080FF07000003000001008000004632
:103D400000003C0000700000E00000C00000000027
:103D5000000000000000004200004200004200009D
:103D60004200004200044210044238084218104247
:103D70000830420C30420460420660420260420158
:103D800040C20000C200004200004200004230FE7B
:103D9000FF7F0000000000000000002000006080A5
:103DA00001608000608000608000608230FCFD0F58
:103DB00060800060800060800060FF1FE010087C71
:103DC000100C6420046020066040026040036080A4
:103DD0000160C00160200678183C30073000000008
:103DE00000000000080000180000980100180600FC
:103DF0001804001800001830FCFF0F003C00003CC5
:103E000000005E00005B00009900809801C018036C
:103E100060180630180C18187804181002180000E2
:103E2000180000180000000000000000000000C0A2
:103E30000030E00060E00060300140100100180236
:103E400000080420041C7C0678203910A0180420E7
:103E5000100E20100120D000203200201100A011EF
:103E600008E0100860101020303800E00F0000005B
:103E700000000000000020000060000020000C2076
:103E8000F803200000200000200100FE03002000B5
:103E90003020FF7F20C00020C000204000202000F4
:103EA000202002201204E011083C0818060C3F00F4
:103EB000FC3000042000000080008000FC1F400057
:103EC0004000FF7F20001004F00F000400024001BA
:103ED00080000001000200002002200220022022B7
:103EE000226224322412280A380A280620022002DC
:103EF0002022FF7F00000000080408040804BF7FA0
:103F000008042804983F8C100B11080908060806BD
:103F1000080988706A2004008000800480088000FE
:103F2000FF7F8000C001A002A00490088818847060
:103F30008320800080000000020204020C050409B6
:103F400080104060A7208408841C84038400A4009F
:103F500094208C20043F00000000883F08000800E7
:103F600008003F00C87F08020806080138118C20AD
:103F7000437EE063402000000000000000000000DD
:103F800000000000000000000000183C3C3C181835
:103F9000180018180000000000636363220000008E
:103FA000000000000000000000000036367F3636BA
:103FB000367F3636000000000C0C3E6361603E0325
:103FC0000343633E0C0C0000000000000061630628
:103FD0000C183363000000000000001C36361C3B48
:103FE0006E66663B0000000000303030600000006C
:103FF000000000000000000000000C1818303030F5
:104000003018180C000000000000180C0C06060602
:10401000060C0C18000000000000000042663CFF87
:104020003C6642000000000000000000181818FF65
:104030001818180000000000000000000000000038
:10404000000018181830000000000000000000FFF9
:104050000000000000000000000000000000000060
:10406000000018180000000000000103070E1C38B3
:1040700070E0C0800000000000003E6363636B6B73
:104080006363633E0000000000000C1C3C0C0C0C41
:104090000C0C0C3F0000000000003E6303060C18EF
:1040A0003061637F0000000000003E6303031E03D5
:1040B0000303633E000000000000060E1E36666625
:1040C0007F06060F0000000000007F6060607E0336
:1040D0000363733E0000000000001C3060607E63DC
:1040E0006363633E0000000000007F630306060C6C
:1040F0000C1818180000000000003E6363633E6364
:104100006363633E0000000000003E636363633F3F
:104110000303063C00000000000000000018180027
:10412000000018180000000000000000001818002F
:104130000000181818300000000000060C1830604D
:1041400030180C06000000000000000000007E0097
:10415000007E0000000000000000006030180C0627
:104160000C1830600000000000003E6363060C0C79
:104170000C000C0C0000000000003E63636F6B6BD2
:104180006E60603E000000000000081C3663636340
:104190007F6363630000000000007E3333333E33EF
:1041A0003333337E0000000000001E336160606026
:1041B0006061331E0000000000007C36333333336F
:1041C0003333367C0000000000007F3331343C3450
:1041D0003031337F0000000000007F3331343C3445
:1041E000303030780000000000001E336160606FE6
:1041F0006363371D000000000000636363637F6337
:10420000636363630000000000003C18181818186E
:104210001818183C0000000000000F0606060606ED
:104220000666663C000000000000733336363C36FC
:104230003633337300000000000078303030303007
:104240003031337F00000000000063777F6B6363D1
:10425000636363630000000000006363737B7F6F30
:10426000676363630000000000001C3663636363E0
:104270006363361C0000000000007E3333333E30A1
:10428000303030780000000000003E6363636363F9
:10429000636B6F3E0607000000007E3333333E360B
:1042A000363333730000000000003E6363301C06A9
:1042B0000363633E000000000000FFDB991818183C
:1042C0001818183C00000000000063636363636318
:1042D0006363633E00000000000063636363636325
:1042E00063361C0800000000000063636363636BB7
:1042F0006B7F3636000000000000C3C3663C181810
:104300003C66C3C3000000000000C3C3C3663C1882
:104310001818183C0000000000007F6343060C18CA
:104320003061637F0000000000003C3030303030EE
:104330003030303C00000000000080C0E070381CCD
:104340000E0703010000000000003C0C0C0C0C0CDC
:104350000C0C0C3C00000000081C36630000000040
:10436000000000000000000000000000000000004D
:1043700000000000FF00000018180C000000000002
:10438000000000000000000000000000003C4606A5
:104390003E66663B0000000000007030303C363363
:1043A0003333336E0000000000000000003E636005
:1043B0006060633E0000000000000E06061E3666C8
:1043C0006666663B0000000000000000003E63637C
:1043D0007E60633E0000000000001C3632307C30FE
:1043E000303030780000000000000000003B6666BE
:1043F00066663E06663C00000000703030363B3397
:10440000333333730000000000000C0C001C0C0C54
:104410000C0C0C1E0000000000000606000E060634
:1044200006060666663C0000000070303033333606
:104430003C3633730000000000001C0C0C0C0C0C0C
:104440000C0C0C1E0000000000000000006E7F6BD2
:104450006B6B6B6B0000000000000000006E3333DC
:10446000333333330000000000000000003E63637C
:104470006363633E0000000000000000006E333301
:1044800033333E303078000000000000003B6666A9
:1044900066663E06060F000000000000006E3B331B
:1044A000303030780000000000000000003E63382B
:1044B0000E03633E0000000000000818187E181864
:1044C00018181B0E00000000000000000066666661
:1044D0006666663B00000000000000000063633673
:1044E000361C1C080000000000000000006363632D
:1044F0006B6B7F3600000000000000000063361C7C
:104500001C1C3663000000000000000000636363B1
:1045100063633F03063C000000000000007F660C60
:104520001830637F0000000000000E181818701883
:104530001818180E000000000000181818181800AD
:1045400018181818180000000000701818180E1815
:10455000181818700000000000003B6E00000000FA
:1045600000000000000000000070D8D870000000BB
:10457000000000000000000000000000000000003B
:10458000000000000000000000000000000000002B
:10459000000000000000000000000000000000001B
:1045A000000000000000000000000000000000000B
:1045B00007000700070007000700020002000200D2
:1045C00002000200020000000000000007000700D7
:1045D0000700000000000000000000000660066008
:1045E0000CC0198011002200000000000000000033
:1045F00000000000000000000000000000000000BB
:1046000000000000000000000000000000000000AA
:10461000000010401040104010407FE07FE010404C
:104620001040208020807FE07FE02080208020805C
:1046300020800000000000000000000000000200D8
:1046400002000F801AC032C032C032001A000E00C1
:1046500007000380038002C032C032C032C0128023
:104660000F00020002000000000000000000000037
:10467000000070C050808880890089008B008A000B
:104680005FC0754006200A200A201A20122011401F
:1046900021C0000000000000000000000000000039
:1046A00000001C00260026002600260025C03880B9
:1046B000308058804900CD00C700C600C300652087
:1046C00038C000000000000000000000300038008A
:1046D000080008001000600000000000000000005A
:1046E00000000000000000000000000000000000CA
:1046F000000000000000000000000000002000405A
:10470000008001800100030003000600060006008F
:1047100006000600060006000300030001000180F9
:104720000080004000200000000000004000200049
:104730001000180008000C000C000600060006001F
:1047400006000600060006000C000C000800180019
:1047500010002000400000000000000000000000E9
:104760000000000002000200020072703AE00F80B8
:104770000F803AE0727002000200020000000000A8
:104780000000000000000000000000000000000029
:10479000000000000000020002000200020002000F
:1047A0007FF0020002000200020002000000000090
:1047B00000000000000000000000000000000000F9
:1047C00000000000000000000000000000000000E9
:1047D0000000000000000000000000003000380071
:1047E0000800080010006000000000000000000049
:1047F00000000000000000000000000000000000B9
:104800007FE0000000000000000000000000000049
:104810000000000000000000000000000000000098
:104820000000000000000000000000000000000088
:104830000000000000000000000000003800380008
:1048400038000000000000000000000000200060B0
:10485000004000C000800080010001000200020052
:1048600006000400040008000800100010003000DA
:104870002000600040000000000000000000000078
:1048800000000F00198030C030C060606060606060
:104890006060606060606060606030C030C01980DF
:1048A0000F000000000000000000000000000000F9
:1048B0000000020006003E0006000600060006009A
:1048C00006000600060006000600060006000600B8
:1048D0003FC00000000000000000000000000000D9
:1048E00000001F00218040C060C060C000C0018087
:1048F00001800300040008001040204040407FC0B9
:104900007FC0000000000000000000000000000068
:1049100000001E002300618061806180018003002F
:104920000E000180008000C060C060C060C02180B7
:104930001F00000000000000000000000000000058
:104940000080018003800380058009800980118038
:104950002180218041807FE00180018001800180F1
:1049600007E0000000000000000000000000000060
:1049700000003FC03FC020002000200020002F008A
:10498000318020C000C000C060C060C04180218074
:104990001F000000000000000000000000000000F8
:1049A0000000078018C030C0300020006000678021
:1049B00068C070606060606060602060304018C0F7
:1049C0000F000000000000000000000000000000D8
:1049D00000001FE03FE03040208020800080010088
:1049E00001000200020002000600060006000600A8
:1049F00006000000000000000000000000000000B1
:104A000000001F8030C060606060606070403CC02B
:104A10000F00338020C0606060606060606030C004
:104A20000F800000000000000000000000000000F7
:104A300000000F00308030C06040606060606060E7
:104A400060E031601E60006000C000C030803180D6
:104A50001E00000000000000000000000000000038
:104A60000000000000000000000007000700070031
:104A70000000000000000000000000000700070028
:104A8000070000000000000000000000000000001F
:104A9000000000000000000000000000060006000A
:104AA0000000000000000000000000000000060000
:104AB00006000200040000000000000000000000EA
:104AC00000200040008001000200040008001000E7
:104AD00020001000080004000200010000800040D7
:104AE00000200000000000000000000000000000A6
:104AF0000000000000000000000000007FE0000057
:104B00000000000000007FE0000000000000000046
:104B10000000000000000000000000000000000095
:104B20002000100008000400020001000080004086
:104B30000020004000800100020004000800100076
:104B40002000000000000000000000000000000045
:104B50000F8030C0406040606060606000C00180D5
:104B60000600040004000400000000000E000E0017
:104B70000E00000000000000000000000000000027
:104B8000000007801C601020335026D06490649091
:104B900068906890699069A066C030103020184015
:104BA000078000000000000000000000000000007E
:104BB0000000060006000E000B000B001300118021
:104BC000118011801F8020C020C020C02060606044
:104BD000F0F00000000000000000000000000000F5
:104BE0000000FF00618060C060C060C060C0618084
:104BF0007F0060C06040606060606060606060C056
:104C0000FF80000000000000000000000000000025
:104C1000000007E0186030203020200060006000B5
:104C2000600060006000600060203020304018802C
:104C30000F00000000000000000000000000000065
:104C40000000FE00618060C060C060606060606005
:104C50006060606060606060606060C060C0638071
:104C6000FE00000000000000000000000000000046
:104C70000000FFC0604060206000600061006100D3
:104C80007F00610061006000600060206020604083
:104C9000FFC0000000000000000000000000000055
:104CA0000000FFC060C06020602060006100610003
:104CB0007F006100610060006000600060006000D3
:104CC000F0000000000000000000000000000000F4
:104CD00000000F4018C030403040200060006000ED
:104CE0006000600063F060C060C030C030C018C0B9
:104CF0000F000000000000000000000000000000A5
:104D00000000F0F060606060606060606060606043
:104D10007FE06060606060606060606060606060F4
:104D2000F0F00000000000000000000000000000A3
:104D300000003FC006000600060006000600060050
:104D40000600060006000600060006000600060033
:104D50003FC0000000000000000000000000000054
:104D600000000FF00180018001800180018001803E
:104D7000018001800180018001800180018001802B
:104D80000180618063003E00000000000000000020
:104D90000000F3E0608061006200620064006C006B
:104DA0007C007600670063006380618060C060E023
:104DB000F1F0000000000000000000000000000012
:104DC0000000F000600060006000600060006000B3
:104DD0006000600060006000600060206020604053
:104DE000FFC0000000000000000000000000000004
:104DF0000000F0F070E070E070E0596059605960B8
:104E000059605A604E604E604E604E60446044602F
:104E1000E4F00000000000000000000000000000BE
:104E20000000E07070207020582058204C20462050
:104E300046204320432041A040E040E040604060E5
:104E4000E020000000000000000000000000000062
:104E500000000F00198030C030406060606060600A
:104E600060606060606060606060304030C0198089
:104E70000F00000000000000000000000000000023
:104E80000000FF8060C060606060606060606060C3
:104E900060C07F80600060006000600060006000B3
:104EA000F000000000000000000000000000000012
:104EB00000000F00198030C03040606060606060AA
:104EC00060606060606060606E60324031C0118020
:104ED0000F8001E000C000000000000000000000A2
:104EE0000000FF8060C0606060606060606060C003
:104EF0007F006600630063006180618060C060C005
:104F0000F070000000000000000000000000000041
:104F100000001F2030E060206020600070003C0036
:104F20000F0003C000C0006040604060606070C05F
:104F30004F800000000000000000000000000000A2
:104F400000007FE04620861086100600060006005E
:104F50000600060006000600060006000600060021
:104F60000F00000000000000000000000000000032
:104F70000000F070602060206020602060206020D1
:104F80006020602060206020602060206020304031
:104F90001F80000000000000000000000000000072
:104FA0000000F8F0706030403040304030801880B1
:104FB0001880188018800D000D000D000F000600ED
:104FC00006000000000000000000000000000000DB
:104FD0000000F770662066206640664067403740F4
:104FE00037403B803B803B803B8039801100110083
:104FF00011000000000000000000000000000000A0
:10500000000079E030C01880188019000D000E00F3
:105010000600060007000B000B801980118030C0CD
:1050200079E0000000000000000000000000000027
:105030000000F8F0706030403080188018800D005B
:105040000D000E0006000600060006000600060021
:105050001F800000000000000000000000000000B1
:1050600000003FE020C041C0018003800300030036
:10507000060006000C000C001800182038203040F4
:105080007FC00000000000000000000007E00400F6
:1050900004000400040004000400040004000400F0
:1050A00004000400040004000400040004000400E0
:1050B0000400040007E00000000000000000000001
:1050C0002000100010001000080008000400040078
:1050D00004000200020001000100010000800080C5
:1050E0000040004000400020000000003F000100A0
:1050F00001000100010001000100010001000100A8
:105100000100010001000100010001000100010097
:10511000010001003F0000000000000007000D80BA
:10512000104000000000000000000000000000002F
:10513000000000000000000000000000000000006F
:10514000000000000000000000000000000000005F
:10515000000000000000000000000000000000004F
:10516000000000000000000000000000000000003F
:10517000000000000000FFF00000000030003800D8
:10518000080008001000600000000000000000009F
:10519000000000000000000000000000000000000F
:1051A00000000000000000000000000000000000FF
:1051B0000000000000000000000000000F8030C070
:1051C00030C007C01CC030C060C060C060C071D0BB
:1051D0003EF00000000000000000000000000000A1
:1051E00010007000300030003000300033803CC0D0
:1051F000386030603060306030603060304038C0DF
:105200002F800000000000000000000000000000EF
:105210000000000000000000000000000F003180CE
:10522000318061806000600060006040304030800C
:105230000F0000000000000000000000000000005F
:10524000004001C000C000C000C000C01EC031C08E
:1052500030C060C060C060C060C060C020C031E0CD
:105260001E800000000000000000000000000000A0
:10527000000000000000000000000000078018C0CF
:10528000106030603FE030003000300018201C40DB
:105290000780000000000000000000000000000087
:1052A000000003C006600C600C000C007FC00C0006
:1052B0000C000C000C000C000C000C000C000C008E
:1052C0003F8000000000000000000000000000001F
:1052D0000000000000000000000000000F701990A6
:1052E00030C030C030C019801F0030003E001FC0E9
:1052F0006060606070E01F8000000000000000003F
:10530000100070003000300030003000378038C0AE
:1053100030C030C030C030C030C030C030C030C00D
:1053200079E0000000000000000000000000000024
:105330000000060006000000000000003E0006001D
:10534000060006000600060006000600060006002D
:105350003FC000000000000000000000000000004E
:105360000000018001800000000000000F8001802B
:105370000180018001800180018001800180018025
:105380000180018033003E000000000000000000AA
:1053900010007000300030003000300033C03100A9
:1053A0003300320036003E003B0033003180318054
:1053B00079E0000000000000000000000000000094
:1053C00002003E0006000600060006000600060079
:1053D000060006000600060006000600060006009D
:1053E0003FC00000000000000000000000000000BE
:1053F000000000000000000000000000EEE0776008
:10540000666066606660666066606660666066606C
:10541000F770000000000000000000000000000025
:1054200000000000000000000000000073803CC08D
:1054300030C030C030C030C030C030C030C030C0EC
:1054400079E0000000000000000000000000000003
:105450000000000000000000000000000F001980A4
:1054600030C06060606060606060606030C030C0AC
:105470000F0000000000000000000000000000001D
:10548000000000000000000000000000778038C02D
:1054900030603060306030603060306030C038C0C4
:1054A0003780300030007C00000000000000000069
:1054B0000000000000000000000000001E4031C09D
:1054C00030C060C060C060C060C060C020C031C07B
:1054D0001EC000C000C003E000000000000000008B
:1054E000000000000000000000000000F9E01A6069
:1054F0001C001800180018001800180018001800E8
:10550000FF0000000000000000000000000000009C
:105510000000000000000000000000000FE0186024
:10552000302030001C000F8001C02060206030C09F
:105530003F800000000000000000000000000000AC
:1055400000000000040004000C000C007F800C0030
:105550000C000C000C000C000C000C000C400C406B
:1055600007800000000000000000000000000000B4
:1055700000000000000000000000104071C030C0BA
:1055800030C030C030C030C030C030C030C039E072
:105590001E8000000000000000000000000000006D
:1055A0000000000000000000000000007CF03860F7
:1055B000184018400C800C800C8007000700070082
:1055C00002000000000000000000000000000000D9
:1055D000000000000000000000000000F7B06320A1
:1055E00063206720372035C039C039C039C01080EA
:1055F000108000000000000000000000000000001B
:105600000000000000000000000000007DE01880A5
:1056100019800D000E00060007000B00198011C054
:105620007BE000000000000000000000000000001F
:105630000000000000000000000000007DE0388055
:10564000188018800D000D000D00060006000200F5
:1056500004000400280038000000000000000000E2
:105660000000000000000000000000003FC021809A
:1056700023800300070006000E000C201C20186089
:105680003FC000000000000000000000000000001B
:10569000000000000000000000000000000000000A
:1056A00000000000000000000000000000000000FA
:1056B00000000000000000000000000000000000EA
:1056C00000000000000000000000000000000000DA
:1056D00000000000000000000000000000000000CA
:1056E00000000000000000000000000000000000BA
:1056F00000000000000000000000000000000000AA
:105700000000000000000000000000000000000099
:105710000000000000000000000000000000000089
:105720000000000000000000000000000000000079
:105730000000000000000000000000000000000069
:105740000000000000000000000000000000000059
:105750000000000000000000000000000000000049
:105760000000000000000000000000000000000039
:105770000000000000000000B83E0008B83E00082D
:1057800060390008A457000800000020280000002D
:1057900028010008CC570008280000206002000003
:1057A00044010008000000000000000000000000AC
:1057B0000000000000F8E0071F00E0FF0000FF0706
:0C57C0001FF8FFFF0000000000000000C8
:04000005080000ED02
:00000001FF
