:0300000002087D76
:0C087D00787FE4F6D8FD75817F0208C486
:0B0F3800EF1FAC0670011E4C70F6228B
:100EDE00EF1FAA0670011E4A600A7D82AC051DEC4A
:040EEE0060EE80F83A
:010EF20022DD
:100E96008F828E83E5821582AE83700215834E6043
:0B0EA600097FE87E03120EDE80EA22C6
:03000E00020EDE01
:100EB100E4FEFDEE25E0FEEF54012EFEEFC313FF2D
:060EC1000DBD08EFAF06B5
:010EC7002208
:1007CB008C638D648B608A618962E56425E0FFE54B
:1007DB006333FEE92FF9EA3EFAC003C002C00112EF
:1007EB000108FDACF0C005C004E56625E0FFE5653A
:1007FB0033FEE5622FF9E5613EFAC003C002C0018A
:10080B00120108FDACF0C005C004E56425E0FFE56E
:10081B006333FEE5622FF9E5613EFAC002C00112B7
:10082B000108FDACF0E56625E0FFE56533AA61A99B
:10083B00628F82F583120133FFEC65F0FEED6FFFE3
:10084B00D001D002EE8FF012016BD0E06EFED0E043
:10085B006FFFD001D002D003EE8FF012016BD0E00E
:10086B006EFED0E06FFFD001D002D003EE8FF0020E
:02087B00016B0F
:100EF300D3EF9DEC6480F8EE6480984006AE04AFB7
:040F03000580002243
:100F0700D3EF9DEC6480F8EE64809840028004AED5
:040F170004AF0522FC
:10057B008B3E8A3F89408C418D42D3E5429401E505
:0A058B00416480948050030206468C
:10059500E4F543F544F545754601C3E5469542E561
:1005A500416480F8E5456480985042E54625E0FFC2
:1005B500E54533AB3EAA3FA9408F82F5831201334F
:1005C500FFAEF0120108FDC3EF9DEE95F050140546
:1005D50044E54470020543FDAC43854565854666A3
:1005E5001207CB0546E54670B1054580ADE54445A6
:1005F500436012AB3EAA3FA940854365854466E446
:10060500FDFC1207CBAB3EAA3FA940AD44AC43125B
:10061500057BE54425E0FFE54333FEAB3EE5402F92
:10062500F9E53F3EFAE92402F9E43AFAC3E54295D1
:1006350044CFE5419543CF24FFFDEF34FFFC120580
:010645007B39
:010646002291
:100BBF008B508A518952E5571557AE56700215560C
:100BCF004E602EAB50E552F92402F552E551FA343E
:100BDF0000F551120108FFAEF0AB53E555F92402B1
:100BEF00F555E554FA3400F554EE8FF012016B8091
:020BFF00C5220D
:100B32008F5B8E5A8D598C58AF5FAE5EAD5DAC5CEB
:100B4200AB5BAA5AA959A858D31202064015E55B15
:100B5200955FFFE55A955EFEE559955DFDE5589571
:100B62005CFC22C3E55F955BFFE55E955AFEE55DA1
:090B72009559FDE55C9558FC2243
:100E24008F708E6F8D6E8C6DE4FFFEFDFCAB70AA2F
:100E34006FA96EA86DD312020640037F0122AC6D28
:0A0E4400EC3350037FFF227F0022F1
:080D2B008B678A6889698D6AF3
:100D3300E4F56CF56BE56BC3956A501DAB67AA6868
:100D4300A96975F004E56BA4F58285F08312021C92
:0F0D5300EF256CF56C056B80DCAF6CE4FCFDFEEE
:010D6200226E
:06041D008B2C8A2D892EB4
:10042300C003C002C001AB31AA32A93312001EFFC0
:100433002402540375F002A4F58285F083D001D021
:1004430002D003120133F53585F034AB2CAA2DA964
:100453002EEF2403540375F002A4F58285F0831272
:100463000133F53785F036C003C002C001AB31AAB2
:1004730032A93312001E75F002A4F58285F083D0F1
:1004830001D002D003120133F53985F0388C3A8D4F
:100493003B2424FFE53834FAAB07FAE53924DCFFC3
:1004A300E53834058F82F583C3E5399537FDE538A3
:1004B3009536FCC3E5379535FFE5369534FE1200D6
:1004C3006BD3EF9400EE64809480403EE53925E0E1
:1004D300FFE53833FEC3EF9537F53DEE9536F53C32
:1004E300AF03AE02E53D24D4FDE53C34FEFC120F20
:1004F30007AA06AB07AF82AE83E53D242CFDE53C9E
:100503003401FC120EF38E838F82D3E53B9582E593
:10051300836480F8E53A648098400685833A85824F
:100523003BC3E53B9BEA6480F8E53A64809850045A
:100533008A3A8B3BAB31AA32A933740112003712CA
:10054300001E5403120059AB2CAA2DA92EC003C0C0
:1005530002C001AB31AA32A93312001E75F002A406
:10056300F58285F083D001D002D003E53A853BF0D4
:0705730012018AAE3AAF3B12
:01057A00225E
:100C01000209FFFF020BFFFF011500012200010F86
:100C11000001160001230001100001180004280042
:100C2100000000010E00022400000226FC18021A36
:0E0C31000000010D010117000108000119006B
:100EC800D2AFD2ABC28ED2A9758999C28CC2AAC23E
:060ED800A8D28AD2882294
:03001B000209DEF9
:1009DE00C0E0C0F0C083C082C0D075D000C000C0DF
:1009EE0001C002C003C004C005C006C007751600D2
:1009FE00C28EC2AAC3E50C94B8E50B940B500B74CF
:100A0E00C8250CF50CE4350BF50B1202A0D007D05F
:100A1E0006D005D004D003D002D001D000D0D0D063
:080A2E0082D083D0F0D0E03249
:03000B00020A36B0
:100A3600C0E0C0F0C083C082C0D075D000C000C086
:100A460001C002C003C004C005C006C0077515007A
:100A5600C28CC2A8C3E50A94B8E509940B500B747E
:100A6600C8250AF50AE43509F5091202A0D007D00F
:100A760006D005D004D003D002D001D000D0D0D00B
:080A860082D083D0F0D0E032F1
:05000600C2B1C2B022EE
:100DCC00E51560100522E522C3940A401CE4F522C7
:100DDC00F5158015751501E4F58CF58AD28CD2B019
:0B0DEC00FF0FBF05FCC2B0D2A8B296FA
:010DF70022D9
:100DF800E51660100523E523C3940A401CE4F52397
:100E0800F5168015751601E4F58DF58BD28ED2B1E5
:0B0E1800FF0FBF05FCC2B1D2AAB297C9
:010E230022AC
:100CB900E50F7034E5156030750F01AF8CEFFEADAF
:100CC9008AEDFFC3EF940AEE94005004E4F50F2275
:100CD900C28CC2A87C007D1112006B7D6412007D5C
:080CE900120F4AE4F50FF515A6
:010CF10022E0
:100CF200E5107034E5166030751001AF8DEFFEAD72
:100D02008BEDFFC3EF940AEE94005004E4F5102239
:100D1200C28EC2AA7C007D1112006B7D6412007D1E
:080D2200120F43E4F510F51671
:010D2A0022A6
:0100110022CC
:03000300020C43A9
:100C4300C0E0C0F0C083C082C0D075D000C000C077
:100C530001C002C003C004C005C006C007120CB91E
:100C6300D007D006D005D004D003D002D001D000E5
:0B0C7300D0D0D082D083D0F0D0E0328F
:03001300020C7E5E
:100C7E00C0E0C0F0C083C082C0D075D000C000C03C
:100C8E0001C002C003C004C005C006C007120CF2AA
:100C9E00D007D006D005D004D003D002D001D000AA
:0B0CAE00D0D0D082D083D0F0D0E03254
:070F43008E0B8F0C0202A0CF
:070F4A008E098F0A0202A0CC
:100B7B00E4F574F573F572F571120AE5EE3395E051
:100B8B008F748E73F572F571AB74AA73F9A871C07B
:100B9B0000C001C002C003120AE5EE3395E0FDFC74
:100BAB00D003D002D001D0001201B78F748E738D99
:030BBB00728C71C8
:010BBE002214
:100647008E798F7AC3E579648094804056120AE5E3
:100657007C047D4C1200D2C3ED957AE5796480F86D
:10066700EC6480985020E4751432F513F512F511F7
:10067700781174FF12024EEC4D4E4F7003020708BB
:10068700D291C29080EAE4751432F513F512F51190
:10069700781174FF12024EEC4D4E4F6064C291C246
:1006A7009080EDC3E4957AF57AE49579F579120AA5
:1006B700E57C047D4C1200D2C3ED957AE579648020
:1006C700F8EC648098501DE4751432F513F512F5B3
:1006D70011781174FF12024EEC4D4E4F6023C291F8
:1006E700D29080EDE4751432F513F512F5117811F7
:1006F70074FF12024EEC4D4E4F6006C291C29080BD
:02070700ED22E1
:100709008E7B8F7CC3E57B648094804056120AE51A
:100719007C037DE81200D2C3ED957CE57B6480F80B
:10072900EC6480985020E4751432F513F512F51134
:10073900781174FF12024EEC4D4E4F70030207CA36
:10074900D293C29280EAE4751432F513F512F511C9
:10075900781174FF12024EEC4D4E4F6064C293C281
:100769009280EDC3E4957CF57CE4957BF57B120AD8
:10077900E57C037DE81200D2C3ED957CE57B6480BE
:10078900F8EC648098501DE4751432F513F512F5F0
:1007990011781174FF12024EEC4D4E4F6023C29333
:1007A900D29280EDE4751432F513F512F511781132
:1007B90074FF12024EEC4D4E4F6006C293C29280F6
:0207C900ED221F
:10097400D3E52594E8E52464809483400875240332
:100984007525E88013C3E5259418E5246480947CD8
:1009940050067524FC752518D3E52794E8E52664EC
:1009A40080948340087526037527E88013C3E527E0
:1009B4009418E5266480947C50067526FC752718E7
:1009C400E5272525F51FE5263524F51EC3E52795DE
:0A09D40025F521E5269524F52022E3
:1002A000E4F524F525F526F527C3E50A9450E5097C
:1002B00094004004E5086046750801E42525F5250D
:1002C000E43524F524AE09AF0A7C007D0712006BEB
:1002D000C374B09FFF74049EFEC3E49FFFE49EFEC0
:1002E000EF2527F527EE3526F526D3E50A94C8E550
:1002F000099400500302041AE4F50802041AC3E545
:100300000A94E6E50994004004E517607775170143
:10031000D3E50C94FAE50B9400401FE4950AFFE442
:100320009509FE7C007D0312006BEF24DEFFEE34A6
:1003300003FEC3E49FFFE49E8017C3E4950AFFE435
:100340009509FE7C007D0312006BEF24DEFFEE3486
:1003500003FEEF2525F525EE3524F524E50A24884E
:10036000FFE50934FFFEEF2527F527EE3526F526B4
:10037000D3E50A9490E5099401500302041AE4F5C8
:100380001702041AC3E50C9446E50B94004004E5FB
:10039000196030751901742C2525F5257401352453
:1003A000F524E50BC313FEE50C132527F527EE35E1
:1003B00026F526D3E50C94AAE50B9400405CE4F501
:1003C000198057C3E50C94C2E50B94015036AE0B6F
:1003D000AF0C7C007D0312006BEF2404FFEE3401B0
:1003E000FEEF2527F527EE3526F526E50C246AFFD6
:1003F000E50B34FFFEC3E49FFFE49EFEEF2525F5E9
:1004000025EE801274E82527F52774033526F52696
:0D041000E42525F525E43524F524020974C2
:0E0F2A00AF1FAE1E120647AF21AE2002070910
:10090900E4751402F513F512F511781174FF12024A
:100919004EEC4D4E4F601EE4F524F5257526037502
:1009290027E8120974AF1FAE1E120647AF21AE2089
:1009390012070980D5E475140AF513F512F5117833
:100949001174FF12024EEC4D4E4F601EE4F524F572
:10095900257526FC752718120974AF1FAE1E1206DD
:0B09690047AF21AE2012070980D52205
:100E4E00757F09057FE57F75F00A84E5F07006125F
:100E5E000DCC120DF8AF1FAE1E120647AF21AE20FD
:050E6E0012070980DEFF
:100E7300D3EF9400EE94004019EF1FAA0670011EF1
:100E83004A600F7D01EDD3940040EE7C02DCFE1D31
:020E930080F3EA
:010E9500223A
:040D99008F828E8334
:100D9D007B05742F2582F582E43583F583AF031B24
:100DAD00EF601BD280AF82AE83120E73C280C3740C
:0E0DBD00089582FF74079583FE120E7380DF87
:010DCB002205
:100A8E00E4F57DF57EF524F525759003757DFF75EE
:100A9E007EF2AF7EAE7D120D99057EE57E7002056B
:100AAE007DD3940EE57D6480948040E67FF27EFFD8
:100ABE00120D997FD07E07120EDE7F0E7E00120D74
:100ACE00997FD07E07120EDEE4FFFE120D997FD0C5
:070ADE007E07120EDE80D539
:030C3F000147FF6B
:100D6300ADA0EDF45247E4FC74017E00A8040880B2
:100D730005C333CE33CED8F9FFEF5547601174481E
:100D83002CF80674482CF8E6D394144002760A0C27
:050D9300BC08D58D47EE
:010D98002238
:0F0F1B0074482FF8E6D39400400316D322C32264
:10088900020A8EE493A3F8E493A34003F68001F2ED
:1008990008DFF48029E493A3F85407240CC8C33370
:1008A900C4540F4420C8834004F456800146F6DF3F
:1008B900E4800B0102040810204080900C01E47EC2
:1008C900019360BCA3FF543F30E509541FFEE49334
:1008D900A360010ECF54C025E060A840B8E493A3FB
:1008E900FAE493A3F8E493A3C8C582C8CAC583CA26
:1008F900F0A3C8C582C8CAC583CADFE9DEE780BEDE
:010C420000B1
:10001E00BB010689828A83E0225002E722BBFE02E0
:09002E00E32289828A83E4932213
:10003700BB010989828A83F8E028F022500327F759
:1000470022BBFE05F8E328F3228A838982F8E4932A
:0200570028225D
:10005900BB010689828A83F0225002F722BBFE0186
:02006900F32280
:10006B00EF8DF0A4A8F0CF8CF0A428CE8DF0A42EA9
:02007B00FE2263
:10007D00BC000BBE0029EF8DF084FFADF022E4CC67
:10008D00F875F008EF2FFFEE33FEEC33FCEE9DEC30
:10009D00984005FCEE9DFE0FD5F0E9E4CEFD22ED76
:1000AD00F8F5F0EE8420D21CFEADF075F008EF2FC0
:1000BD00FFED33FD4007985006D5F0F222C398FDB1
:0500CD000FD5F0EA224E
:1000D200C2D5EC30E709B2D5E4C39DFDE49CFCEE49
:1000E20030E715B2D5E4C39FFFE49EFE12007DC344
:1000F200E49DFDE49CFC800312007D30D507C3E43F
:060102009FFFE49EFE22B7
:10010800BB010A89828A83E0F5F0A3E022500687C2
:10011800F009E71922BBFE07E3F5F009E319228984
:0B012800828A83E493F5F074019322B7
:10013300BB0110E58229F582E5833AF583E0F5F00A
:10014300A3E0225009E92582F886F008E622BBFEE7
:100153000AE92582F8E2F5F008E222E5832AF5832D
:08016300E993F5F0A3E99322F2
:10016B00BB010A89828A83F0E5F0A3F0225006F7DF
:0F017B0009A7F01922BBFE06F3E5F009F31922DC
:10018A00F8BB0111E58229F582E5833AF583E8F0A7
:10019A00E5F0A3F0225009E92582C8F608A6F02264
:0D01AA00BBFE09E92582C8F2E5F008F2224B
:1001B700E88FF0A4CC8BF0A42CFCE98EF0A42CFCE7
:1001C7008AF0EDA42CFCEA8EF0A4CDA8F08BF0A465
:1001D7002DCC3825F0FDE98FF0A42CCD35F0FCEBC4
:1001E7008EF0A4FEA9F0EB8FF0A4CFC5F02ECD3989
:0F01F700FEE43CFCEAA42DCE35F0FDE43CFC22F6
:10020600EB9FF5F0EA9E42F0E99D42F0EC6480C86F
:0602160064809845F0220F
:10021C00BB010DE58229F582E5833AF5830202786C
:10022C005007E92582F802026CBBFE07E92582F82B
:10023C00020284E58229F582E5833AF58302029075
:10024C007401FF3395E0FEFDFC080808E6CF2FF69D
:10025C0018E6CE3EF618E6CD3DF618E6CC3CF62276
:100AE500AC75AD76AE77AF787810EC4D4E4F70049F
:100AF5007CA57DA5C3EC13FCED13FDEE13FEEF13F2
:100B0500FF5010EC64CCFCED644CFDEE644EFEEF42
:100B150064CEFFD8DF8C758D768E778F78EE547F17
:0D0B2500FE228E758F7674A5F577F5782287
:0C026C00E6FC08E6FD08E6FE08E6FF22BE
:0C027800E0FCA3E0FDA3E0FEA3E0FF22F9
:0C028400E2FC08E2FD08E2FE08E2FF22B6
:10029000E493FC740193FD740293FE740393FF22B4
:00000001FF
