:0300000002062FC6
:0C062F00787FE4F6D8FD75817402067631
:100B08003F065B4F666D7D077F6F777C395E797135
:0D099F00083F0000000000000000013E00C5
:0F0B1800EF900B0893F590C37407953EF5A0225C
:0806BB008F3C8E3B8D3A8C3917
:1006C300E4F53DAF3CAE3BAD3AAC39EC4D4E4F603B
:1006D3003AE47B0AFAF9F812020C74082BF58274D7
:1006E3000B3AF583E493FF743F253DF8A607AF3C2F
:1006F300AE3BAD3AAC39E47B0AFAF9F812020C8F3F
:100703003C8E3B8D3A8C39053D80B8E53D700F90AA
:100713000B0893FFAE3D053D743F2EF8A607E53D5C
:10072300C39408500B743F253DF8E4F6053D80EE75
:0107330022A3
:100A1A00053EE53EC39408400674F8253EF53E744B
:0F0A2A003F253EF8E6F590C37407953EF5A022F0
:0B0B2700EF1FAC0670011E4C70F622A0
:100AB900EF1FAA0670011E4A600A7D82AC051DEC73
:040AC90060EE80F863
:010ACD002206
:100A56008F828E83E5821582AE83700215834E6087
:0B0A6600097FE87E03120AB980EA2233
:03000E00020AB92A
:100AA200E4FEFDEE25E0FEEF54012EFEEFC313FF40
:060AB2000DBD08EFAF06C8
:010AB800221B
:10057D008C638D648B608A618962E56425E0FFE59B
:10058D006333FEE92FF9EA3EFAC003C002C001123F
:10059D0000D2FDACF0C005C004E56625E0FFE565C1
:1005AD0033FEE5622FF9E5613EFAC003C002C001DA
:1005BD001200D2FDACF0C005C004E56425E0FFE5F6
:1005CD006333FEE5622FF9E5613EFAC002C0011208
:1005DD0000D2FDACF0E56625E0FFE56533AA61A923
:1005ED00628F82F5831200FDFFEC65F0FEED6FFF6B
:1005FD00D001D002EE8FF0120135D0E06EFED0E0CA
:10060D006FFFD001D002D003EE8FF0120135D0E094
:10061D006EFED0E06FFFD001D002D003EE8FF0025E
:02062D00013595
:100ACE00D3EF9DEC6480F8EE6480984006AE04AFE0
:040ADE00058000226D
:100AE200D3EF9DEC6480F8EE64809840028004AEFF
:040AF20004AF052226
:1004B1008B478A4889498C4A8D4BD3E54B9401E59A
:0A04C1004A64809480500302057C19
:1004CB00E4F54CF54DF54E754F01C3E54F954BE5F6
:1004DB004A6480F8E54E6480985042E54F25E0FF72
:1004EB00E54E33AB47AA48A9498F82F5831200FD2D
:1004FB00FFAEF01200D2FDC3EF9DEE95F050140548
:10050B004DE54D7002054CFDAC4C854E65854F6637
:10051B0012057D054FE54F70B1054E80ADE54D459C
:10052B004C6012AB47AA48A949854C65854D66E4DA
:10053B00FDFC12057DAB47AA48A949AD4DAC4C1249
:10054B0004B1E54D25E0FFE54C33FEAB47E5492F04
:10055B00F9E5483EFAE92402F9E43AFAC3E54B958A
:10056B004DCFE54A954CCF24FFFDEF34FFFC120431
:01057B00B1CE
:01057C00225C
:10082B008B508A518952E5571557AE5670021556A3
:10083B004E602EAB50E552F92402F552E551FA34D5
:10084B0000F5511200D2FFAEF0AB53E555F924027F
:10085B00F555E554FA3400F554EE8FF0120135805E
:02086B00C522A4
:100A8A008F708E6F8D6E8C6DEC33500302029EAFA9
:080A9A0070AE6FAD6EAC6D2271
:1007E2008F5B8E5A8D598C58AF5FAE5EAD5DAC5C3F
:1007F200AB5BAA5AA959A858D31202AC4015E55BC3
:10080200955FFFE55A955EFEE559955DFDE55895C4
:100812005CFC22C3E55F955BFFE55E955AFEE55DF4
:090822009559FDE55C9558FC2296
:100975008F748E738D728C71E4FFFEFDFCAB74AACF
:1009850073A972A871D31202AC40037F0122AC7126
:0A099500EC3350037FFF227F0022A5
:0808E3008B678A6889698D6A40
:1008EB00E4F56CF56BE56BC3956A501DAB67AA68B5
:1008FB00A96975F004E56BA4F58285F0831202C239
:0F090B00EF256CF56C056B80DCAF6CE4FCFDFE3A
:01091A0022BA
:060353008B1B8A1C891DB2
:10035900C003C002C001AB20AA21A92212001EFFBE
:100369002402540375F002A4F58285F083D001D0EC
:1003790002D0031200FDF52485F023AB1BAA1CA9AA
:100389001DEF2403540375F002A4F58285F083124E
:1003990000FDF52685F025C003C002C001AB20AAE7
:1003A90021A92212001E75F002A4F58285F083D0DE
:1003B90001D002D0031200FDF52885F0278C298D84
:1003C9002A2424FFE52734FAAB07FAE52824DCFFC1
:1003D900E52734058F82F583C3E5289526FDE527B2
:1003E9009525FCC3E5269524FFE5259523FE1200F6
:1003F9006BD3EF9400EE64809480403EE52825E0BD
:10040900FFE52733FEC3EF9526F52CEE9525F52B51
:10041900AF03AE02E52C24D4FDE52B34FEFC120A11
:10042900E2AA06AB07AF82AE83E52C242CFDE52BAF
:100439003401FC120ACE8E838F82D3E52A9582E598
:10044900836480F8E529648098400685832985823C
:100459002AC3E52A9BEA6480F8E529648098500458
:100469008A298B2AAB20AA21A922740112003712EA
:10047900001E5403120059AB1BAA1CA91DC003C0BE
:1004890002C001AB20AA21A92212001E75F002A404
:10049900F58285F083D001D002D003E529852AF0C1
:0704A900120154AE29AF2A35
:0104B0002229
:1009AC0001080004170000000001130001150001EC
:0B09BC000900011400011600010A00F0
:100A7100D2AFD2AB438990C28ED2A9758999C28C6B
:090A8100C2AAC2A8D28AD28822BE
:03001B00020B3C99
:080B3C00751400C28EC2AA323A
:03000B00020B44A1
:080B4400751300C28CC2A83237
:05000600C282C280224D
:1009C800E513600F0515E515C3940A401BE4F515FA
:1009D800F51322751301E4F58CF58AD28CD280FFC9
:0809E8000FBF05FCC280D2A87C
:0109F00022E4
:1009F100E514600F0516E516C3940A401BE4F516CD
:100A0100F51422751401E4F58DF58BD28ED282FF97
:080A11000FBF05FCC282D2AA4E
:010A190022BA
:10091B00E5097028E5136024750901AF8CEFFEAD76
:10092B008AEDFFC3EF940AEE94005004E4F509221C
:0C093B00C28CC2A8120016E4F509F513E6
:01094700228D
:10094800E50A7028E5146024750A01AF8DEFFEAD45
:100958008BEDFFC3EF940AEE94005004E4F50A22ED
:0C096800C28EC2AA120B4CE4F50AF51472
:010974002260
:090B32007F08780BE4F608DFFCF3
:010B3B002297
:100734007C007D1112006B7D6412007D7C277D108E
:100744001202F2C004C005C006C007E47B107A2779
:10075400F9F8AF1AAE19AD18AC1712020CAC00AD13
:1007640001AE02AF03D003D002D001D000EB2FF5CD
:100774001AEA3EF519E93DF518E83CF517AF1AAE4B
:0707840019AD18FC0206BBD1
:10078B008E328F33E47B107A27F9F8AF1AAE19AD9E
:10079B0018AC1712020CE47B107A27F9F8120181BE
:1007AB00C004A905AA06AB07AE32AF337C007D119E
:1007BB0012006B7D6412007DE4FCFDD000EB2FF585
:1007CB001AEA3EF519ED39F518EC38F517AF1AAEF4
:0707DB0019AD18FC0206BB7A
:0300160002078B53
:030B4C0002073469
:0300030002086D83
:10086D00C0E0C0F0C083C082C0D075D000C000C051
:10087D0001C002C003C004C005C006C00712091B99
:10088D00D007D006D005D004D003D002D001D000BF
:0B089D00D0D0D082D083D0F0D0E03269
:030013000208A838
:1008A800C0E0C0F0C083C082C0D075D000C000C016
:1008B80001C002C003C004C005C006C00712094831
:1008C800D007D006D005D004D003D002D001D00084
:0B08D800D0D0D082D083D0F0D0E0322E
:100AF6001209C81209F1120A1A7F027E00120AB9F7
:020B060080EE7F
:100A39007F4E7E617DBC7C001206BB120A71120BCF
:0D0A4900327FE87E03120AB9120AF680FE21
:10063B00020A39E493A3F8E493A34003F68001F292
:10064B0008DFF48029E493A3F85407240CC8C333C0
:10065B00C4540F4420C8834004F456800146F6DF8F
:10066B00E4800B010204081020408090099FE47E77
:10067B00019360BCA3FF543F30E509541FFEE49384
:10068B00A360010ECF54C025E060A840B8E493A34B
:10069B00FAE493A3F8E493A3C8C582C8CAC583CA76
:1006AB00F0A3C8C582C8CAC583CADFE9DEE780BE2E
:0109C700002F
:10001E00BB010689828A83E0225002E722BBFE02E0
:09002E00E32289828A83E4932213
:10003700BB010989828A83F8E028F022500327F759
:1000470022BBFE05F8E328F3228A838982F8E4932A
:0200570028225D
:10005900BB010689828A83F0225002F722BBFE0186
:02006900F32280
:10006B00EF8DF0A4A8F0CF8CF0A428CE8DF0A42EA9
:02007B00FE2263
:10007D00BC000BBE0029EF8DF084FFADF022E4CC67
:10008D00F875F008EF2FFFEE33FEEC33FCEE9DEC30
:10009D00984005FCEE9DFE0FD5F0E9E4CEFD22ED76
:1000AD00F8F5F0EE8420D21CFEADF075F008EF2FC0
:1000BD00FFED33FD4007985006D5F0F222C398FDB1
:0500CD000FD5F0EA224E
:1000D200BB010A89828A83E0F5F0A3E022500687F9
:1000E200F009E71922BBFE07E3F5F009E3192289BB
:0B00F200828A83E493F5F074019322EE
:1000FD00BB0110E58229F582E5833AF583E0F5F041
:10010D00A3E0225009E92582F886F008E622BBFE1D
:10011D000AE92582F8E2F5F008E222E5832AF58363
:08012D00E993F5F0A3E9932228
:10013500BB010A89828A83F0E5F0A3F0225006F715
:0F01450009A7F01922BBFE06F3E5F009F3192212
:10015400F8BB0111E58229F582E5833AF583E8F0DD
:10016400E5F0A3F0225009E92582C8F608A6F0229A
:0D017400BBFE09E92582C8F2E5F008F22281
:10018100E88FF0A4CC8BF0A42CFCE98EF0A42CFC1D
:100191008AF0EDA42CFCEA8EF0A4CDA8F08BF0A49B
:1001A1002DCC3825F0FDE98FF0A42CCD35F0FCEBFA
:1001B1008EF0A4FEA9F0EB8FF0A4CFC5F02ECD39BF
:0F01C100FEE43CFCEAA42DCE35F0FDE43CFC222C
:1001D00075F008758200EF2FFFEE33FECD33CDCCE6
:1001E00033CCC58233C5829BED9AEC99E582984069
:1001F0000CF582EE9BFEED9AFDEC99FC0FD5F0D646
:10020000E4CEFBE4CDFAE4CCF9A88222B800C1B96F
:100210000059BA002DEC8BF084CFCECDFCE5F0CBAD
:10022000F97818EF2FFFEE33FEED33FDEC33FCEBE6
:1002300033FB10D703994004EB99FB0FD8E5E4F9A1
:10024000FA227818EF2FFFEE33FEED33FDEC33FC8E
:10025000C933C910D7059BE99A4007EC9BFCE99A82
:10026000F90FD8E0E4C9FAE4CCFB2275F010EF2FC7
:10027000FFEE33FEED33FDCC33CCC833C810D707C7
:100280009BEC9AE899400AED9BFDEC9AFCE899F802
:0E0290000FD5F0DAE4CDFBE4CCFAE4C8F92295
:0E029E00C3E49FFFE49EFEE49DFDE49CFC2271
:1002AC00EB9FF5F0EA9E42F0E99D42F0EC6480C8C9
:0602BC0064809845F02269
:1002C200BB010DE58229F582E5833AF58302032B12
:1002D2005007E92582F802031FBBFE07E92582F8D1
:1002E200020337E58229F582E5833AF58302034367
:1002F200EC8EF0A4CCC5F0CCCDF8EFA4CEC5F02D99
:10030200FDE43CFCE8A42EC8C5F03DFDE43CFCEF56
:0D031200A4FFE5F028FEE43DFDE43CFC22E4
:0C031F00E6FC08E6FD08E6FE08E6FF220A
:0C032B00E0FCA3E0FDA3E0FEA3E0FF2245
:0C033700E2FC08E2FD08E2FE08E2FF2202
:10034300E493FC740193FD740293FE740393FF2200
:00000001FF
