:030000000205D620
:0C05D600787FE4F6D8FD75817A02061DDE
:0B0CEF00EF1FAC0670011E4C70F622D7
:100C9700EF1FAA0670011E4A600A7D82AC051DEC93
:040CA70060EE80F883
:010CAB002226
:100C21008F828E83E5821582AE83700215834E60BA
:0B0C3100097FE87E03120C9780EA2286
:03000E00020C974A
:100C5400E4FEFDEE25E0FEEF54012EFEEFC313FF8C
:060C64000DBD08EFAF0614
:010C6A002267
:100BFE00D3EF9400EE94004019EF1FAA0670011E69
:100C0E004A600F7D01EDD3940040EE7C02DCFE1DA8
:020C1E0080F361
:010C200022B1
:100524008C658D668B628A638964E56625E0FFE5E8
:100534006533FEE92FF9EA3EFAC003C002C0011296
:100544000108FDACF0C005C004E56825E0FFE567DF
:1005540033FEE5642FF9E5633EFAC003C002C0012F
:10056400120108FDACF0C005C004E56625E0FFE516
:100574006533FEE5642FF9E5633EFAC002C001125B
:100584000108FDACF0E56825E0FFE56733AA63A93F
:10059400648F82F583120133FFEC65F0FEED6FFF8B
:1005A400D001D002EE8FF012016BD0E06EFED0E0ED
:1005B4006FFFD001D002D003EE8FF012016BD0E0B8
:1005C4006EFED0E06FFFD001D002D003EE8FF002B8
:0205D400016BB9
:100CAC00D3EF9DEC6480F8EE6480984006AE04AF00
:040CBC00058000228D
:100CC000D3EF9DEC6480F8EE64809840028004AE1F
:040CD00004AF052246
:10038F008B408A4189428C438D44D3E5449401E5E7
:0A039F004364809480500302045A66
:1003A900E4F545F546F547754801C3E5489544E543
:1003B900436480F8E5476480985042E54825E0FFAA
:1003C900E54733AB40AA41A9428F82F58312013335
:1003D900FFAEF0120108FDC3EF9DEE95F050140534
:1003E90046E54670020545FDAC4585476785486881
:1003F9001205240548E54870B1054780ADE5464535
:10040900456012AB40AA41A942854567854668E423
:10041900FDFC120524AB40AA41A942AD46AC4512E8
:10042900038FE54625E0FFE54533FEAB40E5422F66
:10043900F9E5413EFAE92402F9E43AFAC3E54495BB
:1004490046CFE5439545CF24FFFDEF34FFFC12036A
:010459008F13
:01045A00227F
:1008EE008B528A538954E5591559AE5870021558D2
:1008FE004E602EAB52E554F92402F554E553FA340A
:10090E0000F553120108FFAEF0AB55E557F924027E
:10091E00F557E556FA3400F556EE8FF012016B805E
:02092E00C522E0
:100819008F5D8E5C8D5B8C5AAF61AE60AD5FAC5EF7
:10082900AB5DAA5CA95BA85AD31201B74015E55D77
:100839009561FFE55C9560FEE55B955FFDE55A9581
:100849005EFC22C3E561955DFFE560955CFEE55FB1
:09085900955BFDE55E955AFC2259
:100B83008F728E718D708C6FE4FFFEFDFCAB72AAC9
:100B930071A970A86FD31201B740037F0122AC6F14
:0A0BA300EC3350037FFF227F002295
:080A53008B698A6A896B8D6CC6
:100A5B00E4F56EF56DE56DC3956C501DAB69AA6A37
:100A6B00A96B75F004E56DA4F58285F0831201CDB9
:0F0A7B00EF256EF56E056D80DCAF6EE4FCFDFEC1
:010A8A002249
:060231008B1C8A1D891ED2
:10023700C003C002C001AB21AA22A92312001EFFDE
:100247002402540375F002A4F58285F083D001D00F
:1002570002D003120133F52585F024AB1CAA1DA992
:100267001EEF2403540375F002A4F58285F0831270
:100277000133F52785F026C003C002C001AB21AAD0
:1002870022A92312001E75F002A4F58285F083D0FF
:1002970001D002D003120133F52985F0288C2A8D6D
:1002A7002B2424FFE52834FAAB07FAE52924DCFFE1
:1002B700E52834058F82F583C3E5299527FDE528D1
:1002C7009526FCC3E5279525FFE5269524FE120014
:1002D7006BD3EF9400EE64809480403EE52925E0DF
:1002E700FFE52833FEC3EF9527F52DEE9526F52C70
:1002F700AF03AE02E52D24D4FDE52C34FEFC120C31
:10030700C0AA06AB07AF82AE83E52D242CFDE52CF2
:100317003401FC120CAC8E838F82D3E52B9582E5DA
:10032700836480F8E52A648098400685832A85825D
:100337002BC3E52B9BEA6480F8E52A648098500478
:100347008A2A8B2BAB21AA22A92374011200371208
:10035700001E5403120059AB1CAA1DA91EC003C0DE
:1003670002C001AB21AA22A92312001E75F002A424
:10037700F58285F083D001D002D003E52A852BF0E2
:0703870012018AAE2AAF2B20
:01038E00224C
:100AF6000116000118000114000117000119000178
:100B060015000210FFFF0212FFFF020A0000020E8C
:100B16000000020C03E802080000011A00011B0095
:100C6B00D2AFD2ABC28ED2A9758999C28CC2AAC29D
:060C7B00A8D28AD28822F3
:03001B0002086276
:10086200C0E0C0F0C083C082C0D075D000C000C05C
:1008720001C002C003C004C005C006C0077517004E
:10088200C28EC2AA7FD07E071209A6D007D006D098
:1008920005D004D003D002D001D000D0D0D082D075
:0608A20083D0F0D0E0322B
:03000B000208A840
:1008A800C0E0C0F0C083C082C0D075D000C000C016
:1008B80001C002C003C004C005C006C00775160009
:1008C800C28CC2A87FD07E07120C81D007D006D078
:1008D80005D004D003D002D001D000D0D0D082D02F
:0608E80083D0F0D0E032E5
:05000600C291C290222E
:100BAD00E516600F0518E518C3940A401BE4F51807
:100BBD00F51622751601E4F58CF58AD28CD290FFCC
:080BCD000FBF05FCC290D2A885
:010BD50022FD
:030B5700120BADD1
:100B5A00E517600F0519E519C3940A401BE4F51956
:100B6A00F51722751701E4F58DF58BD28ED291FF18
:080B7A000FBF05FCC291D2AAD5
:010B82002250
:1009E100E5147034E5166030751401AF8CEFFEAD7F
:1009F1008AEDFFC3EF940AEE94005004E4F514224B
:100A0100C28CC2A87C007D1112006B7D6412007D36
:080A1100120C81E4F514F51646
:010A190022BA
:100A1A00E5157034E5176030751501AF8DEFFEAD41
:100A2A008BEDFFC3EF940AEE94005004E4F515220F
:100A3A00C28EC2AA7C007D1112006B7D6412007DF9
:080A4A001209A6E4F515F517E9
:010A52002281
:03000300020930BF
:10093000C0E0C0F0C083C082C0D075D000C000C08D
:1009400001C002C003C004C005C006C0071209E10F
:10095000D007D006D005D004D003D002D001D000FB
:0B096000D0D0D082D083D0F0D0E032A5
:0300130002096B74
:10096B00C0E0C0F0C083C082C0D075D000C000C052
:10097B0001C002C003C004C005C006C007120A1A9A
:10098B00D007D006D005D004D003D002D001D000C0
:0B099B00D0D0D082D083D0F0D0E0326A
:040AC1008E3D8F3E99
:100AC500753F05742B253EF53EE4353DF53DAF3FBD
:100AD500153FEF601BD280AF3EAE3D120BFEC280CC
:100AE500C37408953EFF7407953DFE120BFE80DE2C
:010AF50022DE
:070662007DF47C01E4FFFEC2
:100669008E308F318C328D33C3E530648094805065
:100679003DC3E49531F531E49530F530E533153373
:10068900AE32700215324E60571207CC7C037DE8FA
:100699001200D2C3ED9531E5306480F8EC6480989E
:1006A9005006D292C29380D4C292C29380CEE533CF
:1006B9001533AE32700215324E60251207CC7C0319
:1006C9007DE81200D2C3ED9531E5306480F8EC6421
:1006D90080985006C292D29380D4C292C29380CE9F
:0106E90022EE
:1009A600D3EF94D0EE6480948740047E077FD0C353
:1009B600EE648094805003E4FEFFD3EF94E8EE6487
:1009C60080948340047E037FE8C3EF9513F50BEE16
:0B09D6009512F50A8E128F13020CFA26
:100C8100D3EF94D0EE6480948740047E077FD08EAA
:060C9100108F11020CFAA5
:100B2A007C007D0A1200D274E22FFF74FF3EFED3CE
:100B3A00EF9414EE6480948040047E007F14AD0725
:0D0B4A00AC0612006B7C007D1C1200D22254
:0C0CE3008E738F748C758D76E4FEFF22FA
:10045B007B017A00EF240CFFEE34FEFEE50F2FF547
:10046B000FE50E3EF50EC3EE64809480500B74FFC7
:10047B00FAFBC3E49FFFE49EFED3E49FEE6480F897
:10048B00748098500DC3EF9464EE64809480500296
:10049B00807BD374649FEE6480F87480985011C392
:1004AB00EF94C8EE6480948050067C007D028061DE
:1004BB00D374C89FEE6480F87480985011C3EF9486
:1004CB002CEE6480948150067C007D048043D374B1
:1004DB002C9FEE6480F874016480985011C3EF94E4
:1004EB0090EE6480948150067C007D068023D3744B
:1004FB00909FEE6480F874016480985010EF94F430
:10050B00EE6480948150067C007D0780047C007D26
:08051B0001AE02AF0312006BF8
:0105230022B5
:1006EA00D3E50B94F4E50A64809481401DE51194E6
:1006FA00E8E51064809483500875080075090A803B
:10070A0034AF0BAE0A120B2A801FAF13AE121204BB
:10071A005B8E088F09D3E51194F4E5106480948107
:10072A00400DAF13AE1212045B8E088F0980067556
:10073A0008FF7509FCD3E509940EE50864809480E6
:10074A00400875080075090E8013C3E50994F2E59F
:10075A00086480947F50067508FF7509F2AF09AEE8
:04076A0008020AC1B6
:100C3C00C2AF1206627FF27EFF120AC11206627FF9
:080C4C000E7E00120AC180EACD
:0B0CFA00E51A7003051B221206EA2217
:10076E00E4F51BF51A7D64FCAF0DAE0C1206697F25
:10077E00F27EFF120AC17FF47E01120BFE120B579E
:10078E007F0E7E00120AC17FF47E01120BFE120B49
:10079E0057E4FFFE120AC17FF47E01120BFE120B0C
:1007AE00AD120B5A7FF47E01120BFEE51BC39406AD
:0E07BE005008120BAD120B5A80F1751A012271
:100BD600E4F52EF52F120C6B750C03750DE8120754
:100BE6006ED281120BAD120B5AC2817D027C00AF10
:080BF6000DAE0C12066980E946
:030B26000149FF83
:100A8B00ADA0EDF45249E4FC74017E00A80408808B
:100A9B0005C333CE33CED8F9FFEF55496011744AF5
:100AAB002CF806744A2CF8E6D394144002760A0C00
:050ABB00BC08D58D49C7
:010AC0002213
:0F0CD400744A2FF8E6D39400400316D322C322AC
:1005E200020BD6E493A3F8E493A34003F68001F24E
:1005F20008DFF48029E493A3F85407240CC8C3331A
:10060200C4540F4420C8834004F456800146F6DFE8
:10061200E4800B0102040810204080900AF6E47E78
:10062200019360BCA3FF543F30E509541FFEE493DD
:10063200A360010ECF54C025E060A840B8E493A3A4
:10064200FAE493A3F8E493A3C8C582C8CAC583CACF
:10065200F0A3C8C582C8CAC583CADFE9DEE780BE87
:010B290000CB
:10001E00BB010689828A83E0225002E722BBFE02E0
:09002E00E32289828A83E4932213
:10003700BB010989828A83F8E028F022500327F759
:1000470022BBFE05F8E328F3228A838982F8E4932A
:0200570028225D
:10005900BB010689828A83F0225002F722BBFE0186
:02006900F32280
:10006B00EF8DF0A4A8F0CF8CF0A428CE8DF0A42EA9
:02007B00FE2263
:10007D00BC000BBE0029EF8DF084FFADF022E4CC67
:10008D00F875F008EF2FFFEE33FEEC33FCEE9DEC30
:10009D00984005FCEE9DFE0FD5F0E9E4CEFD22ED76
:1000AD00F8F5F0EE8420D21CFEADF075F008EF2FC0
:1000BD00FFED33FD4007985006D5F0F222C398FDB1
:0500CD000FD5F0EA224E
:1000D200C2D5EC30E709B2D5E4C39DFDE49CFCEE49
:1000E20030E715B2D5E4C39FFFE49EFE12007DC344
:1000F200E49DFDE49CFC800312007D30D507C3E43F
:060102009FFFE49EFE22B7
:10010800BB010A89828A83E0F5F0A3E022500687C2
:10011800F009E71922BBFE07E3F5F009E319228984
:0B012800828A83E493F5F074019322B7
:10013300BB0110E58229F582E5833AF583E0F5F00A
:10014300A3E0225009E92582F886F008E622BBFEE7
:100153000AE92582F8E2F5F008E222E5832AF5832D
:08016300E993F5F0A3E99322F2
:10016B00BB010A89828A83F0E5F0A3F0225006F7DF
:0F017B0009A7F01922BBFE06F3E5F009F31922DC
:10018A00F8BB0111E58229F582E5833AF583E8F0A7
:10019A00E5F0A3F0225009E92582C8F608A6F02264
:0D01AA00BBFE09E92582C8F2E5F008F2224B
:1001B700EB9FF5F0EA9E42F0E99D42F0EC6480C8BF
:0601C70064809845F0225F
:1001CD00BB010DE58229F582E5833AF5830202092B
:1001DD005007E92582F80201FDBBFE07E92582F8EB
:1001ED00020215E58229F582E5833AF583020221A3
:1007CC00AC77AD78AE79AF7A7810EC4D4E4F7004B3
:1007DC007CA57DA5C3EC13FCED13FDEE13FEEF130E
:1007EC00FF5010EC64CCFCED644CFDEE644EFEEF5F
:1007FC0064CEFFD8DF8C778D788E798F7AEE547F2C
:0D080C00FE228E778F7874A5F579F57A229B
:0C01FD00E6FC08E6FD08E6FE08E6FF222E
:0C020900E0FCA3E0FDA3E0FEA3E0FF2268
:0C021500E2FC08E2FD08E2FE08E2FF2225
:10022100E493FC740193FD740293FE740393FF2223
:00000001FF
