:020000040800F2
:100000006809002055030008C1020008C302000867
:10001000C7020008CB020008CF0200080000000061
:10002000000000000000000000000000D5020008F1
:10003000D302000800000000D7020008D90200081F
:10004000DB020008DD020008DF020008E102000810
:10005000E3020008E5020008E7020008E9020008E0
:10006000EB020008ED020008EF020008F1020008B0
:10007000F3020008F5020008F7020008F902000880
:10008000FB020008FD020008FF020008010300084F
:10009000030300080503000807030008090300081C
:1000A0000B0300080D0300080F03000811030008EC
:1000B00013030008150300081703000819030008BC
:1000C0001B0300081D0300081F030008210300088C
:1000D000230300082503000827030008290300085C
:1000E0002B0300082D0300082F030008310300082C
:1000F00033030008350300083703000839030008FC
:100100003B0300083D0300083F03000841030008CB
:10011000430300084503000847030008490300089B
:100120004B0300084D0300084F030008510300086B
:1001300000F002F800F03AF80AA090E8000C8244BF
:100140008344AAF10107DA4501D100F02FF8AFF29C
:10015000090EBAE80F0013F0010F18BFFB1A43F0A5
:10016000010318472426000044260000103A24BF4B
:1001700078C878C1FAD8520724BF30C830C144BF0C
:1001800004680C607047000000230024002500264E
:10019000103A28BF78C1FBD8520728BF30C148BFEA
:1001A0000B6070471FB51FBD10B510BD02F0AAFA55
:1001B0001146FFF7F7FF00F071F802F0C8FA03B438
:1001C000FFF7F2FF03BC02F0CDFA0020704710B534
:1001D00000214FF0006001F0F9FB10BD10B501F0F7
:1001E000FBFD4FF4803001F024FE01F09AFE04463E
:1001F000012C24D1102000F0F5F8022000F0BCF80A
:10020000002001F046FF002001F087FFA00201F06E
:1002100064FF4FF4E011200401F0C1FE012001F061
:100220000CFF00BF392001F03EFE0028FAD002206A
:1002300001F011FF00BF01F026FF0828FBD110BD1F
:1002400010B5FFF7CBFFFFF7C2FF10BD08B50121C6
:100250000D2002F0E9F80121164800F0B2FC4FF63B
:10026000FF70ADF8000010208DF8030003208DF81A
:10027000020069461048006800F06CF94FF6FF7004
:10028000ADF8000004208DF8030003208DF8020073
:1002900069460A48006800F05DF908BD10B500F035
:1002A000ADFDFFF7CDFFFFF7D1FFFFF78EFF10BDCC
:1002B00000BFFEE7000430005C000020600000206A
:1002C000704700BFFEE700BFFEE700BFFEE700BFCC
:1002D000FEE7704770477047704770477047704738
:1002E0007047704770477047704770477047704756
:1002F0007047704770477047704770477047704746
:100300007047704770477047704770477047704735
:100310007047704770477047704770477047704725
:100320007047704770477047704770477047704715
:100330007047704770477047704770477047704705
:1003400070477047704770477047704770477047F5
:10035000704700000348004703480449044A054B1E
:100360007047000031010008680100206809002082
:10037000680500206805002010B504461CB1012C5A
:1003800001D0022C00D103E0592123A0FFF790FFF8
:100390002E480068006800F038002C4909680860A1
:1003A0002A4800680068204328490968086010BD91
:1003B00010B50446082C00D004B903E06D2116A046
:1003C000FFF776FF21480068006820F008001F4909
:1003D000096808601D480068006820431B490968D7
:1003E000086010BD10B50446102C00D004B903E01D
:1003F000812109A0FFF75CFF14480068006820F025
:10040000100012490968086010480068006820431D
:100410000E490968086010BD4A3A5C4B65696C5C1E
:1004200041524D5C46575C46574C69625C6C696250
:10043000726172795C7372635C73746D33326631AE
:1004400030785F666C6173682E630000D80000200E
:1004500010B50446F948844211D0F94884420ED0C0
:10046000F84884420BD0F848844208D0F7488442C8
:1004700005D0F748844202D0F648844200D103E018
:100480003621F5A0FFF714FFEF49601A8C422FD0F8
:1004900009DCFE48201810D0B0F5806F16D0B0F5FA
:1004A000006F4AD11BE0B0F5806F2AD0B0F5006F25
:1004B00030D0B0F5406F40D135E00121042002F08A
:1004C00007F80021042002F003F837E0012108209A
:1004D00001F0FEFF0021082001F0FAFF2EE00121CB
:1004E000102001F0F5FF0021102001F0F1FF25E0C0
:1004F0000121202001F0ECFF0021202001F0E8FF85
:100500001CE00121402001F0E3FF0021402001F028
:10051000DFFF13E00121802001F0DAFF00218020BD
:1005200001F0D6FF0AE00121080201F0D1FF00210D
:100530004FF4807001F0CCFF00E000BF00BF10BDA1
:1005400010B50121084601F0C3FF0021012001F090
:10055000BFFF10BD2DE9F05F05460C464FF00009C6
:10056000CA4600260027B046B346B448854211D09B
:10057000B34885420ED0B34885420BD0B24885427D
:1005800008D0B248854205D0B148854202D0B14872
:10059000854200D103E08221AFA0FFF789FEE07819
:1005A000A0B1E078042811D0E07828280ED0E078B7
:1005B00048280BD0E078142808D0E078102805D01F
:1005C000E0781C2802D0E078182800D103E08321CD
:1005D000A1A0FFF76DFE002010B9208800B103E054
:1005E00084219DA0FFF764FEE07800F00F09E07819
:1005F00010F0100F10D0A078012805D0A0780228A4
:1006000002D0A078032800D103E08C2192A0FFF74C
:100610004FFEA07840EA0909207838B3D5F8008069
:1006200000261FE0012000FA06F7208800EA070AEA
:10063000BA4516D1B7000F2000FA07FB28EA0B08CD
:1006400009FA07F040EA0808E078282803D10120D9
:10065000B040686105E0E078482802D10120B04050
:100660002861761C082EDDD3C5F800802088FF287D
:100670002BDDD5F80480002623E006F108000121D7
:1006800001FA00F7208800EA070ABA4518D1B70036
:100690000F2000FA07FB28EA0B0809FA07F040EAE6
:1006A0000808E078282803D106F108008140696134
:1006B000E078482804D106F1080001218140296131
:1006C000761C082ED9D3C5F80480BDE8F09F4FF6FC
:1006D000FF710180022181700421C170704770B5E3
:1006E00005460C4600265548854211D0544885429F
:1006F0000ED0544885420BD05348854208D0534809
:10070000854205D05248854202D05248854200D1E8
:1007100003E0FB2150A0FFF7CBFD012C25D0022CDC
:1007200023D0042C21D0082C1FD0102C1DD0202C1D
:100730001BD0402C19D0802C17D0B4F5807F14D05A
:10074000B4F5007F11D0B4F5806F0ED0B4F5006F12
:100750000BD0B4F5805F08D0B4F5005F05D0B4F5D8
:10076000804F02D0B4F5004F00D103E0FC213AA045
:10077000FFF79EFDA868204201D0012600E0002678
:10078000304670BD10B504462C48844211D02C4828
:1007900084420ED02B4884420BD02B48844208D090
:1007A0002A48844205D02A48844202D029488442FB
:1007B00000D104E040F2131127A0FFF779FDA068F3
:1007C00080B210BD70B505460C4600261B48854218
:1007D00011D01B4885420ED01A4885420BD01A48CA
:1007E000854208D01948854205D01948854202D073
:1007F0001848854200D104E04FF4937116A0FFF72A
:1008000057FD012C50D0022C4ED0042C4CD0082C7B
:100810004AD0102C48D0202C46D0402C44D0802CDC
:1008200042D0B4F5807F3FD0B4F5007F3CD0B4F522
:10083000806F39D0B4F5006F36D029E00008014050
:10084000000C01400010014000140140001801405C
:10085000001C0140002001404A3A5C4B65696C5C19
:1008600041524D5C46575C46574C69625C6C69620C
:10087000726172795C7372635C73746D333266316A
:1008800030785F6770696F2E6300000000F8FEBF6C
:10089000B4F5805F08D0B4F5005F05D0B4F5804FA3
:1008A00002D0B4F5004F00D105E040F22711AFF2BD
:1008B0005800FFF7FDFCE868204201D0012600E067
:1008C0000026304670BD10B50446F848844211D069
:1008D000F74884420ED0F74884420BD0F648844251
:1008E00008D0F648844205D0F548844202D0F54845
:1008F000844200D105E04FF49F71AFF2A400FFF7EE
:10090000D7FCE06880B210BD70B504460D46E748DC
:10091000844211D0E64884420ED0E64884420BD08F
:10092000E548844208D0E548844205D0E448844242
:1009300002D0E448844200D105E04FF4A871AFF240
:10094000E800FFF7B5FC002008B905B105E040F26A
:100950005111AFF2FC00FFF7ABFC256170BD70B523
:1009600004460D46D148844211D0D14884420ED06D
:10097000D04884420BD0D048844208D0CF4884422B
:1009800005D0CF48844202D0CE48844200D105E051
:1009900040F26311AFF24010FFF78AFC002008B963
:1009A00005B105E04FF4B271AFF25410FFF780FCCF
:1009B000656170BD70B505460C461646BB4885425C
:1009C00011D0BB4885420ED0BA4885420BD0BA48F8
:1009D000854208D0B948854205D0B948854202D041
:1009E000B848854200D105E040F27911AFF2981085
:1009F000FFF75EFC012C25D0022C23D0042C21D043
:100A0000082C1FD0102C1DD0202C1BD0402C19D00E
:100A1000802C17D0B4F5807F14D0B4F5007F11D0AE
:100A2000B4F5806F0ED0B4F5006F0BD0B4F5805FD5
:100A300008D0B4F5005F05D0B4F5804F02D0B4F50E
:100A4000004F00D105E04FF4BD71AFF2F410FFF795
:100A50002FFC0EB1012E00D105E040F27B11AFF268
:100A60000820FFF725FC0EB12C6100E06C6170BD21
:100A700070B504460D468D48844211D08C4884429E
:100A80000ED08C4884420BD08B48844208D08B48CF
:100A9000844205D08A48844202D08A48844200D1E8
:100AA00005E040F29311AFF25020FFF701FCE56042
:100AB00070BD70B504460D464FF480367B488442C5
:100AC00011D07B4884420ED07A4884420BD07A48B9
:100AD000844208D07948844205D07948844202D0C3
:100AE0007848844200D105E040F2A711AFF2982087
:100AF000FFF7DEFB002008B905B105E04FF4D47123
:100B0000AFF2AC20FFF7D4FB2E43A661A561A6612E
:100B1000A669A66970BD70B505460C4600263DB1B4
:100B2000012D05D0022D03D0032D01D0042D00D1BD
:100B300005E04FF4E471AFF2E020FFF7B9FBECB150
:100B4000012C1BD0022C19D0032C17D0042C15D04B
:100B5000052C13D0062C11D0072C0FD0082C0DD04B
:100B6000092C0BD00A2C09D00B2C07D00C2C05D04B
:100B70000D2C03D00E2C01D00F2C00D105E040F23B
:100B8000C911AFF22C30FFF793FB4F48006806689D
:100B90004FF68070064046EA051626434A4800682C
:100BA000066070BD10B504460CB1012C00D105E003
:100BB00040F2DF11AFF26030FFF77AFB4348C461C7
:100BC00010BD2DE9F04704460E460027B846002523
:100BD000A946012C42D0022C40D0042C3ED0082C37
:100BE0003CD0A4F5A010103838D0203836D0A4F569
:100BF000B010403832D0803830D0354884422DD0C3
:100C0000344884422AD03448844227D0334884422E
:100C100024D03348844221D0B4F5805F1ED0B4F58F
:100C2000EA1F1BD0B4F5EB1F18D0B4F5004F15D058
:100C30002C48844212D0A4F50010801E0ED0801ED5
:100C40000CD0001F0AD0083808D02748844205D0AD
:100C50002648844202D02648844200D105E04FF461
:100C60000371AFF20C40FFF723FB0EB1012E00D150
:100C700005E040F20D21AFF22040FFF719FB1248CA
:100C800000684568C4F30349A7B204F44010B0F506
:100C9000401F2FD125F070650B480068406820F098
:100CA000706009490968486038E0000000080140A8
:100CB000000C0140001001400014014000180140E8
:100CC000001C014000200140540000200000204290
:100CD00000011800000218000003180000081A00A4
:100CE000000C1A000100200000013000000230005A
:100CF0000004300004F48010B0F5801F07D10320F9
:100D000000FA09F825EA080545F0706506E0600D6F
:100D1000000107FA00F0854345F0706526B1600DCB
:100D2000010107FA01F00543334800684560BDE85A
:100D3000F08770B505460C4600265DB1012D09D03F
:100D4000022D07D0032D05D0042D03D0052D01D091
:100D5000062D00D105E040F23E21AFF20450FFF72E
:100D6000A7FAECB1012C1BD0022C19D0032C17D000
:100D7000042C15D0052C13D0062C11D0072C0FD025
:100D8000082C0DD0092C0BD00A2C09D00B2C07D025
:100D90000C2C05D00D2C03D00E2C01D00F2C00D123
:100DA00005E040F23F21AFF25050FFF781FAA00773
:100DB000010F0F2000FA01F6A1100F48006808305B
:100DC00050F82100B043A2100B490968083141F8DE
:100DD0002200A11008480068083050F82100A1073F
:100DE000090F05FA01F10843A21003490968083107
:100DF00041F8220070BD0000540000206A486B4991
:100E000008606B486B4908606B486C4908606C4827
:100E10006C4908606C486D4908606D486D49086010
:100E20006D486E4908606E486E4908606E486F49AB
:100E300008606F486F4908606B4808306E49086069
:100E400069481C306D490860674830306C4908605B
:100E5000654844306B490860634858306A49086007
:100E600061486C30694908605F48803068490860B3
:100E70005F480830674908605D481C306649086073
:100E80005B4830306549086059484430644908601F
:100E900057485830634908606348644908606448AB
:100EA000644908606448654908604FF0204064491F
:100EB00008606448644908606248A438634908606F
:100EC00060488438624908605E4864386149086057
:100ED0006148624908606248624908606248634943
:100EE000086063486349086063486449086064486F
:100EF0006449086064486549086065486549086058
:100F000065486649086066486649086066486749FA
:100F1000086067486749086067486849086068482A
:100F20006849086068486949086069486949086013
:100F300069486A4908606A486A4908606A486B49B2
:100F400008606B486B4908605948F0386A49086086
:100F50006A486B4908604FF080406A4908606A48F7
:100F60006A4908606A486B4908606B486B490860C9
:100F70006B486C4908606C486C4908606C486D4966
:100F800008606D486D4908606D486E4908606E489C
:100F90006E4908606E486F4908606F486F49086085
:100FA0006F487049086070470024014078000020B5
:100FB000002801407C000020003C014090000020FF
:100FC000006C004048000020006400404400002005
:100FD00000300240D4000020007400405000002087
:100FE000002004E0F40000200000024098000020EF
:100FF000000402409C000020A0000020A40000206B
:10100000A8000020AC000020B0000020B4000020A8
:10101000B8000020BC000020C0000020C400002058
:10102000C8000020CC00002000040140580000202F
:1010300000200240D800002000F8FF1FDC00002044
:10104000E0000020040100A0E4000020E8000020EF
:10105000EC000020F0000020000801405C000020AF
:10106000000C0140600000200010014064000020DE
:101070000014014068000020001801406C000020AE
:10108000001C01407000002000200140740000207E
:101090000000014054000020005400403C000020AB
:1010A0000058004040000020003000402000002098
:1010B00000E100E0FC00002000ED00E00001002065
:1010C000007000404C00002000100240D0000020C2
:1010D00000280040180000200080014094000020FB
:1010E000003001408400002000380040240000202F
:1010F000003C004028000020F8000020002C0140A7
:1011000080000020000000200004004004000020B7
:101110000008004008000020000C00400C000020E7
:1011200000100040100000200014004014000020B7
:101130000034014088000020003801408C0000206D
:10114000004400402C0000200048004030000020F7
:10115000004C0040340000200050004038000020C7
:10116000002C00401C0000200020411EFE4A126896
:10117000C2F880100A09FC490968C1F88420411EA0
:10118000F94A1268C2F880110A09F7490968C1F8DA
:10119000842100BF07E00022F349096801F540718E
:1011A00041F82020401C0F28F5D3704700204FF055
:1011B0002061EE4A126851600021EC4A1268916089
:1011C000EB49EA4A1268D1600021E84A12681161CD
:1011D000E64A1268516100BF06E00022E34909684F
:1011E000183141F82020401C0328F6D30021DF4AA3
:1011F00012685162491EDD4A12689162DB4A126828
:10120000D162DA4A12681163704710B50446B4F52A
:10121000E06F0BD0B4F5C06F08D0B4F5A06F05D067
:10122000B4F5806F02D0B4F5407F00D103E06421B3
:10123000D0A0FFF73DF8CE482043CC490968C860EC
:1012400010BD2DE9F0470446002500260027A946D9
:101250004FF00F08E07810B1E078012800D103E0EA
:101260007A21C4A0FFF724F8207800287ED02078C7
:101270000128FBD020780228F8D020780328F5D068
:1012800020780428F2D020780528EFD0207806288E
:10129000ECD020780728E9D020780828E6D02078FC
:1012A0000928E3D020780A28E0D020780B28DDD068
:1012B00020780C285AD020780D2857D020780E2876
:1012C00054D020780F2851D0207810284ED0207884
:1012D00011287FD0207812287CD02078132879D04C
:1012E0002078142876D02078152873D020781628F6
:1012F00070D0207817286DD0207818286AD02078F0
:10130000192867D020781A2864D020781B2861D04B
:1013100020781C285ED020781D285BD020781E28DD
:1013200058D020781F2855D02078202852D02078F7
:1013300021284FD0207822284CD02078232849D04B
:101340002078242846D02078252843D020782628C5
:1013500040D0207827283DD0207828283AD02078FF
:10136000292837D020782A2834D000E032E02078AD
:101370002B282FD020782C282CD020782D2829D04D
:1013800020782E2826D020782F2823D020783028A7
:1013900020D0207831281DD0207832281AD020780B
:1013A000332817D02078342814D02078352811D04D
:1013B000207836280ED0207837280BD0207838288F
:1013C00008D02078392805D020783A2802D0207813
:1013D0003B2800D103E07B2166A0FEF769FF60781F
:1013E000102800DA03E07C2162A0FEF761FFA078FC
:1013F000102800DA03E07D215EA0FEF759FFE078B7
:10140000E0B35A480068C06800F4E060C0F5E060EE
:10141000050AC5F1040928FA05F8607800FA09F50B
:10142000A07800EA080005432D0120788007C00E4F
:101430008540207881104C48006800F5407050F8D5
:10144000216020788007C10EFF2000FA01F7BE431B
:101450003D402E43207881104348006800F54070DD
:1014600040F82160207800F01F0101208840217899
:1014700049113D4A126842F821000CE0FFE720784C
:1014800000F01F010120884021784A11364909687F
:10149000803141F82200BDE8F087002101704170E1
:1014A0008170C170704710B501F013F910BD10B50F
:1014B00001F00DF910BD10B501F010F910BD10B517
:1014C00001F00EF910BD10B50446102C00D203E057
:1014D000ED2128A0FEF7ECFE200101F006F910BD79
:1014E00010B501F005F910BD204800684068C0F350
:1014F0000930704770B5044600260025002C7DD0C9
:10150000012C7BD0022C79D0032C77D0042C75D001
:10151000052C73D0062C71D0072C6FD0082C6DD001
:10152000092C6BD00A2C69D00B2C67D00C2C65D001
:101530000D2C7ED00E2C7CD00F2C7AD0102C78D095
:10154000112C76D0122C74D0132C72D0142C70D095
:10155000152C6ED0162C6CD0172C6AD0182C68D095
:10156000192C66D01A2C1FE0FC000020000100207E
:101570000000FA054A3A5C4B65696C5C41524D5C6F
:1015800046575C46574C69625C6C6962726172795D
:101590005C7372635C73746D3332663130785F6E86
:1015A0007669632E6300000043D01B2C41D01C2CB5
:1015B0003FD01D2C3DD01E2C3BD01F2C39D0202CD1
:1015C00037D0212C35D0222C33D0232C31D0242CD1
:1015D0002FD0252C2DD0262C2BD0272C29D0282CD1
:1015E00027D0292C25D02A2C23D02B2C21D02C2CD1
:1015F0001FD02D2C1DD02E2C1BD000E019E02F2C3D
:1016000017D0302C15D0312C13D0322C11D0332CD4
:101610000FD0342C0DD0352C0BD0362C09D0372CD4
:1016200007D0382C05D0392C03D03A2C01D03B2CD4
:1016300000D105E04FF48C71AFF2C800FEF738FE20
:1016400004F01F01012000FA01F56111FB48006858
:1016500000F5807050F821002840A84201D10126F1
:1016600000E00026304670BD10B50446002C75D051
:10167000012C73D0022C71D0032C6FD0042C6DD0B0
:10168000052C6BD0062C69D0072C67D0082C65D0B0
:10169000092C63D00A2C61D00B2C5FD00C2C5DD0B0
:1016A0000D2C5BD00E2C59D00F2C57D0102C55D0B0
:1016B000112C53D0122C51D0132C4FD0142C4DD0B0
:1016C000152C4BD0162C49D0172C47D0182C45D0B0
:1016D000192C43D01A2C41D01B2C3FD01C2C3DD0B0
:1016E0001D2C3BD01E2C39D01F2C37D0202C35D0B0
:1016F000212C33D0222C31D0232C2FD0242C2DD0B0
:10170000252C2BD0262C29D0272C27D0282C25D0AF
:10171000292C23D02A2C21D02B2C1FD02C2C1DD0AF
:101720002D2C1BD02E2C19D02F2C17D0302C15D0AF
:10173000312C13D0322C11D0332C0FD0342C0DD0AF
:10174000352C0BD0362C09D0372C07D0382C05D0AF
:10175000392C03D03A2C01D03B2C00D105E040F2CB
:101760003111AFF2F010FEF7A3FDB548046010BDD3
:1017700010B50446002C75D0012C73D0022C71D00A
:10178000032C6FD0042C6DD0052C6BD0062C69D0A7
:10179000072C67D0082C65D0092C63D00A2C61D0A7
:1017A0000B2C5FD00C2C5DD00D2C5BD00E2C59D0A7
:1017B0000F2C57D0102C55D0112C53D0122C51D0A7
:1017C000132C4FD0142C4DD0152C4BD0162C49D0A7
:1017D000172C47D0182C45D0192C43D01A2C41D0A7
:1017E0001B2C3FD01C2C3DD01D2C3BD01E2C39D0A7
:1017F0001F2C37D0202C35D0212C33D0222C31D0A7
:10180000232C2FD0242C2DD0252C2BD0262C29D0A6
:10181000272C27D0282C25D0292C23D02A2C21D0A6
:101820002B2C1FD02C2C1DD02D2C1BD02E2C19D0A6
:101830002F2C17D0302C15D0312C13D0322C11D0A6
:10184000332C0FD0342C0DD0352C0BD0362C09D0A6
:10185000372C07D0382C05D0392C03D03A2C01D0A6
:101860003B2C00D105E04FF4A071AFF2F820FEF759
:101870001FFD04F01F010120884062116F490968B3
:1018800001F5C07141F8220010BD6E480068406843
:10189000C0F30900704770B5044600260025002CEF
:1018A00075D0012C73D0022C71D0032C6FD0042C76
:1018B0006DD0052C6BD0062C69D0072C67D0082C76
:1018C00065D0092C63D00A2C61D00B2C5FD00C2C76
:1018D0005DD00D2C5BD00E2C59D00F2C57D0102C76
:1018E00055D0112C53D0122C51D0132C4FD0142C76
:1018F0004DD0152C4BD0162C49D0172C47D0182C76
:1019000045D0192C43D01A2C41D01B2C3FD01C2C75
:101910003DD01D2C3BD01E2C39D01F2C37D0202C75
:1019200035D0212C33D0222C31D0232C2FD0242C75
:101930002DD0252C2BD0262C29D0272C27D0282C75
:1019400025D0292C23D02A2C21D02B2C1FD02C2C75
:101950001DD02D2C1BD02E2C19D02F2C17D0302C75
:1019600015D0312C13D0322C11D0332C0FD0342C75
:101970000DD0352C0BD0362C09D0372C07D0382C75
:1019800005D0392C03D03A2C01D03B2C00D105E0F6
:101990004FF4B071AFF22440FEF78AFC04F01F014F
:1019A000012000FA01F561112448006800F500707B
:1019B00050F821002840A84201D1012600E000266D
:1019C000304670BD1F4800680068704770B5044617
:1019D0000D46B4F1005F02D0B4F1006F00D105E014
:1019E0004FF4C671AFF27440FEF762FC16488542B0
:1019F00000D205E040F28D11AFF28840FEF758FCAE
:101A0000124905EA010020430E490968886070BD4B
:101A10000F480C490968C86070470D48C01E094945
:101A20000968C860704770B504460D46102C03D095
:101A3000042C01D0022C0DD112E00000FC0000208B
:101A400000EF00E000010020FFFF070080FFFF1F04
:101A50000400FA0540F2BB11AFF2E840FEF728FCA3
:101A60000DB1012D00D105E04FF4DE71AFF2FC4065
:101A7000FEF71EFC3DB1D148006800692043CF4904
:101A80000968086106E0CD4800680069A043CB49B9
:101A90000968086170BD70B504460D460026C84847
:101AA000844205D0C748844202D0C748844200D14E
:101AB00005E040F2DB11AFF24450FEF7F9FB0DB147
:101AC000012D00D105E04FF4EE71AFF25850FEF752
:101AD000EFFB04F01F01012000FA01F63DB1B74809
:101AE0000068406A3043B5490968486206E0B34877
:101AF0000068406AB043B1490968486270BD2DE989
:101B0000F0470446884691460025FF27AA4600264E
:101B1000AB48844212D0AB4884420FD0AA488442DA
:101B20000CD0AA48844209D0A4F52020803805D0E2
:101B3000A748844202D0A748844200D105E040F281
:101B40000521AFF2D050FEF7B3FBB8F1100F00DA69
:101B500005E040F20621AFF2E450FEF7A9FBB9F12F
:101B6000100F00DA05E040F20721AFF2F850FEF75F
:101B70009FFB92480068C06800F4E060C0F5E06038
:101B8000060AC6F10405F74008FA05F609EA070057
:101B90000643360104F0C005AD09C4F30127F8007F
:101BA0008640F900FF2000FA01FA844800681830E6
:101BB00050F8250020EA0A0080490968183141F8E8
:101BC00025007E480068183050F8250030437B49D6
:101BD0000968183141F82500BDE8F0872DE9F0418A
:101BE00004460026002700257548844205D0754824
:101BF000844202D07548844200D105E040F22E2193
:101C0000AFF29060FEF754FBA50A05F00F05012026
:101C100000FA05F569480068406A00EA0507AF4226
:101C200001D1012600E000263046BDE8F08170B504
:101C3000044600251F2C05D06548844202D0654823
:101C4000844200D105E040F25321AFF2D860FEF7A4
:101C50002FFB04F01F055948006840680121A94086
:101C6000084356490968486070BD70B504460025B0
:101C70005748844202D05748844200D105E040F2E0
:101C80006B21AFF21070FEF713FB04F01F054B48F9
:101C900000684068691E01228A401043474909686C
:101CA000486070BD2DE9F04104460026002700255C
:101CB0004348844212D0434884420FD04248844271
:101CC0000CD04248844209D0A4F52020803805D0A9
:101CD0003F48844202D03F48844200D105E040F2B0
:101CE0008B21AFF27070FEF7E3FAC4F38335012065
:101CF00000FA05F531480068406A00EA0507AF427E
:101D000001D1012600E000263046BDE8F0812DE932
:101D1000F041044600250026002764B1284884428B
:101D200009D02848844206D02748844203D0A4F52D
:101D30002020803800D105E040F2B221AFF2CC7013
:101D4000FEF7B6FAC4F38146C4F301571EB91B4827
:101D50000068C56A11E0012E0CD118480068806A3D
:101D6000F90020FA01F5022F02D005F00F0504E07A
:101D7000EDB202E011480068056B2846BDE8F0812D
:101D800070B50446002500260D48844202D00D4857
:101D9000844200D105E04FF43871AFF62800FEF719
:101DA00087FAC4F380561EB904480068456B02E008
:101DB00002480068856B284670BD000000010020C5
:101DC000303404003179540032C2240040FF010055
:101DD0009C8202009AC30200F9480068006840F043
:101DE0000100F74909680860F54800684068F5494E
:101DF0000840F34909684860F14800680068F24902
:101E00000840EF4909680860ED480068006820F460
:101E10008020EB4909680860E9480068406820F4C0
:101E2000FE00E749096848600020E54909688860C4
:101E3000704710B504462CB1B4F5803F02D0B4F51C
:101E4000802F00D103E0A221E0A0FEF731FADC48A8
:101E50000068006820F48030D94909680860D848D3
:101E60000068006820F48020D54909680860B4F54E
:101E7000803F03D0B4F5802F12D108E0D04800682D
:101E8000006840F48030CE490968086009E0CC4819
:101E90000068006840F4A020C9490968086000E0B3
:101EA00000BF00BF10BD2DE9F0410446002500260B
:101EB0000027212C13D0312C11D0392C0FD0412CDC
:101EC0000DD0612C0BD07A2C09D07B2C07D07C2C28
:101ED00005D07D2C03D07E2C01D07F2C00D104E0D6
:101EE0004FF47971B9A0FEF7E3F96511012D03D123
:101EF000B3480068066808E0022D03D1B0480068C6
:101F0000066A02E0AE480068466A04F01F05012038
:101F1000A840304201D0012700E000273846BDE844
:101F2000F08138B5002000900024002500BF31204A
:101F3000FFF7B9FF05460098401C00901DB90098B6
:101F4000B0F5A06FF3D13120FFF7ADFF08B1012448
:101F500000E00024204638BD70B5044600251F2C43
:101F600000DC03E0EE2199A0FEF7A2F99448006896
:101F7000056825F0F80545EAC40591480068056044
:101F800070BD10B504460CB1012C00D104E040F244
:101F900009118EA0FEF78CF99948046010BD70B548
:101FA00005460C4600262DB1B5F5803F02D0B5F5AB
:101FB000403F00D104E04FF4927184A0FEF778F91D
:101FC0004CB3B4F5802F26D0B4F5002F23D0B4F550
:101FD000402F20D0B4F5801F1DD0B4F5A01F1AD01B
:101FE000B4F5C01F17D0B4F5E01F14D0B4F5001F2E
:101FF00011D0B4F5101F0ED0B4F5201F0BD0B4F5DE
:10200000301F08D0B4F5401F05D0B4F5501F02D0E2
:10201000B4F5601F00D104E040F225116BA0FEF77B
:1020200047F967480068466826F47C1645EA0400CC
:10203000064363480068466070BD10B504460CB1A5
:10204000012C00D104E040F23F1160A0FEF730F90E
:102050006B48046610BD70B5044600251CB1012C08
:1020600001D0022C00D104E04FF4AA7157A0FEF772
:102070001FF953480068456825F00305254350487B
:102080000068456070BD4E480068406800F00C0074
:10209000704770B5044600257CB1802C0DD0902C83
:1020A0000BD0A02C09D0B02C07D0C02C05D0D02C40
:1020B00003D0E02C01D0F02C00D104E040F28911D3
:1020C00042A0FEF7F5F83E480068456825F0F005A7
:1020D00025433B480068456070BD70B50446002547
:1020E0005CB1B4F5806F08D0B4F5A06F05D0B4F53D
:1020F000C06F02D0B4F5E06F00D104E04FF4D571A9
:1021000032A0FEF7D5F82E480068456825F4E06552
:1021100025432B480068456070BD70B50446002516
:102120005CB1B4F5806F08D0B4F5A06F05D0B4F5FC
:10213000C06F02D0B4F5E06F00D104E040F2CB11E3
:1021400022A0FEF7B5F81E480068456825F46055E2
:1021500045EAC4051A480068456070BD70B504467C
:102160000D4614F0E00F01D104B104E04FF4F67114
:1021700016A0FEF79DF80DB1012D00D104E040F24C
:10218000ED1112A0FEF794F82DB11E48407A2043BD
:102190001C49487204E01B48407AA0431949487220
:1021A00070BD10B504460CB1012C00D104E040F222
:1021B0000B2106A0FEF77CF81348046010BD000058
:1021C000D00000200000FFF8FFFFF6FE4A3A5C4B0B
:1021D00065696C5C41524D5C46575C46574C696280
:1021E0005C6C6962726172795C7372635C73746D4A
:1021F0003332663130785F7263632E630000000013
:102200000000424200100240D800424270B504462D
:10221000002544B1B4F5804F05D0B4F5004F02D08D
:10222000B4F5404F00D105E040F22221AFF2640046
:10223000FEF73EF8F7480068456825F44045254319
:10224000F4480068456070BD10B504461CB1012C0F
:1022500001D0042C00D105E040F23F21AFF2940000
:10226000FEF726F80020EC490870EC4981F82000C0
:10227000012C02D0042C08D103E00120E6490870AB
:1022800004E00520E449087000E000BF00BF10BD75
:1022900010B504460CB1012C00D105E040F26621D6
:1022A000AFF2D800FEF704F8DD48046010BD10B5A9
:1022B0000446B4F5807F05D0B4F5007F02D0B4F5B4
:1022C000407F00D105E04FF41F71AFF20010FDF721
:1022D000EFFFD0480068006A2043CE4909680862D1
:1022E00010BD10B504460CB1012C00D105E040F240
:1022F0008F21AFF22810FDF7DBFFC9484438046096
:1023000010BD30B50021002300240022C14D2D68EE
:102310006D6805F00C0121B1042905D0082926D1EA
:1023200005E0C04D056025E0BE4D056022E0B94DD9
:102330002D686D6805F47013022505EB9343B54DC8
:102340002D686D6805F480341CB9B74D5D43056098
:102350000CE0B04D2D686D6815F4003F03D0B24D10
:102360005D43056002E0AF4D5D43056002E0AD4DA9
:10237000056000BF00BFA74D2D686D6805F0F00136
:102380000909AA4D6A5C0568D5404560A14D2D68D4
:102390006D6805F4E061090AA44D6A5C4568D540A2
:1023A00085609C4D2D686D6805F46051C90A9F4D8C
:1023B0006A5C4568D540C560964D2D686D6805F42A
:1023C0004041890B9A4D6A5CC568B5FBF2F5056121
:1023D00030BD70B504460D4640F2575034EA000057
:1023E00001D104B105E040F20331AFF22020FDF746
:1023F0005FFF0DB1012D00D105E04FF44171AFF247
:102400003420FDF755FF3DB1824800684069204304
:1024100080490968486106E07E4800684069A04339
:102420007C490968486170BD70B504460D464FF699
:10243000FD7034EA000001D104B105E04FF44971A8
:10244000AFF27820FDF734FF0DB1012D00D105E08A
:1024500040F22531AFF28C20FDF72AFF3DB16D48E7
:102460000068806920436B490968886106E0694813
:1024700000688069A04367490968886170BD70B5CC
:1024800004460D466B48044201D104B105E040F218
:102490004631AFF2C820FDF70BFF0DB1012D00D181
:1024A00005E040F24731AFF2DC20FDF701FF3DB11E
:1024B00058480068C069204356490968C86106E069
:1024C00054480068C069A04352490968C86170BD9A
:1024D00070B504460D464FF6FD7034EA000001D198
:1024E00004B105E040F26631AFF22030FDF7E0FEC6
:1024F0000DB1012D00D105E040F26731AFF234306B
:10250000FDF7D6FE3DB143480068C068204341490D
:102510000968C86006E03F480068C068A0433D49BC
:102520000968C86070BD70B504460D464148044254
:1025300001D104B105E040F28731AFF27030FDF710
:10254000B7FE0DB1012D00D105E04FF46271AFF27D
:102550008430FDF7ADFE3DB12E4800680069204390
:102560002C490968086106E02A4800680069A04310
:1025700028490968086170BD10B504460CB1012CEA
:1025800000D105E040F29F31AFF2C030FDF790FE80
:1025900023484038046010BD10B504460CB1012C2E
:1025A00000D105E040F2AF31AFF2E030FDF780FE40
:1025B0002148C46410BD10B504463CB1052C05D0BB
:1025C000042C03D0062C01D0072C00D105E04FF4D9
:1025D0007171AFF20840FDF76BFE1048C47110BD79
:1025E0000C480068406A40F080700A4909684862F7
:1025F000704770B504460025012C09D0022C07D085
:10260000042C05D0082C03D0102C01D0802C15D11F
:102610001AE00000D000002020100240001002400C
:102620008004424200127A0000093D00722700082F
:1026300082270008C03701C50000424240F229410C
:10264000AFF27840FDF734FE0C4800688068204205
:1026500001D0012500E00025284670BD10B50446D4
:1026600014F0600F01D104B105E040F24A41AFF22D
:10267000A440FDF71DFE0248847210BDD00000206A
:102680000010024030BF704720BF704740BF704706
:10269000BFF36F8F7047BFF34F8F7047BFF35F8FEC
:1026A000704701DF7047EFF31480704780F31488A0
:1026B000BFF36F8F7047EFF30980704780F309888D
:1026C0007047EFF30880704780F30888704762B660
:1026D000704772B67047EFF31080704771B670475D
:1026E00061B67047EFF31380704780F3118870472D
:1026F000EFF31280704740BA704700BA70477047D6
:1027000070477047754600F029F8AE4605006946E7
:10271000534620F00700854618B020B5FDF71CFE93
:10272000BDE820404FF000064FF000074FF00008D2
:102730004FF0000B21F00701AC46ACE8C009ACE853
:10274000C009ACE8C009ACE8C0098D467047044632
:10275000AFF300802046FDF732FD000000487047CF
:102760000401002001491820ABBEFEE7260002004C
:102770007047000000000102030401020304060781
:102780000809020406080000A8270008000000202D
:10279000040100006C010008AC28000804010020BE
:1027A000640800008801000800000000000000002C
:1027B0000000000000000000000000000000000019
:1027C0000000000000000000000000000000000009
:1027D00000000000000000000000000000000000F9
:1027E00000000000000000000000000000000000E9
:1027F00000000000000000000000000000000000D9
:1028000000000000000000000000000000000000C8
:1028100000000000000000000000000000000000B8
:1028200000000000000000000000000000000000A8
:102830000000000000000000000000000000000098
:102840000000000000000000000000000000000088
:102850000000000000000000000000000000000078
:102860000000000000000000000000000000000068
:102870000000000000000000000000000000000058
:102880000000000000000000000000000000000048
:102890000000000000000000000000000000000038
:0C28A0000000000000000000000000002C
:040000050800035597
:00000001FF
