:0300000002050DE9
:0C050D00787FE4F6D8FD75817702055474
:0B0B5900EF1FAC0670011E4C70F6226E
:100AD900EF1FAA0670011E4A600A7D82AC051DEC53
:040AE90060EE80F843
:010AED0022E6
:100A91008F828E83E5821582AE83700215834E604C
:0B0AA100097FE87E03120AD980EA22D8
:03000E00020AD90A
:100AAC00E4FEFDEE25E0FEEF54012EFEEFC313FF36
:060ABC000DBD08EFAF06BE
:010AC2002211
:10045B008C668D678B638A648965E56725E0FFE5AC
:10046B006633FEE92FF9EA3EFAC003C002C001125F
:10047B000108FDACF0C005C004E56925E0FFE568A7
:10048B0033FEE5652FF9E5643EFAC003C002C001F7
:10049B00120108FDACF0C005C004E56725E0FFE5DF
:1004AB006633FEE5652FF9E5643EFAC002C0011222
:1004BB000108FDACF0E56925E0FFE56833AA64A906
:1004CB00658F82F583120133FFEC65F0FEED6FFF54
:1004DB00D001D002EE8FF012016BD0E06EFED0E0B7
:1004EB006FFFD001D002D003EE8FF012016BD0E082
:1004FB006EFED0E06FFFD001D002D003EE8FF00282
:02050B00016B82
:100AEE00D3EF9DEC6480F8EE6480984006AE04AFC0
:040AFE00058000224D
:100B0200D3EF9DEC6480F8EE64809840028004AEDE
:040B120004AF052205
:10038F008B388A39893A8C3B8D3CD3E53C9401E517
:0A039F003B64809480500302045A6E
:1003A900E4F53DF53EF53F754001C3E540953CE573
:1003B9003B6480F8E53F6480985042E54025E0FFC2
:1003C900E53F33AB38AA39A93A8F82F58312013355
:1003D900FFAEF0120108FDC3EF9DEE95F050140534
:1003E9003EE53E7002053DFDAC3D853F68854069AF
:1003F90012045B0540E54070B1053F80ADE53E451F
:100409003D6012AB38AA39A93A853D68853E69E451
:10041900FDFC12045BAB38AA39A93AAD3EAC3D12DA
:10042900038FE53E25E0FFE53D33FEAB38E53A2F86
:10043900F9E5393EFAE92402F9E43AFAC3E53C95CB
:100449003ECFE53B953DCF24FFFDEF34FFFC120382
:010459008F13
:01045A00227F
:100771008B538A548955E55A155AAE597002155949
:100781004E602EAB53E555F92402F555E554FA3484
:1007910000F554120108FFAEF0AB56E558F92402FA
:1007A100F558E557FA3400F557EE8FF012016B80DA
:0207B100C5225F
:1006E0008F5E8E5D8D5C8C5BAF62AE61AD60AC5F2A
:1006F000AB5EAA5DA95CA85BD31201B74015E55EAD
:100700009562FFE55D9561FEE55C9560FDE55B95B5
:100710005FFC22C3E562955EFFE561955DFEE560E5
:09072000955CFDE55F955BFC2290
:1009FE008F738E728D718C70E4FFFEFDFCAB73AA4B
:100A0E0072A971A870D31201B740037F0122AC7096
:0A0A1E00EC3350037FFF227F00221B
:0808D6008B6A8A6B896C8D6D41
:1008DE00E4F56FF56EE56EC3956D501DAB6AAA6BB0
:1008EE00A96C75F004E56EA4F58285F0831201CD36
:0F08FE00EF256FF56F056E80DCAF6FE4FCFDFE3C
:01090D0022C7
:060231008B268A278928B4
:10023700C003C002C001AB2BAA2CA92D12001EFFC0
:100247002402540375F002A4F58285F083D001D00F
:1002570002D003120133F52F85F02EAB26AA27A96A
:1002670028EF2403540375F002A4F58285F0831266
:100277000133F53185F030C003C002C001AB2BAAB2
:100287002CA92D12001E75F002A4F58285F083D0EB
:1002970001D002D003120133F53385F0328C348D4F
:1002A700352424FFE53234FAAB07FAE53324DCFFC3
:1002B700E53234058F82F583C3E5339531FDE532A9
:1002C7009530FCC3E531952FFFE530952EFE1200E2
:1002D7006BD3EF9400EE64809480403EE53325E0D5
:1002E700FFE53233FEC3EF9531F537EE9530F5363E
:1002F700AF03AE02E53724D4FDE53634FEFC120B1E
:1003070002AA06AB07AF82AE83E537242CFDE5369C
:100317003401FC120AEE8E838F82D3E5359582E590
:10032700836480F8E5346480984006858334858249
:1003370035C3E5359BEA6480F8E53464809850045A
:100347008A348B35AB2BAA2CA92D740112003712D6
:10035700001E5403120059AB26AA27A928C003C0C0
:1003670002C001AB2BAA2CA92D12001E75F002A406
:10037700F58285F083D001D002D003E5348535F0CE
:0703870012018AAE34AF350C
:01038E00224C
:10097700020AFFFF020CFFFF011600012000011011
:1009870000011700012100011100010F00022200E0
:0C099700000224FC1802180000010E01F0
:100AC300D2AFD2ABC28ED2A9758999C28CC2AAC247
:060AD300A8D28AD288229D
:03001B0002059942
:10059900C0E0C0F0C083C082C0D075D000C000C028
:1005A90001C002C003C004C005C006C0077517001A
:1005B900C28EC2AAC3E50D94B8E50C940B500B7416
:1005C900C8250DF50DE4350CF50C120829D007D016
:1005D90006D005D004D003D002D001D000D0D0D0AD
:0805E90082D083D0F0D0E03293
:03000B000205F1FA
:1005F100C0E0C0F0C083C082C0D075D000C000C0D0
:1006010001C002C003C004C005C006C007751600C2
:10061100C28CC2A8C3E50B94B8E50A940B500B74C5
:10062100C8250BF50BE4350AF50A120829D007D0C5
:1006310006D005D004D003D002D001D000D0D0D054
:0806410082D083D0F0D0E0323A
:05000600C291C290222E
:100A2800E516600F0520E520C3940A401BE4F52075
:100A3800F51622751601E4F58CF58AD28CD290FF52
:080A48000FBF05FCC290D2A80B
:010A50002283
:0309A700120A2809
:1009AA00E517600F0521E521C3940A401BE4F521F0
:1009BA00F51722751701E4F58DF58BD28ED291FFCA
:0809CA000FBF05FCC291D2AA87
:0109D2002202
:10086400E5107034E5166030751001AF8CEFFEAD05
:100874008AEDFFC3EF940AEE94005004E4F51022CD
:10088400C28CC2A87C007D1112006B7D6412007DB5
:08089400120B6BE4F510F516E0
:01089C002239
:10089D00E5117034E5176030751101AF8DEFFEADC8
:1008AD008BEDFFC3EF940AEE94005004E4F5112292
:1008BD00C28EC2AA7C007D1112006B7D6412007D78
:0808CD00120B64E4F511F517AC
:0108D5002200
:0100110022CC
:030003000207B33E
:1007B300C0E0C0F0C083C082C0D075D000C000C00C
:1007C30001C002C003C004C005C006C0071208640C
:1007D300D007D006D005D004D003D002D001D0007A
:0B07E300D0D0D082D083D0F0D0E03224
:030013000207EEF3
:1007EE00C0E0C0F0C083C082C0D075D000C000C0D1
:1007FE0001C002C003C004C005C006C00712089D98
:10080E00D007D006D005D004D003D002D001D0003E
:0B081E00D0D0D082D083D0F0D0E032E8
:070B64008E0C8F0D02082921
:070B6B008E0A8F0B0208291E
:0100120022CB
:100B16007E090EEE75F00A84E5F070031209A7123D
:040B2600001280EE4B
:100A5100D3EF9400EE94004019EF1FAA0670011E17
:100A61004A600F7D01EDD3940040EE7C02DCFE1D57
:020A710080F310
:010A73002260
:040944008F828E838D
:100948007B05742B2582F582E43583F583AF031B81
:10095800EF601BD280AF82AE83120A51C280C3748B
:0E096800089582FF74079583FE120A5180DF06
:01097600225E
:100B2A007580337FE87E03120AD97580FF7FE87EDD
:040B3A0003020AD9CF
:1009D3007FF27EFF1209447FE87E03120AD97F0E5D
:1009E3007E001209447FE87E03120AD9E4FFFE1257
:0B09F30009447FE87E03120AD980D57A
:040696008E508F51A2
:10069A00E4F552C3E55064809480500E755201C34C
:1006AA00E49551F551E49550F5501206497C037DC5
:1006BA00E81200D2C3ED9551E5506480F8EC6480ED
:1006CA0098500EE5526005D292C29322C292D293FA
:0506DA0022C292C29350
:0106DF0022F8
:10082900E50D25E0FFE50C33FEEF24F4F509EE3480
:1008390001F508D3E50994E8E50864809483400745
:100849007508037509E822C3E5099418E508648069
:0B085900947C50067508FC75091822FD
:0C0B4D001209A77F147E00120AD980F460
:100A7400EF1F70011E144E60137D01EDD3940040EE
:0C0A8400EF7C8E7B02DBFEDCFA1D80EFB5
:010A90002243
:10072900E4F54AF54BF54CF54DF54EF54F120AC374
:100739007F887E13120A51E4FFFE120944750803EB
:100749007509E8054BE54B7002054AFFAE4A7C0086
:100759007D0A1200D2ED4C7006120A281209AAAFBE
:0807690009AE0812069680DBC0
:0309A3000141FF10
:10090E00ADA0EDF45241E4FC74017E00A804088011
:10091E0005C333CE33CED8F9FFEF55416011744283
:10092E002CF80674422CF8E6D394144002760A0C86
:05093E00BC08D58D414D
:010943002291
:0F0B3E0074422FF8E6D39400400316D322C3224B
:10051900020729E493A3F8E493A34003F68001F2C8
:1005290008DFF48029E493A3F85407240CC8C333E3
:10053900C4540F4420C8834004F456800146F6DFB2
:10054900E4800B0102040810204080900977E47EC2
:10055900019360BCA3FF543F30E509541FFEE493A7
:10056900A360010ECF54C025E060A840B8E493A36E
:10057900FAE493A3F8E493A3C8C582C8CAC583CA99
:10058900F0A3C8C582C8CAC583CADFE9DEE780BE51
:0109A6000050
:10001E00BB010689828A83E0225002E722BBFE02E0
:09002E00E32289828A83E4932213
:10003700BB010989828A83F8E028F022500327F759
:1000470022BBFE05F8E328F3228A838982F8E4932A
:0200570028225D
:10005900BB010689828A83F0225002F722BBFE0186
:02006900F32280
:10006B00EF8DF0A4A8F0CF8CF0A428CE8DF0A42EA9
:02007B00FE2263
:10007D00BC000BBE0029EF8DF084FFADF022E4CC67
:10008D00F875F008EF2FFFEE33FEEC33FCEE9DEC30
:10009D00984005FCEE9DFE0FD5F0E9E4CEFD22ED76
:1000AD00F8F5F0EE8420D21CFEADF075F008EF2FC0
:1000BD00FFED33FD4007985006D5F0F222C398FDB1
:0500CD000FD5F0EA224E
:1000D200C2D5EC30E709B2D5E4C39DFDE49CFCEE49
:1000E20030E715B2D5E4C39FFFE49EFE12007DC344
:1000F200E49DFDE49CFC800312007D30D507C3E43F
:060102009FFFE49EFE22B7
:10010800BB010A89828A83E0F5F0A3E022500687C2
:10011800F009E71922BBFE07E3F5F009E319228984
:0B012800828A83E493F5F074019322B7
:10013300BB0110E58229F582E5833AF583E0F5F00A
:10014300A3E0225009E92582F886F008E622BBFEE7
:100153000AE92582F8E2F5F008E222E5832AF5832D
:08016300E993F5F0A3E99322F2
:10016B00BB010A89828A83F0E5F0A3F0225006F7DF
:0F017B0009A7F01922BBFE06F3E5F009F31922DC
:10018A00F8BB0111E58229F582E5833AF583E8F0A7
:10019A00E5F0A3F0225009E92582C8F608A6F02264
:0D01AA00BBFE09E92582C8F2E5F008F2224B
:1001B700EB9FF5F0EA9E42F0E99D42F0EC6480C8BF
:0601C70064809845F0225F
:1001CD00BB010DE58229F582E5833AF5830202092B
:1001DD005007E92582F80201FDBBFE07E92582F8EB
:1001ED00020215E58229F582E5833AF583020221A3
:10064900AC74AD75AE76AF777810EC4D4E4F700443
:100659007CA57DA5C3EC13FCED13FDEE13FEEF1392
:10066900FF5010EC64CCFCED644CFDEE644EFEEFE3
:1006790064CEFFD8DF8C748D758E768F77EE547FBC
:0D068900FE228E748F7574A5F576F577222C
:0C01FD00E6FC08E6FD08E6FE08E6FF222E
:0C020900E0FCA3E0FDA3E0FEA3E0FF2268
:0C021500E2FC08E2FD08E2FE08E2FF2225
:10022100E493FC740193FD740293FE740393FF2223
:00000001FF
