:020000040800F2
:1000000098060020AD3800085D2200085F22000835
:100010006122000863220008652200080000000039
:10002000000000000000000000000000672200083F
:1000300069220008000000006B220008C538000893
:10004000C7380008C7380008C7380008C738000894
:10005000C7380008C7380008C7380008C738000884
:10006000C7380008C7380008C7380008C738000874
:10007000C7380008C7380008C7380008C738000864
:10008000C7380008C7380008C7380008C738000854
:10009000C7380008C7380008C7380008C738000844
:1000A000C7380008C7380008C7380008C738000834
:1000B000C7380008C7380008C7380008C738000824
:1000C000C7380008C7380008C7380008C738000814
:1000D000C73800086D220008C7380008C738000874
:1000E000C7380008C7380008C7380008C7380008F4
:1000F000C7380008C7380008C7380008C7380008E4
:10010000C7380008C7380008C7380008C7380008D3
:10011000C7380008C7380008C7380008C7380008C3
:10012000C7380008C7380008C7380008C7380008B3
:10013000C7380008C7380008C7380008C7380008A3
:10014000C7380008C7380008C7380008C738000893
:10015000C7380008C7380008C7380008C738000883
:10016000C7380008C7380008C7380008C738000873
:10017000C7380008C738000893220008C7380008AD
:10018000C7380008C738000800F002F800F044F84B
:100190000AA090E8000C82448344AAF10107DA45E2
:1001A00001D100F039F8AFF2090EBAE80F0013F0F0
:1001B000010F18BFFB1A43F0010318475C580000F9
:1001C0007C580000103A24BF78C878C1FAD852078A
:1001D00024BF30C830C144BF04680C6070470000C1
:1001E0000023002400250026103A28BF78C1FBD840
:1001F000520728BF30C148BF0B607047782904F010
:100200007787632905F05180002070471FB505F0FE
:10021000F1F81FBD10B510BD05F0B4F81146FFF799
:10022000F5FF00F009F805F0D2F803B4FFF7F2FF8C
:1002300003BC01F0FEFF00001CB501F09DFF00F0C3
:10024000D5FA4FF47844204601F02CFE4FF6FF75A6
:100250002B4638A246213220009401F032FF39A00B
:1002600004F0DCFE47A004F0D9FE02F0F5FD002802
:100270002ED048A004F0D2FE2B464CA200945A2166
:10028000322001F01EFF01A803F0C5FA9DF8060018
:1002900000909DF807309DF805209DF8041048A0B7
:1002A00004F0BCFE46F26801112005F09BF8002125
:1002B000084601F0C7FD01F02FFF0121484803F077
:1002C000CBFC012003F0C2FB012003F0CAFBFEE7D8
:1002D00044A004F0A3FE2B4648A20094CFE74C496B
:1002E000086008680028FCD1704749480168002967
:1002F00002D00168491E016070471CB50121082029
:1003000004F069FB8020009001208DF8040000209B
:100310008DF8060003218DF805103E4C8DF807007E
:100320006946204604F00CF88021204604F06CF861
:100330001CBD000043616D65726120496E69742EB9
:100340002E0000000D0A0D0A57656C636F6D652065
:10035000746F205761766553686172652053544D00
:100360003332463220736572696573204D435520E0
:10037000426F617264204F70656E323037490D0AEA
:10038000000000004F563936353520496E69742E0D
:100390002E0D0A004F563936353520496E697420C6
:1003A0006661696C7321210D0A0000004F563936D1
:1003B000353520496E6974206661696C73212100AE
:1003C0004F56393635352049443A30782578203033
:1003D000782578203078257820307825780D0A0027
:1003E0002864024043616D65726120486176652032
:1003F000496E69742E2E0D0A0000000043616D6580
:100400007261204861766520496E69742E2E000065
:1004100000000020000C024070B586B001210220CF
:1004200004F0D9FA0121880504F0F3FA904E042271
:100430000B21304603F0F5FF04220A21304603F079
:10044000F0FF02208DF8040001208DF806008DF8E1
:1004500005003515002400958DF8074069463046A3
:1004600003F06EFF680000906946304603F068FFB5
:10047000804E304603F0F8FFADF80C404BF6FF70AD
:10048000ADF80E00FE20ADF810002801ADF8140004
:1004900079480290ADF812500121304604F064F81A
:1004A00002A9304603F0FCFF0121304604F082F837
:1004B00006B070BD2DE9F047704E80460D4630689D
:1004C00091466C4F0121384604F058F83468DFF843
:1004D000B0A101E0641E3BD35146384604F014F944
:1004E0000028F7D000224146384604F05BF8346813
:1004F000DFF8908101E0641E2AD34146384604F0BB
:1005000003F90028F7D0E9B2384604F0B8F83468A7
:100510005C4DAD1C01E0641E1AD32946384604F038
:10052000F3F80028F7D04946384604F0A8F83468B4
:1005300001E0641E0CD32946384604F0E5F8002893
:10054000F7D00121384604F023F80020BDE8F087F9
:10055000FF20FBE72DE9F05F484F82468846386868
:100560009146444E1436308840F480603080DFF885
:1005700004B10121584604F001F83C68404D01E007
:10058000641E73D32946584604F0BEF80028F7D0FD
:1005900000225146584604F005F83C6801E0641E0C
:1005A00064D33849584604F0AFF80028F7D008F073
:1005B000FF01584604F063F83C68B8465F4601E026
:1005C000641E53D32F493846891C04F09DF8002837
:1005D000F6D0308840F4806030800121384603F046
:1005E000D7FF0121384603F0C9FFD8F8004001E0E9
:1005F000641E3BD32946384604F086F80028F7D01D
:1006000001225146384603F0CDFFD8F80040454658
:10061000DFF86C8008F1010801E0641E26D3414632
:10062000384604F071F80028F7D00021384603F06E
:10063000C1FF2C68124D3F3501E0641E16D32946D8
:10064000384604F061F80028F7D00121384603F05D
:100650009FFF384604F015F889F80000308840F410
:10066000806030800020BDE8F09FFFE7FF20FAE7C0
:100670000004024000580040A08601000400002051
:100680000100030082000700034A02EB0111A1F5FB
:100690000071102204F05ABDFE5300081CB5012160
:1006A000582004F098F90121084604F0A8F9FF4CFD
:1006B0000C220021204603F0B4FE0C22012120462A
:1006C00003F0AFFE0C220421204603F0AAFE0C2208
:1006D0000521204603F0A5FE0C220821204603F048
:1006E000A0FE0C220921204603F09BFE0C220A21C9
:1006F000204603F096FE0C220E21204603F091FEC8
:100700000C220F21204603F08CFE02218DF80410EC
:100710008DF8051000214CF233708DF80610009012
:100720008DF807106946204603F00AFEE04C0C22C3
:100730000221204603F075FE0C220721204603F01B
:1007400070FE0C220821204603F06BFE0C220921CA
:10075000204603F066FE0C220A21204603F061FECB
:100760000C220B21204603F05CFE0C221146204691
:1007700003F057FE0C220D21204603F052FE0C22FE
:100780000E21204603F04DFE0C220F21204603F0DF
:1007900048FE4FF6847100916946204603F0D0FD73
:1007A000C44C0C220521204603F03BFE0C221146CE
:1007B000204603F036FE0C220D21204603F031FEC8
:1007C00043F2200100916946204603F0B9FD1CBDAB
:1007D000002240F2754306E00021491C89B299428B
:1007E000FBD3521C92B28242F6D370472DE9F05FE0
:1007F000B14CFFF753FF641EFDD201F092FC4FF0A5
:10080000DE43AE4A00201880DFF8B4C2BCF8000016
:100810005080A0F513414FF4807440F2272840F235
:10082000077540F23F164FF4887B253901D0C91E69
:100830007ED1012010701021E72004F0D3FD0121AA
:10084000002004F0CFFD2146012004F0CBFD4FF441
:10085000E061022004F0C6FD41F23001032004F003
:10086000C1FD0021042004F0BDFD40F20721082055
:1008700004F0B8FD0021092004F0B4FD00210A2095
:1008800004F0B0FD01210C2004F0ACFD00210D208E
:1008900004F0A8FD00210F2004F0A4FD0021102089
:1008A00004F0A0FD0721112004F09CFD002112207E
:1008B00004F098FD0021132004F094FD3220FFF78E
:1008C00087FF41F29051102004F08CFD4146112029
:1008D00004F088FD3220FFF77BFF9C21122004F0FA
:1008E00081FD3220FFF774FF4FF4C851132004F04C
:1008F00079FD2321292004F075FD0E212B2004F021
:1009000071FD3220FFF764FF0021202004F06AFD12
:100910000021212004F066FD3220FFF759FF072156
:10092000302004F05FFD2946312004F05BFD00E03B
:1009300080E00621322004F055FD40F2047135209C
:1009400004F050FD41F60471362004F04BFD042103
:10095000372004F047FD0021382004F043FD40F229
:100960000671392004F03EFD40F201713C2004F094
:1009700039FD0F213D2004F035FD3220FFF728FF1F
:100980000021502004F02EFDEF21512004F02AFD1B
:100990000021522004F026FD3146532004F022FDB0
:1009A0004FF42741602004F01DFD0121612004F077
:1009B00019FD00216A2004F015FD0021802004F0BB
:1009C00011FD0021812004F00DFD0021822004F0A2
:1009D00009FD0021832004F005FD0021842004F09E
:1009E00001FD0021852004F0FDFC1021902004F081
:1009F000F9FC0021922004F0F5FC0321932004F07F
:100A0000F1FC5946952004F0EDFC0021972004F0FC
:100A1000E9FC0021982004F0E5FC40F233110720A6
:100A200004F0E0FC0021202004F0DCFC0021212067
:100A300001F001BAA0F5134120397CD0B0F5134F75
:100A4000FBD04FF40177113976D10320107041F2B9
:100A50001401E72004F0C6FC2146012004F0C2FC8A
:100A6000391F022004F0BEFC41F23001032004F0E3
:100A7000B9FCB91E082004F0B5FC0021092004F0DF
:100A8000B1FC00210A2004F0ADFC00210C2004F090
:100A9000A9FC00210D2004F0A5FC00210F2004F08A
:100AA000A1FC0021102004F09DFC0BE0000C024092
:100AB0000010024000180240FFFF1F000800002045
:100AC0000000016F0721112004F08CFC002112208E
:100AD00004F088FC0021132004F084FCC820FFF7F8
:100AE00077FE41F29061102004F07CFC4146112019
:100AF00004F078FC3220FFF76BFE0C21122004F08A
:100B000071FC3220FFF764FE4FF40061132004F003
:100B100069FC1121292004F065FC0B212B2004F035
:100B200061FC3220FFF754FE0021202004F05AFC23
:100B30000021212001E07CE020E104F053FC0021B1
:100B4000302004F04FFC4FF483742146312004F030
:100B500049FC0021322004F045FC3946352004F0E0
:100B600041FC41F20A61362004F03CFC2946372062
:100B700004F038FC2146382004F034FC29463920A2
:100B800004F030FC40F202413C2004F02BFC40F623
:100B90000F413D2004F026FC0021502004F022FCEF
:100BA000EF21512004F01EFC0021522004F01AFC19
:100BB0003146532004F016FC4FF41C51602004F021
:100BC00011FC0121612004F00DFC00216A2004F0D9
:100BD00009FC0021802004F005FC0021812004F0A4
:100BE00001FC0021822004F0FDFB0021832004F0A1
:100BF000F9FB0021842004F0F5FB0021852004F09E
:100C0000F1FB1021902004F0EDFB4FF4C061922025
:100C100004F0E8FB2121072004F0E4FB3220FFF779
:100C2000D7FD6121072004F0DDFB3220FFF7D0FD66
:100C3000FBE300201070014604F0D4FB21460120A4
:100C400004F0D0FB4FF4E061022004F0CBFB41F252
:100C50001801032004F0C6FB0021042004F0C2FBAD
:100C600040F20221082004F0BDFB0021092004F01D
:100C7000B9FB00210A2004F0B5FB01210C2004F08F
:100C8000B1FB00210D2004F0ADFB00210F2004F08A
:100C9000A9FB6420FFF79CFD40F20111072004F03E
:100CA000A1FB6420FFF794FD4FF48651102004F05F
:100CB00099FB0721112004F095FB5C465946122050
:100CC00004F090FB4FF43061132004F08BFB002103
:100CD000292004F087FB44F210012B2004F082FB52
:100CE0000021502004F07EFBEF21512004F07AFB1C
:100CF0000021522004F076FB3146532004F072FBB1
:100D00004FF41C51602004F06DFB0121612004F0C0
:100D100069FB00216A2004F065FB0021802004F0BB
:100D200061FB0021812004F05DFB0021822004F0A2
:100D300059FB0021832004F055FB0021842004F09E
:100D400051FB0021852004F04DFB1021902004F080
:100D500049FB0021922004F045FB0121932004F07F
:100D600041FB2146952004F03DFB0021972004F033
:100D700039FB00219820FDE3072059E6A0F5194131
:100D800040F2055919397DD10D2010700621282017
:100D900004F028FB0121002004F024FB0021102096
:100DA00004F020FB47F2EF21012004F01BFB4FF47D
:100DB000C061022004F016FB46F63821032004F03F
:100DC00011FB46F67401112004F00CFB00210F20EA
:100DD00004F008FB45F208310B2004F003FB03216B
:100DE0000C2004F0FFFA0A210D2004F0FBFA4FF466
:100DF00038510E2004F0F6FABE211E2004F0F2FA5B
:100E00004FF40041252004F0EDFA4FF4F041262084
:100E100004F0E8FA7821272004F0E4FA00214E20BB
:100E200004F0E0FA00214F2004F0DCFA40F6D9018A
:100E3000122004F0D7FA0021302004F0D3FA4FF446
:100E40008271312004F0CEFA2146322004F0CAFA31
:100E500040F205342146332004F0C4FA49463420D8
:100E600004F0C0FA2146352004F0BCFA29463620A9
:100E700004F0B8FA611F372004F0B4FA4FF490512F
:100E80003A2000E008E004F0ADFA4FF400613B20A6
:100E900004F0A8FA33216FE7A0F5A851053901D075
:100EA00048457DD1092010700021072004F09AFAEE
:100EB0003220FFF78DFC4FF48E71122004F092FA6D
:100EC0000121A42004F08EFA0F21082004F08AFAF0
:100ED00008210A2004F086FA08210D2004F082FA85
:100EE0002946302004F07EFA0721312004F07AFAF6
:100EF00040F20361322004F075FA4FF4E06739469E
:100F0000332004F06FFA40F20221342004F06AFA30
:100F10000221352004F066FA41F60F71362004F004
:100F200061FA2946372004F05DFA0021382004F0E8
:100F300059FA0021392004F055FA29463A2004F0E4
:100F400051FA00213B2004F04DFA07213C2004F027
:100F500049FA00213D2004F045FA3220FFF738FC21
:100F60000121072004F03EFA0121172004F03AFA8B
:100F70003220FFF72DFC4FF4BD51102004F032FA5F
:100F800040F21721112004F02DFA4FF48F71122036
:100F900004F028FA4FF47061132004F023FA00E003
:100FA0008AE000212A2004F01DFA0A21292004F0F9
:100FB00019FA4FF49F71122004F014FA0021502006
:100FC00004F010FAEF21512004F00CFA0021522015
:100FD00004F008FA3146532004F004FA4FF41C518F
:100FE000602004F0FFF90121612004F0FBF90021E9
:100FF0006A2004F0F7F90021802004F0F3F90021C1
:10100000812004F0EFF90021822004F0EBF90021A7
:10101000832004F0E7F90021842004F0E3F90021A3
:10102000852004F0DFF91321902004F0DBF94FF460
:101030004071922004F0D6F90521932004F0D2F9F2
:101040000021952004F0CEF90021972004F0CAF980
:101050000021982004F0C6F92146012004F0C2F9CD
:101060003946022004F0BEF941F23001032004F0B9
:10107000B9F90021042004F0B5F900210C2004F096
:10108000B1F900210F2004F0ADF90021202004F077
:10109000A9F90021212004F0A5F92121072004F05D
:1010A000A1F9C820FFF794FB6121072004F09AF909
:1010B000C820FFF78DFBA3E2A0F5094140F2025AD8
:1010C00040F2023889397CD10520107001210020BE
:1010D00004F088F93220FFF77BFB4AF6A4010320D5
:1010E00004F080F93220FFF773FB00210C2004F09C
:1010F00079F93220FFF76CFB40F60C010D2004F06B
:1011000071F93220FFF764FB4FF42C510E2004F0EC
:1011100069F93220FFF75CFBB0211E2004F062F970
:101120003220FFF755FB42F63F31012004F05AF917
:101130003220FFF74DFB4FF4C061022004F052F95A
:101140003220FFF745FB0021102004F04BF932203C
:10115000FFF73EFB46F27001112004F043F9322004
:10116000FFF736FB0021052004F03CF93220FFF7A1
:101170002FFB0021062004F035F93220FFF728FB71
:101180004EF61C71162004F02DF93220FFF720FBDB
:101190000321172004F026F93220FFF719FB40F253
:1011A0003311072004F01EF93220FFF711FB002154
:1011B0000B2004F017F93220FFF70AFB00210F2063
:1011C00000E0AFE004F00EF93220FFF701FB002150
:1011D000412004F007F93220FFF7FAFA00214220FB
:1011E00004F000F93220FFF7F3FA0021482004F060
:1011F000F9F83220FFF7ECFA3146492004F0F2F812
:101200003220FFF7E5FA00214A2004F0EBF8322003
:10121000FFF7DEFA00214B2004F0E4F83220FFF75C
:10122000D7FA4FF46F41442004F0DCF83220FFF786
:10123000CFFA0021452004F0D5F83220FFF7C8FA94
:101240003146462004F0CEF83220FFF7C1FA294695
:10125000302004F0C7F83220FFF7BAFA39463120BF
:1012600004F0C0F83220FFF7B3FA3946322004F018
:10127000B9F83220FFF7ACFA54465146332004F057
:10128000B1F83220FFF7A4FA40F20751342004F0FD
:10129000A9F83220FFF79CFA3946352004F0A2F86D
:1012A0003220FFF795FA3946362004F09BF83220B9
:1012B000FFF78EFA2146372004F094F83220FFF72A
:1012C00087FA444641463A2004F08CF83220FFF772
:1012D0007FFA21463B2004F085F83220FFF778FAA8
:1012E0000021232004F07EF83220FFF771FA00215C
:1012F000242004F077F83220FFF76AFA4FF4004117
:10130000252004F06FF83220FFF762FA00214F2009
:1013100004F068F800214E2004F064F846F26801F9
:1013200011202AE5A0F5094199397DD104201070DA
:101330000621282004F056F80121002004F052F87C
:101340004AF6A461032004F04DF804210C2004F0B7
:1013500049F80C210D2004F045F84FF420510E20DF
:1013600004F040F8B5211E2004F03CF843F63F316C
:10137000012004F037F84FF4C061022004F032F885
:101380000021102004F02EF846F63001112004F060
:1013900029F80021052004F025F80021062004F09A
:1013A00021F84EF61C71162004F01CF8332107209A
:1013B00004F018F800210B2004F014F800210F208D
:1013C00004F010F80021412004F00CF80021422024
:1013D00004F008F80021482004F004F831464920C0
:1013E00004F000F800214A2003F0FCFF00214B200C
:1013F00003F0F8FF4FF46F41442003F0F3FF0021A6
:10140000452003F0EFFF3146462003F0EBFF0021BB
:101410004E2003F0E7FF00214F2003F0E3FF2946B1
:10142000302003F0DFFF01E042E0FEE240F2022163
:10143000312003F0D7FF3946322003F0D3FF544662
:101440005146332003F0CEFF40F20751342003F021
:10145000C9FF3946352003F0C5FF3946362003F071
:10146000C1FF2146372003F0BDFF444641463A20E4
:1014700003F0B8FF21463B2003F0B4FF00212320F6
:1014800003F0B0FF0021242003F0ACFF4FF4004133
:10149000252003F0A7FF4FF4E041262003F0A2FF30
:1014A0004BF2EB01202003F09DFF7C21272064E418
:1014B000A0F5A84108397CD10820107021460120F0
:1014C00003F090FF4FF4E061022003F08BFF41F244
:1014D0003001032003F086FF0021042003F082FF87
:1014E00040F20721082003F07DFF0021092003F0CE
:1014F00079FF00210A2003F075FF00210C2003F082
:1015000071FF00210D2003F06DFF00210F2003F07B
:1015100069FF3220FFF75CF940F20111072003F068
:1015200061FF3220FFF754F941F2B061102003F05F
:1015300059FF0121112003F055FF0121172003F06D
:1015400051FF4FF49C71122003F04CFF4FF40061E7
:10155000132003F047FF0921292003F043FF09214D
:101560002A2003F03FFF0021A42003F03BFF0021CD
:10157000502000E042E003F035FFEF21512003F05E
:1015800031FF0021522003F02DFF3146532003F09C
:1015900029FF4FF41C51602003F024FF0321612038
:1015A00003F020FF00216A2003F01CFF00218020AF
:1015B00000E028E003F016FF0021812003F012FF75
:1015C0000021822003F00EFF0021832003F00AFF98
:1015D0000021842003F006FF0021852003F002FF94
:1015E0001321902003F0FEFE0021922003F0FAFE6A
:1015F0000321932003F0F6FE5946952003F0F2FEF6
:1016000040F2731147E4A0F58A4131397ED10720B9
:1016100010700121002003F0E5FE4FF4C561102099
:1016200003F0E0FE0621122003F0DCFE40F632213A
:10163000132003F0D7FE4021112003F0D3FE5021E8
:10164000152003F0CFFE1621122003F0CBFE32202E
:10165000FFF7BEF845F26061102003F0C3FE3220B0
:10166000FFF7B6F842F64E21132003F0BBFE2146E9
:10167000012003F0B7FE4FF44071022003F0B2FEE8
:1016800041F23001032003F0ADFE40F202210820B8
:1016900003F0A8FE00210A2003F0A4FE0021302060
:1016A00003F0A0FE40F20241312003F09BFE4FF414
:1016B0008371322003F096FE4FF4E061332003F093
:1016C00091FE4FF48271342003F08CFE40F2013120
:1016D000352003F087FE2946362003F083FE40F2D2
:1016E0000531372003F07EFE4FF40271382003F0FD
:1016F00079FE40F60B71392003F074FE3220FFF7BB
:1017000067F80221412003F06DFE00E028E04FF46D
:101710001C51602003F066FE0121612003F062FE8F
:1017200040F21911902003F05DFE4FF48571922074
:1017300003F058FE0421932003F054FE2146A0201C
:1017400003F050FE3220FFF743F840F23311072038
:1017500003F048FE3220FFF73BF80021A0206AE3A7
:10176000A0F58A4135397CD10C201070302115202C
:1017700003F038FE10219A2003F034FE20211120BE
:1017800003F030FE43F22841102003F02BFE02212B
:10179000122003F027FE41F23801132003F022FE4D
:1017A0002820FFF715F81221084603F01BFE282019
:1017B000FFF70EF843F22041102003F013FE43F22E
:1017C0004501132003F00EFE4620FFF701F800212B
:1017D000302003F007FE40F20241312003F002FE08
:1017E00040F20731322003F0FDFD4FF44171332008
:1017F00003F0F8FD0421342003F0F4FD40F2014130
:10180000352003F0EFFD2946362003F0EBFD40F2D2
:101810000531372003F0E6FD4FF4C2652946382034
:1018200003F0E0FD2946392003F0DCFD21460120CC
:1018300003F0D8FD4FF44071022003F0D3FD41F2D4
:101840003001032003F0CEFD40F60801082003F02C
:10185000C9FD08210A2003F0C5FD4FF41C5160208A
:1018600000E02AE003F0BEFD0121612003F0BAFD93
:101870004FF49F71902003F0B5FD2146922003F0B4
:10188000B1FD2146932003F0ADFD4FF44051A0205F
:1018900003F0A8FD1021A32003F0A4FD01210720DF
:1018A00003F0A0FD2121072003F09CFD2321072048
:1018B00003F098FD33210720B5E047287ED0A0F53E
:1018C000EE4183397BD1062010700121FF2003F007
:1018D00089FD0821F32003F085FD2146012003F056
:1018E00081FD4FF4E061022003F07CFD41F2300104
:1018F000032003F077FD4146082003F073FD40F21A
:101900000721082003F06EFD0021092003F06AFD85
:1019100000210A2003F066FD0021102003F062FD83
:101920000521112003F05EFD0021122003F05AFD75
:101930000021132003F056FD3220FEF749FF41F24B
:10194000B021102003F04EFD3220FEF741FF0721A9
:10195000112003F047FD3220FEF73AFF8B211220C1
:1019600003F040FD3220FEF733FF4FF4B85113204F
:1019700003F038FD3220FEF72BFF2221292003F04F
:1019800031FD0021302003F02DFD2946312003F0E8
:1019900029FD4946322003F025FD40F2071135208C
:1019A00003F020FD0821362003F01CFD0021372024
:1019B00003F018FD40F20224214601E038E017E16F
:1019C000382003F00FFD4FF48371392003F00AFD36
:1019D00021463C2003F006FD4FF481613D2003F0D9
:1019E00001FD3220FEF7F4FE0021502003F0FAFC46
:1019F000EF21512003F0F6FC0021522003F0F2FC0D
:101A00003146532003F0EEFC4FF42741602003F0F1
:101A1000E9FC0121612003F0E5FC3321902003F073
:101A2000E1FC0B212B2003F0DDFC40F23311E9E552
:101A30000A2010700021EA2003F0D4FC2021EB20C2
:101A400003F0D0FC0C21EC2003F0CCFCC421ED20F1
:101A500003F0C8FC4021E82003F0C4FC3821E92051
:101A600003F0C0FC0121F12003F0BCFC1021F220A6
:101A700003F0B8FCA321272003F0B4FC012140208F
:101A800003F0B0FC0021412003F0ACFC0021422017
:101A900003F0A8FC1021432003F0A4FC0E214420F5
:101AA00003F0A0FC2421452003F09CFC04214620E7
:101AB00003F098FC5021472003F094FC02214820B9
:101AC00003F090FC1321492003F08CFC19214A20DB
:101AD00003F088FC19214B2003F084FC16214C20D4
:101AE00003F080FC1B21502003F07CFC31215120AD
:101AF00003F078FC2F21522003F074FC3F21532087
:101B000003F070FC3F21542003F06CFC3E21552073
:101B100003F068FC2F21562003F064FC7B21572042
:101B200003F060FC0921582003F05CFC06215920D9
:101B300003F058FC06215A2003F054FC0C215B20D2
:101B400003F050FC1D215C2003F04CFCCC215D20F7
:101B500003F048FC18211B2003F044FC01211A204B
:101B600003F040FC1521242003F03CFC50212520EB
:101B700003F038FC8B21232003F034FC362118209D
:101B800003F030FC0121192003F02CFC002101207E
:101B900003F028FC88211F2003F024FC3220FEF7EC
:101BA00017FE80211F2003F01DFC3220FEF710FEDF
:101BB00090211F2003F016FC3220FEF709FED021F1
:101BC0001F2003F00FFC3220FEF702FE0521172034
:101BD00003F008FC0021362003F004FC3821282003
:101BE00003F000FC3220FEF7F3FD3C21282022E127
:101BF00067201880BCF80000508047287ED10B2059
:101C000010700821422003F0EDFBB421462003F0C0
:101C1000E9FB4321472003F0E5FB1321482003F0B3
:101C2000E1FB4721492003F0DDFB14214A2003F0AA
:101C3000D9FB36214B2003F0D5FB03214C2003F0C8
:101C4000D1FB46214D2003F0CDFB05214E2003F0B2
:101C5000C9FB10214F2003F0C5FB0821502003F0E1
:101C6000C1FB0A21512003F0BDFB0021022003F03B
:101C7000B9FB0021032003F0B5FB0021042003F091
:101C8000B1FBEF21052003F0ADFB0021062003F09E
:101C9000A9FB0021072003F0A5FB0121082003F088
:101CA000A1FB3F21092003F09DFB0A20FEF790FDD8
:101CB0000621012003F096FBC821162003F092FBB9
:101CC0009521232003F08EFB9521242003F08AFB2D
:101CD000FF21252003F086FB0221272003F082FB51
:101CE0000221282003F07EFB0221292003F07AFB49
:101CF00002212A2003F076FB022100E09DE02C2047
:101D000003F070FB02212D2003F06CFB01213A202F
:101D100003F068FB01213B2003F064FBF0213C2031
:101D200003F060FB00213D2003F05CFB1420FEF774
:101D30004FFD3821352003F055FB7821362003F084
:101D400051FB38213E2003F04DFB0F21402003F0D2
:101D500049FBF021412003F045FB0021382003F02E
:101D600041FB4921192003F03DFB0A21932003F098
:101D700039FB0A20FEF72CFD2021084603F032FB38
:101D800003211D2003F02EFB00211E2003F02AFB5F
:101D900009211F2003F026FB5321442003F022FBDE
:101DA0001021452003F01EFB0A20FEF711FD04213F
:101DB0001C2003F017FB1420FEF70AFD80214320AE
:101DC00003F010FB0520FEF703FD0A211B2003F0A2
:101DD00009FB2820FEF7FCFC12211B2003F002FB6C
:101DE0002820FEF7F5FC7F21902003F0FBFA042168
:101DF000262003F0F7FA2820FEF7EAFC242126200B
:101E000003F0F0FA2C21262003F0ECFA2820FEF74C
:101E1000DFFC0821702003F0E5FA3C21262003F0C6
:101E2000E1FA0221572003F0DDFA0021552003F0EA
:101E3000D9FA0021572003F0D5FABDE8F05F32202F
:101E4000FEF7C6BC70B50546C9480C460078001FB1
:101E50000A2806D2DFE800F00C0C0505050513136F
:101E600005252946202003F0BDFA2146212014E053
:101E700029464E2003F0B6FA21464F200DE0290AEC
:101E8000022003F0AFFA2946032003F0ABFA210A3F
:101E9000062003F0A7FA21460720BDE8704003F0B2
:101EA000A1BA70BD70B50546B148002400780A2873
:101EB00011D00B280FD000210846FFF7C3FF4FF0C9
:101EC000DE4122200880AB484FF496310580641C27
:101ED0008C42FBD370BD0021022003F083FA002165
:101EE000032003F07FFA0021042003F07BFAEF21A6
:101EF000052003F077FA0021062003F073FA002191
:101F0000072003F06FFA0121082003F06BFA3F214C
:101F1000092003F067FAD2E710B5FFF793FF4FF0FF
:101F2000DE4122200880924801789248091F092941
:101F300017D2DFE801F005050505161608080500AB
:101F40000188008810BD0188C1F3C702018800889C
:101F5000C908C0F38700C90241EA4010104380B2AB
:101F600010BD01880088C0F34511C20AC00200EB11
:101F700041101044F3E710B51446F0280AD2B1F529
:101F8000A07F07D2FFF75EFF2146BDE81040222068
:101F900003F028BA10BD2DE9F0479046DDF820A0E7
:101FA00004460D469946404501D9A04694B24D4598
:101FB00001D989469DB2A8EB0400A9EB050100B246
:101FC0000EB250B1A6B1B04230DDC0EB46010FB247
:101FD0007100404201EB400925E052462946204667
:101FE000FFF7C9FF6D1CADB2A945F6D2BDE8F08779
:101FF000524629462046FFF7BEFF641CA4B2A04506
:10200000F6D2F3E7524629462046FFF7B4FF641C98
:10201000A4B2002F04DD6D1CADB209EB070001E096
:1020200007EB460007B24445ECD11AE0C6EB40018D
:102030000FB27100404201EB400810E052462946C1
:102040002046FFF798FF6D1CADB2002F04DD641C25
:10205000A4B208EB070001E007EB460007B24D45CC
:10206000ECD1524629462046BDE8F04783E72DE9EA
:10207000FF5F0746894611469A466846DDF838B044
:10208000FEF702FB002500241DF8058009EB05067C
:10209000C4F1070028FA00F0C00707EB0400B1B252
:1020A00080B201D0524600E05A46FFF764FF641C3C
:1020B000A4B2082CECD36D1CADB2102DE3D3BDE857
:1020C000FF9F2DE9F04104462DED028B82B00D46B5
:1020D0009DED0A8A164698464FF4987716F8012B1C
:1020E0008DED008A434629462046FFF7C0FFE82CC5
:1020F00002D20834A4B207E0BD424FF0000402D27D
:102100001035ADB200E0002530780028E6D102B0ED
:10211000BDEC028BBDE8F0814FF0DE41222008804B
:10212000704700B597B00620009000201021CDE93F
:102130000201049009020190CDE908010690079080
:102140000A900FA905900F220B90CDE90C01CDE963
:102150000F20CDE911201390149015900E91684630
:1021600001F05CFE0121062001F0E9FE17B000BD80
:10217000080000200000016F70B5012186B00846FC
:1021800002F029FC0121084602F025FC0121102063
:1021900002F049FC2F4E07220921304602F041F996
:1021A00007220A21304602F03CF970150090022007
:1021B0008DF8040000248DF806408DF805000125F7
:1021C0008DF807506946304602F0BAF8A802009030
:1021D0008DF806508DF807406946304602F0B0F899
:1021E0004FF4E130ADF80C400290ADF80E40ADF880
:1021F0001040ADF814400C20174CADF8120002A9A5
:10220000204602F0EAFC0121204602F05CFD06B007
:1022100070BD08B525208DF8000001208DF8010063
:1022200000218DF802108DF80300684601F063FB71
:1022300008BD704770B5084D0446C1B2284602F08B
:1022400068FD4021284602F0F5FD0028F9D020461F
:1022500070BD000000000240001001407047FEE722
:10226000FEE7FEE7FEE770477047704710B51C4C6D
:1022700040F22551204602F0E7FD002808D0204614
:1022800002F04BFD0146BDE8104016A002F0C6BEAC
:1022900010BD10B5082001F011FC40B10021084626
:1022A000FFF7D0FDFFF738FF082001F00FFC1020EA
:1022B00001F004FC10B1102001F008FC012001F035
:1022C000FDFB10B1012001F001FC042001F0F6FB40
:1022D000002804D0BDE81040042001F0F7BB10BD79
:1022E000001001400A0D5553415254204879706541
:1022F000727465726D696E616C20496E746572727C
:102300007570747320526563656976652061207706
:102310006F72643A2025630A0D0000002DE9F04732
:1023200096B0012140F2811002F055FB01210846D0
:1023300002F05BFBDFF804A40D220621504602F0F8
:1023400070F8FF4F0D220821384602F06AF80D227E
:102350000921384602F065F80D220A21384602F0BC
:1023600060F80D220B21384602F05BF80D220C219B
:10237000384602F056F80D220E21384602F051F888
:10238000DFF8C0930D220521484602F04AF80D22DD
:102390000621484602F045F80D220721484602F082
:1023A00040F80D220421484602F03BF802268DF841
:1023B00040604FF003084FF4BE408DF84180002488
:1023C0000F908DF8424001258DF843500FA93846F3
:1023D00001F0B6FFF0200F900FA9484601F0B0FFC2
:1023E00040278DF840600F978DF842400FA9504666
:1023F00001F0A6FFADF848408020ADF84440ADF8AC
:102400004A00ADF84C70ADF84640ADF84E40ADF81E
:10241000504011A801F0CFFA0121082001F02FFB54
:102420004FF4C06001F062FA4E208DF854008DF830
:1024300055508DF856508DF8575015A801F05BFA9D
:102440000121880502F0C7FABF4D284601F044FB80
:1024500030060090BD480190BD48CDE902044FF41C
:10246000A070CDE90404A814CDE90640400008900E
:102470004011099040020A900420CDE90C840B9091
:10248000694628460E9401F0AEFB16B0BDE8F08711
:1024900010B50220401EFDD2002211466020FEF73A
:1024A00009F80220401EFDD2802201216020FEF7A3
:1024B00001F80220401EFDD2802202216020FDF79B
:1024C000F9FF0220401EFDD2022203216020FDF709
:1024D000F1FF0220401EFDD2002204216020FDF702
:1024E000E9FF0220401EFDD2032209216020FDF7F2
:1024F000E1FF0220401EFDD257220B216020FDF794
:10250000D9FF0220401EFDD201220E216020FDF7DE
:10251000D1FF0220401EFDD2C0220F216020FDF716
:10252000C9FF0220401EFDD2502210216020FDF77D
:10253000C1FF0220401EFDD2802211216020FDF744
:10254000B9FF0220401EFDD2632212216020FDF758
:10255000B1FF0220401EFDD2EF2213216020FDF7C3
:10256000A9FF0220401EFDD23A2214216020FDF76F
:10257000A1FF0220401EFDD2182215216020FDF788
:1025800099FF0220401EFDD2242216216020FDF773
:1025900091FF0220401EFDD2182217216020FDF776
:1025A00089FF0220401EFDD2042218216020FDF781
:1025B00081FF0220401EFDD2012219216020FDF77B
:1025C00079FF0220401EFDD281221A216020FDF7F2
:1025D00071FF0220401EFDD200221E216020FDF767
:1025E00069FF0220401EFDD23C2224216020FDF71D
:1025F00061FF0220401EFDD2362225216020FDF71A
:1026000059FF0220401EFDD2722226216020FDF7D4
:1026100051FF0220401EFDD2082227216020FDF735
:1026200049FF0220401EFDD2082228216020FDF72C
:1026300041FF0220401EFDD2152229216020FDF716
:1026400039FF0220401EFDD200222A216020FDF722
:1026500031FF0220401EFDD200222B216020FDF719
:1026600029FF0220401EFDD208222C216020FDF708
:1026700021FF0220401EFDD2122232216020FDF7F0
:1026800019FF0220401EFDD2002233216020FDF7F9
:1026900011FF0220401EFDD23F2234216020FDF7B1
:1026A00009FF0220401EFDD2002235216020FDF7E7
:1026B00001FF0220401EFDD23A2236216020FDF7A4
:1026C000F9FE0220401EFDD2722238216020FDF763
:1026D000F1FE0220401EFDD2572239216020FDF775
:1026E000E9FE0220401EFDD2CA223A216020FDF7F9
:1026F000E1FE0220401EFDD204223B216020FDF7B6
:10270000D9FE0220401EFDD299223D216020FDF716
:10271000D1FE0220401EFDD202223E216020FDF7A4
:10272000C9FE0220401EFDD2C1223F216020FDF7DC
:10273000C1FE0220401EFDD2D0220BE0000002406C
:10274000001C02400020024028640240280005507E
:102750000000016F40216020FDF7ACFE0220401E0A
:10276000FDD2412211466020FDF7A4FE0220401E4A
:10277000FDD2C02242216020FDF79CFE0220401EB7
:10278000FDD20A2243216020FDF794FE0220401E64
:10279000FDD2F02244216020FDF78CFE0220401E75
:1027A000FDD2462245216020FDF784FE0220401E16
:1027B000FDD2622246216020FDF77CFE0220401EF1
:1027C000FDD22A2247216020FDF774FE0220401E20
:1027D000FDD23C2248216020FDF76CFE0220401E05
:1027E000FDD2FC224A216020FDF764FE0220401E3B
:1027F000FDD2FC224B216020FDF75CFE0220401E32
:10280000FDD27F224C216020FDF754FE0220401EA5
:10281000FDD27F224D216020FDF74CFE0220401E9C
:10282000FDD27F224E216020FDF744FE0220401E93
:10283000FDD298224F216020FDF73CFE0220401E71
:10284000FDD2982250216020FDF734FE0220401E68
:10285000FDD2002251216020FDF72CFE0220401EF7
:10286000FDD2282252216020FDF724FE0220401EC6
:10287000FDD2702253216020FDF71CFE0220401E75
:10288000FDD2982254216020FDF714FE0220401E44
:10289000FDD21A2258216020FDF70CFE0220401EB6
:1028A000FDD2852259216020FDF704FE0220401E42
:1028B000FDD2A9225A216020FDF7FCFD0220401E16
:1028C000FDD264225B216020FDF7F4FD0220401E52
:1028D000FDD284225C216020FDF7ECFD0220401E29
:1028E000FDD253225D216020FDF7E4FD0220401E51
:1028F000FDD20E225E216020FDF7DCFD0220401E8D
:10290000FDD2F0225F216020FDF7D4FD0220401EA1
:10291000FDD26021F0220846FDF7CCFD0220401ECA
:10292000FDD2F02261216020FDF7C4FD0220401E8F
:10293000FDD2002262216020FDF7BCFD0220401E76
:10294000FDD2002263216020FDF7B4FD0220401E6D
:10295000FDD2022264216020FDF7ACFD0220401E62
:10296000FDD2202265216020FDF7A4FD0220401E3B
:10297000FDD2002266216020FDF79CFD0220401E52
:10298000FDD20A2269216020FDF794FD0220401E3D
:10299000FDD20A226B216020FDF78CFD0220401E33
:1029A000FDD204226C216020FDF784FD0220401E30
:1029B000FDD255226D216020FDF77CFD0220401ED6
:1029C000FDD200226E216020FDF774FD0220401E22
:1029D000FDD29D226F216020FDF76CFD0220401E7C
:1029E000FDD2212270216020FDF764FD0220401EEF
:1029F000FDD2782271216020FDF75CFD0220401E8F
:102A0000FDD20220401EFDD2112272216020FDF76E
:102A100051FD0220401EFDD20220401EFDD20122A7
:102A200073216020FDF746FD0220401EFDD21022DA
:102A300074216020FDF73EFD0220401EFDD21022D1
:102A400075216020FDF736FD0220401EFDD20122D7
:102A500076216020FDF72EFD0220401EFDD20222CD
:102A600077216020FDF726FD0220401EFDD21222B4
:102A70007A216020FDF71EFD0220401EFDD20822B3
:102A80007B216020FDF716FD0220401EFDD216229C
:102A90007C216020FDF70EFD0220401EFDD2302279
:102AA0007D216020FDF706FD0220401EFDD25E2242
:102AB0007E216020FDF7FEFC0220401EFDD2722226
:102AC0007F216020FDF7F6FC0220401EFDD282220D
:102AD00080216020FDF7EEFC0220401EFDD28E22F8
:102AE00081216020FDF7E6FC0220401EFDD29A22E3
:102AF00082216020FDF7DEFC0220401EFDD2A422D0
:102B000083216020FDF7D6FC0220401EFDD2AC22BE
:102B100084216020FDF7CEFC0220401EFDD2B822A9
:102B200085216020FDF7C6FC0220401EFDD2C32295
:102B300086216020FDF7BEFC0220401EFDD2D62279
:102B400087216020FDF7B6FC0220401EFDD2E62260
:102B500088216020FDF7AEFC0220401EFDD2F2224B
:102B600089216020FDF7A6FC0220401EFDD2242210
:102B70008A216020FDF79EFC0220401EFDD28022AB
:102B80008C216020FDF796FC0220401EFDD27D22A4
:102B900090216020FDF78EFC0220401EFDD27B229A
:102BA00091216020FDF786FC0220401EFDD202220A
:102BB0009D216020FDF77EFC0220401EFDD20222F6
:102BC0009E216020FDF776FC0220401EFDD27A2275
:102BD0009F216020FDF76EFC0220401EFDD279226D
:102BE000A0216020FDF766FC0220401EFDD21F22BE
:102BF000A1216020FDF75EFC0220401EFDD2502284
:102C0000A4216020FDF756FC0220401EFDD2682260
:102C1000A5216020FDF74EFC0220401EFDD24A2275
:102C2000A6216020FDF746FC0220401EFDD2C122F5
:102C3000A8216020FDF73EFC0220401EFDD2EF22BD
:102C4000A9216020FDF736FC0220401EFDD2922211
:102C5000AA216020FDF72EFC0220401EFDD2042296
:102C6000AB216020FDF726FC0220401EFDD2802211
:102C7000AC216020FDF71EFC0220401EFDD2802208
:102C8000AD216020FDF716FC0220401EFDD28022FF
:102C9000AE216020FDF70EFC0220401EFDD28022F6
:102CA000AF216020FDF706FC0220401EFDD2F2227B
:102CB000B2216020FDF7FEFB0220401EFDD2202243
:102CC000B3216020FDF7F6FB0220401EFDD220223A
:102CD000B4216020FDF7EEFB0220401EFDD2002251
:102CE000B5216020FDF7E6FB0220401EFDD2AF2299
:102CF000B6216020FDF7DEFB0220401EFDD2AF2290
:102D0000B6216020FDF7D6FB0220401EFDD2AE2288
:102D1000BB216020FDF7CEFB0220401EFDD27F22AA
:102D2000BC216020FDF7C6FB0220401EFDD27F22A1
:102D3000BD216020FDF7BEFB0220401EFDD27F2298
:102D4000BE216020FDF7B6FB0220401EFDD27F228F
:102D5000BF216020FDF7AEFB0220401EFDD27F2286
:102D6000BF216020FDF7A6FB0220401EFDD2AA2253
:102D7000C0216020FDF79EFB0220401EFDD2C02234
:102D8000C1216020FDF796FB0220401EFDD20122EA
:102D9000C2216020FDF78EFB0220401EFDD24E2294
:102DA000C3216020FDF786FB0220401EFDD20522D4
:102DB000C6216020FDF77EFB0220401EFDD281224D
:102DC000C7216020FDF776FB0220401EFDD2E022E5
:102DD000C9216020FDF76EFB0220401EFDD2E822D3
:102DE000CA216020FDF766FB0220401EFDD2F022C2
:102DF000CB216020FDF75EFB0220401EFDD2D822D1
:102E0000CC216020FDF756FB0220401EFDD293220C
:102E1000CD216020FDF74EFB0220401EFDD210BDEB
:102E20001CB50121084601F0D6FD4FF480700090DA
:102E300003208DF8050002208DF8040000208DF895
:102E400006008DF807006946FE4801F079FA002176
:102E5000084601F021FD1CBD10B5FFF7E1FFFDF7AD
:102E6000DBFA40F6FF74204600F016FD80221221A6
:102E70006020FDF71FFB08B1FF2010BD204600F0C9
:102E80000BFDFFF705FB632212216020FDF712FB0B
:102E9000102240216020FDF70DFB08221521602043
:102EA000FDF708FBFFF73AFA002010BD802212213F
:102EB0006020FDF7FFBA10B50220401EFDD20022AF
:102EC00011466020FDF7F6FA0220401EFDD2802256
:102ED00001216020FDF7EEFA0220401EFDD2802283
:102EE00002216020FDF7E6FA0220401EFDD20222F8
:102EF00003216020FDF7DEFA0220401EFDD20322EE
:102F000004216020FDF7D6FA0220401EFDD20122E6
:102F100009216020FDF7CEFA0220401EFDD2572283
:102F20000B216020FDF7C6FA0220401EFDD261226F
:102F30000E216020FDF7BEFA0220401EFDD2402285
:102F40000F216020FDF7B6FA0220401EFDD20122BB
:102F500011216020FDF7AEFA0220401EFDD2622250
:102F600012216020FDF7A6FA0220401EFDD2C722E2
:102F700013216020FDF79EFA0220401EFDD23A2266
:102F800014216020FDF796FA0220401EFDD208228F
:102F900015216020FDF78EFA0220401EFDD224226A
:102FA00016216020FDF786FA0220401EFDD218226D
:102FB00017216020FDF77EFA0220401EFDD2042278
:102FC00018216020FDF776FA0220401EFDD2012272
:102FD00019216020FDF76EFA0220401EFDD28122E9
:102FE0001A216020FDF766FA0220401EFDD2202241
:102FF0001E216020FDF75EFA0220401EFDD23C2219
:1030000024216020FDF756FA0220401EFDD2362210
:1030100025216020FDF74EFA0220401EFDD27222CB
:1030200026216020FDF746FA0220401EFDD208222C
:1030300027216020FDF73EFA0220401EFDD2082223
:1030400028216020FDF736FA0220401EFDD215220D
:1030500029216020FDF72EFA0220401EFDD2002219
:103060002A216020FDF726FA0220401EFDD2002210
:103070002B216020FDF71EFA0220401EFDD20822FF
:103080002C216020FDF716FA0220401EFDD2A4225A
:1030900032216020FDF70EFA0220401EFDD20022F0
:1030A00033216020FDF706FA0220401EFDD23F22A8
:1030B00034216020FDF7FEF90220401EFDD20022DF
:1030C00035216020FDF7F6F90220401EFDD23A229C
:1030D00036216020FDF7EEF90220401EFDD272225B
:1030E00038216020FDF7E6F90220401EFDD257226C
:1030F00039216020FDF7DEF90220401EFDD2CC22EE
:103100003A216020FDF7D6F90220401EFDD20422AC
:103110003B216020FDF7CEF90220401EFDD299220E
:103120003D216020FDF7C6F90220401EFDD20E228F
:103130003E216020FDF7BEF90220401EFDD2C122D3
:103140003F216020FDF7B6F90220401EFDD2C022CB
:1031500040216020FDF7AEF90220401EFDD2412241
:1031600011466020FDF7A6F90220401EFDD2C022C4
:1031700042216020FDF79EF90220401EFDD20A2266
:1031800043216020FDF796F90220401EFDD2F02277
:1031900044216020FDF78EF90220401EFDD2462218
:1031A00045216020FDF786F90220401EFDD26222F3
:1031B00046216020FDF77EF90220401EFDD22A2222
:1031C00047216020FDF776F90220401EFDD23C2207
:1031D00048216020FDF76EF90220401EFDD2FC223E
:1031E0004A216020FDF766F90220401EFDD2FC2234
:1031F0004B216020FDF75EF90220401EFDD27F22A8
:103200004C216020FDF756F90220401EFDD27F229E
:103210004D216020FDF74EF90220401EFDD27F2295
:103220004E216020FDF746F90220401EFDD2982273
:103230004F216020FDF73EF90220401EFDD298226A
:10324000502101E0000002406020FDF733F9022028
:10325000401EFDD2002251216020FDF72BF90220F3
:10326000401EFDD2282252216020FDF723F90220C2
:10327000401EFDD2702253216020FDF71BF9022071
:10328000401EFDD2982254216020FDF713F9022040
:10329000401EFDD21A2258216020FDF70BF90220B2
:1032A000401EFDD2852259216020FDF703F902203E
:1032B000401EFDD2A9225A216020FDF7FBF8022012
:1032C000401EFDD264225B216020FDF7F3F802204E
:1032D000401EFDD284225C216020FDF7EBF8022025
:1032E000401EFDD253225D216020FDF7E3F802204D
:1032F000401EFDD20E225E216020FDF7DBF8022089
:10330000401EFDD2F0225F216020FDF7D3F802209D
:10331000401EFDD26021F0220846FDF7CBF80220C6
:10332000401EFDD2F02261216020FDF7C3F802208B
:10333000401EFDD2002262216020FDF7BBF8022072
:10334000401EFDD2002263216020FDF7B3F8022069
:10335000401EFDD2022264216020FDF7ABF802205E
:10336000401EFDD2202265216020FDF7A3F8022037
:10337000401EFDD2002266216020FDF79BF802204E
:10338000401EFDD20A2269216020FDF793F8022039
:10339000401EFDD21A226B216020FDF78BF802201F
:1033A000401EFDD204226C216020FDF783F802202C
:1033B000401EFDD255226D216020FDF77BF80220D2
:1033C000401EFDD200226E216020FDF773F802201E
:1033D000401EFDD29D226F216020FDF76BF8022078
:1033E000401EFDD2212270216020FDF763F80220EB
:1033F000401EFDD2782271216020FDF75BF802208B
:10340000401EFDD2222272216020FDF753F80220D7
:10341000401EFDD2022273216020FDF74BF80220EE
:10342000401EFDD2102274216020FDF743F80220D7
:10343000401EFDD2102275216020FDF73BF80220CE
:10344000401EFDD2012276216020FDF733F80220D4
:10345000401EFDD2022277216020FDF72BF80220CA
:10346000401EFDD212227A216020FDF723F80220AF
:10347000401EFDD208227B216020FDF71BF80220B0
:10348000401EFDD216227C216020FDF713F8022099
:10349000401EFDD230227D216020FDF70BF8022076
:1034A000401EFDD25E227E216020FDF703F802203F
:1034B000401EFDD272227F216020FCF7FBFF02201C
:1034C000401EFDD2822280216020FCF7F3FF022003
:1034D000401EFDD28E2281216020FCF7EBFF0220EE
:1034E000401EFDD29A2282216020FCF7E3FF0220D9
:1034F000401EFDD2A42283216020FCF7DBFF0220C6
:10350000401EFDD2AC2284216020FCF7D3FF0220B4
:10351000401EFDD2B82285216020FCF7CBFF02209F
:10352000401EFDD2C32286216020FCF7C3FF02208B
:10353000401EFDD2D62287216020FCF7BBFF02206F
:10354000401EFDD2E62288216020FCF7B3FF022056
:10355000401EFDD2F22289216020FCF7ABFF022041
:10356000401EFDD224228A216020FCF7A3FF022006
:10357000401EFDD280228C216020FCF79BFF0220A0
:10358000401EFDD27D2290216020FCF793FF022097
:10359000401EFDD27B2291216020FCF78BFF022090
:1035A000401EFDD202229D216020FCF783FF0220F5
:1035B000401EFDD202229E216020FCF77BFF0220EC
:1035C000401EFDD27A229F216020FCF773FF02206B
:1035D000401EFDD27922A0216020FCF76BFF022063
:1035E000401EFDD24022A1216020FCF763FF022093
:1035F000401EFDD25022A4216020FCF75BFF022078
:10360000401EFDD26822A5216020FCF753FF022056
:10361000401EFDD24A22A6216020FCF74BFF02206B
:10362000401EFDD2C122A8216020FCF743FF0220EA
:10363000401EFDD2EF22A9216020FCF73BFF0220B3
:10364000401EFDD29222AA216020FCF733FF022007
:10365000401EFDD20422AB216020FCF72BFF02208C
:10366000401EFDD28022AC216020FCF723FF022007
:10367000401EFDD28022AD216020FCF71BFF0220FE
:10368000401EFDD28022AE216020FCF713FF0220F5
:10369000401EFDD28022AF216020FCF70BFF0220EC
:1036A000401EFDD2F222B2216020FCF703FF02206F
:1036B000401EFDD22022B3216020FCF7FBFE022039
:1036C000401EFDD22022B4216020FCF7F3FE022030
:1036D000401EFDD20022B5216020FCF7EBFE022047
:1036E000401EFDD2AF22B6216020FCF7E3FE02208F
:1036F000401EFDD2AF22B6216020FCF7DBFE022087
:10370000401EFDD2AE22BB216020FCF7D3FE02207A
:10371000401EFDD27F22BC216020FCF7CBFE0220A0
:10372000401EFDD27F22BD216020FCF7C3FE022097
:10373000401EFDD27F22BE216020FCF7BBFE02208E
:10374000401EFDD27F22BF216020FCF7B3FE022085
:10375000401EFDD27F22BF216020FCF7ABFE02207D
:10376000401EFDD2AA22C0216020FCF7A3FE022049
:10377000401EFDD2C022C1216020FCF79BFE02202A
:10378000401EFDD20122C2216020FCF793FE0220E0
:10379000401EFDD24E22C3216020FCF78BFE02208A
:1037A000401EFDD20522C6216020FCF783FE0220C8
:1037B000401EFDD28222C7216020FCF77BFE022042
:1037C000401EFDD2E022C9216020FCF773FE0220DA
:1037D000401EFDD2E822CA216020FCF76BFE0220C9
:1037E000401EFDD2F022CB216020FCF763FE0220B8
:1037F000401EFDD2D822CC216020FCF75BFE0220C7
:10380000401EFDD29322CD216020FCF753FE022002
:10381000401EFDD210BD38B504466A461C2160200A
:10382000FCF798FE9DF8000020706A461D2160207C
:10383000FCF790FE9DF8000060706A460B21602046
:10384000FCF788FE9DF80000A0706A460A216020FF
:10385000FCF780FE9DF80000E07038BD02461121A3
:103860006020FCF727BE024612216020FCF722BE32
:10387000024612216020FCF71DBE0A460146602068
:10388000FCF718BE024632216020FCF713BE024648
:1038900040216020FCF70EBE4FF47A7302E0194617
:1038A000491EFDD2401EFAD27047000009488047E9
:1038B00009480047FEE7FEE7FEE7FEE7FEE7FEE712
:1038C000FEE7FEE7FEE7FEE704480549054A064B2A
:1038D00070470000AD4E00088901000898000020E4
:1038E00098060020980200209802002028490843EA
:1038F00028490860704770B50F23C2780178012409
:103900004FF0E025EAB1234A1268867802F4E062BB
:10391000C2F5E062C2F30722D340C2F1040C427840
:103920001E4002FA0CF21C4B16433201CA540078B6
:1039300000F01F018C40400905EB8000C0F80041F9
:1039400070BD01F01F008440480905EB8000C0F8FD
:10395000804170BD114A114001430E48001F0160B3
:1039600070470C4A121D0029116801D0014300E084
:103970008143116070474FF0E0210428086903D0AB
:1039800020F004000861704740F00400FAE70000EE
:103990000000FA050CED00E000E400E080FFFF1FEE
:1039A0004C4800210160C1601F2242618161C161F8
:1039B00001624162704730B546490A6844F201032A
:1039C0009A430A600A6840F6F2739A43038844886F
:1039D000C588234384882C43234304892343448993
:1039E00080892343034313430B6030BD00210180D2
:1039F00041808180C180018141818181704701685E
:103A00004FEA314233490A6240684FEA3040486227
:103A1000704730490028086802D040F0040001E0F7
:103A200020F0040008607047C178006861F31F60EF
:103A300028498861704727490028086802D040F06B
:103A4000080001E020F008000860704721490028C4
:103A5000086802D040F4804001E020F48040086013
:103A600070471C490028086802D040F0010001E0BE
:103A700020F00100086070471648806A7047154AB8
:103A80000029D16801D0014302E0C04380B2014067
:103A9000D160704703460020190B0E4A012906D059
:103AA000022906D01169194200D00120704791689F
:103AB000F9E75168F7E70749486170470549024649
:103AC00000200969114200D0012070470149486176
:103AD00070470000000005502DE9F043016821F017
:103AE000010101600021016041608160C1600161EC
:103AF00021214161B849B84B3D221039984202D189
:103B00008A60BDE8F083B44C4FF474631834A0426B
:103B100001D18B60F5E7B04D4FF474143035A842F5
:103B200001D18C60EDE7AC4E4FF074654836B04281
:103B300001D18D60E5E7A84FA84E6037B84201D1AA
:103B4000CE60DEE7A44FDFF898C27837B84202D1E2
:103B5000C1F80CC0D5E7A04FDFF888829037B84293
:103B600002D1C1F80C80CCE79B4F4FF03D59A837EC
:103B7000B84202D1C1F80C90C3E79B499A4F08396B
:103B8000B84201D10A60BCE7974A1832904201D18D
:103B90000B60B6E7944A3032904201D10C60B0E736
:103BA000914A4832904201D10D60AAE78E4A8E496F
:103BB0006032091F904201D10E60A2E78A4A783232
:103BC000904202D1C1F800C09BE7874A90329042F0
:103BD00002D1C1F8008094E7834AA832904290D184
:103BE000C1F800908DE730B50368804ACC68134077
:103BF0000A682243D1E905452C432243CC6922437C
:103C00000C6A22434C6A22438C6A22434C6B224347
:103C10008C6B22431A430260426922F00703D1E908
:103C20000B2422431A4342610A6942604A68826057
:103C30008968C16030BD0021016041608160C16060
:103C4000016141618161C161016241628162C16260
:103C500001634163816370470029016802D041F02C
:103C6000010101E021F001010160704700290168B4
:103C700002D041F4004101E021F4004101607047AD
:103C80000029016802D041F0200101E021F020016B
:103C90000160704741607047406880B27047002AF9
:103CA000026802D042F4002201E022F40022026005
:103CB000016170470029016802D041F4802101E0D0
:103CC00021F48021016070470AB101617047C16031
:103CD0007047014600200968090300D5012070479C
:103CE000014600200968C90700D0012070474069DB
:103CF00000F03800704702463B4B00209A4202D247
:103D0000354A103A01E0384A103A8B0001D5526822
:103D100000E01268364B1A400A4200D0012070477A
:103D2000314A904202D22C48103801E02E48103817
:103D30002F4A8B0001EA020101D5C1607047816002
:103D400070470B0607D5436912B143F0800301E0C9
:103D500023F080034361802908D0002A026801F023
:103D60001E0101D00A4300E08A430260704710B58B
:103D70001D4A0024904202D2174A103A01E01A4A22
:103D8000103A1C4B194206D01E2303EAD12C0368BB
:103D900003EA0C0302E0406900F08003880001D5CB
:103DA000506800E01068124A1040084201D003B188
:103DB0000124204610BD0C4A904202D20648103819
:103DC00001E0094810380A4A8B0001EA020101D5D6
:103DD000C160704781607047106002403D00002064
:103DE000400F002000003D20106402403F801CF086
:103DF0007D0F7D0F3C0F3C0F4FF0204202EB800106
:103E000040B143F2D20008606FF070404860C1F8E2
:103E10000401704743F2DB001060F5E730B5D0E9EC
:103E200001121143D0E903231A4311434269036885
:103E3000114382691143C2691143026A1143426A04
:103E40001143826A1143C26A1143026B11434FF05E
:103E5000204242F823108168082906D1016802EB4C
:103E600081010B6843F040030B60416BD1E90034E2
:103E700043EA04138C68CD68240244EA05442343D2
:103E80000C6943EA04534C69896943EA04630B43B0
:103E9000016802EB81014B60C16AB1F5804F07D028
:103EA00000686FF0704102EB8000C0F8041130BD73
:103EB000816B0068D1E9003443EA04138C680D6912
:103EC000240244EA055423434C69896943EA0463A4
:103ED00002EB80000B43C0F8043130BD10B5002167
:103EE0000222C0E900128160C1600161416181610B
:103EF000D202C161C0E908125200C0E90A2101637F
:103F0000436B0F221A60436B5A60446BFF23A3601C
:103F1000446BE260446B2261446B6261446BA1615B
:103F2000846B2260846B6260846BA360836BDA6055
:103F3000836B1A61836B5A61806B816110BD4FF096
:103F4000204202EB80000029016802D041F001010B
:103F500001E0C94A11400160704710B518234024A0
:103F60004FF020414FF0FC32102805D041F8803F3F
:103F70004C608A60CA6010BD0B664C668A66CA6671
:103F800010BD10B5D0E901121143D0E903231A4343
:103F90001143426941EA4221826941EA423141F0DA
:103FA000080CC169D1E9002342EA03228B68C96881
:103FB0001B0443EA01610A43016AD1E9003443EA80
:103FC00004238C68C968240444EA01610B43016836
:103FD0004FF02040102904D040F880CF8260C360A9
:103FE00010BDC0F860C08266C36610BD10210160BC
:103FF000002141608160C160016141618161C269EC
:10400000FC211160C2695160C2699160C269D160CE
:10401000026A1160026A5160026A9160006AC160BE
:1040200070474FF0204251B1102804D052F8800F51
:1040300040F004000AE0106E40F004000AE08E49EF
:10404000C91E102804D052F8800F08401060704735
:10405000106E0840106670474FF0204251B1102892
:1040600004D052F8800F40F040000AE0106E40F09B
:1040700040000AE080493F39102804D052F8800FF0
:10408000084010607047106E0840106670474FF08F
:104090002041102802D0D1F894007047486F704733
:1040A0007648182101604FF0000141604FF0FC316B
:1040B0008160C1600161704710B5D0E9001241EA2A
:1040C00042218268102343EA423211436B4A116055
:1040D000C168D1E9003443EA04238C68C9684FEA17
:1040E000044444EA016143EA010393600169D1E9B0
:1040F000003443EA04238C68C9684FEA044444EA64
:10410000016143EA0103D3604069D0E9001341EA49
:1041100003218368C0684FEA034343EA006041EA31
:104120000001116110BD0021016041608160C26821
:10413000FC211160C2685160C2689160C268D160A0
:104140000269116002695160026991600269D1607F
:104150004269116042695160426991604069C16081
:10416000704746490028086802D040F0040002E089
:10417000414AD21E10400860704710B54FF4807459
:104180004FF0204382B1102804D0A04205D103F1A2
:10419000840304E0586E08430FE003F1A403186899
:1041A00040EA0100186010BD102804D0A04206D1DA
:1041B00003F1840305E0586E8843586610BD03F18F
:1041C000A403186820EA0100ECE7034600204FF042
:1041D0002042102B08D0B3F5807F07D0D2F8A4205E
:1041E0000A4200D001207047526EF9E7D2F88420CD
:1041F000F6E74FF02042102809D0B0F5807F0AD0B2
:1042000002F1A402106820EA010010607047506EAD
:1042100088435066704702F18402F3E703460020AA
:104220004FF02042102B0CD0B3F5807F0BD0D2F88A
:10423000A4200A4202EAD10102D0002900D00120C4
:104240007047526EF5E7D2F88420F2E74FF0204233
:10425000102809D0B0F5807F0BD002F1A4021068BD
:1042600020EAD10010607047506E20EAD1005066FD
:10427000704702F18402F2E7FEFF0F00A00000A0E9
:10428000704910B5884206D10121084600F0D5FBDF
:10429000002101204FE06C49884206D10121022013
:1042A00000F0CBFB0021022045E06849884206D19E
:1042B0000121042000F0C1FB002104203BE06449FF
:1042C000884206D10121082000F0B7FB0021082018
:1042D00031E06049884206D10121102000F0ADFB99
:1042E0000021102027E05C49884206D101212020CE
:1042F00000F0A3FB002120201DE05849884206D190
:104300000121402000F099FB0021402013E0544996
:10431000884206D10121802000F08FFB00218020FF
:1043200009E0504988420AD184150121204600F055
:1043300084FB00212046BDE8104000F07EBB10BD8C
:10434000F0B5002201264FF0030C0C6806FA02F3C8
:104350001C409C422DD1056853000CFA03F4A54380
:1043600005600D7907689D403D4305600D79012D7D
:1043700001D0022D12D18568A54385604C798568EE
:104380009C402C438460446806FA02F5AC434460C8
:1043900044688D799540ADB22C434460C4685500A3
:1043A0000CFA05F7BC43C460CC799C40C3681C433D
:1043B000C460521C102AC8D3F0BD4FF6FF710160D3
:1043C0000021017141718171C171704741F48032E6
:1043D000C261C161C261C169C06970470246002003
:1043E00012690A4200D001207047006980B270470C
:1043F0000246002052690A4200D0012070474069FD
:1044000080B2704701837047418370470AB10183CE
:104410007047418370474161704742694A40426139
:1044200070474B07DB0E9A40C90810B500EB8100BE
:10443000016A0F249C40A1430162016A1143016299
:1044400010BD0000000002400004024000080240CD
:10445000000C02400010024000140240001802400C
:10446000001C024000200240C44910B5884202D11D
:1044700001214C050AE0C249884202D101218C0584
:1044800004E0C04988420AD10121CC05204600F051
:10449000F2FA2046BDE81040002100F0ECBA10BD51
:1044A0007FB5044680880D4620F03F06684600F040
:1044B0002CFAB5490298B0FBF1F189B20E43A680FF
:1044C000228822F001022280B04B2A689A421BD82F
:1044D0005200B0FBF2F080B2042800D20420491C44
:1044E0002184A083208840F00100208020884FF69E
:1044F000F5310840A9886A89114301432180A889C0
:104500002989084320817FBDEB88A3F53F46FF3E04
:1045100005D102EB4202B0FBF2F080B208E002EB00
:10452000C20303EB0212B0FBF2F080B240F4804011
:10453000020501D140F001004FF4967251434FF44F
:104540007A72B1FBF2F140F40040C8E741F28831E1
:104550000160002181804BF6FF72C28001814181A0
:104560004FF48041818170470029018802D041F0D9
:10457000010101E021F0010101807047002901885B
:1045800002D041F4807101E021F480710180704714
:104590000029018802D041F4007101E021F400718A
:1045A0000180704712B141F0010101E001F0FE010C
:1045B000018270470029018802D041F4806101E046
:1045C00021F4806101807047828901F0FE0122F0B0
:1045D000FE021143818170470029818902D041F098
:1045E000010101E021F0010181817047002901886A
:1045F00002D041F0400101E021F04001018070470C
:104600000029018802D041F4004101E0C1F30E010C
:10461000018070470029018803D021F080010180CA
:10462000704741F08001FAE7B1F5804F818B02D0ED
:1046300021F4804101E041F4804181837047B1F56C
:10464000006F018803D021F400610180704741F4BC
:104650000061FAE7B1F5005F018803D021F4005151
:104660000180704741F40051FAE70029018802D027
:1046700041F0100101E021F010010180704701823A
:104680007047008AC0B270470029018802D041F407
:10469000805101E021F4805101807047B1F5006F35
:1046A000018803D021F400610180704741F400616A
:1046B000FAE70029018802D041F0200101E021F051
:1046C000200101807047008B000A70470029818813
:1046D00002D041F4006101E021F400618180704763
:1046E0000029818802D041F4805101E021F48051F9
:1046F00081807047405A7047002A828801D00A435F
:1047000000E08A4382807047034600209A8A1B8B10
:1047100042EA034222F07F42914300D101207047D8
:10472000818A008B41EA004121F07F4070470022DE
:104730000B0F21F07F4101D0143001E0090C18303B
:104740000068084200D0012210467047C9438182A8
:10475000704710B502460020938801F0E064928A09
:1047600003EA144321F07F410A4202D0002B00D01B
:10477000012010BDC94381827047000000540040F1
:1047800000580040005C004040420F00A08601003D
:10479000EB48016841F001010160E94A002108325B
:1047A00011600268E74B1A400260031DE64A1A6076
:1047B000026822F480220260E1480C3001607047F8
:1047C000DF490022891C0A700870704702460020E9
:1047D000510901290CD002290CD0D949743109683A
:1047E00002F01F02012393400B4200D001207047CA
:1047F000D349F4E7D2497031F1E710B54FF0000C1E
:104800004FF4A0643120FFF7E1FF0CF1010CA44547
:1048100001D00028F6D03120FFF7D8FF002800D0C3
:10482000012010BDC64A116821F0F80141EAC0001C
:1048300010607047C54908607047C1490022703157
:104840000A700A70012802D0042801D105200870DE
:104850007047BF490860704741EA82115A08BD4B52
:10486000DDF800C003EB02421143014341EA0C6052
:10487000B349091D08607047B44908667047800154
:1048800040EA0170AE49843108607047AF498866DC
:104890007047AE49C8647047A94B08331A6808438B
:1048A00022F0EC62104318607047A54B08331A6879
:1048B000084322F07842104318607047A04A08323B
:1048C000116821F003010143116070479C480830D2
:1048D000006800F00C007047994A0832116821F016
:1048E000F001014311607047954A0832116821F4C4
:1048F000E051014311607047914A0832116821F478
:10490000604141EAC000106070478D4B30B50833FC
:104910001968914C11F00C0104D06510042903D0E2
:10492000082903D004601DE005601BE0844A121DC5
:104930001168C1F3805C1168BCF1000F01F03F0108
:1049400002D0B5FBF1F101E0B4FBF1F1146812689B
:10495000C4F388146143C2F30142521C5200B1FBFC
:10496000F2F1016019687D4A01F0F0010909545C17
:104970000168E14041601C6804F4E054A40A145D3D
:1049800021FA04F484601B6803F460435B0BD25C7F
:10499000D140C16030BDC0F30121032908D1684B6B
:1049A000083319686E4A21F4F81102400A431A606C
:1049B000634970310A68C0F30B0002430A60704714
:1049C000634944390860704761494039086070475D
:1049D0006449086070475A4A30320029116801D092
:1049E000014300E0814311607047554A3432002989
:1049F000116801D0014300E0814311607047504AC3
:104A000038320029116801D0014300E08143116070
:104A100070474B4A40320029116801D0014300E041
:104A2000814311607047464A44320029116801D021
:104A3000014300E0814311607047414A1032002970
:104A4000116801D0014300E08143116070473C4A86
:104A500014320029116801D0014300E08143116044
:104A60007047374A18320029116801D0014300E02D
:104A7000814311607047324A20320029116801D009
:104A8000014300E08143116070472D4A2432002920
:104A9000116801D0014300E0814311607047284A4A
:104AA00050320029116801D0014300E081431160B8
:104AB0007047234A54320029116801D0014300E0B5
:104AC0008143116070471E4A58320029116801D095
:104AD000014300E0814311607047194A60320029A8
:104AE000116801D0014300E0814311607047144A0E
:104AF00064320029116801D0014300E08143116054
:104B000070470F4A0D320029117801D0014300E0AF
:104B10008143117070470A487430016841F0807118
:104B2000016070470146064A00200C3212680A42B2
:104B300000D00120704702490E3108707047000014
:104B400000380240FFFFF6FE10300024000047420C
:104B5000800E47420000FFFF0024F40010000020F8
:104B6000FFFCFF0F5C014742CA4910B5884206D1DD
:104B700001211020FFF789FF0021102028E0C649FD
:104B8000884202D101214C0410E0C449884202D17C
:104B900001218C040AE0C249884202D10121CC04DF
:104BA00004E0C04988420AD101210C052046FFF7E4
:104BB00062FF2046BDE810400021FFF75CBFBA4904
:104BC000884209D101212020FFF75FFF002120202A
:104BD000BDE81040FFF759BF10BD7FB50446008AFD
:104BE0000D4620F44051E88808432082A18941F213
:104BF0000C608143A8882A8910436A890A431043BC
:104C0000A081A08A20F44071A8890843A082684648
:104C1000FFF77BFE9F48844202D0A348844201D123
:104C2000039800E00298A1890904002900EBC00163
:104C300001EB0010296802DA4FEA410101E04FEA76
:104C40008101B0FBF1F06422B0FBF2F14FEA0111F7
:104C50004FEA11136FF018056B4300EB8300A38933
:104C60001D044FF0320306D503EBC000B0FBF2F099
:104C700000F0070005E003EB0010B0FBF2F000F0DD
:104C80000F00084320817FBD4FF4165101600021C1
:104C90008180C18001810C2242818181704710B5E1
:104CA000028A4C8822F470630A8822438C88C9885F
:104CB0000C4322431A43028210BD0021018041802F
:104CC0008180C18070470029818902D041F4005160
:104CD00001E021F4005181817047028B02F47F4290
:104CE0000283028B0A43028370470029818902D024
:104CF00041F4004101E0C1F30E01818170470029B8
:104D0000818A02D041F4006101E021F400618182D6
:104D10007047C1F30801818070478088C0F30800A4
:104D20007047028A22F00F020282028A0A4302823C
:104D300070470029818902D041F0020101E021F091
:104D4000020181817047828922F400628281828916
:104D50000A4382817047028A22F020020282028A7C
:104D60000A43028270470029018A02D041F480413F
:104D700001E021F4804101827047818941F0010105
:104D8000818170470029818A02D041F0080101E049
:104D900021F0080181827047028BD2B20283028B1C
:104DA00042EA0121018370470029818A02D041F043
:104DB000200101E021F02001818270470029818AD1
:104DC00002D041F0100101E021F010018182704712
:104DD000828A22F004028282828A0A438282704797
:104DE0000029818A02D041F0020101E021F0020194
:104DF00081827047002A828A01D00A4300E08A43F8
:104E000082827047C1F3421301F01F0C012101FAA5
:104E10000CF1012B07D0022B07D01430002A0268B6
:104E200005D00A4304E00C30F8E71030F6E78A4377
:104E3000026070470246002012880A4200D001201A
:104E40007047C9430180704730B501F01F0C012540
:104E50000024C1F3421305FA0CF2012B0FD0022BF0
:104E60000FD0838A4FEA11210088134205FA01F519
:104E700000EA050001D000B10124204630BD83893D
:104E8000F0E7038AEEE70A0A01219140C943018055
:104E900070470000001001400044004000480040FE
:104EA000004C00400050004000140140514810B533
:104EB000016841F4700101604F48016841F001014F
:104EC00001604D4A00210832116002684B4B1A40C4
:104ED0000260031D4A4A1A60026822F480220260BE
:104EE00045480C30016000F03EF842494FF0006048
:104EF0008039086010BD30B53F4C08342068414B04
:104F0000414910F00C0004D05D10042803D008289B
:104F100003D00B601DE00D601BE0374A121D1068C6
:104F2000C0F3805C1068BCF1000F00F03F0002D0BD
:104F3000B5FBF0F001E0B3FBF0F013681268C3F3C7
:104F400088135843C2F30142521C5200B0FBF2F0E6
:104F5000086020682C4AC0F30310121D105C0A6818
:104F6000C2400A6030BD244A0020116841F48031FB
:104F700011604FF4A063116800F1010011F4003FCB
:104F800001D19842F7D11068800331D51A484030DA
:104F9000016841F0805101601C48016841F4804182
:104FA00001601548083001680160016841F4004162
:104FB0000160016841F4A0510160031F14491960A8
:104FC000116841F08071116011688901FCD5114AA6
:104FD00040F205611160016821F003010160016880
:104FE00041F0020101600168C1F381010229FAD197
:104FF0007047000088ED00E000380240FFFFF6FE39
:10500000103000240024F400200000200070004034
:1050100008544007003C0240704700000FB40449A8
:1050200010B503AA029800F04DF910BC5DF814FB0E
:105030000C0000202DE9F04104460E4600200AE055
:10504000E1682046884738B3252806D0D4E90121F5
:105050009047206A401C2062F2E7E1682046002762
:105060008847050018D0A5F14100192802D820353D
:105070004FF400673246294620462760FBF7BEF80A
:1050800040B1012804D0F61D26F007060836D7E700
:10509000361DD5E72846D9E7206ABDE8F08170B50E
:1050A00005460C46012A05D02868800600D5EA6925
:1050B000002302E0012305E05B1C934202D2E05C86
:1050C0000028F9D1A869E618C01AA861286A18440E
:1050D00028622846AFF3008004E0D5E9012114F8E6
:1050E000010B9047B442F8D32846AFF3008070BD5F
:1050F00070B504460D4621461068AFF30080216864
:10510000090502D5104A7A4402E00F4A7A440E3269
:10511000002104F1240307E000F00F064FEA10100D
:10512000965D5E5401F101010028F5D10346206827
:10513000000704D5702D02D009B111320223204698
:10514000BDE8704000F04BB8E4080000032A40F2CC
:10515000308010F0030C00F0158011F8013BBCF119
:10516000020F624498BF11F801CB00F8013B38BF31
:1051700011F8013BA2F1040298BF00F801CB38BF3F
:1051800000F8013B11F0030300F0AE80083AC0F0D4
:10519000088051F8043B083A51F804CBA0E8081005
:1051A000F5E7121D5CBF51F8043B40F8043BAFF338
:1051B0000080D20724BF11F8013B11F801CB48BF92
:1051C00011F8012B24BF00F8013B00F801CB48BFC8
:1051D00000F8012B704770477047704770472DE902
:1051E000F0470D4604469246994600F124080168AE
:1051F000880604D5E06921F01001216000E001205B
:10520000A84202DDA0EB050700E00027A16907EB3B
:10521000050202EB0900A1EB0000A0612068C006B6
:1052200002D42046AFF30080002608E0D4E9012133
:105230001AF806009047206A401C761C20624E45F2
:10524000F4DB2068C0060AD52046AFF3008006E0F4
:10525000D4E9012130209047206A401C2062381E8A
:10526000A7F10107F4DC07E0D4E9012118F80500F3
:105270009047206A401C2062281EA5F10105F3DC3E
:105280002046AFF300802068000602D50220BDE86A
:10529000F0870120FBE710B5436913B1AFF300803D
:1052A00001E0FFF7FCFE012010BD126800F12401AF
:1052B0000A7000224A700122EDE711684FF0FF32B8
:1052C000E9E70000074B70B50C467B4400F043F85B
:1052D0000546204600F052F810B14FF0FF3070BD87
:1052E000284670BD67CFFFFF10B5203AC0F00B8095
:1052F000B1E81850203AA0E81850B1E81850A0E8DA
:105300001850BFF4F5AF5FEA027C24BFB1E8185033
:10531000A0E8185044BF18C918C0BDE810405FEAA3
:10532000827C24BF51F8043B40F8043B08BF70471F
:10533000D20728BF31F8023B48BF11F8012B28BF24
:1053400020F8023B48BF00F8012B704701694A1C56
:1053500002610878704700B58FB0CDE901310021B6
:10536000059105497944CDE9031011466846FFF7D8
:1053700061FE0FB000BD0000E5FFFFFFC06800F058
:1053800080007047754600F029F8AE460500694672
:10539000534620F00700854618B020B5FEF794FA72
:1053A000BDE820404FF000064FF000074FF0000826
:1053B0004FF0000B21F00701AC46ACE8C009ACE8A7
:1053C000C009ACE8C009ACE8C0098D467047044686
:1053D000AFF300802046FAF728FF0000004870472E
:1053E000340000204FF0DE421080014801807047F9
:1053F0000000016F4FF04070E1EE100A70470000AE
:10540000000000000000000000000000000000009C
:1054100000183C3C3C181800181800000000000060
:10542000006666660000000000000000000000004A
:105430000036367F3636367F3636000000000018DC
:10544000183C666030180C06663C18180000000016
:1054500070D8DA760C18306E5B1B0E00000000006E
:1054600000386C6C38606F66663B0000000000001E
:1054700000181818000000000000000000000000E4
:10548000000C1818303030303018180C00000000B4
:10549000003018180C0C0C0C0C1818300000000010
:1054A000000000361C7F1C360000000000000000D9
:1054B00000000018187E181800000000000000000E
:1054C00000000000000000001C1C0C180000000080
:1054D00000000000007E000000000000000000004E
:1054E00000000000000000001C1C00000000000084
:1054F0000006060C0C181830306060000000000038
:10550000001E333737333B3B331E000000000000E2
:10551000000C1C7C0C0C0C0C0C0C0000000000009F
:10552000003C6666060C1830607E0000000000003B
:10553000003C6666061C0666663C00000000000033
:10554000003030363636667F060600000000000068
:10555000007E6060607C06060C78000000000000A1
:10556000001C18307C666666663C00000000000087
:10557000007E060C0C1818303030000000000000CF
:10558000003C6666763C6E66663C000000000000EB
:10559000003C666666663E0C18380000000000009D
:1055A0000000001C1C0000001C1C0000000000008B
:1055B0000000001C1C0000001C1C0C180000000057
:1055C00000060C18306030180C06000000000000C7
:1055D000000000007E007E000000000000000000CF
:1055E000006030180C060C1830600000000000004D
:1055F000003C66660C181800181800000000000037
:10560000007EC3C3CFDBDBCFC07F00000000000003
:1056100000183C6666667E66666600000000000054
:10562000007C6666667C6666667C000000000000A2
:10563000003C666660606066663C0000000000003A
:1056400000786C66666666666C7800000000000094
:10565000007E6060607C6060607E00000000000092
:10566000007E6060607C60606060000000000000A0
:10567000003C666660606E66663E000000000000EA
:1056800000666666667E666666660000000000006C
:10569000003C181818181818183C000000000000EA
:1056A0000006060606060666663C000000000000CE
:1056B0000066666C6C786C6C66660000000000002A
:1056C0000060606060606060607E0000000000005C
:1056D000006363776B6B6B63636300000000000023
:1056E000006363737B6F6763636300000000000007
:1056F000003C666666666666663C00000000000068
:10570000007C6666667C60606060000000000000EF
:10571000003C666666666666663C0C060000000035
:10572000007C6666667C6C666666000000000000B1
:10573000003C666030180C06663C0000000000006B
:10574000007E18181818181818180000000000001B
:105750000066666666666666663C000000000000DD
:1057600000666666666666663C180000000000001B
:10577000006363636B6B6B3636360000000000001D
:105780000066663418182C6666660000000000008B
:1057900000666666663C18181818000000000000D5
:1057A000007E06060C183060607E000000000000DD
:1057B000003C303030303030303030303C00000091
:1057C000006060303018180C0C0606000000000065
:1057D000003C0C0C0C0C0C0C0C0C0C0C3C000018C1
:1057E0003C66000000000000000000000000000017
:1057F000000000000000000000000000FF000000AA
:105800000018181800000000000000000000000050
:105810000000003C06063E66663E000000000000F8
:105820000060607C66666666667C000000000000C2
:105830000000003C66606060663C00000000000004
:105840000006063E66666666663E000000000000D2
:105850000000003C66667E60603C000000000000C6
:10586000001E3030307E303030300000000000004C
:105870000000003E66666666663E06067C00000026
:105880000060607C66666666666600000000000078
:105890001818007818181818187E0000000000006A
:1058A0000C0C003C0C0C0C0C0C0C0C0C78000000CC
:1058B00000606066666C786C666600000000000040
:1058C0000078181818181818187E0000000000003A
:1058D0000000007E6B6B6B6B6B63000000000000D0
:1058E0000000007C666666666666000000000000D8
:1058F0000000003C66666666663C00000000000032
:105900000000007C66666666667C60606000000081
:105910000000003E66666666663E060606000000FB
:10592000000000666E7060606060000000000000B3
:105930000000003E60603C06067C000000000000A5
:105940000030307E30303030301E0000000000006B
:105950000000006666666666663E000000000000A5
:1059600000000066666666663C18000000000000E5
:10597000000000636B6B6B6B3636000000000000AC
:1059800000000066663C183C6666000000000000EF
:105990000000006666666666663C0C18F000000053
:1059A0000000007E060C1830607E00000000000041
:1059B000000C1818183060301818180C000000007F
:1059C00000181818181818181818181818000000B7
:1059D00000301818180C060C1818183000000000B9
:1059E0000071DB8E0000000000000000000030317C
:1059F00032333435363738394142434445464030F6
:105A000058003031323334353637383961626364A7
:105A10006566403078000000385A00080000002019
:105A200034000000C40100086C5A00083400002053
:105A300064060000E00100080000000010270000DC
:105A4000000000000000000000000000010203044C
:105A50000102030406070809007A030A0000000097
:0C5A600000000000010203040607080912
:040000050800018965
:00000001FF
